{
  "contractName": "ElectionContract",
  "abi": [
    {
      "inputs": [],
      "payable": false,
      "stateMutability": "nonpayable",
      "type": "constructor",
      "signature": "constructor"
    },
    {
      "anonymous": false,
      "inputs": [
        {
          "indexed": false,
          "internalType": "address",
          "name": "_address",
          "type": "address"
        },
        {
          "indexed": false,
          "internalType": "string",
          "name": "_name",
          "type": "string"
        },
        {
          "indexed": false,
          "internalType": "string",
          "name": "_party",
          "type": "string"
        }
      ],
      "name": "LogNewCandidate",
      "type": "event",
      "signature": "0xa9c9f83892c88fb8ac9d0ce80c5232d111ae45178c4621184090399b36cc7f0b"
    },
    {
      "anonymous": false,
      "inputs": [
        {
          "indexed": false,
          "internalType": "address",
          "name": "_address",
          "type": "address"
        },
        {
          "indexed": false,
          "internalType": "string",
          "name": "_name",
          "type": "string"
        },
        {
          "indexed": false,
          "internalType": "uint256",
          "name": "_age",
          "type": "uint256"
        }
      ],
      "name": "LogNewVoter",
      "type": "event",
      "signature": "0xf3599dbce5b2a80bc431cea101482ab4af907bb19ec70de934175954dbe473ca"
    },
    {
      "anonymous": false,
      "inputs": [
        {
          "indexed": true,
          "internalType": "address",
          "name": "previousOwner",
          "type": "address"
        },
        {
          "indexed": true,
          "internalType": "address",
          "name": "newOwner",
          "type": "address"
        }
      ],
      "name": "OwnershipTransferred",
      "type": "event",
      "signature": "0x8be0079c531659141344cd1fd0a4f28419497f9722a3daafe3b4186f6b6457e0"
    },
    {
      "constant": true,
      "inputs": [],
      "name": "election",
      "outputs": [
        {
          "internalType": "uint256",
          "name": "electionTimeStamp",
          "type": "uint256"
        },
        {
          "internalType": "uint256",
          "name": "registrationPeriod",
          "type": "uint256"
        },
        {
          "internalType": "uint256",
          "name": "votingPeriod",
          "type": "uint256"
        },
        {
          "internalType": "uint256",
          "name": "endTime",
          "type": "uint256"
        },
        {
          "internalType": "bool",
          "name": "openRegistrationPeriod",
          "type": "bool"
        },
        {
          "internalType": "bool",
          "name": "openVotingPeriod",
          "type": "bool"
        },
        {
          "internalType": "bool",
          "name": "openElectionPeriod",
          "type": "bool"
        }
      ],
      "payable": false,
      "stateMutability": "view",
      "type": "function",
      "signature": "0x4b1d3ede"
    },
    {
      "constant": true,
      "inputs": [],
      "name": "isOwner",
      "outputs": [
        {
          "internalType": "bool",
          "name": "",
          "type": "bool"
        }
      ],
      "payable": false,
      "stateMutability": "view",
      "type": "function",
      "signature": "0x8f32d59b"
    },
    {
      "constant": true,
      "inputs": [],
      "name": "numberOfCandidates",
      "outputs": [
        {
          "internalType": "uint256",
          "name": "",
          "type": "uint256"
        }
      ],
      "payable": false,
      "stateMutability": "view",
      "type": "function",
      "signature": "0x9c84bb27"
    },
    {
      "constant": true,
      "inputs": [],
      "name": "numberOfVoters",
      "outputs": [
        {
          "internalType": "uint256",
          "name": "",
          "type": "uint256"
        }
      ],
      "payable": false,
      "stateMutability": "view",
      "type": "function",
      "signature": "0x9bcc3361"
    },
    {
      "constant": true,
      "inputs": [],
      "name": "owner",
      "outputs": [
        {
          "internalType": "address",
          "name": "",
          "type": "address"
        }
      ],
      "payable": false,
      "stateMutability": "view",
      "type": "function",
      "signature": "0x8da5cb5b"
    },
    {
      "constant": false,
      "inputs": [],
      "name": "renounceOwnership",
      "outputs": [],
      "payable": false,
      "stateMutability": "nonpayable",
      "type": "function",
      "signature": "0x715018a6"
    },
    {
      "constant": false,
      "inputs": [
        {
          "internalType": "address",
          "name": "newOwner",
          "type": "address"
        }
      ],
      "name": "transferOwnership",
      "outputs": [],
      "payable": false,
      "stateMutability": "nonpayable",
      "type": "function",
      "signature": "0xf2fde38b"
    },
    {
      "constant": false,
      "inputs": [
        {
          "internalType": "address",
          "name": "_address",
          "type": "address"
        },
        {
          "internalType": "string",
          "name": "_name",
          "type": "string"
        },
        {
          "internalType": "string",
          "name": "_party",
          "type": "string"
        }
      ],
      "name": "_registerCandidate",
      "outputs": [],
      "payable": false,
      "stateMutability": "nonpayable",
      "type": "function",
      "signature": "0x1c18b1d7"
    },
    {
      "constant": false,
      "inputs": [
        {
          "internalType": "address",
          "name": "_address",
          "type": "address"
        },
        {
          "internalType": "string",
          "name": "_name",
          "type": "string"
        },
        {
          "internalType": "uint256",
          "name": "_age",
          "type": "uint256"
        }
      ],
      "name": "_registerVoter",
      "outputs": [],
      "payable": false,
      "stateMutability": "nonpayable",
      "type": "function",
      "signature": "0x3aa76480"
    },
    {
      "constant": false,
      "inputs": [
        {
          "internalType": "string",
          "name": "_name",
          "type": "string"
        }
      ],
      "name": "vote",
      "outputs": [],
      "payable": false,
      "stateMutability": "nonpayable",
      "type": "function",
      "signature": "0xfc36e15b"
    },
    {
      "constant": true,
      "inputs": [
        {
          "internalType": "address",
          "name": "_address",
          "type": "address"
        }
      ],
      "name": "getVoter",
      "outputs": [
        {
          "components": [
            {
              "internalType": "address",
              "name": "_address",
              "type": "address"
            },
            {
              "internalType": "string",
              "name": "name",
              "type": "string"
            },
            {
              "internalType": "uint256",
              "name": "age",
              "type": "uint256"
            }
          ],
          "internalType": "struct ElectionContract.Voter",
          "name": "",
          "type": "tuple"
        }
      ],
      "payable": false,
      "stateMutability": "view",
      "type": "function",
      "signature": "0xd4f50f98"
    },
    {
      "constant": true,
      "inputs": [
        {
          "internalType": "address",
          "name": "_address",
          "type": "address"
        }
      ],
      "name": "getCandidate",
      "outputs": [
        {
          "internalType": "bool",
          "name": "",
          "type": "bool"
        }
      ],
      "payable": false,
      "stateMutability": "view",
      "type": "function",
      "signature": "0xb7adcf1d"
    },
    {
      "constant": true,
      "inputs": [
        {
          "internalType": "string",
          "name": "_name",
          "type": "string"
        }
      ],
      "name": "getPartyCount",
      "outputs": [
        {
          "internalType": "uint256",
          "name": "",
          "type": "uint256"
        }
      ],
      "payable": false,
      "stateMutability": "view",
      "type": "function",
      "signature": "0x041a4d94"
    },
    {
      "constant": false,
      "inputs": [
        {
          "internalType": "bool",
          "name": "_access",
          "type": "bool"
        }
      ],
      "name": "setElectionAccess",
      "outputs": [
        {
          "internalType": "bool",
          "name": "",
          "type": "bool"
        }
      ],
      "payable": false,
      "stateMutability": "nonpayable",
      "type": "function",
      "signature": "0x9bc771b4"
    },
    {
      "constant": false,
      "inputs": [
        {
          "internalType": "bool",
          "name": "_access",
          "type": "bool"
        }
      ],
      "name": "setRegistrationAccess",
      "outputs": [
        {
          "internalType": "bool",
          "name": "",
          "type": "bool"
        }
      ],
      "payable": false,
      "stateMutability": "nonpayable",
      "type": "function",
      "signature": "0x133b819c"
    },
    {
      "constant": false,
      "inputs": [
        {
          "internalType": "bool",
          "name": "_access",
          "type": "bool"
        }
      ],
      "name": "setVotingAccess",
      "outputs": [
        {
          "internalType": "bool",
          "name": "",
          "type": "bool"
        }
      ],
      "payable": false,
      "stateMutability": "nonpayable",
      "type": "function",
      "signature": "0xfe1b76eb"
    },
    {
      "constant": true,
      "inputs": [],
      "name": "getRegistrationAccess",
      "outputs": [
        {
          "internalType": "bool",
          "name": "",
          "type": "bool"
        }
      ],
      "payable": false,
      "stateMutability": "view",
      "type": "function",
      "signature": "0x4de3d10b"
    },
    {
      "constant": true,
      "inputs": [],
      "name": "getVotingAccess",
      "outputs": [
        {
          "internalType": "bool",
          "name": "",
          "type": "bool"
        }
      ],
      "payable": false,
      "stateMutability": "view",
      "type": "function",
      "signature": "0x23cd35a3"
    },
    {
      "constant": true,
      "inputs": [],
      "name": "getElectionAccess",
      "outputs": [
        {
          "internalType": "bool",
          "name": "",
          "type": "bool"
        }
      ],
      "payable": false,
      "stateMutability": "view",
      "type": "function",
      "signature": "0x94a020a4"
    },
    {
      "constant": true,
      "inputs": [
        {
          "internalType": "string",
          "name": "_party",
          "type": "string"
        }
      ],
      "name": "validPartyStrings",
      "outputs": [
        {
          "internalType": "bool",
          "name": "",
          "type": "bool"
        }
      ],
      "payable": false,
      "stateMutability": "pure",
      "type": "function",
      "signature": "0xd8609462"
    },
    {
      "constant": false,
      "inputs": [],
      "name": "kill",
      "outputs": [],
      "payable": false,
      "stateMutability": "nonpayable",
      "type": "function",
      "signature": "0x41c0e1b5"
    },
    {
      "constant": true,
      "inputs": [],
      "name": "contractOwner",
      "outputs": [
        {
          "internalType": "bool",
          "name": "",
          "type": "bool"
        }
      ],
      "payable": false,
      "stateMutability": "view",
      "type": "function",
      "signature": "0xce606ee0"
    }
  ],
  "bytecode": "0x608060405234801561001057600080fd5b506100286101ba640100000000026401000000009004565b6000806101000a81548173ffffffffffffffffffffffffffffffffffffffff021916908373ffffffffffffffffffffffffffffffffffffffff1602179055506000809054906101000a900473ffffffffffffffffffffffffffffffffffffffff1673ffffffffffffffffffffffffffffffffffffffff16600073ffffffffffffffffffffffffffffffffffffffff167f8be0079c531659141344cd1fd0a4f28419497f9722a3daafe3b4186f6b6457e060405160405180910390a36040518060e001604052804281526020016201518081526020016202a30081526020016202a30081526020016001151581526020016000151581526020016000151581525060016000820151816000015560208201518160010155604082015181600201556060820151816003015560808201518160040160006101000a81548160ff02191690831515021790555060a08201518160040160016101000a81548160ff02191690831515021790555060c08201518160040160026101000a81548160ff0219169083151502179055509050506101c2565b600033905090565b6123e1806101d16000396000f3fe608060405234801561001057600080fd5b506004361061015f576000357c01000000000000000000000000000000000000000000000000000000009004806394a020a4116100d5578063ce606ee011610099578063ce606ee014610366578063d4f50f9814610384578063d8609462146103b4578063f2fde38b146103e4578063fc36e15b14610400578063fe1b76eb1461041c5761015f565b806394a020a4146102ac5780639bc771b4146102ca5780639bcc3361146102fa5780639c84bb2714610318578063b7adcf1d146103365761015f565b806341c0e1b51161012757806341c0e1b51461021a5780634b1d3ede146102245780634de3d10b14610248578063715018a6146102665780638da5cb5b146102705780638f32d59b1461028e5761015f565b8063041a4d9414610164578063133b819c146101945780631c18b1d7146101c457806323cd35a3146101e05780633aa76480146101fe575b600080fd5b61017e60048036036101799190810190611ac4565b61044c565b60405161018b919061218d565b60405180910390f35b6101ae60048036036101a99190810190611a9b565b6104dc565b6040516101bb9190612010565b60405180910390f35b6101de60048036036101d991908101906119b5565b610548565b005b6101e8610881565b6040516101f59190612010565b60405180910390f35b61021860048036036102139190810190611a34565b6108e2565b005b610222610c89565b005b61022c610ce9565b60405161023f97969594939291906121a8565b60405180910390f35b610250610d40565b60405161025d9190612010565b60405180910390f35b61026e610da1565b005b610278610ea7565b6040516102859190611f72565b60405180910390f35b610296610ed0565b6040516102a39190612010565b60405180910390f35b6102b4610f2e565b6040516102c19190612010565b60405180910390f35b6102e460048036036102df9190810190611a9b565b610f8f565b6040516102f19190612010565b60405180910390f35b610302610ffb565b60405161030f919061218d565b60405180910390f35b610320611001565b60405161032d919061218d565b60405180910390f35b610350600480360361034b919081019061198c565b611007565b60405161035d9190612010565b60405180910390f35b61036e6110f2565b60405161037b9190612010565b60405180910390f35b61039e6004803603610399919081019061198c565b611148565b6040516103ab919061216b565b60405180910390f35b6103ce60048036036103c99190810190611ac4565b611377565b6040516103db9190612010565b60405180910390f35b6103fe60048036036103f9919081019061198c565b611472565b005b61041a60048036036104159190810190611ac4565b6114c5565b005b61043660048036036104319190810190611a9b565b611644565b6040516104439190612010565b60405180910390f35b6000610456610ed0565b610495576040517f08c379a000000000000000000000000000000000000000000000000000000000815260040161048c906120eb565b60405180910390fd5b81600115156104a382611377565b1515146104af57600080fd5b60608390506008816040516104c49190611f5b565b90815260200160405180910390205492505050919050565b60006104e6610ed0565b610525576040517f08c379a000000000000000000000000000000000000000000000000000000000815260040161051c906120eb565b60405180910390fd5b81600160040160006101000a81548160ff02191690831515021790559050919050565b60011515600160040160009054906101000a900460ff161515146105a1576040517f08c379a00000000000000000000000000000000000000000000000000000000081526004016105989061210b565b60405180910390fd5b60011515600160040160029054906101000a900460ff161515146105fa576040517f08c379a00000000000000000000000000000000000000000000000000000000081526004016105f19061214b565b60405180910390fd5b8260011515600660008373ffffffffffffffffffffffffffffffffffffffff1673ffffffffffffffffffffffffffffffffffffffff16815260200190815260200160002060009054906101000a900460ff161515141561068f576040517f08c379a00000000000000000000000000000000000000000000000000000000081526004016106869061212b565b60405180910390fd5b610697610ed0565b6106d6576040517f08c379a00000000000000000000000000000000000000000000000000000000081526004016106cd906120eb565b60405180910390fd5b6106de6117e6565b60405180606001604052808673ffffffffffffffffffffffffffffffffffffffff1681526020018581526020018481525090507fa9c9f83892c88fb8ac9d0ce80c5232d111ae45178c4621184090399b36cc7f0b85858560405161074493929190611f8d565b60405180910390a180600a60008773ffffffffffffffffffffffffffffffffffffffff1673ffffffffffffffffffffffffffffffffffffffff16815260200190815260200160002060008201518160000160006101000a81548173ffffffffffffffffffffffffffffffffffffffff021916908373ffffffffffffffffffffffffffffffffffffffff16021790555060208201518160010190805190602001906107ef92919061181d565b50604082015181600201908051906020019061080c92919061181d565b509050506001600660008773ffffffffffffffffffffffffffffffffffffffff1673ffffffffffffffffffffffffffffffffffffffff16815260200190815260200160002060006101000a81548160ff021916908315150217905550600b600081548092919060010191905055505050505050565b600061088b610ed0565b6108ca576040517f08c379a00000000000000000000000000000000000000000000000000000000081526004016108c1906120eb565b60405180910390fd5b600160040160019054906101000a900460ff16905090565b60011515600160040160019054906101000a900460ff1615151461093b576040517f08c379a00000000000000000000000000000000000000000000000000000000081526004016109329061204b565b60405180910390fd5b60011515600160040160029054906101000a900460ff16151514610994576040517f08c379a000000000000000000000000000000000000000000000000000000000815260040161098b9061214b565b60405180910390fd5b61099c610ed0565b6109db576040517f08c379a00000000000000000000000000000000000000000000000000000000081526004016109d2906120eb565b60405180910390fd5b33600073ffffffffffffffffffffffffffffffffffffffff16600960008373ffffffffffffffffffffffffffffffffffffffff1673ffffffffffffffffffffffffffffffffffffffff16815260200190815260200160002060000160009054906101000a900473ffffffffffffffffffffffffffffffffffffffff1673ffffffffffffffffffffffffffffffffffffffff1614610aad576040517f08c379a0000000000000000000000000000000000000000000000000000000008152600401610aa49061208b565b60405180910390fd5b6012821015610af1576040517f08c379a0000000000000000000000000000000000000000000000000000000008152600401610ae89061202b565b60405180910390fd5b610af961189d565b60405180606001604052803373ffffffffffffffffffffffffffffffffffffffff1681526020018581526020018481525090507ff3599dbce5b2a80bc431cea101482ab4af907bb19ec70de934175954dbe473ca858585604051610b5f93929190611fd2565b60405180910390a180600960003373ffffffffffffffffffffffffffffffffffffffff1673ffffffffffffffffffffffffffffffffffffffff16815260200190815260200160002060008201518160000160006101000a81548173ffffffffffffffffffffffffffffffffffffffff021916908373ffffffffffffffffffffffffffffffffffffffff1602179055506020820151816001019080519060200190610c0a92919061181d565b50604082015181600201559050506001600760003373ffffffffffffffffffffffffffffffffffffffff1673ffffffffffffffffffffffffffffffffffffffff16815260200190815260200160002060006101000a81548160ff021916908315150217905550600c600081548092919060010191905055505050505050565b610c91610ed0565b610cd0576040517f08c379a0000000000000000000000000000000000000000000000000000000008152600401610cc7906120eb565b60405180910390fd5b3373ffffffffffffffffffffffffffffffffffffffff16ff5b60018060000154908060010154908060020154908060030154908060040160009054906101000a900460ff16908060040160019054906101000a900460ff16908060040160029054906101000a900460ff16905087565b6000610d4a610ed0565b610d89576040517f08c379a0000000000000000000000000000000000000000000000000000000008152600401610d80906120eb565b60405180910390fd5b600160040160009054906101000a900460ff16905090565b610da9610ed0565b610de8576040517f08c379a0000000000000000000000000000000000000000000000000000000008152600401610ddf906120eb565b60405180910390fd5b600073ffffffffffffffffffffffffffffffffffffffff166000809054906101000a900473ffffffffffffffffffffffffffffffffffffffff1673ffffffffffffffffffffffffffffffffffffffff167f8be0079c531659141344cd1fd0a4f28419497f9722a3daafe3b4186f6b6457e060405160405180910390a360008060006101000a81548173ffffffffffffffffffffffffffffffffffffffff021916908373ffffffffffffffffffffffffffffffffffffffff160217905550565b60008060009054906101000a900473ffffffffffffffffffffffffffffffffffffffff16905090565b60008060009054906101000a900473ffffffffffffffffffffffffffffffffffffffff1673ffffffffffffffffffffffffffffffffffffffff16610f126116b0565b73ffffffffffffffffffffffffffffffffffffffff1614905090565b6000610f38610ed0565b610f77576040517f08c379a0000000000000000000000000000000000000000000000000000000008152600401610f6e906120eb565b60405180910390fd5b600160040160029054906101000a900460ff16905090565b6000610f99610ed0565b610fd8576040517f08c379a0000000000000000000000000000000000000000000000000000000008152600401610fcf906120eb565b60405180910390fd5b81600160040160026101000a81548160ff02191690831515021790559050919050565b600c5481565b600b5481565b60008160011515600660008373ffffffffffffffffffffffffffffffffffffffff1673ffffffffffffffffffffffffffffffffffffffff16815260200190815260200160002060009054906101000a900460ff1615151461109d576040517f08c379a0000000000000000000000000000000000000000000000000000000008152600401611094906120ab565b60405180910390fd5b600660008473ffffffffffffffffffffffffffffffffffffffff1673ffffffffffffffffffffffffffffffffffffffff16815260200190815260200160002060009054906101000a900460ff16915050919050565b60006110fc610ed0565b61113b576040517f08c379a0000000000000000000000000000000000000000000000000000000008152600401611132906120eb565b60405180910390fd5b611143610ed0565b905090565b61115061189d565b81600073ffffffffffffffffffffffffffffffffffffffff16600960008373ffffffffffffffffffffffffffffffffffffffff1673ffffffffffffffffffffffffffffffffffffffff16815260200190815260200160002060000160009054906101000a900473ffffffffffffffffffffffffffffffffffffffff1673ffffffffffffffffffffffffffffffffffffffff161415611223576040517f08c379a000000000000000000000000000000000000000000000000000000000815260040161121a906120cb565b60405180910390fd5b600960008473ffffffffffffffffffffffffffffffffffffffff1673ffffffffffffffffffffffffffffffffffffffff1681526020019081526020016000206040518060600160405290816000820160009054906101000a900473ffffffffffffffffffffffffffffffffffffffff1673ffffffffffffffffffffffffffffffffffffffff1673ffffffffffffffffffffffffffffffffffffffff168152602001600182018054600181600116156101000203166002900480601f01602080910402602001604051908101604052809291908181526020018280546001816001161561010002031660029004801561135c5780601f106113315761010080835404028352916020019161135c565b820191906000526020600020905b81548152906001019060200180831161133f57829003601f168201915b50505050508152602001600282015481525050915050919050565b600060606040518060400160405280600381526020017f436f6e0000000000000000000000000000000000000000000000000000000000815250905060606040518060400160405280600381526020017f4c61620000000000000000000000000000000000000000000000000000000000815250905060606040518060400160405280600381526020017f4c696200000000000000000000000000000000000000000000000000000000008152509050828051906020012085805190602001201480611450575081805190602001208580519060200120145b80611468575080805190602001208580519060200120145b9350505050919050565b61147a610ed0565b6114b9576040517f08c379a00000000000000000000000000000000000000000000000000000000081526004016114b0906120eb565b60405180910390fd5b6114c2816116b8565b50565b60011515600160040160019054906101000a900460ff1615151461151e576040517f08c379a00000000000000000000000000000000000000000000000000000000081526004016115159061204b565b60405180910390fd5b806001151561152c82611377565b15151461153857600080fd5b33600073ffffffffffffffffffffffffffffffffffffffff16600960008373ffffffffffffffffffffffffffffffffffffffff1673ffffffffffffffffffffffffffffffffffffffff16815260200190815260200160002060000160009054906101000a900473ffffffffffffffffffffffffffffffffffffffff1673ffffffffffffffffffffffffffffffffffffffff16141561160b576040517f08c379a0000000000000000000000000000000000000000000000000000000008152600401611602906120cb565b60405180910390fd5b60608390506008816040516116209190611f5b565b90815260200160405180910390206000815480929190600101919050555050505050565b600061164e610ed0565b61168d576040517f08c379a0000000000000000000000000000000000000000000000000000000008152600401611684906120eb565b60405180910390fd5b81600160040160016101000a81548160ff02191690831515021790559050919050565b600033905090565b600073ffffffffffffffffffffffffffffffffffffffff168173ffffffffffffffffffffffffffffffffffffffff161415611728576040517f08c379a000000000000000000000000000000000000000000000000000000000815260040161171f9061206b565b60405180910390fd5b8073ffffffffffffffffffffffffffffffffffffffff166000809054906101000a900473ffffffffffffffffffffffffffffffffffffffff1673ffffffffffffffffffffffffffffffffffffffff167f8be0079c531659141344cd1fd0a4f28419497f9722a3daafe3b4186f6b6457e060405160405180910390a3806000806101000a81548173ffffffffffffffffffffffffffffffffffffffff021916908373ffffffffffffffffffffffffffffffffffffffff16021790555050565b6040518060600160405280600073ffffffffffffffffffffffffffffffffffffffff16815260200160608152602001606081525090565b828054600181600116156101000203166002900490600052602060002090601f016020900481019282601f1061185e57805160ff191683800117855561188c565b8280016001018555821561188c579182015b8281111561188b578251825591602001919060010190611870565b5b50905061189991906118d4565b5090565b6040518060600160405280600073ffffffffffffffffffffffffffffffffffffffff16815260200160608152602001600081525090565b6118f691905b808211156118f25760008160009055506001016118da565b5090565b90565b60008135905061190881612359565b92915050565b60008135905061191d81612370565b92915050565b600082601f83011261193457600080fd5b813561194761194282612244565b612217565b9150808252602083016020830185838301111561196357600080fd5b61196e838284612306565b50505092915050565b60008135905061198681612387565b92915050565b60006020828403121561199e57600080fd5b60006119ac848285016118f9565b91505092915050565b6000806000606084860312156119ca57600080fd5b60006119d8868287016118f9565b935050602084013567ffffffffffffffff8111156119f557600080fd5b611a0186828701611923565b925050604084013567ffffffffffffffff811115611a1e57600080fd5b611a2a86828701611923565b9150509250925092565b600080600060608486031215611a4957600080fd5b6000611a57868287016118f9565b935050602084013567ffffffffffffffff811115611a7457600080fd5b611a8086828701611923565b9250506040611a9186828701611977565b9150509250925092565b600060208284031215611aad57600080fd5b6000611abb8482850161190e565b91505092915050565b600060208284031215611ad657600080fd5b600082013567ffffffffffffffff811115611af057600080fd5b611afc84828501611923565b91505092915050565b611b0e816122be565b82525050565b611b1d816122be565b82525050565b611b2c816122d0565b82525050565b6000611b3d82612270565b611b478185612291565b9350611b57818560208601612315565b80840191505092915050565b6000611b6e82612286565b611b7881856122ad565b9350611b88818560208601612315565b611b9181612348565b840191505092915050565b6000611ba78261227b565b611bb1818561229c565b9350611bc1818560208601612315565b611bca81612348565b840191505092915050565b6000611be26022836122ad565b91507f566f74657273206d757374206265206f76657220313820746f2072656769737460008301527f65720000000000000000000000000000000000000000000000000000000000006020830152604082019050919050565b6000611c486017836122ad565b91507f566f74696e6720706572696f6420697320636c6f7365640000000000000000006000830152602082019050919050565b6000611c886026836122ad565b91507f4f776e61626c653a206e6577206f776e657220697320746865207a65726f206160008301527f64647265737300000000000000000000000000000000000000000000000000006020830152604082019050919050565b6000611cee6026836122ad565b91507f566f7465722063616e20616c72656164792072656769737465726564206f6e6c60008301527f79206f6e636500000000000000000000000000000000000000000000000000006020830152604082019050919050565b6000611d546014836122ad565b91507f43616e64696461746520697320696e76616c69640000000000000000000000006000830152602082019050919050565b6000611d946021836122ad565b91507f566f746572206973206e6f742072656769737465726564206f6e6c79206f6e6360008301527f65000000000000000000000000000000000000000000000000000000000000006020830152604082019050919050565b6000611dfa6020836122ad565b91507f4f776e61626c653a2063616c6c6572206973206e6f7420746865206f776e65726000830152602082019050919050565b6000611e3a601d836122ad565b91507f526567697374726174696f6e20706572696f6420697320636c6f7365640000006000830152602082019050919050565b6000611e7a6012836122ad565b91507f43616e6469646174652069732076616c696400000000000000000000000000006000830152602082019050919050565b6000611eba6019836122ad565b91507f456c656374696f6e20706572696f6420697320636c6f736564000000000000006000830152602082019050919050565b6000606083016000830151611f056000860182611b05565b5060208301518482036020860152611f1d8282611b9c565b9150506040830151611f326040860182611f3d565b508091505092915050565b611f46816122fc565b82525050565b611f55816122fc565b82525050565b6000611f678284611b32565b915081905092915050565b6000602082019050611f876000830184611b14565b92915050565b6000606082019050611fa26000830186611b14565b8181036020830152611fb48185611b63565b90508181036040830152611fc88184611b63565b9050949350505050565b6000606082019050611fe76000830186611b14565b8181036020830152611ff98185611b63565b90506120086040830184611f4c565b949350505050565b60006020820190506120256000830184611b23565b92915050565b6000602082019050818103600083015261204481611bd5565b9050919050565b6000602082019050818103600083015261206481611c3b565b9050919050565b6000602082019050818103600083015261208481611c7b565b9050919050565b600060208201905081810360008301526120a481611ce1565b9050919050565b600060208201905081810360008301526120c481611d47565b9050919050565b600060208201905081810360008301526120e481611d87565b9050919050565b6000602082019050818103600083015261210481611ded565b9050919050565b6000602082019050818103600083015261212481611e2d565b9050919050565b6000602082019050818103600083015261214481611e6d565b9050919050565b6000602082019050818103600083015261216481611ead565b9050919050565b600060208201905081810360008301526121858184611eed565b905092915050565b60006020820190506121a26000830184611f4c565b92915050565b600060e0820190506121bd600083018a611f4c565b6121ca6020830189611f4c565b6121d76040830188611f4c565b6121e46060830187611f4c565b6121f16080830186611b23565b6121fe60a0830185611b23565b61220b60c0830184611b23565b98975050505050505050565b6000604051905081810181811067ffffffffffffffff8211171561223a57600080fd5b8060405250919050565b600067ffffffffffffffff82111561225b57600080fd5b601f19601f8301169050602081019050919050565b600081519050919050565b600081519050919050565b600081519050919050565b600081905092915050565b600082825260208201905092915050565b600082825260208201905092915050565b60006122c9826122dc565b9050919050565b60008115159050919050565b600073ffffffffffffffffffffffffffffffffffffffff82169050919050565b6000819050919050565b82818337600083830152505050565b60005b83811015612333578082015181840152602081019050612318565b83811115612342576000848401525b50505050565b6000601f19601f8301169050919050565b612362816122be565b811461236d57600080fd5b50565b612379816122d0565b811461238457600080fd5b50565b612390816122fc565b811461239b57600080fd5b5056fea365627a7a72315820167afef92359fdf40a4cf78f46488ddd94d2a4c901d908f34ee8e84d756ceac76c6578706572696d656e74616cf564736f6c634300050d0040",
  "source": "pragma solidity ^0.5.8;\npragma experimental ABIEncoderV2;\n\nimport \"../node_modules/openzeppelin-solidity/contracts/math/SafeMath.sol\";\nimport \"../node_modules/openzeppelin-solidity/contracts/ownership/Ownable.sol\";\n//import \"https://github.com/OpenZeppelin/openzeppelin-solidity/contracts/ownership/Ownable.sol\";\n\ncontract ElectionContract is Ownable {\n\n    using SafeMath for uint256;\n\n\n    struct Candidate {\n        address _address;\n        string name;\n        string party;\n    }\n\n    struct Voter {\n        address _address;\n        string name;\n        uint age;\n\n    }\n\n  struct Election {\n        uint256 electionTimeStamp;\n        uint256 registrationPeriod;\n        uint256 votingPeriod;\n        uint256 endTime;\n        bool openRegistrationPeriod;\n        bool openVotingPeriod;\n        bool openElectionPeriod;\n    }\n\n    Election public election;\n\n    mapping(address => bool) isCandidateValid;\n    mapping(address => bool) isVoterValid;\n\n    mapping(bytes => uint) votesReceived;\n\n    mapping(address => Voter) voters;\n    mapping(address => Candidate) candidates;\n\n\n    uint public numberOfCandidates;\n    uint public numberOfVoters;\n\n    //bytes32[] public parties;\n\n    constructor() public {\n    //  parties.push(\"Lab\");\n      //[\"Lab\",\"Con\",\"Lib\",\"Grn\",\"Brx\"];\n\n      election = Election(now, 1 days, 2 days, 2 days, true, false, false);\n    }\n\n    // events\n\n    event LogNewCandidate(address _address, string _name, string _party);\n    event LogNewVoter(address _address, string _name, uint _age);\n\n\n    // modifiers\n\n    modifier registrationPeriodIsOpen()  {\n        require(election.openRegistrationPeriod == true, \"Registration period is closed\");\n    _;\n    }\n\n    modifier votingPeriodIsOpen() {\n      require(election.openVotingPeriod == true, \"Voting period is closed\");\n      _;\n    }\n\n    modifier electionPeriodIsOpen() {\n      require(election.openElectionPeriod == true, \"Election period is closed\");\n      _;\n    }\n\n    modifier registeredCandidate(address _address) {\n      require(isCandidateValid[_address] == true, \"Candidate is invalid\");\n      _;\n    }\n\n    modifier unregisteredCandidate(address _address) {\n        require(isCandidateValid[_address] != true, \"Candidate is valid\");\n        _;\n    }\n\n    modifier unregisteredVoter(address _address) {\n        require(voters[_address]._address == address(0), \"Voter can already registered only once\");\n        _;\n    }\n\n    modifier registeredVoter(address _address) {\n        require(voters[_address]._address != address(0), \"Voter is not registered only once\");\n        _;\n    }\n\n    modifier validParty(string memory _name){\n        require(validPartyStrings(_name) == true);\n        _;\n    }\n\n\n\n\n    //  Registration Functions\n\n    function _registerCandidate(address _address, string memory _name, string memory _party) public\n      registrationPeriodIsOpen\n      electionPeriodIsOpen\n      unregisteredCandidate(_address)\n      onlyOwner {\n\n        Candidate memory candidate = Candidate({\n           _address:_address,\n           name: _name,\n           party:_party\n        });\n        emit LogNewCandidate(_address, _name, _party);\n        candidates[_address] = candidate;\n        isCandidateValid[_address] = true;\n        numberOfCandidates++;\n    }\n\n    function _registerVoter(address _address, string memory _name, uint _age) public\n      votingPeriodIsOpen\n      electionPeriodIsOpen\n      onlyOwner\n      unregisteredVoter(msg.sender) {\n\n        require(_age >= 18, \"Voters must be over 18 to register\");\n        Voter memory newVoter = Voter({\n            _address: msg.sender,\n            name: _name,\n            age:_age\n        });\n        emit LogNewVoter(_address, _name, _age);\n        voters[msg.sender] = newVoter;\n        isVoterValid[msg.sender] = true;\n        numberOfVoters++;\n    }\n\n    // Vote Functions\n\n    function vote(string memory _name) public\n    votingPeriodIsOpen\n    validParty(_name)\n    registeredVoter(msg.sender) {\n      bytes memory name = bytes(_name);\n      votesReceived[name]++;\n    }\n\n\n    function getVoter(address _address) public view registeredVoter(_address) returns(Voter memory){\n        return(voters[_address]);\n    }\n\n\n\n\n    // Candidate Functions\n\n    function getCandidate(address _address) public view registeredCandidate(_address) returns(bool) {\n        return(isCandidateValid[_address]);\n    }\n\n    // Party Functions\n\n    function getPartyCount(string memory _name) public view\n      onlyOwner\n      validParty( _name)\n      returns (uint) {\n        bytes memory name = bytes(_name);\n        return votesReceived[name];\n    }\n\n\n\n    // Set Election Period Functions\n\n\n    function setElectionAccess(bool _access) public onlyOwner returns (bool) {\n              return election.openElectionPeriod = _access;\n    }\n\n    function setRegistrationAccess(bool _access) public onlyOwner returns (bool) {\n            return election.openRegistrationPeriod = _access;\n    }\n\n    function setVotingAccess(bool _access) public onlyOwner returns (bool) {\n            return election.openVotingPeriod = _access;\n    }\n\n\n    // Get Election Period Functions\n\n    function getRegistrationAccess() public view onlyOwner returns (bool) {\n            return election.openRegistrationPeriod;\n    }\n\n    function getVotingAccess() public view onlyOwner returns (bool) {\n            return election.openVotingPeriod;\n    }\n\n    function getElectionAccess() public view onlyOwner returns (bool) {\n            return election.openElectionPeriod;\n    }\n\n    // Helper Functions\n\n    function validPartyStrings(string memory _party) public pure returns (bool) {\n\n        bytes memory con = \"Con\";\n        bytes memory lab = \"Lab\";\n        bytes memory lib = \"Lib\";\n\n\n        return keccak256(bytes(_party)) == keccak256(bytes(con))  ||\n               keccak256(bytes(_party)) == keccak256(bytes(lab))  ||\n               keccak256(bytes(_party)) == keccak256(bytes(lib));\n\n    }\n\n    function kill() onlyOwner external {\n      selfdestruct(msg.sender);\n    }\n\n    // Assertion Test Functions\n\n    function contractOwner() public view onlyOwner returns(bool){\n        return isOwner();\n    }\n\n\n\n\n}\n",
  "sourcePath": "/Users/admin/github/votingSystem/contracts/ElectionContract.sol",
  "compiler": {
    "name": "solc",
    "version": "0.5.13+commit.5b0b510c.Emscripten.clang"
  },
  "schemaVersion": "3.0.2",
  "updatedAt": "2019-11-28T08:58:24.362Z",
  "devdoc": {
    "methods": {
      "isOwner()": {
        "details": "Returns true if the caller is the current owner."
      },
      "owner()": {
        "details": "Returns the address of the current owner."
      },
      "renounceOwnership()": {
        "details": "Leaves the contract without owner. It will not be possible to call `onlyOwner` functions anymore. Can only be called by the current owner.     * NOTE: Renouncing ownership will leave the contract without an owner, thereby removing any functionality that is only available to the owner."
      },
      "transferOwnership(address)": {
        "details": "Transfers ownership of the contract to a new account (`newOwner`). Can only be called by the current owner."
      }
    }
  },
  "userdoc": {
    "methods": {}
  }
}