{
  "contractName": "ElectionContract",
  "abi": [
    {
      "inputs": [],
      "payable": false,
      "stateMutability": "nonpayable",
      "type": "constructor"
    },
    {
      "anonymous": false,
      "inputs": [
        {
          "indexed": false,
          "internalType": "address",
          "name": "sender",
          "type": "address"
        }
      ],
      "name": "LogNewCandidate",
      "type": "event"
    },
    {
      "anonymous": false,
      "inputs": [
        {
          "indexed": false,
          "internalType": "address",
          "name": "sender",
          "type": "address"
        }
      ],
      "name": "LogNewVoter",
      "type": "event"
    },
    {
      "anonymous": false,
      "inputs": [
        {
          "indexed": true,
          "internalType": "address",
          "name": "previousOwner",
          "type": "address"
        },
        {
          "indexed": true,
          "internalType": "address",
          "name": "newOwner",
          "type": "address"
        }
      ],
      "name": "OwnershipTransferred",
      "type": "event"
    },
    {
      "constant": true,
      "inputs": [],
      "name": "election",
      "outputs": [
        {
          "internalType": "uint256",
          "name": "electionTimeStamp",
          "type": "uint256"
        },
        {
          "internalType": "uint256",
          "name": "registrationPeriod",
          "type": "uint256"
        },
        {
          "internalType": "uint256",
          "name": "votingPeriod",
          "type": "uint256"
        },
        {
          "internalType": "uint256",
          "name": "endTime",
          "type": "uint256"
        },
        {
          "internalType": "bool",
          "name": "openRegistrationPeriod",
          "type": "bool"
        },
        {
          "internalType": "bool",
          "name": "openVotingPeriod",
          "type": "bool"
        },
        {
          "internalType": "bool",
          "name": "openElectionPeriod",
          "type": "bool"
        }
      ],
      "payable": false,
      "stateMutability": "view",
      "type": "function"
    },
    {
      "constant": true,
      "inputs": [],
      "name": "isOwner",
      "outputs": [
        {
          "internalType": "bool",
          "name": "",
          "type": "bool"
        }
      ],
      "payable": false,
      "stateMutability": "view",
      "type": "function"
    },
    {
      "constant": true,
      "inputs": [],
      "name": "numberOfCandidates",
      "outputs": [
        {
          "internalType": "uint256",
          "name": "",
          "type": "uint256"
        }
      ],
      "payable": false,
      "stateMutability": "view",
      "type": "function"
    },
    {
      "constant": true,
      "inputs": [],
      "name": "numberOfVoters",
      "outputs": [
        {
          "internalType": "uint256",
          "name": "",
          "type": "uint256"
        }
      ],
      "payable": false,
      "stateMutability": "view",
      "type": "function"
    },
    {
      "constant": true,
      "inputs": [],
      "name": "owner",
      "outputs": [
        {
          "internalType": "address",
          "name": "",
          "type": "address"
        }
      ],
      "payable": false,
      "stateMutability": "view",
      "type": "function"
    },
    {
      "constant": false,
      "inputs": [],
      "name": "renounceOwnership",
      "outputs": [],
      "payable": false,
      "stateMutability": "nonpayable",
      "type": "function"
    },
    {
      "constant": false,
      "inputs": [
        {
          "internalType": "address",
          "name": "newOwner",
          "type": "address"
        }
      ],
      "name": "transferOwnership",
      "outputs": [],
      "payable": false,
      "stateMutability": "nonpayable",
      "type": "function"
    },
    {
      "constant": false,
      "inputs": [
        {
          "internalType": "address",
          "name": "_address",
          "type": "address"
        },
        {
          "internalType": "string",
          "name": "_name",
          "type": "string"
        },
        {
          "internalType": "string",
          "name": "_party",
          "type": "string"
        }
      ],
      "name": "_registerCandidate",
      "outputs": [],
      "payable": false,
      "stateMutability": "nonpayable",
      "type": "function"
    },
    {
      "constant": false,
      "inputs": [
        {
          "internalType": "string",
          "name": "_name",
          "type": "string"
        },
        {
          "internalType": "uint256",
          "name": "_age",
          "type": "uint256"
        }
      ],
      "name": "_registerVoter",
      "outputs": [],
      "payable": false,
      "stateMutability": "nonpayable",
      "type": "function"
    },
    {
      "constant": true,
      "inputs": [
        {
          "internalType": "address",
          "name": "_address",
          "type": "address"
        }
      ],
      "name": "getVoter",
      "outputs": [
        {
          "components": [
            {
              "internalType": "address",
              "name": "_address",
              "type": "address"
            },
            {
              "internalType": "string",
              "name": "name",
              "type": "string"
            },
            {
              "internalType": "uint256",
              "name": "age",
              "type": "uint256"
            }
          ],
          "internalType": "struct ElectionContract.Voter",
          "name": "",
          "type": "tuple"
        }
      ],
      "payable": false,
      "stateMutability": "view",
      "type": "function"
    },
    {
      "constant": false,
      "inputs": [
        {
          "internalType": "bool",
          "name": "_access",
          "type": "bool"
        }
      ],
      "name": "setElectionAccess",
      "outputs": [
        {
          "internalType": "bool",
          "name": "",
          "type": "bool"
        }
      ],
      "payable": false,
      "stateMutability": "nonpayable",
      "type": "function"
    },
    {
      "constant": false,
      "inputs": [
        {
          "internalType": "bool",
          "name": "_access",
          "type": "bool"
        }
      ],
      "name": "setRegistrationAccess",
      "outputs": [
        {
          "internalType": "bool",
          "name": "",
          "type": "bool"
        }
      ],
      "payable": false,
      "stateMutability": "nonpayable",
      "type": "function"
    },
    {
      "constant": false,
      "inputs": [
        {
          "internalType": "bool",
          "name": "_access",
          "type": "bool"
        }
      ],
      "name": "setVotingAccess",
      "outputs": [
        {
          "internalType": "bool",
          "name": "",
          "type": "bool"
        }
      ],
      "payable": false,
      "stateMutability": "nonpayable",
      "type": "function"
    },
    {
      "constant": true,
      "inputs": [],
      "name": "getRegistrationAccess",
      "outputs": [
        {
          "internalType": "bool",
          "name": "",
          "type": "bool"
        }
      ],
      "payable": false,
      "stateMutability": "view",
      "type": "function"
    },
    {
      "constant": true,
      "inputs": [],
      "name": "getVotingAccess",
      "outputs": [
        {
          "internalType": "bool",
          "name": "",
          "type": "bool"
        }
      ],
      "payable": false,
      "stateMutability": "view",
      "type": "function"
    },
    {
      "constant": true,
      "inputs": [],
      "name": "getElectionAccess",
      "outputs": [
        {
          "internalType": "bool",
          "name": "",
          "type": "bool"
        }
      ],
      "payable": false,
      "stateMutability": "view",
      "type": "function"
    },
    {
      "constant": false,
      "inputs": [],
      "name": "kill",
      "outputs": [],
      "payable": false,
      "stateMutability": "nonpayable",
      "type": "function"
    },
    {
      "constant": true,
      "inputs": [
        {
          "internalType": "address",
          "name": "_address",
          "type": "address"
        }
      ],
      "name": "contractOwner",
      "outputs": [],
      "payable": false,
      "stateMutability": "view",
      "type": "function"
    }
  ],
  "bytecode": "0x608060405234801561001057600080fd5b506100286101ba640100000000026401000000009004565b6000806101000a81548173ffffffffffffffffffffffffffffffffffffffff021916908373ffffffffffffffffffffffffffffffffffffffff1602179055506000809054906101000a900473ffffffffffffffffffffffffffffffffffffffff1673ffffffffffffffffffffffffffffffffffffffff16600073ffffffffffffffffffffffffffffffffffffffff167f8be0079c531659141344cd1fd0a4f28419497f9722a3daafe3b4186f6b6457e060405160405180910390a36040518060e001604052804281526020016201518081526020016202a30081526020016202a30081526020016001151581526020016000151581526020016000151581525060016000820151816000015560208201518160010155604082015181600201556060820151816003015560808201518160040160006101000a81548160ff02191690831515021790555060a08201518160040160016101000a81548160ff02191690831515021790555060c08201518160040160026101000a81548160ff0219169083151502179055509050506101c2565b600033905090565b611b0e806101d16000396000f3fe608060405234801561001057600080fd5b5060043610610133576000357c0100000000000000000000000000000000000000000000000000000000900480638da5cb5b116100bf5780639bcc33611161008e5780639bcc3361146102ba5780639c84bb27146102d8578063d4f50f98146102f6578063f2fde38b14610326578063fe1b76eb1461034257610133565b80638da5cb5b146102305780638f32d59b1461024e57806394a020a41461026c5780639bc771b41461028a57610133565b80634b1d3ede116101065780634b1d3ede146101ac5780634de3d10b146101d05780635152b14c146101ee57806369ab927f1461020a578063715018a61461022657610133565b8063133b819c146101385780631c18b1d71461016857806323cd35a31461018457806341c0e1b5146101a2575b600080fd5b610152600480360361014d91908101906113e6565b610372565b60405161015f9190611788565b60405180910390f35b610182600480360361017d9190810190611367565b6103de565b005b61018c61067d565b6040516101999190611788565b60405180910390f35b6101aa6106de565b005b6101b461073e565b6040516101c797969594939291906118c0565b60405180910390f35b6101d8610795565b6040516101e59190611788565b60405180910390f35b6102086004803603610203919081019061133e565b6107f6565b005b610224600480360361021f919081019061140f565b610840565b005b61022e610be2565b005b610238610ce8565b6040516102459190611752565b60405180910390f35b610256610d11565b6040516102639190611788565b60405180910390f35b610274610d6f565b6040516102819190611788565b60405180910390f35b6102a4600480360361029f91908101906113e6565b610dd0565b6040516102b19190611788565b60405180910390f35b6102c2610e3c565b6040516102cf91906118a5565b60405180910390f35b6102e0610e42565b6040516102ed91906118a5565b60405180910390f35b610310600480360361030b919081019061133e565b610e48565b60405161031d9190611883565b60405180910390f35b610340600480360361033b919081019061133e565b610fa3565b005b61035c600480360361035791908101906113e6565b610ff6565b6040516103699190611788565b60405180910390f35b600061037c610d11565b6103bb576040517f08c379a00000000000000000000000000000000000000000000000000000000081526004016103b290611803565b60405180910390fd5b81600160040160006101000a81548160ff02191690831515021790559050919050565b60011515600160040160009054906101000a900460ff16151514610437576040517f08c379a000000000000000000000000000000000000000000000000000000000815260040161042e90611823565b60405180910390fd5b60011515600160040160029054906101000a900460ff16151514610490576040517f08c379a000000000000000000000000000000000000000000000000000000000815260040161048790611863565b60405180910390fd5b610498610d11565b6104d7576040517f08c379a00000000000000000000000000000000000000000000000000000000081526004016104ce90611803565b60405180910390fd5b6104df611198565b60405180606001604052808573ffffffffffffffffffffffffffffffffffffffff1681526020018481526020018381525090507fea58b9e601d38c6cd2de8e796bfcf199b4a61c0bd737724d359a0755fdb0c2c6846040516105419190611752565b60405180910390a180600960008673ffffffffffffffffffffffffffffffffffffffff1673ffffffffffffffffffffffffffffffffffffffff16815260200190815260200160002060008201518160000160006101000a81548173ffffffffffffffffffffffffffffffffffffffff021916908373ffffffffffffffffffffffffffffffffffffffff16021790555060208201518160010190805190602001906105ec9291906111cf565b5060408201518160020190805190602001906106099291906111cf565b509050506001600660008673ffffffffffffffffffffffffffffffffffffffff1673ffffffffffffffffffffffffffffffffffffffff16815260200190815260200160002060006101000a81548160ff021916908315150217905550600a6000815480929190600101919050555050505050565b6000610687610d11565b6106c6576040517f08c379a00000000000000000000000000000000000000000000000000000000081526004016106bd90611803565b60405180910390fd5b600160040160019054906101000a900460ff16905090565b6106e6610d11565b610725576040517f08c379a000000000000000000000000000000000000000000000000000000000815260040161071c90611803565b60405180910390fd5b3373ffffffffffffffffffffffffffffffffffffffff16ff5b60018060000154908060010154908060020154908060030154908060040160009054906101000a900460ff16908060040160019054906101000a900460ff16908060040160029054906101000a900460ff16905087565b600061079f610d11565b6107de576040517f08c379a00000000000000000000000000000000000000000000000000000000081526004016107d590611803565b60405180910390fd5b600160040160009054906101000a900460ff16905090565b6107fe610d11565b61083d576040517f08c379a000000000000000000000000000000000000000000000000000000000815260040161083490611803565b60405180910390fd5b50565b60011515600160040160019054906101000a900460ff16151514610899576040517f08c379a0000000000000000000000000000000000000000000000000000000008152600401610890906117c3565b60405180910390fd5b60011515600160040160029054906101000a900460ff161515146108f2576040517f08c379a00000000000000000000000000000000000000000000000000000000081526004016108e990611863565b60405180910390fd5b6108fa610d11565b610939576040517f08c379a000000000000000000000000000000000000000000000000000000000815260040161093090611803565b60405180910390fd5b33600073ffffffffffffffffffffffffffffffffffffffff16600860008373ffffffffffffffffffffffffffffffffffffffff1673ffffffffffffffffffffffffffffffffffffffff16815260200190815260200160002060000160009054906101000a900473ffffffffffffffffffffffffffffffffffffffff1673ffffffffffffffffffffffffffffffffffffffff1614610a0b576040517f08c379a0000000000000000000000000000000000000000000000000000000008152600401610a0290611843565b60405180910390fd5b6012821015610a4f576040517f08c379a0000000000000000000000000000000000000000000000000000000008152600401610a46906117a3565b60405180910390fd5b610a5761124f565b60405180606001604052803373ffffffffffffffffffffffffffffffffffffffff1681526020018581526020018481525090507fc35be007a236088cf0e03bd876c5857f0dfcc266ac92bcb1905169739b12921033604051610ab9919061176d565b60405180910390a180600860003373ffffffffffffffffffffffffffffffffffffffff1673ffffffffffffffffffffffffffffffffffffffff16815260200190815260200160002060008201518160000160006101000a81548173ffffffffffffffffffffffffffffffffffffffff021916908373ffffffffffffffffffffffffffffffffffffffff1602179055506020820151816001019080519060200190610b649291906111cf565b50604082015181600201559050506001600760003373ffffffffffffffffffffffffffffffffffffffff1673ffffffffffffffffffffffffffffffffffffffff16815260200190815260200160002060006101000a81548160ff021916908315150217905550600b6000815480929190600101919050555050505050565b610bea610d11565b610c29576040517f08c379a0000000000000000000000000000000000000000000000000000000008152600401610c2090611803565b60405180910390fd5b600073ffffffffffffffffffffffffffffffffffffffff166000809054906101000a900473ffffffffffffffffffffffffffffffffffffffff1673ffffffffffffffffffffffffffffffffffffffff167f8be0079c531659141344cd1fd0a4f28419497f9722a3daafe3b4186f6b6457e060405160405180910390a360008060006101000a81548173ffffffffffffffffffffffffffffffffffffffff021916908373ffffffffffffffffffffffffffffffffffffffff160217905550565b60008060009054906101000a900473ffffffffffffffffffffffffffffffffffffffff16905090565b60008060009054906101000a900473ffffffffffffffffffffffffffffffffffffffff1673ffffffffffffffffffffffffffffffffffffffff16610d53611062565b73ffffffffffffffffffffffffffffffffffffffff1614905090565b6000610d79610d11565b610db8576040517f08c379a0000000000000000000000000000000000000000000000000000000008152600401610daf90611803565b60405180910390fd5b600160040160029054906101000a900460ff16905090565b6000610dda610d11565b610e19576040517f08c379a0000000000000000000000000000000000000000000000000000000008152600401610e1090611803565b60405180910390fd5b81600160040160026101000a81548160ff02191690831515021790559050919050565b600b5481565b600a5481565b610e5061124f565b600860008373ffffffffffffffffffffffffffffffffffffffff1673ffffffffffffffffffffffffffffffffffffffff1681526020019081526020016000206040518060600160405290816000820160009054906101000a900473ffffffffffffffffffffffffffffffffffffffff1673ffffffffffffffffffffffffffffffffffffffff1673ffffffffffffffffffffffffffffffffffffffff168152602001600182018054600181600116156101000203166002900480601f016020809104026020016040519081016040528092919081815260200182805460018160011615610100020316600290048015610f895780601f10610f5e57610100808354040283529160200191610f89565b820191906000526020600020905b815481529060010190602001808311610f6c57829003601f168201915b505050505081526020016002820154815250509050919050565b610fab610d11565b610fea576040517f08c379a0000000000000000000000000000000000000000000000000000000008152600401610fe190611803565b60405180910390fd5b610ff38161106a565b50565b6000611000610d11565b61103f576040517f08c379a000000000000000000000000000000000000000000000000000000000815260040161103690611803565b60405180910390fd5b81600160040160016101000a81548160ff02191690831515021790559050919050565b600033905090565b600073ffffffffffffffffffffffffffffffffffffffff168173ffffffffffffffffffffffffffffffffffffffff1614156110da576040517f08c379a00000000000000000000000000000000000000000000000000000000081526004016110d1906117e3565b60405180910390fd5b8073ffffffffffffffffffffffffffffffffffffffff166000809054906101000a900473ffffffffffffffffffffffffffffffffffffffff1673ffffffffffffffffffffffffffffffffffffffff167f8be0079c531659141344cd1fd0a4f28419497f9722a3daafe3b4186f6b6457e060405160405180910390a3806000806101000a81548173ffffffffffffffffffffffffffffffffffffffff021916908373ffffffffffffffffffffffffffffffffffffffff16021790555050565b6040518060600160405280600073ffffffffffffffffffffffffffffffffffffffff16815260200160608152602001606081525090565b828054600181600116156101000203166002900490600052602060002090601f016020900481019282601f1061121057805160ff191683800117855561123e565b8280016001018555821561123e579182015b8281111561123d578251825591602001919060010190611222565b5b50905061124b9190611286565b5090565b6040518060600160405280600073ffffffffffffffffffffffffffffffffffffffff16815260200160608152602001600081525090565b6112a891905b808211156112a457600081600090555060010161128c565b5090565b90565b6000813590506112ba81611a86565b92915050565b6000813590506112cf81611a9d565b92915050565b600082601f8301126112e657600080fd5b81356112f96112f48261195c565b61192f565b9150808252602083016020830185838301111561131557600080fd5b611320838284611a33565b50505092915050565b60008135905061133881611ab4565b92915050565b60006020828403121561135057600080fd5b600061135e848285016112ab565b91505092915050565b60008060006060848603121561137c57600080fd5b600061138a868287016112ab565b935050602084013567ffffffffffffffff8111156113a757600080fd5b6113b3868287016112d5565b925050604084013567ffffffffffffffff8111156113d057600080fd5b6113dc868287016112d5565b9150509250925092565b6000602082840312156113f857600080fd5b6000611406848285016112c0565b91505092915050565b6000806040838503121561142257600080fd5b600083013567ffffffffffffffff81111561143c57600080fd5b611448858286016112d5565b925050602061145985828601611329565b9150509250929050565b61146c816119fd565b82525050565b61147b816119b5565b82525050565b61148a816119b5565b82525050565b611499816119c7565b82525050565b60006114aa82611988565b6114b48185611993565b93506114c4818560208601611a42565b6114cd81611a75565b840191505092915050565b60006114e56022836119a4565b91507f566f74657273206d757374206265206f76657220313820746f2072656769737460008301527f65720000000000000000000000000000000000000000000000000000000000006020830152604082019050919050565b600061154b6017836119a4565b91507f566f74696e6720706572696f6420697320636c6f7365640000000000000000006000830152602082019050919050565b600061158b6026836119a4565b91507f4f776e61626c653a206e6577206f776e657220697320746865207a65726f206160008301527f64647265737300000000000000000000000000000000000000000000000000006020830152604082019050919050565b60006115f16020836119a4565b91507f4f776e61626c653a2063616c6c6572206973206e6f7420746865206f776e65726000830152602082019050919050565b6000611631601d836119a4565b91507f526567697374726174696f6e20706572696f6420697320636c6f7365640000006000830152602082019050919050565b6000611671601c836119a4565b91507f566f7465722063616e207265676973746572206f6e6c79206f6e6365000000006000830152602082019050919050565b60006116b16019836119a4565b91507f456c656374696f6e20706572696f6420697320636c6f736564000000000000006000830152602082019050919050565b60006060830160008301516116fc6000860182611472565b5060208301518482036020860152611714828261149f565b91505060408301516117296040860182611734565b508091505092915050565b61173d816119f3565b82525050565b61174c816119f3565b82525050565b60006020820190506117676000830184611481565b92915050565b60006020820190506117826000830184611463565b92915050565b600060208201905061179d6000830184611490565b92915050565b600060208201905081810360008301526117bc816114d8565b9050919050565b600060208201905081810360008301526117dc8161153e565b9050919050565b600060208201905081810360008301526117fc8161157e565b9050919050565b6000602082019050818103600083015261181c816115e4565b9050919050565b6000602082019050818103600083015261183c81611624565b9050919050565b6000602082019050818103600083015261185c81611664565b9050919050565b6000602082019050818103600083015261187c816116a4565b9050919050565b6000602082019050818103600083015261189d81846116e4565b905092915050565b60006020820190506118ba6000830184611743565b92915050565b600060e0820190506118d5600083018a611743565b6118e26020830189611743565b6118ef6040830188611743565b6118fc6060830187611743565b6119096080830186611490565b61191660a0830185611490565b61192360c0830184611490565b98975050505050505050565b6000604051905081810181811067ffffffffffffffff8211171561195257600080fd5b8060405250919050565b600067ffffffffffffffff82111561197357600080fd5b601f19601f8301169050602081019050919050565b600081519050919050565b600082825260208201905092915050565b600082825260208201905092915050565b60006119c0826119d3565b9050919050565b60008115159050919050565b600073ffffffffffffffffffffffffffffffffffffffff82169050919050565b6000819050919050565b6000611a0882611a0f565b9050919050565b6000611a1a82611a21565b9050919050565b6000611a2c826119d3565b9050919050565b82818337600083830152505050565b60005b83811015611a60578082015181840152602081019050611a45565b83811115611a6f576000848401525b50505050565b6000601f19601f8301169050919050565b611a8f816119b5565b8114611a9a57600080fd5b50565b611aa6816119c7565b8114611ab157600080fd5b50565b611abd816119f3565b8114611ac857600080fd5b5056fea365627a7a72315820560432087cd86bc0fa79ab155340c657081db75927a8d512ab1e06a0e8e601a46c6578706572696d656e74616cf564736f6c634300050c0040",
  "source": "pragma solidity ^0.5.8;\npragma experimental ABIEncoderV2;\n\nimport \"../node_modules/openzeppelin-solidity/contracts/math/SafeMath.sol\";\nimport \"../node_modules/openzeppelin-solidity/contracts/ownership/Ownable.sol\";\n//import \"https://github.com/OpenZeppelin/openzeppelin-solidity/contracts/ownership/Ownable.sol\";\n\ncontract ElectionContract is Ownable {\n\n    using SafeMath for uint256;\n\n\n    struct Candidate {\n        address _address;\n        string name;\n        string party;\n    }\n\n    struct Voter {\n        address _address;\n        string name;\n        uint age;\n\n    }\n\n    struct Election {\n        uint256 electionTimeStamp;\n        uint256 registrationPeriod;\n        uint256 votingPeriod;\n        uint256 endTime;\n        bool openRegistrationPeriod;\n        bool openVotingPeriod;\n        bool openElectionPeriod;\n    }\n\n    Election public election;\n\n    mapping(address => bool) isCandidateValid;\n    mapping(address => bool) isVoterValid;\n\n    mapping(address => Voter) voters;\n    mapping(address => Candidate) candidates;\n\n\n    uint public numberOfCandidates;\n    uint public numberOfVoters;\n\n\n    constructor() public {\n      election = Election(now, 1 days, 2 days, 2 days, true, false, false);\n    }\n\n    // events\n\n    event LogNewCandidate(address sender);\n    event LogNewVoter(address sender);\n\n\n\n\n\n\n    // modifiers\n\n    // Ownable\n\n\n\n    modifier registrationPeriodIsOpen()  {\n        require(election.openRegistrationPeriod == true, \"Registration period is closed\");\n    _;\n    }\n\n    modifier votingPeriodIsOpen() {\n      require(election.openVotingPeriod == true, \"Voting period is closed\");\n      _;\n    }\n\n    modifier electionPeriodIsOpen() {\n      require(election.openElectionPeriod == true, \"Election period is closed\");\n      _;\n    }\n\n    modifier validCandidate(address _address) {\n      require(isCandidateValid[_address] == true, \"Candidate is invalid\");\n      _;\n    }\n\n    modifier unvalidatedCandidate(address _address) {\n        require(isCandidateValid[_address] != true, \"Candidate is valid\");\n        _;\n    }\n\n    modifier validVoter(address _address) {\n        require(voters[_address]._address == address(0), \"Voter can register only once\");\n        _;\n    }\n\n\n    // Contract Owner\n\n    /**\n     * @dev Returns the address of the current owner.\n\n    function owner() public view returns (address) {\n        return _owner;\n    }\n\n    /**\n     * @dev Returns true if the caller is the current owner.\n\n    function isOwner() public view returns (bool) {\n        return _msgSender() == _owner;\n    }\n\n\n    function _msgSender() internal view returns (address payable) {\n        return msg.sender;\n    }\n    */\n\n    //  Registration Functions\n\n    function _registerCandidate(address _address, string memory _name, string memory _party) public\n    registrationPeriodIsOpen\n    electionPeriodIsOpen\n    onlyOwner {\n\n        Candidate memory candidate = Candidate({\n           _address:_address,\n           name: _name,\n           party:_party\n        });\n        emit LogNewCandidate(_address);\n        candidates[_address] = candidate;\n        isCandidateValid[_address] = true;\n        numberOfCandidates++;\n    }\n\n    function _registerVoter(string memory _name, uint _age) public\n    votingPeriodIsOpen\n    electionPeriodIsOpen\n    onlyOwner\n    validVoter(msg.sender) {\n\n        require(_age >= 18, \"Voters must be over 18 to register\");\n        Voter memory newVoter = Voter({\n            _address: msg.sender,\n            name: _name,\n            age:_age\n        });\n        emit LogNewVoter(msg.sender);\n        voters[msg.sender] = newVoter;\n        isVoterValid[msg.sender] = true;\n        numberOfVoters++;\n    }\n\n\n\n    // voting Functions\n\n    function getVoter(address _address) public view returns(Voter memory){\n        return(voters[_address]);\n    }\n\n    // Set Election Period Functions\n\n\n    function setElectionAccess(bool _access) public onlyOwner returns (bool) {\n              return election.openElectionPeriod = _access;\n    }\n\n    function setRegistrationAccess(bool _access) public onlyOwner returns (bool) {\n            return election.openRegistrationPeriod = _access;\n    }\n\n    function setVotingAccess(bool _access) public onlyOwner returns (bool) {\n            return election.openVotingPeriod = _access;\n    }\n\n\n    // Get Election Period Functions\n\n    function getRegistrationAccess() public view onlyOwner returns (bool) {\n            return election.openRegistrationPeriod;\n    }\n\n    function getVotingAccess() public view onlyOwner returns (bool) {\n            return election.openVotingPeriod;\n    }\n\n    function getElectionAccess() public view onlyOwner returns (bool) {\n            return election.openElectionPeriod;\n    }\n\n\n\n    function kill() onlyOwner external {\n      selfdestruct(msg.sender);\n    }\n\n    // Assertion Test Functions\n\n    function contractOwner(address _address) public view onlyOwner{\n\n    }\n\n\n\n\n}\n",
  "sourcePath": "/Users/admin/github/votingSystem/contracts/ElectionContract.sol",
  "compiler": {
    "name": "solc",
    "version": "0.5.12+commit.7709ece9.Emscripten.clang"
  },
  "schemaVersion": "3.0.2",
  "updatedAt": "2019-11-13T16:23:41.320Z",
  "devdoc": {
    "methods": {
      "_registerCandidate(address,string,string)": {
        "details": "Returns the address of the current owner. function owner() public view returns (address) { return _owner; } /**Returns true if the caller is the current owner. function isOwner() public view returns (bool) { return _msgSender() == _owner; } function _msgSender() internal view returns (address payable) { return msg.sender; }"
      },
      "isOwner()": {
        "details": "Returns true if the caller is the current owner."
      },
      "owner()": {
        "details": "Returns the address of the current owner."
      },
      "renounceOwnership()": {
        "details": "Leaves the contract without owner. It will not be possible to call `onlyOwner` functions anymore. Can only be called by the current owner.     * NOTE: Renouncing ownership will leave the contract without an owner, thereby removing any functionality that is only available to the owner."
      },
      "transferOwnership(address)": {
        "details": "Transfers ownership of the contract to a new account (`newOwner`). Can only be called by the current owner."
      }
    }
  },
  "userdoc": {
    "methods": {}
  }
}