{
  "contractName": "ElectionContract",
  "abi": [
    {
      "inputs": [],
      "payable": false,
      "stateMutability": "nonpayable",
      "type": "constructor"
    },
    {
      "anonymous": false,
      "inputs": [
        {
          "indexed": true,
          "internalType": "address",
          "name": "previousOwner",
          "type": "address"
        },
        {
          "indexed": true,
          "internalType": "address",
          "name": "newOwner",
          "type": "address"
        }
      ],
      "name": "OwnershipTransferred",
      "type": "event"
    },
    {
      "constant": true,
      "inputs": [
        {
          "internalType": "uint256",
          "name": "",
          "type": "uint256"
        }
      ],
      "name": "candidates",
      "outputs": [
        {
          "internalType": "address",
          "name": "_address",
          "type": "address"
        },
        {
          "internalType": "string",
          "name": "name",
          "type": "string"
        },
        {
          "internalType": "string",
          "name": "party",
          "type": "string"
        }
      ],
      "payable": false,
      "stateMutability": "view",
      "type": "function"
    },
    {
      "constant": true,
      "inputs": [],
      "name": "election",
      "outputs": [
        {
          "internalType": "uint256",
          "name": "electionTimeStamp",
          "type": "uint256"
        },
        {
          "internalType": "uint256",
          "name": "registrationPeriod",
          "type": "uint256"
        },
        {
          "internalType": "uint256",
          "name": "votingPeriod",
          "type": "uint256"
        },
        {
          "internalType": "uint256",
          "name": "endTime",
          "type": "uint256"
        },
        {
          "internalType": "bool",
          "name": "openRegistrationPeriod",
          "type": "bool"
        },
        {
          "internalType": "bool",
          "name": "openVotingPeriod",
          "type": "bool"
        },
        {
          "internalType": "bool",
          "name": "openElectionPeriod",
          "type": "bool"
        }
      ],
      "payable": false,
      "stateMutability": "view",
      "type": "function"
    },
    {
      "constant": true,
      "inputs": [],
      "name": "isOwner",
      "outputs": [
        {
          "internalType": "bool",
          "name": "",
          "type": "bool"
        }
      ],
      "payable": false,
      "stateMutability": "view",
      "type": "function"
    },
    {
      "constant": true,
      "inputs": [],
      "name": "numberOfCandidates",
      "outputs": [
        {
          "internalType": "uint256",
          "name": "",
          "type": "uint256"
        }
      ],
      "payable": false,
      "stateMutability": "view",
      "type": "function"
    },
    {
      "constant": true,
      "inputs": [],
      "name": "numberOfVoters",
      "outputs": [
        {
          "internalType": "uint256",
          "name": "",
          "type": "uint256"
        }
      ],
      "payable": false,
      "stateMutability": "view",
      "type": "function"
    },
    {
      "constant": true,
      "inputs": [],
      "name": "owner",
      "outputs": [
        {
          "internalType": "address",
          "name": "",
          "type": "address"
        }
      ],
      "payable": false,
      "stateMutability": "view",
      "type": "function"
    },
    {
      "constant": false,
      "inputs": [],
      "name": "renounceOwnership",
      "outputs": [],
      "payable": false,
      "stateMutability": "nonpayable",
      "type": "function"
    },
    {
      "constant": false,
      "inputs": [
        {
          "internalType": "address",
          "name": "newOwner",
          "type": "address"
        }
      ],
      "name": "transferOwnership",
      "outputs": [],
      "payable": false,
      "stateMutability": "nonpayable",
      "type": "function"
    },
    {
      "constant": true,
      "inputs": [
        {
          "internalType": "uint256",
          "name": "",
          "type": "uint256"
        }
      ],
      "name": "voters",
      "outputs": [
        {
          "internalType": "string",
          "name": "name",
          "type": "string"
        },
        {
          "internalType": "uint256",
          "name": "age",
          "type": "uint256"
        }
      ],
      "payable": false,
      "stateMutability": "view",
      "type": "function"
    },
    {
      "constant": true,
      "inputs": [
        {
          "internalType": "address",
          "name": "_address",
          "type": "address"
        }
      ],
      "name": "_isOwner",
      "outputs": [
        {
          "internalType": "bool",
          "name": "",
          "type": "bool"
        }
      ],
      "payable": false,
      "stateMutability": "view",
      "type": "function"
    },
    {
      "constant": false,
      "inputs": [
        {
          "internalType": "address",
          "name": "_address",
          "type": "address"
        },
        {
          "internalType": "string",
          "name": "_name",
          "type": "string"
        },
        {
          "internalType": "string",
          "name": "_party",
          "type": "string"
        }
      ],
      "name": "_registerCandidate",
      "outputs": [],
      "payable": false,
      "stateMutability": "nonpayable",
      "type": "function"
    },
    {
      "constant": false,
      "inputs": [
        {
          "internalType": "string",
          "name": "_name",
          "type": "string"
        },
        {
          "internalType": "uint256",
          "name": "_age",
          "type": "uint256"
        }
      ],
      "name": "_registerVoter",
      "outputs": [],
      "payable": false,
      "stateMutability": "nonpayable",
      "type": "function"
    },
    {
      "constant": false,
      "inputs": [
        {
          "internalType": "bool",
          "name": "_access",
          "type": "bool"
        }
      ],
      "name": "setRegistrationAccess",
      "outputs": [
        {
          "internalType": "bool",
          "name": "",
          "type": "bool"
        }
      ],
      "payable": false,
      "stateMutability": "nonpayable",
      "type": "function"
    },
    {
      "constant": false,
      "inputs": [
        {
          "internalType": "bool",
          "name": "_access",
          "type": "bool"
        }
      ],
      "name": "setVotingAccess",
      "outputs": [
        {
          "internalType": "bool",
          "name": "",
          "type": "bool"
        }
      ],
      "payable": false,
      "stateMutability": "nonpayable",
      "type": "function"
    },
    {
      "constant": true,
      "inputs": [],
      "name": "getRegistrationAccess",
      "outputs": [
        {
          "internalType": "bool",
          "name": "",
          "type": "bool"
        }
      ],
      "payable": false,
      "stateMutability": "view",
      "type": "function"
    },
    {
      "constant": true,
      "inputs": [],
      "name": "getVotingAccess",
      "outputs": [
        {
          "internalType": "bool",
          "name": "",
          "type": "bool"
        }
      ],
      "payable": false,
      "stateMutability": "view",
      "type": "function"
    }
  ],
  "bytecode": "0x608060405234801561001057600080fd5b506100286101ba640100000000026401000000009004565b6000806101000a81548173ffffffffffffffffffffffffffffffffffffffff021916908373ffffffffffffffffffffffffffffffffffffffff1602179055506000809054906101000a900473ffffffffffffffffffffffffffffffffffffffff1673ffffffffffffffffffffffffffffffffffffffff16600073ffffffffffffffffffffffffffffffffffffffff167f8be0079c531659141344cd1fd0a4f28419497f9722a3daafe3b4186f6b6457e060405160405180910390a36040518060e001604052804281526020016201518081526020016202a30081526020016202a30081526020016001151581526020016000151581526020016000151581525060016000820151816000015560208201518160010155604082015181600201556060820151816003015560808201518160040160006101000a81548160ff02191690831515021790555060a08201518160040160016101000a81548160ff02191690831515021790555060c08201518160040160026101000a81548160ff0219169083151502179055509050506101c2565b600033905090565b61149c806101d16000396000f3fe608060405234801561001057600080fd5b506004361061011d576000357c0100000000000000000000000000000000000000000000000000000000900480638da5cb5b116100b4578063b71fbe4b11610083578063b71fbe4b14610631578063da58c7d91461068d578063f2fde38b1461073b578063fe1b76eb1461077f5761011d565b80638da5cb5b146105895780638f32d59b146105d35780639bcc3361146105f55780639c84bb27146106135761011d565b80634b1d3ede116100f05780634b1d3ede146104445780634de3d10b1461049857806369ab927f146104ba578063715018a61461057f5761011d565b8063133b819c146101225780631c18b1d71461016a57806323cd35a3146102dc5780633477ee2e146102fe575b600080fd5b6101506004803603602081101561013857600080fd5b810190808035151590602001909291905050506107c7565b604051808215151515815260200191505060405180910390f35b6102da6004803603606081101561018057600080fd5b81019080803573ffffffffffffffffffffffffffffffffffffffff169060200190929190803590602001906401000000008111156101bd57600080fd5b8201836020820111156101cf57600080fd5b803590602001918460018302840111640100000000831117156101f157600080fd5b91908080601f016020809104026020016040519081016040528093929190818152602001838380828437600081840152601f19601f8201169050808301925050505050505091929192908035906020019064010000000081111561025457600080fd5b82018360208201111561026657600080fd5b8035906020019184600183028401116401000000008311171561028857600080fd5b91908080601f016020809104026020016040519081016040528093929190818152602001838380828437600081840152601f19601f820116905080830192505050505050509192919290505050610866565b005b6102e4610a54565b604051808215151515815260200191505060405180910390f35b61032a6004803603602081101561031457600080fd5b8101908080359060200190929190505050610ae8565b604051808473ffffffffffffffffffffffffffffffffffffffff1673ffffffffffffffffffffffffffffffffffffffff1681526020018060200180602001838103835285818151815260200191508051906020019080838360005b838110156103a0578082015181840152602081019050610385565b50505050905090810190601f1680156103cd5780820380516001836020036101000a031916815260200191505b50838103825284818151815260200191508051906020019080838360005b838110156104065780820151818401526020810190506103eb565b50505050905090810190601f1680156104335780820380516001836020036101000a031916815260200191505b509550505050505060405180910390f35b61044c610c6f565b6040518088815260200187815260200186815260200185815260200184151515158152602001831515151581526020018215151515815260200197505050505050505060405180910390f35b6104a0610cc6565b604051808215151515815260200191505060405180910390f35b61057d600480360360408110156104d057600080fd5b81019080803590602001906401000000008111156104ed57600080fd5b8201836020820111156104ff57600080fd5b8035906020019184600183028401116401000000008311171561052157600080fd5b91908080601f016020809104026020016040519081016040528093929190818152602001838380828437600081840152601f19601f82011690508083019250505050505050919291929080359060200190929190505050610d5a565b005b610587610e57565b005b610591610f90565b604051808273ffffffffffffffffffffffffffffffffffffffff1673ffffffffffffffffffffffffffffffffffffffff16815260200191505060405180910390f35b6105db610fb9565b604051808215151515815260200191505060405180910390f35b6105fd611017565b6040518082815260200191505060405180910390f35b61061b61101d565b6040518082815260200191505060405180910390f35b6106736004803603602081101561064757600080fd5b81019080803573ffffffffffffffffffffffffffffffffffffffff169060200190929190505050611023565b604051808215151515815260200191505060405180910390f35b6106b9600480360360208110156106a357600080fd5b8101908080359060200190929190505050611062565b6040518080602001838152602001828103825284818151815260200191508051906020019080838360005b838110156106ff5780820151818401526020810190506106e4565b50505050905090810190601f16801561072c5780820380516001836020036101000a031916815260200191505b50935050505060405180910390f35b61077d6004803603602081101561075157600080fd5b81019080803573ffffffffffffffffffffffffffffffffffffffff16906020019092919050505061112b565b005b6107ad6004803603602081101561079557600080fd5b810190808035151590602001909291905050506111b1565b604051808215151515815260200191505060405180910390f35b60006107d1610fb9565b610843576040517f08c379a00000000000000000000000000000000000000000000000000000000081526004018080602001828103825260208152602001807f4f776e61626c653a2063616c6c6572206973206e6f7420746865206f776e657281525060200191505060405180910390fd5b81600160040160006101000a81548160ff02191690831515021790559050919050565b60011515600160040160009054906101000a900460ff1615151461088957600080fd5b610891610fb9565b610903576040517f08c379a00000000000000000000000000000000000000000000000000000000081526004018080602001828103825260208152602001807f4f776e61626c653a2063616c6c6572206973206e6f7420746865206f776e657281525060200191505060405180910390fd5b600860405180606001604052808573ffffffffffffffffffffffffffffffffffffffff168152602001848152602001838152509080600181540180825580915050906001820390600052602060002090600302016000909192909190915060008201518160000160006101000a81548173ffffffffffffffffffffffffffffffffffffffff021916908373ffffffffffffffffffffffffffffffffffffffff16021790555060208201518160010190805190602001906109c492919061139c565b5060408201518160020190805190602001906109e192919061139c565b505050506001600660008573ffffffffffffffffffffffffffffffffffffffff1673ffffffffffffffffffffffffffffffffffffffff16815260200190815260200160002060006101000a81548160ff021916908315150217905550600960008154809291906001019190505550505050565b6000610a5e610fb9565b610ad0576040517f08c379a00000000000000000000000000000000000000000000000000000000081526004018080602001828103825260208152602001807f4f776e61626c653a2063616c6c6572206973206e6f7420746865206f776e657281525060200191505060405180910390fd5b600160040160019054906101000a900460ff16905090565b60088181548110610af557fe5b90600052602060002090600302016000915090508060000160009054906101000a900473ffffffffffffffffffffffffffffffffffffffff1690806001018054600181600116156101000203166002900480601f016020809104026020016040519081016040528092919081815260200182805460018160011615610100020316600290048015610bc75780601f10610b9c57610100808354040283529160200191610bc7565b820191906000526020600020905b815481529060010190602001808311610baa57829003601f168201915b505050505090806002018054600181600116156101000203166002900480601f016020809104026020016040519081016040528092919081815260200182805460018160011615610100020316600290048015610c655780601f10610c3a57610100808354040283529160200191610c65565b820191906000526020600020905b815481529060010190602001808311610c4857829003601f168201915b5050505050905083565b60018060000154908060010154908060020154908060030154908060040160009054906101000a900460ff16908060040160019054906101000a900460ff16908060040160029054906101000a900460ff16905087565b6000610cd0610fb9565b610d42576040517f08c379a00000000000000000000000000000000000000000000000000000000081526004018080602001828103825260208152602001807f4f776e61626c653a2063616c6c6572206973206e6f7420746865206f776e657281525060200191505060405180910390fd5b600160040160009054906101000a900460ff16905090565b60011515600160040160019054906101000a900460ff16151514610d7d57600080fd5b600a604051806040016040528084815260200183815250908060018154018082558091505090600182039060005260206000209060020201600090919290919091506000820151816000019080519060200190610ddb92919061139c565b50602082015181600101555050506001600760003373ffffffffffffffffffffffffffffffffffffffff1673ffffffffffffffffffffffffffffffffffffffff16815260200190815260200160002060006101000a81548160ff021916908315150217905550600b600081548092919060010191905055505050565b610e5f610fb9565b610ed1576040517f08c379a00000000000000000000000000000000000000000000000000000000081526004018080602001828103825260208152602001807f4f776e61626c653a2063616c6c6572206973206e6f7420746865206f776e657281525060200191505060405180910390fd5b600073ffffffffffffffffffffffffffffffffffffffff166000809054906101000a900473ffffffffffffffffffffffffffffffffffffffff1673ffffffffffffffffffffffffffffffffffffffff167f8be0079c531659141344cd1fd0a4f28419497f9722a3daafe3b4186f6b6457e060405160405180910390a360008060006101000a81548173ffffffffffffffffffffffffffffffffffffffff021916908373ffffffffffffffffffffffffffffffffffffffff160217905550565b60008060009054906101000a900473ffffffffffffffffffffffffffffffffffffffff16905090565b60008060009054906101000a900473ffffffffffffffffffffffffffffffffffffffff1673ffffffffffffffffffffffffffffffffffffffff16610ffb611250565b73ffffffffffffffffffffffffffffffffffffffff1614905090565b600b5481565b60095481565b600061102d610f90565b73ffffffffffffffffffffffffffffffffffffffff168273ffffffffffffffffffffffffffffffffffffffff16149050919050565b600a818154811061106f57fe5b9060005260206000209060020201600091509050806000018054600181600116156101000203166002900480601f01602080910402602001604051908101604052809291908181526020018280546001816001161561010002031660029004801561111b5780601f106110f05761010080835404028352916020019161111b565b820191906000526020600020905b8154815290600101906020018083116110fe57829003601f168201915b5050505050908060010154905082565b611133610fb9565b6111a5576040517f08c379a00000000000000000000000000000000000000000000000000000000081526004018080602001828103825260208152602001807f4f776e61626c653a2063616c6c6572206973206e6f7420746865206f776e657281525060200191505060405180910390fd5b6111ae81611258565b50565b60006111bb610fb9565b61122d576040517f08c379a00000000000000000000000000000000000000000000000000000000081526004018080602001828103825260208152602001807f4f776e61626c653a2063616c6c6572206973206e6f7420746865206f776e657281525060200191505060405180910390fd5b81600160040160016101000a81548160ff02191690831515021790559050919050565b600033905090565b600073ffffffffffffffffffffffffffffffffffffffff168173ffffffffffffffffffffffffffffffffffffffff1614156112de576040517f08c379a00000000000000000000000000000000000000000000000000000000081526004018080602001828103825260268152602001806114426026913960400191505060405180910390fd5b8073ffffffffffffffffffffffffffffffffffffffff166000809054906101000a900473ffffffffffffffffffffffffffffffffffffffff1673ffffffffffffffffffffffffffffffffffffffff167f8be0079c531659141344cd1fd0a4f28419497f9722a3daafe3b4186f6b6457e060405160405180910390a3806000806101000a81548173ffffffffffffffffffffffffffffffffffffffff021916908373ffffffffffffffffffffffffffffffffffffffff16021790555050565b828054600181600116156101000203166002900490600052602060002090601f016020900481019282601f106113dd57805160ff191683800117855561140b565b8280016001018555821561140b579182015b8281111561140a5782518255916020019190600101906113ef565b5b509050611418919061141c565b5090565b61143e91905b8082111561143a576000816000905550600101611422565b5090565b9056fe4f776e61626c653a206e6577206f776e657220697320746865207a65726f2061646472657373a265627a7a7231582030aa4be6b96d7d017179087c39e9b117f4d8ef6dc7c6f61b2058906cf098fbc464736f6c634300050c0032",
  "source": "pragma solidity ^0.5.8;\n\nimport \"../node_modules/openzeppelin-solidity/contracts/math/SafeMath.sol\";\nimport \"../node_modules/openzeppelin-solidity/contracts/ownership/Ownable.sol\";\n//import \"https://github.com/OpenZeppelin/openzeppelin-solidity/contracts/ownership/Ownable.sol\";\n\ncontract ElectionContract is Ownable {\n\n    using SafeMath for uint256;\n\n    struct Candidate {\n        address _address;\n        string name;\n        string party;\n    }\n\n    struct Voter {\n        string name;\n        uint age;\n\n    }\n\n    struct Election {\n        uint256 electionTimeStamp;\n        uint256 registrationPeriod;\n        uint256 votingPeriod;\n        uint256 endTime;\n        bool openRegistrationPeriod;\n        bool openVotingPeriod;\n        bool openElectionPeriod;\n    }\n\n    Election public election;\n    //Voter public voter;\n    //Candidate public candidate;\n    mapping(address => bool) isCandidateValid;\n    mapping(address => bool) isVoterValid;\n\n\n    Candidate[] public candidates;\n    uint public numberOfCandidates;\n\n\n    Voter[] public voters;\n    uint public numberOfVoters;\n\n\n    constructor() public {\n     election = Election(now, 1 days, 2 days, 2 days, true, false, false);\n\n    }\n\n    // modifiers\n\n    modifier registrationPeriodIsOpen()  {\n        require(election.openRegistrationPeriod == true);\n    _;\n    }\n\n    modifier votingPeriodIsOpen() {\n      require(election.openVotingPeriod == true);\n      _;\n    }\n\n    modifier closeElectionPeriod() {\n      require(election.openElectionPeriod == true);\n      _;\n    }\n\n    modifier validCandidate(address _address) {\n      require(isCandidateValid[_address] == true);\n      _;\n    }\n\n    modifier unvalidatedCandidate(address _address) {\n        require(isCandidateValid[_address] != true);\n        _;\n    }\n\n    modifier validVoter(address _address) {\n        require(isVoterValid[_address] == true);\n        _;\n    }\n\n\n\n\n\n    // Contract Owner\n\n    function _isOwner(address _address) public view returns(bool) {\n      return _address == owner();\n    }\n\n\n    //  Registration Functions\n\n    function _registerCandidate(address _address, string memory _name, string memory _party) public registrationPeriodIsOpen onlyOwner {\n        candidates.push(Candidate(_address, _name, _party));\n        isCandidateValid[_address] = true;\n        numberOfCandidates++;\n    }\n\n    function _registerVoter(string memory _name, uint _age) public votingPeriodIsOpen  {\n        voters.push(Voter(_name,_age));\n        isVoterValid[msg.sender] = true;\n        numberOfVoters++;\n    }\n\n\n    // voting Functions\n\n\n\n\n    // Set Election Period Functions\n\n    function setRegistrationAccess(bool _access) public onlyOwner returns (bool) {\n            return election.openRegistrationPeriod = _access;\n    }\n\n    function setVotingAccess(bool _access) public onlyOwner returns (bool) {\n            return election.openVotingPeriod = _access;\n    }\n\n\n    // Get Election Period Functions\n\n    function getRegistrationAccess() public view onlyOwner returns (bool) {\n            return election.openRegistrationPeriod;\n    }\n\n    function getVotingAccess() public view onlyOwner returns (bool) {\n            return election.openVotingPeriod;\n\n    }\n\n\n\n\n}\n",
  "sourcePath": "/Users/admin/github/votingSystem/contracts/ElectionContract.sol",
  "compiler": {
    "name": "solc",
    "version": "0.5.12+commit.7709ece9.Emscripten.clang"
  },
  "schemaVersion": "3.0.2",
  "updatedAt": "2019-11-06T10:17:33.668Z",
  "devdoc": {
    "methods": {
      "isOwner()": {
        "details": "Returns true if the caller is the current owner."
      },
      "owner()": {
        "details": "Returns the address of the current owner."
      },
      "renounceOwnership()": {
        "details": "Leaves the contract without owner. It will not be possible to call `onlyOwner` functions anymore. Can only be called by the current owner.     * NOTE: Renouncing ownership will leave the contract without an owner, thereby removing any functionality that is only available to the owner."
      },
      "transferOwnership(address)": {
        "details": "Transfers ownership of the contract to a new account (`newOwner`). Can only be called by the current owner."
      }
    }
  },
  "userdoc": {
    "methods": {}
  }
}