{
  "contractName": "ElectionContract",
  "abi": [
    {
      "inputs": [],
      "payable": false,
      "stateMutability": "nonpayable",
      "type": "constructor"
    },
    {
      "anonymous": false,
      "inputs": [
        {
          "indexed": false,
          "internalType": "address",
          "name": "sender",
          "type": "address"
        }
      ],
      "name": "LogNewCandidate",
      "type": "event"
    },
    {
      "anonymous": false,
      "inputs": [
        {
          "indexed": false,
          "internalType": "address",
          "name": "sender",
          "type": "address"
        }
      ],
      "name": "LogNewVoter",
      "type": "event"
    },
    {
      "anonymous": false,
      "inputs": [
        {
          "indexed": true,
          "internalType": "address",
          "name": "previousOwner",
          "type": "address"
        },
        {
          "indexed": true,
          "internalType": "address",
          "name": "newOwner",
          "type": "address"
        }
      ],
      "name": "OwnershipTransferred",
      "type": "event"
    },
    {
      "constant": true,
      "inputs": [],
      "name": "election",
      "outputs": [
        {
          "internalType": "uint256",
          "name": "electionTimeStamp",
          "type": "uint256"
        },
        {
          "internalType": "uint256",
          "name": "registrationPeriod",
          "type": "uint256"
        },
        {
          "internalType": "uint256",
          "name": "votingPeriod",
          "type": "uint256"
        },
        {
          "internalType": "uint256",
          "name": "endTime",
          "type": "uint256"
        },
        {
          "internalType": "bool",
          "name": "openRegistrationPeriod",
          "type": "bool"
        },
        {
          "internalType": "bool",
          "name": "openVotingPeriod",
          "type": "bool"
        },
        {
          "internalType": "bool",
          "name": "openElectionPeriod",
          "type": "bool"
        }
      ],
      "payable": false,
      "stateMutability": "view",
      "type": "function"
    },
    {
      "constant": true,
      "inputs": [],
      "name": "isOwner",
      "outputs": [
        {
          "internalType": "bool",
          "name": "",
          "type": "bool"
        }
      ],
      "payable": false,
      "stateMutability": "view",
      "type": "function"
    },
    {
      "constant": true,
      "inputs": [],
      "name": "numberOfCandidates",
      "outputs": [
        {
          "internalType": "uint256",
          "name": "",
          "type": "uint256"
        }
      ],
      "payable": false,
      "stateMutability": "view",
      "type": "function"
    },
    {
      "constant": true,
      "inputs": [],
      "name": "numberOfVoters",
      "outputs": [
        {
          "internalType": "uint256",
          "name": "",
          "type": "uint256"
        }
      ],
      "payable": false,
      "stateMutability": "view",
      "type": "function"
    },
    {
      "constant": true,
      "inputs": [],
      "name": "owner",
      "outputs": [
        {
          "internalType": "address",
          "name": "",
          "type": "address"
        }
      ],
      "payable": false,
      "stateMutability": "view",
      "type": "function"
    },
    {
      "constant": false,
      "inputs": [],
      "name": "renounceOwnership",
      "outputs": [],
      "payable": false,
      "stateMutability": "nonpayable",
      "type": "function"
    },
    {
      "constant": false,
      "inputs": [
        {
          "internalType": "address",
          "name": "newOwner",
          "type": "address"
        }
      ],
      "name": "transferOwnership",
      "outputs": [],
      "payable": false,
      "stateMutability": "nonpayable",
      "type": "function"
    },
    {
      "constant": true,
      "inputs": [
        {
          "internalType": "address",
          "name": "_address",
          "type": "address"
        }
      ],
      "name": "_isOwner",
      "outputs": [
        {
          "internalType": "bool",
          "name": "",
          "type": "bool"
        }
      ],
      "payable": false,
      "stateMutability": "view",
      "type": "function"
    },
    {
      "constant": false,
      "inputs": [
        {
          "internalType": "address",
          "name": "_address",
          "type": "address"
        },
        {
          "internalType": "string",
          "name": "_name",
          "type": "string"
        },
        {
          "internalType": "string",
          "name": "_party",
          "type": "string"
        }
      ],
      "name": "_registerCandidate",
      "outputs": [],
      "payable": false,
      "stateMutability": "nonpayable",
      "type": "function"
    },
    {
      "constant": false,
      "inputs": [
        {
          "internalType": "string",
          "name": "_name",
          "type": "string"
        },
        {
          "internalType": "uint256",
          "name": "_age",
          "type": "uint256"
        }
      ],
      "name": "_registerVoter",
      "outputs": [],
      "payable": false,
      "stateMutability": "nonpayable",
      "type": "function"
    },
    {
      "constant": true,
      "inputs": [
        {
          "internalType": "address",
          "name": "_address",
          "type": "address"
        }
      ],
      "name": "getVoter",
      "outputs": [
        {
          "components": [
            {
              "internalType": "address",
              "name": "_address",
              "type": "address"
            },
            {
              "internalType": "string",
              "name": "name",
              "type": "string"
            },
            {
              "internalType": "uint256",
              "name": "age",
              "type": "uint256"
            }
          ],
          "internalType": "struct ElectionContract.Voter",
          "name": "",
          "type": "tuple"
        }
      ],
      "payable": false,
      "stateMutability": "view",
      "type": "function"
    },
    {
      "constant": false,
      "inputs": [
        {
          "internalType": "bool",
          "name": "_access",
          "type": "bool"
        }
      ],
      "name": "setRegistrationAccess",
      "outputs": [
        {
          "internalType": "bool",
          "name": "",
          "type": "bool"
        }
      ],
      "payable": false,
      "stateMutability": "nonpayable",
      "type": "function"
    },
    {
      "constant": false,
      "inputs": [
        {
          "internalType": "bool",
          "name": "_access",
          "type": "bool"
        }
      ],
      "name": "setVotingAccess",
      "outputs": [
        {
          "internalType": "bool",
          "name": "",
          "type": "bool"
        }
      ],
      "payable": false,
      "stateMutability": "nonpayable",
      "type": "function"
    },
    {
      "constant": true,
      "inputs": [],
      "name": "getRegistrationAccess",
      "outputs": [
        {
          "internalType": "bool",
          "name": "",
          "type": "bool"
        }
      ],
      "payable": false,
      "stateMutability": "view",
      "type": "function"
    },
    {
      "constant": true,
      "inputs": [],
      "name": "getVotingAccess",
      "outputs": [
        {
          "internalType": "bool",
          "name": "",
          "type": "bool"
        }
      ],
      "payable": false,
      "stateMutability": "view",
      "type": "function"
    }
  ],
  "bytecode": "0x608060405234801561001057600080fd5b506100286101ba640100000000026401000000009004565b6000806101000a81548173ffffffffffffffffffffffffffffffffffffffff021916908373ffffffffffffffffffffffffffffffffffffffff1602179055506000809054906101000a900473ffffffffffffffffffffffffffffffffffffffff1673ffffffffffffffffffffffffffffffffffffffff16600073ffffffffffffffffffffffffffffffffffffffff167f8be0079c531659141344cd1fd0a4f28419497f9722a3daafe3b4186f6b6457e060405160405180910390a36040518060e001604052804281526020016201518081526020016202a30081526020016202a30081526020016001151581526020016000151581526020016000151581525060016000820151816000015560208201518160010155604082015181600201556060820151816003015560808201518160040160006101000a81548160ff02191690831515021790555060a08201518160040160016101000a81548160ff02191690831515021790555060c08201518160040160026101000a81548160ff0219169083151502179055509050506101c2565b600033905090565b611818806101d16000396000f3fe608060405234801561001057600080fd5b5060043610610112576000357c0100000000000000000000000000000000000000000000000000000000900480638da5cb5b116100b4578063b71fbe4b11610083578063b71fbe4b14610261578063d4f50f9814610291578063f2fde38b146102c1578063fe1b76eb146102dd57610112565b80638da5cb5b146101e95780638f32d59b146102075780639bcc3361146102255780639c84bb271461024357610112565b80634b1d3ede116100f05780634b1d3ede146101815780634de3d10b146101a557806369ab927f146101c3578063715018a6146101df57610112565b8063133b819c146101175780631c18b1d71461014757806323cd35a314610163575b600080fd5b610131600480360361012c9190810190611150565b61030d565b60405161013e91906114b2565b60405180910390f35b610161600480360361015c91908101906110d1565b610379565b005b61016b6105bf565b60405161017891906114b2565b60405180910390f35b610189610620565b60405161019c97969594939291906115ca565b60405180910390f35b6101ad610677565b6040516101ba91906114b2565b60405180910390f35b6101dd60048036036101d89190810190611179565b6106d8565b005b6101e76109da565b005b6101f1610ae0565b6040516101fe919061147c565b60405180910390f35b61020f610b09565b60405161021c91906114b2565b60405180910390f35b61022d610b67565b60405161023a91906115af565b60405180910390f35b61024b610b6d565b60405161025891906115af565b60405180910390f35b61027b600480360361027691908101906110a8565b610b73565b60405161028891906114b2565b60405180910390f35b6102ab60048036036102a691908101906110a8565b610bb2565b6040516102b8919061158d565b60405180910390f35b6102db60048036036102d691908101906110a8565b610d0d565b005b6102f760048036036102f29190810190611150565b610d60565b60405161030491906114b2565b60405180910390f35b6000610317610b09565b610356576040517f08c379a000000000000000000000000000000000000000000000000000000000815260040161034d9061152d565b60405180910390fd5b81600160040160006101000a81548160ff02191690831515021790559050919050565b60011515600160040160009054906101000a900460ff161515146103d2576040517f08c379a00000000000000000000000000000000000000000000000000000000081526004016103c99061154d565b60405180910390fd5b6103da610b09565b610419576040517f08c379a00000000000000000000000000000000000000000000000000000000081526004016104109061152d565b60405180910390fd5b610421610f02565b60405180606001604052808573ffffffffffffffffffffffffffffffffffffffff1681526020018481526020018381525090507fea58b9e601d38c6cd2de8e796bfcf199b4a61c0bd737724d359a0755fdb0c2c684604051610483919061147c565b60405180910390a180600960008673ffffffffffffffffffffffffffffffffffffffff1673ffffffffffffffffffffffffffffffffffffffff16815260200190815260200160002060008201518160000160006101000a81548173ffffffffffffffffffffffffffffffffffffffff021916908373ffffffffffffffffffffffffffffffffffffffff160217905550602082015181600101908051906020019061052e929190610f39565b50604082015181600201908051906020019061054b929190610f39565b509050506001600660008673ffffffffffffffffffffffffffffffffffffffff1673ffffffffffffffffffffffffffffffffffffffff16815260200190815260200160002060006101000a81548160ff021916908315150217905550600a6000815480929190600101919050555050505050565b60006105c9610b09565b610608576040517f08c379a00000000000000000000000000000000000000000000000000000000081526004016105ff9061152d565b60405180910390fd5b600160040160019054906101000a900460ff16905090565b60018060000154908060010154908060020154908060030154908060040160009054906101000a900460ff16908060040160019054906101000a900460ff16908060040160029054906101000a900460ff16905087565b6000610681610b09565b6106c0576040517f08c379a00000000000000000000000000000000000000000000000000000000081526004016106b79061152d565b60405180910390fd5b600160040160009054906101000a900460ff16905090565b60011515600160040160019054906101000a900460ff16151514610731576040517f08c379a0000000000000000000000000000000000000000000000000000000008152600401610728906114ed565b60405180910390fd5b33600073ffffffffffffffffffffffffffffffffffffffff16600860008373ffffffffffffffffffffffffffffffffffffffff1673ffffffffffffffffffffffffffffffffffffffff16815260200190815260200160002060000160009054906101000a900473ffffffffffffffffffffffffffffffffffffffff1673ffffffffffffffffffffffffffffffffffffffff1614610803576040517f08c379a00000000000000000000000000000000000000000000000000000000081526004016107fa9061156d565b60405180910390fd5b6012821015610847576040517f08c379a000000000000000000000000000000000000000000000000000000000815260040161083e906114cd565b60405180910390fd5b61084f610fb9565b60405180606001604052803373ffffffffffffffffffffffffffffffffffffffff1681526020018581526020018481525090507fc35be007a236088cf0e03bd876c5857f0dfcc266ac92bcb1905169739b129210336040516108b19190611497565b60405180910390a180600860003373ffffffffffffffffffffffffffffffffffffffff1673ffffffffffffffffffffffffffffffffffffffff16815260200190815260200160002060008201518160000160006101000a81548173ffffffffffffffffffffffffffffffffffffffff021916908373ffffffffffffffffffffffffffffffffffffffff160217905550602082015181600101908051906020019061095c929190610f39565b50604082015181600201559050506001600760003373ffffffffffffffffffffffffffffffffffffffff1673ffffffffffffffffffffffffffffffffffffffff16815260200190815260200160002060006101000a81548160ff021916908315150217905550600b6000815480929190600101919050555050505050565b6109e2610b09565b610a21576040517f08c379a0000000000000000000000000000000000000000000000000000000008152600401610a189061152d565b60405180910390fd5b600073ffffffffffffffffffffffffffffffffffffffff166000809054906101000a900473ffffffffffffffffffffffffffffffffffffffff1673ffffffffffffffffffffffffffffffffffffffff167f8be0079c531659141344cd1fd0a4f28419497f9722a3daafe3b4186f6b6457e060405160405180910390a360008060006101000a81548173ffffffffffffffffffffffffffffffffffffffff021916908373ffffffffffffffffffffffffffffffffffffffff160217905550565b60008060009054906101000a900473ffffffffffffffffffffffffffffffffffffffff16905090565b60008060009054906101000a900473ffffffffffffffffffffffffffffffffffffffff1673ffffffffffffffffffffffffffffffffffffffff16610b4b610dcc565b73ffffffffffffffffffffffffffffffffffffffff1614905090565b600b5481565b600a5481565b6000610b7d610ae0565b73ffffffffffffffffffffffffffffffffffffffff168273ffffffffffffffffffffffffffffffffffffffff16149050919050565b610bba610fb9565b600860008373ffffffffffffffffffffffffffffffffffffffff1673ffffffffffffffffffffffffffffffffffffffff1681526020019081526020016000206040518060600160405290816000820160009054906101000a900473ffffffffffffffffffffffffffffffffffffffff1673ffffffffffffffffffffffffffffffffffffffff1673ffffffffffffffffffffffffffffffffffffffff168152602001600182018054600181600116156101000203166002900480601f016020809104026020016040519081016040528092919081815260200182805460018160011615610100020316600290048015610cf35780601f10610cc857610100808354040283529160200191610cf3565b820191906000526020600020905b815481529060010190602001808311610cd657829003601f168201915b505050505081526020016002820154815250509050919050565b610d15610b09565b610d54576040517f08c379a0000000000000000000000000000000000000000000000000000000008152600401610d4b9061152d565b60405180910390fd5b610d5d81610dd4565b50565b6000610d6a610b09565b610da9576040517f08c379a0000000000000000000000000000000000000000000000000000000008152600401610da09061152d565b60405180910390fd5b81600160040160016101000a81548160ff02191690831515021790559050919050565b600033905090565b600073ffffffffffffffffffffffffffffffffffffffff168173ffffffffffffffffffffffffffffffffffffffff161415610e44576040517f08c379a0000000000000000000000000000000000000000000000000000000008152600401610e3b9061150d565b60405180910390fd5b8073ffffffffffffffffffffffffffffffffffffffff166000809054906101000a900473ffffffffffffffffffffffffffffffffffffffff1673ffffffffffffffffffffffffffffffffffffffff167f8be0079c531659141344cd1fd0a4f28419497f9722a3daafe3b4186f6b6457e060405160405180910390a3806000806101000a81548173ffffffffffffffffffffffffffffffffffffffff021916908373ffffffffffffffffffffffffffffffffffffffff16021790555050565b6040518060600160405280600073ffffffffffffffffffffffffffffffffffffffff16815260200160608152602001606081525090565b828054600181600116156101000203166002900490600052602060002090601f016020900481019282601f10610f7a57805160ff1916838001178555610fa8565b82800160010185558215610fa8579182015b82811115610fa7578251825591602001919060010190610f8c565b5b509050610fb59190610ff0565b5090565b6040518060600160405280600073ffffffffffffffffffffffffffffffffffffffff16815260200160608152602001600081525090565b61101291905b8082111561100e576000816000905550600101610ff6565b5090565b90565b60008135905061102481611790565b92915050565b600081359050611039816117a7565b92915050565b600082601f83011261105057600080fd5b813561106361105e82611666565b611639565b9150808252602083016020830185838301111561107f57600080fd5b61108a83828461173d565b50505092915050565b6000813590506110a2816117be565b92915050565b6000602082840312156110ba57600080fd5b60006110c884828501611015565b91505092915050565b6000806000606084860312156110e657600080fd5b60006110f486828701611015565b935050602084013567ffffffffffffffff81111561111157600080fd5b61111d8682870161103f565b925050604084013567ffffffffffffffff81111561113a57600080fd5b6111468682870161103f565b9150509250925092565b60006020828403121561116257600080fd5b60006111708482850161102a565b91505092915050565b6000806040838503121561118c57600080fd5b600083013567ffffffffffffffff8111156111a657600080fd5b6111b28582860161103f565b92505060206111c385828601611093565b9150509250929050565b6111d681611707565b82525050565b6111e5816116bf565b82525050565b6111f4816116bf565b82525050565b611203816116d1565b82525050565b600061121482611692565b61121e818561169d565b935061122e81856020860161174c565b6112378161177f565b840191505092915050565b600061124f6022836116ae565b91507f566f74657273206d757374206265206f76657220313820746f2072656769737460008301527f65720000000000000000000000000000000000000000000000000000000000006020830152604082019050919050565b60006112b56017836116ae565b91507f566f74696e6720706572696f6420697320636c6f7365640000000000000000006000830152602082019050919050565b60006112f56026836116ae565b91507f4f776e61626c653a206e6577206f776e657220697320746865207a65726f206160008301527f64647265737300000000000000000000000000000000000000000000000000006020830152604082019050919050565b600061135b6020836116ae565b91507f4f776e61626c653a2063616c6c6572206973206e6f7420746865206f776e65726000830152602082019050919050565b600061139b601d836116ae565b91507f526567697374726174696f6e20706572696f6420697320636c6f7365640000006000830152602082019050919050565b60006113db601c836116ae565b91507f566f7465722063616e207265676973746572206f6e6c79206f6e6365000000006000830152602082019050919050565b600060608301600083015161142660008601826111dc565b506020830151848203602086015261143e8282611209565b9150506040830151611453604086018261145e565b508091505092915050565b611467816116fd565b82525050565b611476816116fd565b82525050565b600060208201905061149160008301846111eb565b92915050565b60006020820190506114ac60008301846111cd565b92915050565b60006020820190506114c760008301846111fa565b92915050565b600060208201905081810360008301526114e681611242565b9050919050565b60006020820190508181036000830152611506816112a8565b9050919050565b60006020820190508181036000830152611526816112e8565b9050919050565b600060208201905081810360008301526115468161134e565b9050919050565b600060208201905081810360008301526115668161138e565b9050919050565b60006020820190508181036000830152611586816113ce565b9050919050565b600060208201905081810360008301526115a7818461140e565b905092915050565b60006020820190506115c4600083018461146d565b92915050565b600060e0820190506115df600083018a61146d565b6115ec602083018961146d565b6115f9604083018861146d565b611606606083018761146d565b61161360808301866111fa565b61162060a08301856111fa565b61162d60c08301846111fa565b98975050505050505050565b6000604051905081810181811067ffffffffffffffff8211171561165c57600080fd5b8060405250919050565b600067ffffffffffffffff82111561167d57600080fd5b601f19601f8301169050602081019050919050565b600081519050919050565b600082825260208201905092915050565b600082825260208201905092915050565b60006116ca826116dd565b9050919050565b60008115159050919050565b600073ffffffffffffffffffffffffffffffffffffffff82169050919050565b6000819050919050565b600061171282611719565b9050919050565b60006117248261172b565b9050919050565b6000611736826116dd565b9050919050565b82818337600083830152505050565b60005b8381101561176a57808201518184015260208101905061174f565b83811115611779576000848401525b50505050565b6000601f19601f8301169050919050565b611799816116bf565b81146117a457600080fd5b50565b6117b0816116d1565b81146117bb57600080fd5b50565b6117c7816116fd565b81146117d257600080fd5b5056fea365627a7a72315820b4eba413029717d44a733ffc924c734d6aef4c5a8794a7e53ee3da2ed89eef176c6578706572696d656e74616cf564736f6c634300050c0040",
  "source": "pragma solidity ^0.5.8;\npragma experimental ABIEncoderV2;\n\nimport \"../node_modules/openzeppelin-solidity/contracts/math/SafeMath.sol\";\nimport \"../node_modules/openzeppelin-solidity/contracts/ownership/Ownable.sol\";\n//import \"https://github.com/OpenZeppelin/openzeppelin-solidity/contracts/ownership/Ownable.sol\";\n\ncontract ElectionContract is Ownable {\n\n    using SafeMath for uint256;\n\n    struct Candidate {\n        address _address;\n        string name;\n        string party;\n    }\n\n    struct Voter {\n        address _address;\n        string name;\n        uint age;\n\n    }\n\n    struct Election {\n        uint256 electionTimeStamp;\n        uint256 registrationPeriod;\n        uint256 votingPeriod;\n        uint256 endTime;\n        bool openRegistrationPeriod;\n        bool openVotingPeriod;\n        bool openElectionPeriod;\n    }\n\n    Election public election;\n\n    mapping(address => bool) isCandidateValid;\n    mapping(address => bool) isVoterValid;\n\n    mapping(address => Voter) voters;\n    mapping(address => Candidate) candidates;\n\n\n    uint public numberOfCandidates;\n    uint public numberOfVoters;\n\n\n    constructor() public {\n     election = Election(now, 1 days, 2 days, 2 days, true, false, false);\n\n    }\n\n    // events\n\n    event LogNewCandidate(address sender);\n    event LogNewVoter(address sender);\n\n    // modifiers\n\n    modifier registrationPeriodIsOpen()  {\n        require(election.openRegistrationPeriod == true, \"Registration period is closed\");\n    _;\n    }\n\n    modifier votingPeriodIsOpen() {\n      require(election.openVotingPeriod == true, \"Voting period is closed\");\n      _;\n    }\n\n    modifier closeElectionPeriod() {\n      require(election.openElectionPeriod == true, \"Election period is closed\");\n      _;\n    }\n\n    modifier validCandidate(address _address) {\n      require(isCandidateValid[_address] == true, \"Candidate is invalid\");\n      _;\n    }\n\n    modifier unvalidatedCandidate(address _address) {\n        require(isCandidateValid[_address] != true, \"Candidate is valid\");\n        _;\n    }\n\n    modifier validVoter(address _address) {\n        require(voters[_address]._address == address(0), \"Voter can register only once\");\n        _;\n    }\n\n\n\n\n\n    // Contract Owner\n\n    function _isOwner(address _address) public view returns(bool) {\n      return _address == owner();\n    }\n\n\n    //  Registration Functions\n\n    function _registerCandidate(address _address, string memory _name, string memory _party) public registrationPeriodIsOpen onlyOwner {\n\n        Candidate memory candidate = Candidate({\n           _address:_address,\n           name: _name,\n           party:_party\n        });\n        emit LogNewCandidate(_address);\n        candidates[_address] = candidate;\n        isCandidateValid[_address] = true;\n        numberOfCandidates++;\n    }\n\n    function _registerVoter(string memory _name, uint _age) public votingPeriodIsOpen validVoter(msg.sender) {\n\n        require(_age >= 18, \"Voters must be over 18 to register\");\n        Voter memory newVoter = Voter({\n            _address: msg.sender,\n            name: _name,\n            age:_age\n        });\n        emit LogNewVoter(msg.sender);\n        voters[msg.sender] = newVoter;\n        isVoterValid[msg.sender] = true;\n        numberOfVoters++;\n    }\n\n\n    // voting Functions\n\n    function getVoter(address _address) public view returns(Voter memory){\n        return(voters[_address]);\n    }\n\n    // Set Election Period Functions\n\n    function setRegistrationAccess(bool _access) public onlyOwner returns (bool) {\n            return election.openRegistrationPeriod = _access;\n    }\n\n    function setVotingAccess(bool _access) public onlyOwner returns (bool) {\n            return election.openVotingPeriod = _access;\n    }\n\n\n    // Get Election Period Functions\n\n    function getRegistrationAccess() public view onlyOwner returns (bool) {\n            return election.openRegistrationPeriod;\n    }\n\n    function getVotingAccess() public view onlyOwner returns (bool) {\n            return election.openVotingPeriod;\n\n    }\n\n}\n",
  "sourcePath": "/Users/admin/github/votingSystem/contracts/ElectionContract.sol",
  "compiler": {
    "name": "solc",
    "version": "0.5.12+commit.7709ece9.Emscripten.clang"
  },
  "schemaVersion": "3.0.2",
  "updatedAt": "2019-11-07T13:54:56.852Z",
  "devdoc": {
    "methods": {
      "isOwner()": {
        "details": "Returns true if the caller is the current owner."
      },
      "owner()": {
        "details": "Returns the address of the current owner."
      },
      "renounceOwnership()": {
        "details": "Leaves the contract without owner. It will not be possible to call `onlyOwner` functions anymore. Can only be called by the current owner.     * NOTE: Renouncing ownership will leave the contract without an owner, thereby removing any functionality that is only available to the owner."
      },
      "transferOwnership(address)": {
        "details": "Transfers ownership of the contract to a new account (`newOwner`). Can only be called by the current owner."
      }
    }
  },
  "userdoc": {
    "methods": {}
  }
}