{
  "contractName": "ElectionContract",
  "abi": [
    {
      "inputs": [],
      "payable": false,
      "stateMutability": "nonpayable",
      "type": "constructor"
    },
    {
      "anonymous": false,
      "inputs": [
        {
          "indexed": false,
          "internalType": "address",
          "name": "sender",
          "type": "address"
        }
      ],
      "name": "LogNewCandidate",
      "type": "event"
    },
    {
      "anonymous": false,
      "inputs": [
        {
          "indexed": false,
          "internalType": "address",
          "name": "sender",
          "type": "address"
        }
      ],
      "name": "LogNewVoter",
      "type": "event"
    },
    {
      "anonymous": false,
      "inputs": [
        {
          "indexed": true,
          "internalType": "address",
          "name": "previousOwner",
          "type": "address"
        },
        {
          "indexed": true,
          "internalType": "address",
          "name": "newOwner",
          "type": "address"
        }
      ],
      "name": "OwnershipTransferred",
      "type": "event"
    },
    {
      "constant": true,
      "inputs": [],
      "name": "election",
      "outputs": [
        {
          "internalType": "uint256",
          "name": "electionTimeStamp",
          "type": "uint256"
        },
        {
          "internalType": "uint256",
          "name": "registrationPeriod",
          "type": "uint256"
        },
        {
          "internalType": "uint256",
          "name": "votingPeriod",
          "type": "uint256"
        },
        {
          "internalType": "uint256",
          "name": "endTime",
          "type": "uint256"
        },
        {
          "internalType": "bool",
          "name": "openRegistrationPeriod",
          "type": "bool"
        },
        {
          "internalType": "bool",
          "name": "openVotingPeriod",
          "type": "bool"
        },
        {
          "internalType": "bool",
          "name": "openElectionPeriod",
          "type": "bool"
        }
      ],
      "payable": false,
      "stateMutability": "view",
      "type": "function"
    },
    {
      "constant": true,
      "inputs": [],
      "name": "isOwner",
      "outputs": [
        {
          "internalType": "bool",
          "name": "",
          "type": "bool"
        }
      ],
      "payable": false,
      "stateMutability": "view",
      "type": "function"
    },
    {
      "constant": true,
      "inputs": [],
      "name": "numberOfCandidates",
      "outputs": [
        {
          "internalType": "uint256",
          "name": "",
          "type": "uint256"
        }
      ],
      "payable": false,
      "stateMutability": "view",
      "type": "function"
    },
    {
      "constant": true,
      "inputs": [],
      "name": "numberOfVoters",
      "outputs": [
        {
          "internalType": "uint256",
          "name": "",
          "type": "uint256"
        }
      ],
      "payable": false,
      "stateMutability": "view",
      "type": "function"
    },
    {
      "constant": true,
      "inputs": [],
      "name": "owner",
      "outputs": [
        {
          "internalType": "address",
          "name": "",
          "type": "address"
        }
      ],
      "payable": false,
      "stateMutability": "view",
      "type": "function"
    },
    {
      "constant": false,
      "inputs": [],
      "name": "renounceOwnership",
      "outputs": [],
      "payable": false,
      "stateMutability": "nonpayable",
      "type": "function"
    },
    {
      "constant": false,
      "inputs": [
        {
          "internalType": "address",
          "name": "newOwner",
          "type": "address"
        }
      ],
      "name": "transferOwnership",
      "outputs": [],
      "payable": false,
      "stateMutability": "nonpayable",
      "type": "function"
    },
    {
      "constant": true,
      "inputs": [
        {
          "internalType": "address",
          "name": "_address",
          "type": "address"
        }
      ],
      "name": "_isOwner",
      "outputs": [
        {
          "internalType": "bool",
          "name": "",
          "type": "bool"
        }
      ],
      "payable": false,
      "stateMutability": "view",
      "type": "function"
    },
    {
      "constant": false,
      "inputs": [
        {
          "internalType": "address",
          "name": "_address",
          "type": "address"
        },
        {
          "internalType": "string",
          "name": "_name",
          "type": "string"
        },
        {
          "internalType": "string",
          "name": "_party",
          "type": "string"
        }
      ],
      "name": "_registerCandidate",
      "outputs": [],
      "payable": false,
      "stateMutability": "nonpayable",
      "type": "function"
    },
    {
      "constant": false,
      "inputs": [
        {
          "internalType": "string",
          "name": "_name",
          "type": "string"
        },
        {
          "internalType": "uint256",
          "name": "_age",
          "type": "uint256"
        }
      ],
      "name": "_registerVoter",
      "outputs": [],
      "payable": false,
      "stateMutability": "nonpayable",
      "type": "function"
    },
    {
      "constant": true,
      "inputs": [
        {
          "internalType": "address",
          "name": "_address",
          "type": "address"
        }
      ],
      "name": "getVoter",
      "outputs": [
        {
          "components": [
            {
              "internalType": "address",
              "name": "_address",
              "type": "address"
            },
            {
              "internalType": "string",
              "name": "name",
              "type": "string"
            },
            {
              "internalType": "uint256",
              "name": "age",
              "type": "uint256"
            }
          ],
          "internalType": "struct ElectionContract.Voter",
          "name": "",
          "type": "tuple"
        }
      ],
      "payable": false,
      "stateMutability": "view",
      "type": "function"
    },
    {
      "constant": false,
      "inputs": [
        {
          "internalType": "bool",
          "name": "_access",
          "type": "bool"
        }
      ],
      "name": "setRegistrationAccess",
      "outputs": [
        {
          "internalType": "bool",
          "name": "",
          "type": "bool"
        }
      ],
      "payable": false,
      "stateMutability": "nonpayable",
      "type": "function"
    },
    {
      "constant": false,
      "inputs": [
        {
          "internalType": "bool",
          "name": "_access",
          "type": "bool"
        }
      ],
      "name": "setVotingAccess",
      "outputs": [
        {
          "internalType": "bool",
          "name": "",
          "type": "bool"
        }
      ],
      "payable": false,
      "stateMutability": "nonpayable",
      "type": "function"
    },
    {
      "constant": true,
      "inputs": [],
      "name": "getRegistrationAccess",
      "outputs": [
        {
          "internalType": "bool",
          "name": "",
          "type": "bool"
        }
      ],
      "payable": false,
      "stateMutability": "view",
      "type": "function"
    },
    {
      "constant": true,
      "inputs": [],
      "name": "getVotingAccess",
      "outputs": [
        {
          "internalType": "bool",
          "name": "",
          "type": "bool"
        }
      ],
      "payable": false,
      "stateMutability": "view",
      "type": "function"
    },
    {
      "constant": false,
      "inputs": [],
      "name": "kill",
      "outputs": [],
      "payable": false,
      "stateMutability": "nonpayable",
      "type": "function"
    },
    {
      "constant": true,
      "inputs": [
        {
          "internalType": "address",
          "name": "_address",
          "type": "address"
        }
      ],
      "name": "ownerT",
      "outputs": [],
      "payable": false,
      "stateMutability": "view",
      "type": "function"
    },
    {
      "constant": false,
      "inputs": [
        {
          "internalType": "uint256",
          "name": "age",
          "type": "uint256"
        }
      ],
      "name": "assertTest",
      "outputs": [],
      "payable": false,
      "stateMutability": "nonpayable",
      "type": "function"
    }
  ],
  "bytecode": "0x608060405234801561001057600080fd5b506100286101ba640100000000026401000000009004565b6000806101000a81548173ffffffffffffffffffffffffffffffffffffffff021916908373ffffffffffffffffffffffffffffffffffffffff1602179055506000809054906101000a900473ffffffffffffffffffffffffffffffffffffffff1673ffffffffffffffffffffffffffffffffffffffff16600073ffffffffffffffffffffffffffffffffffffffff167f8be0079c531659141344cd1fd0a4f28419497f9722a3daafe3b4186f6b6457e060405160405180910390a36040518060e001604052804281526020016201518081526020016202a30081526020016202a30081526020016001151581526020016000151581526020016000151581525060016000820151816000015560208201518160010155604082015181600201556060820151816003015560808201518160040160006101000a81548160ff02191690831515021790555060a08201518160040160016101000a81548160ff02191690831515021790555060c08201518160040160026101000a81548160ff0219169083151502179055509050506101c2565b600033905090565b6119e5806101d16000396000f3fe608060405234801561001057600080fd5b5060043610610133576000357c0100000000000000000000000000000000000000000000000000000000900480638da5cb5b116100bf578063b71fbe4b1161008e578063b71fbe4b146102a8578063d4f50f98146102d8578063d9500d7b14610308578063f2fde38b14610324578063fe1b76eb1461034057610133565b80638da5cb5b146102305780638f32d59b1461024e5780639bcc33611461026c5780639c84bb271461028a57610133565b80634b1d3ede116101065780634b1d3ede146101ac5780634de3d10b146101d057806369ab927f146101ee578063715018a61461020a5780637c63519e1461021457610133565b8063133b819c146101385780631c18b1d71461016857806323cd35a31461018457806341c0e1b5146101a2575b600080fd5b610152600480360361014d9190810190611294565b610370565b60405161015f919061165f565b60405180910390f35b610182600480360361017d9190810190611215565b6103dc565b005b61018c610622565b604051610199919061165f565b60405180910390f35b6101aa610683565b005b6101b46106e3565b6040516101c79796959493929190611797565b60405180910390f35b6101d861073a565b6040516101e5919061165f565b60405180910390f35b610208600480360361020391908101906112bd565b61079b565b005b610212610a9d565b005b61022e60048036036102299190810190611311565b610ba3565b005b610238610bb3565b6040516102459190611629565b60405180910390f35b610256610bdc565b604051610263919061165f565b60405180910390f35b610274610c3a565b604051610281919061177c565b60405180910390f35b610292610c40565b60405161029f919061177c565b60405180910390f35b6102c260048036036102bd91908101906111ec565b610c46565b6040516102cf919061165f565b60405180910390f35b6102f260048036036102ed91908101906111ec565b610c85565b6040516102ff919061175a565b60405180910390f35b610322600480360361031d91908101906111ec565b610de0565b005b61033e600480360361033991908101906111ec565b610e51565b005b61035a60048036036103559190810190611294565b610ea4565b604051610367919061165f565b60405180910390f35b600061037a610bdc565b6103b9576040517f08c379a00000000000000000000000000000000000000000000000000000000081526004016103b0906116fa565b60405180910390fd5b81600160040160006101000a81548160ff02191690831515021790559050919050565b60011515600160040160009054906101000a900460ff16151514610435576040517f08c379a000000000000000000000000000000000000000000000000000000000815260040161042c9061171a565b60405180910390fd5b61043d610bdc565b61047c576040517f08c379a0000000000000000000000000000000000000000000000000000000008152600401610473906116fa565b60405180910390fd5b610484611046565b60405180606001604052808573ffffffffffffffffffffffffffffffffffffffff1681526020018481526020018381525090507fea58b9e601d38c6cd2de8e796bfcf199b4a61c0bd737724d359a0755fdb0c2c6846040516104e69190611629565b60405180910390a180600960008673ffffffffffffffffffffffffffffffffffffffff1673ffffffffffffffffffffffffffffffffffffffff16815260200190815260200160002060008201518160000160006101000a81548173ffffffffffffffffffffffffffffffffffffffff021916908373ffffffffffffffffffffffffffffffffffffffff160217905550602082015181600101908051906020019061059192919061107d565b5060408201518160020190805190602001906105ae92919061107d565b509050506001600660008673ffffffffffffffffffffffffffffffffffffffff1673ffffffffffffffffffffffffffffffffffffffff16815260200190815260200160002060006101000a81548160ff021916908315150217905550600a6000815480929190600101919050555050505050565b600061062c610bdc565b61066b576040517f08c379a0000000000000000000000000000000000000000000000000000000008152600401610662906116fa565b60405180910390fd5b600160040160019054906101000a900460ff16905090565b61068b610bdc565b6106ca576040517f08c379a00000000000000000000000000000000000000000000000000000000081526004016106c1906116fa565b60405180910390fd5b3373ffffffffffffffffffffffffffffffffffffffff16ff5b60018060000154908060010154908060020154908060030154908060040160009054906101000a900460ff16908060040160019054906101000a900460ff16908060040160029054906101000a900460ff16905087565b6000610744610bdc565b610783576040517f08c379a000000000000000000000000000000000000000000000000000000000815260040161077a906116fa565b60405180910390fd5b600160040160009054906101000a900460ff16905090565b60011515600160040160019054906101000a900460ff161515146107f4576040517f08c379a00000000000000000000000000000000000000000000000000000000081526004016107eb906116ba565b60405180910390fd5b33600073ffffffffffffffffffffffffffffffffffffffff16600860008373ffffffffffffffffffffffffffffffffffffffff1673ffffffffffffffffffffffffffffffffffffffff16815260200190815260200160002060000160009054906101000a900473ffffffffffffffffffffffffffffffffffffffff1673ffffffffffffffffffffffffffffffffffffffff16146108c6576040517f08c379a00000000000000000000000000000000000000000000000000000000081526004016108bd9061173a565b60405180910390fd5b601282101561090a576040517f08c379a00000000000000000000000000000000000000000000000000000000081526004016109019061167a565b60405180910390fd5b6109126110fd565b60405180606001604052803373ffffffffffffffffffffffffffffffffffffffff1681526020018581526020018481525090507fc35be007a236088cf0e03bd876c5857f0dfcc266ac92bcb1905169739b129210336040516109749190611644565b60405180910390a180600860003373ffffffffffffffffffffffffffffffffffffffff1673ffffffffffffffffffffffffffffffffffffffff16815260200190815260200160002060008201518160000160006101000a81548173ffffffffffffffffffffffffffffffffffffffff021916908373ffffffffffffffffffffffffffffffffffffffff1602179055506020820151816001019080519060200190610a1f92919061107d565b50604082015181600201559050506001600760003373ffffffffffffffffffffffffffffffffffffffff1673ffffffffffffffffffffffffffffffffffffffff16815260200190815260200160002060006101000a81548160ff021916908315150217905550600b6000815480929190600101919050555050505050565b610aa5610bdc565b610ae4576040517f08c379a0000000000000000000000000000000000000000000000000000000008152600401610adb906116fa565b60405180910390fd5b600073ffffffffffffffffffffffffffffffffffffffff166000809054906101000a900473ffffffffffffffffffffffffffffffffffffffff1673ffffffffffffffffffffffffffffffffffffffff167f8be0079c531659141344cd1fd0a4f28419497f9722a3daafe3b4186f6b6457e060405160405180910390a360008060006101000a81548173ffffffffffffffffffffffffffffffffffffffff021916908373ffffffffffffffffffffffffffffffffffffffff160217905550565b60008114610bb057600080fd5b50565b60008060009054906101000a900473ffffffffffffffffffffffffffffffffffffffff16905090565b60008060009054906101000a900473ffffffffffffffffffffffffffffffffffffffff1673ffffffffffffffffffffffffffffffffffffffff16610c1e610f10565b73ffffffffffffffffffffffffffffffffffffffff1614905090565b600b5481565b600a5481565b6000610c50610bb3565b73ffffffffffffffffffffffffffffffffffffffff168273ffffffffffffffffffffffffffffffffffffffff16149050919050565b610c8d6110fd565b600860008373ffffffffffffffffffffffffffffffffffffffff1673ffffffffffffffffffffffffffffffffffffffff1681526020019081526020016000206040518060600160405290816000820160009054906101000a900473ffffffffffffffffffffffffffffffffffffffff1673ffffffffffffffffffffffffffffffffffffffff1673ffffffffffffffffffffffffffffffffffffffff168152602001600182018054600181600116156101000203166002900480601f016020809104026020016040519081016040528092919081815260200182805460018160011615610100020316600290048015610dc65780601f10610d9b57610100808354040283529160200191610dc6565b820191906000526020600020905b815481529060010190602001808311610da957829003601f168201915b505050505081526020016002820154815250509050919050565b3373ffffffffffffffffffffffffffffffffffffffff168173ffffffffffffffffffffffffffffffffffffffff1614610e4e576040517f08c379a0000000000000000000000000000000000000000000000000000000008152600401610e459061169a565b60405180910390fd5b50565b610e59610bdc565b610e98576040517f08c379a0000000000000000000000000000000000000000000000000000000008152600401610e8f906116fa565b60405180910390fd5b610ea181610f18565b50565b6000610eae610bdc565b610eed576040517f08c379a0000000000000000000000000000000000000000000000000000000008152600401610ee4906116fa565b60405180910390fd5b81600160040160016101000a81548160ff02191690831515021790559050919050565b600033905090565b600073ffffffffffffffffffffffffffffffffffffffff168173ffffffffffffffffffffffffffffffffffffffff161415610f88576040517f08c379a0000000000000000000000000000000000000000000000000000000008152600401610f7f906116da565b60405180910390fd5b8073ffffffffffffffffffffffffffffffffffffffff166000809054906101000a900473ffffffffffffffffffffffffffffffffffffffff1673ffffffffffffffffffffffffffffffffffffffff167f8be0079c531659141344cd1fd0a4f28419497f9722a3daafe3b4186f6b6457e060405160405180910390a3806000806101000a81548173ffffffffffffffffffffffffffffffffffffffff021916908373ffffffffffffffffffffffffffffffffffffffff16021790555050565b6040518060600160405280600073ffffffffffffffffffffffffffffffffffffffff16815260200160608152602001606081525090565b828054600181600116156101000203166002900490600052602060002090601f016020900481019282601f106110be57805160ff19168380011785556110ec565b828001600101855582156110ec579182015b828111156110eb5782518255916020019190600101906110d0565b5b5090506110f99190611134565b5090565b6040518060600160405280600073ffffffffffffffffffffffffffffffffffffffff16815260200160608152602001600081525090565b61115691905b8082111561115257600081600090555060010161113a565b5090565b90565b6000813590506111688161195d565b92915050565b60008135905061117d81611974565b92915050565b600082601f83011261119457600080fd5b81356111a76111a282611833565b611806565b915080825260208301602083018583830111156111c357600080fd5b6111ce83828461190a565b50505092915050565b6000813590506111e68161198b565b92915050565b6000602082840312156111fe57600080fd5b600061120c84828501611159565b91505092915050565b60008060006060848603121561122a57600080fd5b600061123886828701611159565b935050602084013567ffffffffffffffff81111561125557600080fd5b61126186828701611183565b925050604084013567ffffffffffffffff81111561127e57600080fd5b61128a86828701611183565b9150509250925092565b6000602082840312156112a657600080fd5b60006112b48482850161116e565b91505092915050565b600080604083850312156112d057600080fd5b600083013567ffffffffffffffff8111156112ea57600080fd5b6112f685828601611183565b9250506020611307858286016111d7565b9150509250929050565b60006020828403121561132357600080fd5b6000611331848285016111d7565b91505092915050565b611343816118d4565b82525050565b6113528161188c565b82525050565b6113618161188c565b82525050565b6113708161189e565b82525050565b60006113818261185f565b61138b818561186a565b935061139b818560208601611919565b6113a48161194c565b840191505092915050565b60006113bc60228361187b565b91507f566f74657273206d757374206265206f76657220313820746f2072656769737460008301527f65720000000000000000000000000000000000000000000000000000000000006020830152604082019050919050565b600061142260048361187b565b91507f68656c70000000000000000000000000000000000000000000000000000000006000830152602082019050919050565b600061146260178361187b565b91507f566f74696e6720706572696f6420697320636c6f7365640000000000000000006000830152602082019050919050565b60006114a260268361187b565b91507f4f776e61626c653a206e6577206f776e657220697320746865207a65726f206160008301527f64647265737300000000000000000000000000000000000000000000000000006020830152604082019050919050565b600061150860208361187b565b91507f4f776e61626c653a2063616c6c6572206973206e6f7420746865206f776e65726000830152602082019050919050565b6000611548601d8361187b565b91507f526567697374726174696f6e20706572696f6420697320636c6f7365640000006000830152602082019050919050565b6000611588601c8361187b565b91507f566f7465722063616e207265676973746572206f6e6c79206f6e6365000000006000830152602082019050919050565b60006060830160008301516115d36000860182611349565b50602083015184820360208601526115eb8282611376565b9150506040830151611600604086018261160b565b508091505092915050565b611614816118ca565b82525050565b611623816118ca565b82525050565b600060208201905061163e6000830184611358565b92915050565b6000602082019050611659600083018461133a565b92915050565b60006020820190506116746000830184611367565b92915050565b60006020820190508181036000830152611693816113af565b9050919050565b600060208201905081810360008301526116b381611415565b9050919050565b600060208201905081810360008301526116d381611455565b9050919050565b600060208201905081810360008301526116f381611495565b9050919050565b60006020820190508181036000830152611713816114fb565b9050919050565b600060208201905081810360008301526117338161153b565b9050919050565b600060208201905081810360008301526117538161157b565b9050919050565b6000602082019050818103600083015261177481846115bb565b905092915050565b6000602082019050611791600083018461161a565b92915050565b600060e0820190506117ac600083018a61161a565b6117b9602083018961161a565b6117c6604083018861161a565b6117d3606083018761161a565b6117e06080830186611367565b6117ed60a0830185611367565b6117fa60c0830184611367565b98975050505050505050565b6000604051905081810181811067ffffffffffffffff8211171561182957600080fd5b8060405250919050565b600067ffffffffffffffff82111561184a57600080fd5b601f19601f8301169050602081019050919050565b600081519050919050565b600082825260208201905092915050565b600082825260208201905092915050565b6000611897826118aa565b9050919050565b60008115159050919050565b600073ffffffffffffffffffffffffffffffffffffffff82169050919050565b6000819050919050565b60006118df826118e6565b9050919050565b60006118f1826118f8565b9050919050565b6000611903826118aa565b9050919050565b82818337600083830152505050565b60005b8381101561193757808201518184015260208101905061191c565b83811115611946576000848401525b50505050565b6000601f19601f8301169050919050565b6119668161188c565b811461197157600080fd5b50565b61197d8161189e565b811461198857600080fd5b50565b611994816118ca565b811461199f57600080fd5b5056fea365627a7a72315820101bb2153229373e2df1d8a97372560c129d33c05754b2b3710befb8d75b5c126c6578706572696d656e74616cf564736f6c634300050c0040",
  "source": "pragma solidity ^0.5.8;\npragma experimental ABIEncoderV2;\n\nimport \"../node_modules/openzeppelin-solidity/contracts/math/SafeMath.sol\";\nimport \"../node_modules/openzeppelin-solidity/contracts/ownership/Ownable.sol\";\n//import \"https://github.com/OpenZeppelin/openzeppelin-solidity/contracts/ownership/Ownable.sol\";\n\ncontract ElectionContract is Ownable {\n\n    using SafeMath for uint256;\n\n    struct Candidate {\n        address _address;\n        string name;\n        string party;\n    }\n\n    struct Voter {\n        address _address;\n        string name;\n        uint age;\n\n    }\n\n    struct Election {\n        uint256 electionTimeStamp;\n        uint256 registrationPeriod;\n        uint256 votingPeriod;\n        uint256 endTime;\n        bool openRegistrationPeriod;\n        bool openVotingPeriod;\n        bool openElectionPeriod;\n    }\n\n    Election public election;\n\n    mapping(address => bool) isCandidateValid;\n    mapping(address => bool) isVoterValid;\n\n    mapping(address => Voter) voters;\n    mapping(address => Candidate) candidates;\n\n\n    uint public numberOfCandidates;\n    uint public numberOfVoters;\n\n\n    constructor() public {\n     election = Election(now, 1 days, 2 days, 2 days, true, false, false);\n\n    }\n\n    // events\n\n    event LogNewCandidate(address sender);\n    event LogNewVoter(address sender);\n\n    // modifiers\n\n    modifier registrationPeriodIsOpen()  {\n        require(election.openRegistrationPeriod == true, \"Registration period is closed\");\n    _;\n    }\n\n    modifier votingPeriodIsOpen() {\n      require(election.openVotingPeriod == true, \"Voting period is closed\");\n      _;\n    }\n\n    modifier closeElectionPeriod() {\n      require(election.openElectionPeriod == true, \"Election period is closed\");\n      _;\n    }\n\n    modifier validCandidate(address _address) {\n      require(isCandidateValid[_address] == true, \"Candidate is invalid\");\n      _;\n    }\n\n    modifier unvalidatedCandidate(address _address) {\n        require(isCandidateValid[_address] != true, \"Candidate is valid\");\n        _;\n    }\n\n    modifier validVoter(address _address) {\n        require(voters[_address]._address == address(0), \"Voter can register only once\");\n        _;\n    }\n\n\n\n\n\n    // Contract Owner\n\n    function _isOwner(address _address) public view returns(bool)  {\n      return _address == owner();\n    }\n\n\n\n    //  Registration Functions\n\n    function _registerCandidate(address _address, string memory _name, string memory _party) public registrationPeriodIsOpen onlyOwner {\n\n        Candidate memory candidate = Candidate({\n           _address:_address,\n           name: _name,\n           party:_party\n        });\n        emit LogNewCandidate(_address);\n        candidates[_address] = candidate;\n        isCandidateValid[_address] = true;\n        numberOfCandidates++;\n    }\n\n    function _registerVoter(string memory _name, uint _age) public votingPeriodIsOpen validVoter(msg.sender) {\n\n        require(_age >= 18, \"Voters must be over 18 to register\");\n        Voter memory newVoter = Voter({\n            _address: msg.sender,\n            name: _name,\n            age:_age\n        });\n        emit LogNewVoter(msg.sender);\n        voters[msg.sender] = newVoter;\n        isVoterValid[msg.sender] = true;\n        numberOfVoters++;\n    }\n\n\n\n    // voting Functions\n\n    function getVoter(address _address) public view returns(Voter memory){\n        return(voters[_address]);\n    }\n\n    // Set Election Period Functions\n\n    function setRegistrationAccess(bool _access) public onlyOwner returns (bool) {\n            return election.openRegistrationPeriod = _access;\n    }\n\n    function setVotingAccess(bool _access) public onlyOwner returns (bool) {\n            return election.openVotingPeriod = _access;\n    }\n\n\n    // Get Election Period Functions\n\n    function getRegistrationAccess() public view onlyOwner returns (bool) {\n            return election.openRegistrationPeriod;\n    }\n\n    function getVotingAccess() public view onlyOwner returns (bool) {\n            return election.openVotingPeriod;\n\n    }\n\n    function kill() onlyOwner external {\n      selfdestruct(msg.sender);\n    }\n\n    // Assertion Test Functions\n\n    function ownerT(address _address) public view {\n\n        require(_address == msg.sender, \"help\");\n    }\n\n    function assertTest(uint age) public  {\n      require(age == 0);\n    }\n\n\n}\n",
  "sourcePath": "/Users/admin/github/votingSystem/contracts/ElectionContract.sol",
  "compiler": {
    "name": "solc",
    "version": "0.5.12+commit.7709ece9.Emscripten.clang"
  },
  "schemaVersion": "3.0.2",
  "updatedAt": "2019-11-08T16:47:06.370Z",
  "devdoc": {
    "methods": {
      "isOwner()": {
        "details": "Returns true if the caller is the current owner."
      },
      "owner()": {
        "details": "Returns the address of the current owner."
      },
      "renounceOwnership()": {
        "details": "Leaves the contract without owner. It will not be possible to call `onlyOwner` functions anymore. Can only be called by the current owner.     * NOTE: Renouncing ownership will leave the contract without an owner, thereby removing any functionality that is only available to the owner."
      },
      "transferOwnership(address)": {
        "details": "Transfers ownership of the contract to a new account (`newOwner`). Can only be called by the current owner."
      }
    }
  },
  "userdoc": {
    "methods": {}
  }
}