{
  "contractName": "ElectionContract",
  "abi": [
    {
      "inputs": [],
      "payable": false,
      "stateMutability": "nonpayable",
      "type": "constructor"
    },
    {
      "anonymous": false,
      "inputs": [
        {
          "indexed": false,
          "internalType": "address",
          "name": "sender",
          "type": "address"
        }
      ],
      "name": "LogNewCandidate",
      "type": "event"
    },
    {
      "anonymous": false,
      "inputs": [
        {
          "indexed": false,
          "internalType": "address",
          "name": "sender",
          "type": "address"
        }
      ],
      "name": "LogNewVoter",
      "type": "event"
    },
    {
      "anonymous": false,
      "inputs": [
        {
          "indexed": true,
          "internalType": "address",
          "name": "previousOwner",
          "type": "address"
        },
        {
          "indexed": true,
          "internalType": "address",
          "name": "newOwner",
          "type": "address"
        }
      ],
      "name": "OwnershipTransferred",
      "type": "event"
    },
    {
      "constant": true,
      "inputs": [],
      "name": "election",
      "outputs": [
        {
          "internalType": "uint256",
          "name": "electionTimeStamp",
          "type": "uint256"
        },
        {
          "internalType": "uint256",
          "name": "registrationPeriod",
          "type": "uint256"
        },
        {
          "internalType": "uint256",
          "name": "votingPeriod",
          "type": "uint256"
        },
        {
          "internalType": "uint256",
          "name": "endTime",
          "type": "uint256"
        },
        {
          "internalType": "bool",
          "name": "openRegistrationPeriod",
          "type": "bool"
        },
        {
          "internalType": "bool",
          "name": "openVotingPeriod",
          "type": "bool"
        },
        {
          "internalType": "bool",
          "name": "openElectionPeriod",
          "type": "bool"
        }
      ],
      "payable": false,
      "stateMutability": "view",
      "type": "function"
    },
    {
      "constant": true,
      "inputs": [],
      "name": "isOwner",
      "outputs": [
        {
          "internalType": "bool",
          "name": "",
          "type": "bool"
        }
      ],
      "payable": false,
      "stateMutability": "view",
      "type": "function"
    },
    {
      "constant": true,
      "inputs": [],
      "name": "numberOfCandidates",
      "outputs": [
        {
          "internalType": "uint256",
          "name": "",
          "type": "uint256"
        }
      ],
      "payable": false,
      "stateMutability": "view",
      "type": "function"
    },
    {
      "constant": true,
      "inputs": [],
      "name": "numberOfVoters",
      "outputs": [
        {
          "internalType": "uint256",
          "name": "",
          "type": "uint256"
        }
      ],
      "payable": false,
      "stateMutability": "view",
      "type": "function"
    },
    {
      "constant": true,
      "inputs": [],
      "name": "owner",
      "outputs": [
        {
          "internalType": "address",
          "name": "",
          "type": "address"
        }
      ],
      "payable": false,
      "stateMutability": "view",
      "type": "function"
    },
    {
      "constant": false,
      "inputs": [],
      "name": "renounceOwnership",
      "outputs": [],
      "payable": false,
      "stateMutability": "nonpayable",
      "type": "function"
    },
    {
      "constant": false,
      "inputs": [
        {
          "internalType": "address",
          "name": "newOwner",
          "type": "address"
        }
      ],
      "name": "transferOwnership",
      "outputs": [],
      "payable": false,
      "stateMutability": "nonpayable",
      "type": "function"
    },
    {
      "constant": false,
      "inputs": [
        {
          "internalType": "address",
          "name": "_address",
          "type": "address"
        },
        {
          "internalType": "string",
          "name": "_name",
          "type": "string"
        },
        {
          "internalType": "string",
          "name": "_party",
          "type": "string"
        }
      ],
      "name": "_registerCandidate",
      "outputs": [],
      "payable": false,
      "stateMutability": "nonpayable",
      "type": "function"
    },
    {
      "constant": false,
      "inputs": [
        {
          "internalType": "string",
          "name": "_name",
          "type": "string"
        },
        {
          "internalType": "uint256",
          "name": "_age",
          "type": "uint256"
        }
      ],
      "name": "_registerVoter",
      "outputs": [],
      "payable": false,
      "stateMutability": "nonpayable",
      "type": "function"
    },
    {
      "constant": false,
      "inputs": [
        {
          "internalType": "address",
          "name": "_address",
          "type": "address"
        }
      ],
      "name": "getCandidate",
      "outputs": [
        {
          "internalType": "bool",
          "name": "",
          "type": "bool"
        }
      ],
      "payable": false,
      "stateMutability": "nonpayable",
      "type": "function"
    },
    {
      "constant": true,
      "inputs": [
        {
          "internalType": "address",
          "name": "_address",
          "type": "address"
        }
      ],
      "name": "getVoter",
      "outputs": [
        {
          "components": [
            {
              "internalType": "address",
              "name": "_address",
              "type": "address"
            },
            {
              "internalType": "string",
              "name": "name",
              "type": "string"
            },
            {
              "internalType": "uint256",
              "name": "age",
              "type": "uint256"
            }
          ],
          "internalType": "struct ElectionContract.Voter",
          "name": "",
          "type": "tuple"
        }
      ],
      "payable": false,
      "stateMutability": "view",
      "type": "function"
    },
    {
      "constant": false,
      "inputs": [
        {
          "internalType": "bool",
          "name": "_access",
          "type": "bool"
        }
      ],
      "name": "setElectionAccess",
      "outputs": [
        {
          "internalType": "bool",
          "name": "",
          "type": "bool"
        }
      ],
      "payable": false,
      "stateMutability": "nonpayable",
      "type": "function"
    },
    {
      "constant": false,
      "inputs": [
        {
          "internalType": "bool",
          "name": "_access",
          "type": "bool"
        }
      ],
      "name": "setRegistrationAccess",
      "outputs": [
        {
          "internalType": "bool",
          "name": "",
          "type": "bool"
        }
      ],
      "payable": false,
      "stateMutability": "nonpayable",
      "type": "function"
    },
    {
      "constant": false,
      "inputs": [
        {
          "internalType": "bool",
          "name": "_access",
          "type": "bool"
        }
      ],
      "name": "setVotingAccess",
      "outputs": [
        {
          "internalType": "bool",
          "name": "",
          "type": "bool"
        }
      ],
      "payable": false,
      "stateMutability": "nonpayable",
      "type": "function"
    },
    {
      "constant": true,
      "inputs": [],
      "name": "getRegistrationAccess",
      "outputs": [
        {
          "internalType": "bool",
          "name": "",
          "type": "bool"
        }
      ],
      "payable": false,
      "stateMutability": "view",
      "type": "function"
    },
    {
      "constant": true,
      "inputs": [],
      "name": "getVotingAccess",
      "outputs": [
        {
          "internalType": "bool",
          "name": "",
          "type": "bool"
        }
      ],
      "payable": false,
      "stateMutability": "view",
      "type": "function"
    },
    {
      "constant": true,
      "inputs": [],
      "name": "getElectionAccess",
      "outputs": [
        {
          "internalType": "bool",
          "name": "",
          "type": "bool"
        }
      ],
      "payable": false,
      "stateMutability": "view",
      "type": "function"
    },
    {
      "constant": false,
      "inputs": [],
      "name": "kill",
      "outputs": [],
      "payable": false,
      "stateMutability": "nonpayable",
      "type": "function"
    },
    {
      "constant": true,
      "inputs": [
        {
          "internalType": "address",
          "name": "_address",
          "type": "address"
        }
      ],
      "name": "contractOwner",
      "outputs": [],
      "payable": false,
      "stateMutability": "view",
      "type": "function"
    }
  ],
  "bytecode": "0x608060405234801561001057600080fd5b506100286101ba640100000000026401000000009004565b6000806101000a81548173ffffffffffffffffffffffffffffffffffffffff021916908373ffffffffffffffffffffffffffffffffffffffff1602179055506000809054906101000a900473ffffffffffffffffffffffffffffffffffffffff1673ffffffffffffffffffffffffffffffffffffffff16600073ffffffffffffffffffffffffffffffffffffffff167f8be0079c531659141344cd1fd0a4f28419497f9722a3daafe3b4186f6b6457e060405160405180910390a36040518060e001604052804281526020016201518081526020016202a30081526020016202a30081526020016001151581526020016000151581526020016000151581525060016000820151816000015560208201518160010155604082015181600201556060820151816003015560808201518160040160006101000a81548160ff02191690831515021790555060a08201518160040160016101000a81548160ff02191690831515021790555060c08201518160040160026101000a81548160ff0219169083151502179055509050506101c2565b600033905090565b611c94806101d16000396000f3fe608060405234801561001057600080fd5b506004361061013e576000357c0100000000000000000000000000000000000000000000000000000000900480638da5cb5b116100ca5780639c84bb271161008e5780639c84bb27146102e3578063b7adcf1d14610301578063d4f50f9814610331578063f2fde38b14610361578063fe1b76eb1461037d5761013e565b80638da5cb5b1461023b5780638f32d59b1461025957806394a020a4146102775780639bc771b4146102955780639bcc3361146102c55761013e565b80634b1d3ede116101115780634b1d3ede146101b75780634de3d10b146101db5780635152b14c146101f957806369ab927f14610215578063715018a6146102315761013e565b8063133b819c146101435780631c18b1d71461017357806323cd35a31461018f57806341c0e1b5146101ad575b600080fd5b61015d6004803603610158919081019061150c565b6103ad565b60405161016a91906118ee565b60405180910390f35b61018d6004803603610188919081019061148d565b610419565b005b6101976106b8565b6040516101a491906118ee565b60405180910390f35b6101b5610719565b005b6101bf610779565b6040516101d29796959493929190611a46565b60405180910390f35b6101e36107d0565b6040516101f091906118ee565b60405180910390f35b610213600480360361020e9190810190611464565b610831565b005b61022f600480360361022a9190810190611535565b61087b565b005b610239610c1d565b005b610243610d23565b60405161025091906118b8565b60405180910390f35b610261610d4c565b60405161026e91906118ee565b60405180910390f35b61027f610daa565b60405161028c91906118ee565b60405180910390f35b6102af60048036036102aa919081019061150c565b610e0b565b6040516102bc91906118ee565b60405180910390f35b6102cd610e77565b6040516102da9190611a2b565b60405180910390f35b6102eb610e7d565b6040516102f89190611a2b565b60405180910390f35b61031b60048036036103169190810190611464565b610e83565b60405161032891906118ee565b60405180910390f35b61034b60048036036103469190810190611464565b610f6e565b6040516103589190611a09565b60405180910390f35b61037b60048036036103769190810190611464565b6110c9565b005b6103976004803603610392919081019061150c565b61111c565b6040516103a491906118ee565b60405180910390f35b60006103b7610d4c565b6103f6576040517f08c379a00000000000000000000000000000000000000000000000000000000081526004016103ed90611989565b60405180910390fd5b81600160040160006101000a81548160ff02191690831515021790559050919050565b60011515600160040160009054906101000a900460ff16151514610472576040517f08c379a0000000000000000000000000000000000000000000000000000000008152600401610469906119a9565b60405180910390fd5b60011515600160040160029054906101000a900460ff161515146104cb576040517f08c379a00000000000000000000000000000000000000000000000000000000081526004016104c2906119e9565b60405180910390fd5b6104d3610d4c565b610512576040517f08c379a000000000000000000000000000000000000000000000000000000000815260040161050990611989565b60405180910390fd5b61051a6112be565b60405180606001604052808573ffffffffffffffffffffffffffffffffffffffff1681526020018481526020018381525090507fea58b9e601d38c6cd2de8e796bfcf199b4a61c0bd737724d359a0755fdb0c2c68460405161057c91906118b8565b60405180910390a180600960008673ffffffffffffffffffffffffffffffffffffffff1673ffffffffffffffffffffffffffffffffffffffff16815260200190815260200160002060008201518160000160006101000a81548173ffffffffffffffffffffffffffffffffffffffff021916908373ffffffffffffffffffffffffffffffffffffffff16021790555060208201518160010190805190602001906106279291906112f5565b5060408201518160020190805190602001906106449291906112f5565b509050506001600660008673ffffffffffffffffffffffffffffffffffffffff1673ffffffffffffffffffffffffffffffffffffffff16815260200190815260200160002060006101000a81548160ff021916908315150217905550600a6000815480929190600101919050555050505050565b60006106c2610d4c565b610701576040517f08c379a00000000000000000000000000000000000000000000000000000000081526004016106f890611989565b60405180910390fd5b600160040160019054906101000a900460ff16905090565b610721610d4c565b610760576040517f08c379a000000000000000000000000000000000000000000000000000000000815260040161075790611989565b60405180910390fd5b3373ffffffffffffffffffffffffffffffffffffffff16ff5b60018060000154908060010154908060020154908060030154908060040160009054906101000a900460ff16908060040160019054906101000a900460ff16908060040160029054906101000a900460ff16905087565b60006107da610d4c565b610819576040517f08c379a000000000000000000000000000000000000000000000000000000000815260040161081090611989565b60405180910390fd5b600160040160009054906101000a900460ff16905090565b610839610d4c565b610878576040517f08c379a000000000000000000000000000000000000000000000000000000000815260040161086f90611989565b60405180910390fd5b50565b60011515600160040160019054906101000a900460ff161515146108d4576040517f08c379a00000000000000000000000000000000000000000000000000000000081526004016108cb90611929565b60405180910390fd5b60011515600160040160029054906101000a900460ff1615151461092d576040517f08c379a0000000000000000000000000000000000000000000000000000000008152600401610924906119e9565b60405180910390fd5b610935610d4c565b610974576040517f08c379a000000000000000000000000000000000000000000000000000000000815260040161096b90611989565b60405180910390fd5b33600073ffffffffffffffffffffffffffffffffffffffff16600860008373ffffffffffffffffffffffffffffffffffffffff1673ffffffffffffffffffffffffffffffffffffffff16815260200190815260200160002060000160009054906101000a900473ffffffffffffffffffffffffffffffffffffffff1673ffffffffffffffffffffffffffffffffffffffff1614610a46576040517f08c379a0000000000000000000000000000000000000000000000000000000008152600401610a3d906119c9565b60405180910390fd5b6012821015610a8a576040517f08c379a0000000000000000000000000000000000000000000000000000000008152600401610a8190611909565b60405180910390fd5b610a92611375565b60405180606001604052803373ffffffffffffffffffffffffffffffffffffffff1681526020018581526020018481525090507fc35be007a236088cf0e03bd876c5857f0dfcc266ac92bcb1905169739b12921033604051610af491906118d3565b60405180910390a180600860003373ffffffffffffffffffffffffffffffffffffffff1673ffffffffffffffffffffffffffffffffffffffff16815260200190815260200160002060008201518160000160006101000a81548173ffffffffffffffffffffffffffffffffffffffff021916908373ffffffffffffffffffffffffffffffffffffffff1602179055506020820151816001019080519060200190610b9f9291906112f5565b50604082015181600201559050506001600760003373ffffffffffffffffffffffffffffffffffffffff1673ffffffffffffffffffffffffffffffffffffffff16815260200190815260200160002060006101000a81548160ff021916908315150217905550600b6000815480929190600101919050555050505050565b610c25610d4c565b610c64576040517f08c379a0000000000000000000000000000000000000000000000000000000008152600401610c5b90611989565b60405180910390fd5b600073ffffffffffffffffffffffffffffffffffffffff166000809054906101000a900473ffffffffffffffffffffffffffffffffffffffff1673ffffffffffffffffffffffffffffffffffffffff167f8be0079c531659141344cd1fd0a4f28419497f9722a3daafe3b4186f6b6457e060405160405180910390a360008060006101000a81548173ffffffffffffffffffffffffffffffffffffffff021916908373ffffffffffffffffffffffffffffffffffffffff160217905550565b60008060009054906101000a900473ffffffffffffffffffffffffffffffffffffffff16905090565b60008060009054906101000a900473ffffffffffffffffffffffffffffffffffffffff1673ffffffffffffffffffffffffffffffffffffffff16610d8e611188565b73ffffffffffffffffffffffffffffffffffffffff1614905090565b6000610db4610d4c565b610df3576040517f08c379a0000000000000000000000000000000000000000000000000000000008152600401610dea90611989565b60405180910390fd5b600160040160029054906101000a900460ff16905090565b6000610e15610d4c565b610e54576040517f08c379a0000000000000000000000000000000000000000000000000000000008152600401610e4b90611989565b60405180910390fd5b81600160040160026101000a81548160ff02191690831515021790559050919050565b600b5481565b600a5481565b60008160011515600660008373ffffffffffffffffffffffffffffffffffffffff1673ffffffffffffffffffffffffffffffffffffffff16815260200190815260200160002060009054906101000a900460ff16151514610f19576040517f08c379a0000000000000000000000000000000000000000000000000000000008152600401610f1090611969565b60405180910390fd5b600660008473ffffffffffffffffffffffffffffffffffffffff1673ffffffffffffffffffffffffffffffffffffffff16815260200190815260200160002060009054906101000a900460ff16915050919050565b610f76611375565b600860008373ffffffffffffffffffffffffffffffffffffffff1673ffffffffffffffffffffffffffffffffffffffff1681526020019081526020016000206040518060600160405290816000820160009054906101000a900473ffffffffffffffffffffffffffffffffffffffff1673ffffffffffffffffffffffffffffffffffffffff1673ffffffffffffffffffffffffffffffffffffffff168152602001600182018054600181600116156101000203166002900480601f0160208091040260200160405190810160405280929190818152602001828054600181600116156101000203166002900480156110af5780601f10611084576101008083540402835291602001916110af565b820191906000526020600020905b81548152906001019060200180831161109257829003601f168201915b505050505081526020016002820154815250509050919050565b6110d1610d4c565b611110576040517f08c379a000000000000000000000000000000000000000000000000000000000815260040161110790611989565b60405180910390fd5b61111981611190565b50565b6000611126610d4c565b611165576040517f08c379a000000000000000000000000000000000000000000000000000000000815260040161115c90611989565b60405180910390fd5b81600160040160016101000a81548160ff02191690831515021790559050919050565b600033905090565b600073ffffffffffffffffffffffffffffffffffffffff168173ffffffffffffffffffffffffffffffffffffffff161415611200576040517f08c379a00000000000000000000000000000000000000000000000000000000081526004016111f790611949565b60405180910390fd5b8073ffffffffffffffffffffffffffffffffffffffff166000809054906101000a900473ffffffffffffffffffffffffffffffffffffffff1673ffffffffffffffffffffffffffffffffffffffff167f8be0079c531659141344cd1fd0a4f28419497f9722a3daafe3b4186f6b6457e060405160405180910390a3806000806101000a81548173ffffffffffffffffffffffffffffffffffffffff021916908373ffffffffffffffffffffffffffffffffffffffff16021790555050565b6040518060600160405280600073ffffffffffffffffffffffffffffffffffffffff16815260200160608152602001606081525090565b828054600181600116156101000203166002900490600052602060002090601f016020900481019282601f1061133657805160ff1916838001178555611364565b82800160010185558215611364579182015b82811115611363578251825591602001919060010190611348565b5b50905061137191906113ac565b5090565b6040518060600160405280600073ffffffffffffffffffffffffffffffffffffffff16815260200160608152602001600081525090565b6113ce91905b808211156113ca5760008160009055506001016113b2565b5090565b90565b6000813590506113e081611c0c565b92915050565b6000813590506113f581611c23565b92915050565b600082601f83011261140c57600080fd5b813561141f61141a82611ae2565b611ab5565b9150808252602083016020830185838301111561143b57600080fd5b611446838284611bb9565b50505092915050565b60008135905061145e81611c3a565b92915050565b60006020828403121561147657600080fd5b6000611484848285016113d1565b91505092915050565b6000806000606084860312156114a257600080fd5b60006114b0868287016113d1565b935050602084013567ffffffffffffffff8111156114cd57600080fd5b6114d9868287016113fb565b925050604084013567ffffffffffffffff8111156114f657600080fd5b611502868287016113fb565b9150509250925092565b60006020828403121561151e57600080fd5b600061152c848285016113e6565b91505092915050565b6000806040838503121561154857600080fd5b600083013567ffffffffffffffff81111561156257600080fd5b61156e858286016113fb565b925050602061157f8582860161144f565b9150509250929050565b61159281611b83565b82525050565b6115a181611b3b565b82525050565b6115b081611b3b565b82525050565b6115bf81611b4d565b82525050565b60006115d082611b0e565b6115da8185611b19565b93506115ea818560208601611bc8565b6115f381611bfb565b840191505092915050565b600061160b602283611b2a565b91507f566f74657273206d757374206265206f76657220313820746f2072656769737460008301527f65720000000000000000000000000000000000000000000000000000000000006020830152604082019050919050565b6000611671601783611b2a565b91507f566f74696e6720706572696f6420697320636c6f7365640000000000000000006000830152602082019050919050565b60006116b1602683611b2a565b91507f4f776e61626c653a206e6577206f776e657220697320746865207a65726f206160008301527f64647265737300000000000000000000000000000000000000000000000000006020830152604082019050919050565b6000611717601483611b2a565b91507f43616e64696461746520697320696e76616c69640000000000000000000000006000830152602082019050919050565b6000611757602083611b2a565b91507f4f776e61626c653a2063616c6c6572206973206e6f7420746865206f776e65726000830152602082019050919050565b6000611797601d83611b2a565b91507f526567697374726174696f6e20706572696f6420697320636c6f7365640000006000830152602082019050919050565b60006117d7601c83611b2a565b91507f566f7465722063616e207265676973746572206f6e6c79206f6e6365000000006000830152602082019050919050565b6000611817601983611b2a565b91507f456c656374696f6e20706572696f6420697320636c6f736564000000000000006000830152602082019050919050565b60006060830160008301516118626000860182611598565b506020830151848203602086015261187a82826115c5565b915050604083015161188f604086018261189a565b508091505092915050565b6118a381611b79565b82525050565b6118b281611b79565b82525050565b60006020820190506118cd60008301846115a7565b92915050565b60006020820190506118e86000830184611589565b92915050565b600060208201905061190360008301846115b6565b92915050565b60006020820190508181036000830152611922816115fe565b9050919050565b6000602082019050818103600083015261194281611664565b9050919050565b60006020820190508181036000830152611962816116a4565b9050919050565b600060208201905081810360008301526119828161170a565b9050919050565b600060208201905081810360008301526119a28161174a565b9050919050565b600060208201905081810360008301526119c28161178a565b9050919050565b600060208201905081810360008301526119e2816117ca565b9050919050565b60006020820190508181036000830152611a028161180a565b9050919050565b60006020820190508181036000830152611a23818461184a565b905092915050565b6000602082019050611a4060008301846118a9565b92915050565b600060e082019050611a5b600083018a6118a9565b611a6860208301896118a9565b611a7560408301886118a9565b611a8260608301876118a9565b611a8f60808301866115b6565b611a9c60a08301856115b6565b611aa960c08301846115b6565b98975050505050505050565b6000604051905081810181811067ffffffffffffffff82111715611ad857600080fd5b8060405250919050565b600067ffffffffffffffff821115611af957600080fd5b601f19601f8301169050602081019050919050565b600081519050919050565b600082825260208201905092915050565b600082825260208201905092915050565b6000611b4682611b59565b9050919050565b60008115159050919050565b600073ffffffffffffffffffffffffffffffffffffffff82169050919050565b6000819050919050565b6000611b8e82611b95565b9050919050565b6000611ba082611ba7565b9050919050565b6000611bb282611b59565b9050919050565b82818337600083830152505050565b60005b83811015611be6578082015181840152602081019050611bcb565b83811115611bf5576000848401525b50505050565b6000601f19601f8301169050919050565b611c1581611b3b565b8114611c2057600080fd5b50565b611c2c81611b4d565b8114611c3757600080fd5b50565b611c4381611b79565b8114611c4e57600080fd5b5056fea365627a7a72315820d8ad7162b025e4c29152bec25a5c7d1b485859d523071514c34c2dc196f8ea046c6578706572696d656e74616cf564736f6c634300050c0040",
  "source": "pragma solidity ^0.5.8;\npragma experimental ABIEncoderV2;\n\nimport \"../node_modules/openzeppelin-solidity/contracts/math/SafeMath.sol\";\nimport \"../node_modules/openzeppelin-solidity/contracts/ownership/Ownable.sol\";\n//import \"https://github.com/OpenZeppelin/openzeppelin-solidity/contracts/ownership/Ownable.sol\";\n\ncontract ElectionContract is Ownable {\n\n    using SafeMath for uint256;\n\n\n    struct Candidate {\n        address _address;\n        string name;\n        string party;\n    }\n\n    struct Voter {\n        address _address;\n        string name;\n        uint age;\n\n    }\n\n    struct Election {\n        uint256 electionTimeStamp;\n        uint256 registrationPeriod;\n        uint256 votingPeriod;\n        uint256 endTime;\n        bool openRegistrationPeriod;\n        bool openVotingPeriod;\n        bool openElectionPeriod;\n    }\n\n    Election public election;\n\n    mapping(address => bool) isCandidateValid;\n    mapping(address => bool) isVoterValid;\n\n    mapping(address => Voter) voters;\n    mapping(address => Candidate) candidates;\n\n\n    uint public numberOfCandidates;\n    uint public numberOfVoters;\n\n\n    constructor() public {\n      election = Election(now, 1 days, 2 days, 2 days, true, false, false);\n    }\n\n    // events\n\n    event LogNewCandidate(address sender);\n    event LogNewVoter(address sender);\n\n\n\n\n\n\n    // modifiers\n\n    // Ownable\n\n\n\n    modifier registrationPeriodIsOpen()  {\n        require(election.openRegistrationPeriod == true, \"Registration period is closed\");\n    _;\n    }\n\n    modifier votingPeriodIsOpen() {\n      require(election.openVotingPeriod == true, \"Voting period is closed\");\n      _;\n    }\n\n    modifier electionPeriodIsOpen() {\n      require(election.openElectionPeriod == true, \"Election period is closed\");\n      _;\n    }\n\n    modifier validCandidate(address _address) {\n      require(isCandidateValid[_address] == true, \"Candidate is invalid\");\n      _;\n    }\n\n    modifier unvalidatedCandidate(address _address) {\n        require(isCandidateValid[_address] != true, \"Candidate is valid\");\n        _;\n    }\n\n    modifier validVoter(address _address) {\n        require(voters[_address]._address == address(0), \"Voter can register only once\");\n        _;\n    }\n\n\n    // Contract Owner\n\n\n\n    //  Registration Functions\n\n    function _registerCandidate(address _address, string memory _name, string memory _party) public\n    registrationPeriodIsOpen\n    electionPeriodIsOpen\n    onlyOwner {\n\n        Candidate memory candidate = Candidate({\n           _address:_address,\n           name: _name,\n           party:_party\n        });\n        emit LogNewCandidate(_address);\n        candidates[_address] = candidate;\n        isCandidateValid[_address] = true;\n        numberOfCandidates++;\n    }\n\n    function _registerVoter(string memory _name, uint _age) public\n    votingPeriodIsOpen\n    electionPeriodIsOpen\n    onlyOwner\n    validVoter(msg.sender) {\n\n        require(_age >= 18, \"Voters must be over 18 to register\");\n        Voter memory newVoter = Voter({\n            _address: msg.sender,\n            name: _name,\n            age:_age\n        });\n        emit LogNewVoter(msg.sender);\n        voters[msg.sender] = newVoter;\n        isVoterValid[msg.sender] = true;\n        numberOfVoters++;\n    }\n\n    // Candidate Functions\n\n    function getCandidate(address _address) public validCandidate(_address) returns(bool) {\n        return(isCandidateValid[_address]);\n    }\n\n    // voting Functions\n\n    function getVoter(address _address) public view returns(Voter memory){\n        return(voters[_address]);\n    }\n\n    // Set Election Period Functions\n\n\n    function setElectionAccess(bool _access) public onlyOwner returns (bool) {\n              return election.openElectionPeriod = _access;\n    }\n\n    function setRegistrationAccess(bool _access) public onlyOwner returns (bool) {\n            return election.openRegistrationPeriod = _access;\n    }\n\n    function setVotingAccess(bool _access) public onlyOwner returns (bool) {\n            return election.openVotingPeriod = _access;\n    }\n\n\n    // Get Election Period Functions\n\n    function getRegistrationAccess() public view onlyOwner returns (bool) {\n            return election.openRegistrationPeriod;\n    }\n\n    function getVotingAccess() public view onlyOwner returns (bool) {\n            return election.openVotingPeriod;\n    }\n\n    function getElectionAccess() public view onlyOwner returns (bool) {\n            return election.openElectionPeriod;\n    }\n\n\n\n    function kill() onlyOwner external {\n      selfdestruct(msg.sender);\n    }\n\n    // Assertion Test Functions\n\n    function contractOwner(address _address) public view onlyOwner{\n\n    }\n\n\n\n\n}\n",
  "sourcePath": "/Users/admin/github/votingSystem/contracts/ElectionContract.sol",
  "compiler": {
    "name": "solc",
    "version": "0.5.12+commit.7709ece9.Emscripten.clang"
  },
  "schemaVersion": "3.0.2",
  "updatedAt": "2019-11-13T17:15:03.850Z",
  "devdoc": {
    "methods": {
      "isOwner()": {
        "details": "Returns true if the caller is the current owner."
      },
      "owner()": {
        "details": "Returns the address of the current owner."
      },
      "renounceOwnership()": {
        "details": "Leaves the contract without owner. It will not be possible to call `onlyOwner` functions anymore. Can only be called by the current owner.     * NOTE: Renouncing ownership will leave the contract without an owner, thereby removing any functionality that is only available to the owner."
      },
      "transferOwnership(address)": {
        "details": "Transfers ownership of the contract to a new account (`newOwner`). Can only be called by the current owner."
      }
    }
  },
  "userdoc": {
    "methods": {}
  }
}