{
  "contractName": "ElectionContract",
  "abi": [
    {
      "inputs": [],
      "payable": false,
      "stateMutability": "nonpayable",
      "type": "constructor"
    },
    {
      "anonymous": false,
      "inputs": [
        {
          "indexed": false,
          "internalType": "address",
          "name": "_address",
          "type": "address"
        },
        {
          "indexed": false,
          "internalType": "string",
          "name": "_name",
          "type": "string"
        },
        {
          "indexed": false,
          "internalType": "string",
          "name": "_party",
          "type": "string"
        }
      ],
      "name": "LogNewCandidate",
      "type": "event"
    },
    {
      "anonymous": false,
      "inputs": [
        {
          "indexed": false,
          "internalType": "address",
          "name": "_address",
          "type": "address"
        },
        {
          "indexed": false,
          "internalType": "string",
          "name": "_name",
          "type": "string"
        },
        {
          "indexed": false,
          "internalType": "uint256",
          "name": "_age",
          "type": "uint256"
        }
      ],
      "name": "LogNewVoter",
      "type": "event"
    },
    {
      "anonymous": false,
      "inputs": [
        {
          "indexed": true,
          "internalType": "address",
          "name": "previousOwner",
          "type": "address"
        },
        {
          "indexed": true,
          "internalType": "address",
          "name": "newOwner",
          "type": "address"
        }
      ],
      "name": "OwnershipTransferred",
      "type": "event"
    },
    {
      "constant": true,
      "inputs": [],
      "name": "election",
      "outputs": [
        {
          "internalType": "uint256",
          "name": "electionTimeStamp",
          "type": "uint256"
        },
        {
          "internalType": "uint256",
          "name": "registrationPeriod",
          "type": "uint256"
        },
        {
          "internalType": "uint256",
          "name": "votingPeriod",
          "type": "uint256"
        },
        {
          "internalType": "uint256",
          "name": "endTime",
          "type": "uint256"
        },
        {
          "internalType": "bool",
          "name": "openRegistrationPeriod",
          "type": "bool"
        },
        {
          "internalType": "bool",
          "name": "openVotingPeriod",
          "type": "bool"
        },
        {
          "internalType": "bool",
          "name": "openElectionPeriod",
          "type": "bool"
        }
      ],
      "payable": false,
      "stateMutability": "view",
      "type": "function"
    },
    {
      "constant": true,
      "inputs": [],
      "name": "isOwner",
      "outputs": [
        {
          "internalType": "bool",
          "name": "",
          "type": "bool"
        }
      ],
      "payable": false,
      "stateMutability": "view",
      "type": "function"
    },
    {
      "constant": true,
      "inputs": [],
      "name": "numberOfCandidates",
      "outputs": [
        {
          "internalType": "uint256",
          "name": "",
          "type": "uint256"
        }
      ],
      "payable": false,
      "stateMutability": "view",
      "type": "function"
    },
    {
      "constant": true,
      "inputs": [],
      "name": "numberOfVoters",
      "outputs": [
        {
          "internalType": "uint256",
          "name": "",
          "type": "uint256"
        }
      ],
      "payable": false,
      "stateMutability": "view",
      "type": "function"
    },
    {
      "constant": true,
      "inputs": [],
      "name": "owner",
      "outputs": [
        {
          "internalType": "address",
          "name": "",
          "type": "address"
        }
      ],
      "payable": false,
      "stateMutability": "view",
      "type": "function"
    },
    {
      "constant": false,
      "inputs": [],
      "name": "renounceOwnership",
      "outputs": [],
      "payable": false,
      "stateMutability": "nonpayable",
      "type": "function"
    },
    {
      "constant": false,
      "inputs": [
        {
          "internalType": "address",
          "name": "newOwner",
          "type": "address"
        }
      ],
      "name": "transferOwnership",
      "outputs": [],
      "payable": false,
      "stateMutability": "nonpayable",
      "type": "function"
    },
    {
      "constant": false,
      "inputs": [
        {
          "internalType": "address",
          "name": "_address",
          "type": "address"
        },
        {
          "internalType": "string",
          "name": "_name",
          "type": "string"
        },
        {
          "internalType": "string",
          "name": "_party",
          "type": "string"
        }
      ],
      "name": "_registerCandidate",
      "outputs": [],
      "payable": false,
      "stateMutability": "nonpayable",
      "type": "function"
    },
    {
      "constant": false,
      "inputs": [
        {
          "internalType": "address",
          "name": "_address",
          "type": "address"
        },
        {
          "internalType": "string",
          "name": "_name",
          "type": "string"
        },
        {
          "internalType": "uint256",
          "name": "_age",
          "type": "uint256"
        }
      ],
      "name": "_registerVoter",
      "outputs": [],
      "payable": false,
      "stateMutability": "nonpayable",
      "type": "function"
    },
    {
      "constant": false,
      "inputs": [
        {
          "internalType": "string",
          "name": "_party",
          "type": "string"
        }
      ],
      "name": "vote",
      "outputs": [],
      "payable": false,
      "stateMutability": "nonpayable",
      "type": "function"
    },
    {
      "constant": true,
      "inputs": [
        {
          "internalType": "address",
          "name": "_address",
          "type": "address"
        }
      ],
      "name": "getCandidate",
      "outputs": [
        {
          "internalType": "bool",
          "name": "",
          "type": "bool"
        }
      ],
      "payable": false,
      "stateMutability": "view",
      "type": "function"
    },
    {
      "constant": true,
      "inputs": [
        {
          "internalType": "address",
          "name": "_address",
          "type": "address"
        }
      ],
      "name": "getVoter",
      "outputs": [
        {
          "components": [
            {
              "internalType": "address",
              "name": "_address",
              "type": "address"
            },
            {
              "internalType": "string",
              "name": "name",
              "type": "string"
            },
            {
              "internalType": "uint256",
              "name": "age",
              "type": "uint256"
            }
          ],
          "internalType": "struct ElectionContract.Voter",
          "name": "",
          "type": "tuple"
        }
      ],
      "payable": false,
      "stateMutability": "view",
      "type": "function"
    },
    {
      "constant": false,
      "inputs": [
        {
          "internalType": "bool",
          "name": "_access",
          "type": "bool"
        }
      ],
      "name": "setElectionAccess",
      "outputs": [
        {
          "internalType": "bool",
          "name": "",
          "type": "bool"
        }
      ],
      "payable": false,
      "stateMutability": "nonpayable",
      "type": "function"
    },
    {
      "constant": false,
      "inputs": [
        {
          "internalType": "bool",
          "name": "_access",
          "type": "bool"
        }
      ],
      "name": "setRegistrationAccess",
      "outputs": [
        {
          "internalType": "bool",
          "name": "",
          "type": "bool"
        }
      ],
      "payable": false,
      "stateMutability": "nonpayable",
      "type": "function"
    },
    {
      "constant": false,
      "inputs": [
        {
          "internalType": "bool",
          "name": "_access",
          "type": "bool"
        }
      ],
      "name": "setVotingAccess",
      "outputs": [
        {
          "internalType": "bool",
          "name": "",
          "type": "bool"
        }
      ],
      "payable": false,
      "stateMutability": "nonpayable",
      "type": "function"
    },
    {
      "constant": true,
      "inputs": [],
      "name": "getRegistrationAccess",
      "outputs": [
        {
          "internalType": "bool",
          "name": "",
          "type": "bool"
        }
      ],
      "payable": false,
      "stateMutability": "view",
      "type": "function"
    },
    {
      "constant": true,
      "inputs": [],
      "name": "getVotingAccess",
      "outputs": [
        {
          "internalType": "bool",
          "name": "",
          "type": "bool"
        }
      ],
      "payable": false,
      "stateMutability": "view",
      "type": "function"
    },
    {
      "constant": true,
      "inputs": [],
      "name": "getElectionAccess",
      "outputs": [
        {
          "internalType": "bool",
          "name": "",
          "type": "bool"
        }
      ],
      "payable": false,
      "stateMutability": "view",
      "type": "function"
    },
    {
      "constant": false,
      "inputs": [],
      "name": "kill",
      "outputs": [],
      "payable": false,
      "stateMutability": "nonpayable",
      "type": "function"
    },
    {
      "constant": true,
      "inputs": [],
      "name": "contractOwner",
      "outputs": [
        {
          "internalType": "bool",
          "name": "",
          "type": "bool"
        }
      ],
      "payable": false,
      "stateMutability": "view",
      "type": "function"
    }
  ],
  "bytecode": "0x608060405260405180604001604052806040518060400160405280600c81526020017f436f6e736572766174697665000000000000000000000000000000000000000081525081526020016040518060400160405280600681526020017f4c61626f757200000000000000000000000000000000000000000000000000008152508152506006906002620000959291906200024f565b50348015620000a357600080fd5b50620000b46200024760201b60201c565b6000806101000a81548173ffffffffffffffffffffffffffffffffffffffff021916908373ffffffffffffffffffffffffffffffffffffffff1602179055506000809054906101000a900473ffffffffffffffffffffffffffffffffffffffff1673ffffffffffffffffffffffffffffffffffffffff16600073ffffffffffffffffffffffffffffffffffffffff167f8be0079c531659141344cd1fd0a4f28419497f9722a3daafe3b4186f6b6457e060405160405180910390a36040518060e001604052804281526020016201518081526020016202a30081526020016202a30081526020016001151581526020016000151581526020016000151581525060016000820151816000015560208201518160010155604082015181600201556060820151816003015560808201518160040160006101000a81548160ff02191690831515021790555060a08201518160040160016101000a81548160ff02191690831515021790555060c08201518160040160026101000a81548160ff021916908315150217905550905050620003d5565b600033905090565b826002810192821562000296579160200282015b828111156200029557825182908051906020019062000284929190620002a9565b509160200191906001019062000263565b5b509050620002a5919062000330565b5090565b828054600181600116156101000203166002900490600052602060002090601f016020900481019282601f10620002ec57805160ff19168380011785556200031d565b828001600101855582156200031d579182015b828111156200031c578251825591602001919060010190620002ff565b5b5090506200032c919062000361565b5090565b6200035e91905b808211156200035a576000818162000350919062000389565b5060010162000337565b5090565b90565b6200038691905b808211156200038257600081600090555060010162000368565b5090565b90565b50805460018160011615610100020316600290046000825580601f10620003b15750620003d2565b601f016020900490600052602060002090810190620003d1919062000361565b5b50565b61219780620003e56000396000f3fe608060405234801561001057600080fd5b506004361061012c5760003560e01c806394a020a4116100ad578063ce606ee011610071578063ce606ee014610303578063d4f50f9814610321578063f2fde38b14610351578063fc36e15b1461036d578063fe1b76eb146103895761012c565b806394a020a4146102495780639bc771b4146102675780639bcc3361146102975780639c84bb27146102b5578063b7adcf1d146102d35761012c565b80634b1d3ede116100f45780634b1d3ede146101c15780634de3d10b146101e5578063715018a6146102035780638da5cb5b1461020d5780638f32d59b1461022b5761012c565b8063133b819c146101315780631c18b1d71461016157806323cd35a31461017d5780633aa764801461019b57806341c0e1b5146101b7575b600080fd5b61014b6004803603610146919081019061185c565b6103b9565b6040516101589190611dd1565b60405180910390f35b61017b60048036036101769190810190611776565b610425565b005b61018561075e565b6040516101929190611dd1565b60405180910390f35b6101b560048036036101b091908101906117f5565b6107bf565b005b6101bf610b66565b005b6101c9610bc6565b6040516101dc9796959493929190611f69565b60405180910390f35b6101ed610c1d565b6040516101fa9190611dd1565b60405180910390f35b61020b610c7e565b005b610215610d84565b6040516102229190611d33565b60405180910390f35b610233610dad565b6040516102409190611dd1565b60405180910390f35b610251610e0b565b60405161025e9190611dd1565b60405180910390f35b610281600480360361027c919081019061185c565b610e6c565b60405161028e9190611dd1565b60405180910390f35b61029f610ed8565b6040516102ac9190611f4e565b60405180910390f35b6102bd610ede565b6040516102ca9190611f4e565b60405180910390f35b6102ed60048036036102e8919081019061174d565b610ee4565b6040516102fa9190611dd1565b60405180910390f35b61030b610fcf565b6040516103189190611dd1565b60405180910390f35b61033b6004803603610336919081019061174d565b611025565b6040516103489190611f2c565b60405180910390f35b61036b6004803603610366919081019061174d565b611254565b005b61038760048036036103829190810190611885565b6112a7565b005b6103a3600480360361039e919081019061185c565b611405565b6040516103b09190611dd1565b60405180910390f35b60006103c3610dad565b610402576040517f08c379a00000000000000000000000000000000000000000000000000000000081526004016103f990611eac565b60405180910390fd5b81600160040160006101000a81548160ff02191690831515021790559050919050565b60011515600160040160009054906101000a900460ff1615151461047e576040517f08c379a000000000000000000000000000000000000000000000000000000000815260040161047590611ecc565b60405180910390fd5b60011515600160040160029054906101000a900460ff161515146104d7576040517f08c379a00000000000000000000000000000000000000000000000000000000081526004016104ce90611f0c565b60405180910390fd5b8260011515600860008373ffffffffffffffffffffffffffffffffffffffff1673ffffffffffffffffffffffffffffffffffffffff16815260200190815260200160002060009054906101000a900460ff161515141561056c576040517f08c379a000000000000000000000000000000000000000000000000000000000815260040161056390611eec565b60405180910390fd5b610574610dad565b6105b3576040517f08c379a00000000000000000000000000000000000000000000000000000000081526004016105aa90611eac565b60405180910390fd5b6105bb6115a7565b60405180606001604052808673ffffffffffffffffffffffffffffffffffffffff1681526020018581526020018481525090507fa9c9f83892c88fb8ac9d0ce80c5232d111ae45178c4621184090399b36cc7f0b85858560405161062193929190611d4e565b60405180910390a180600c60008773ffffffffffffffffffffffffffffffffffffffff1673ffffffffffffffffffffffffffffffffffffffff16815260200190815260200160002060008201518160000160006101000a81548173ffffffffffffffffffffffffffffffffffffffff021916908373ffffffffffffffffffffffffffffffffffffffff16021790555060208201518160010190805190602001906106cc9291906115de565b5060408201518160020190805190602001906106e99291906115de565b509050506001600860008773ffffffffffffffffffffffffffffffffffffffff1673ffffffffffffffffffffffffffffffffffffffff16815260200190815260200160002060006101000a81548160ff021916908315150217905550600d600081548092919060010191905055505050505050565b6000610768610dad565b6107a7576040517f08c379a000000000000000000000000000000000000000000000000000000000815260040161079e90611eac565b60405180910390fd5b600160040160019054906101000a900460ff16905090565b60011515600160040160019054906101000a900460ff16151514610818576040517f08c379a000000000000000000000000000000000000000000000000000000000815260040161080f90611e0c565b60405180910390fd5b60011515600160040160029054906101000a900460ff16151514610871576040517f08c379a000000000000000000000000000000000000000000000000000000000815260040161086890611f0c565b60405180910390fd5b610879610dad565b6108b8576040517f08c379a00000000000000000000000000000000000000000000000000000000081526004016108af90611eac565b60405180910390fd5b33600073ffffffffffffffffffffffffffffffffffffffff16600b60008373ffffffffffffffffffffffffffffffffffffffff1673ffffffffffffffffffffffffffffffffffffffff16815260200190815260200160002060000160009054906101000a900473ffffffffffffffffffffffffffffffffffffffff1673ffffffffffffffffffffffffffffffffffffffff161461098a576040517f08c379a000000000000000000000000000000000000000000000000000000000815260040161098190611e4c565b60405180910390fd5b60128210156109ce576040517f08c379a00000000000000000000000000000000000000000000000000000000081526004016109c590611dec565b60405180910390fd5b6109d661165e565b60405180606001604052803373ffffffffffffffffffffffffffffffffffffffff1681526020018581526020018481525090507ff3599dbce5b2a80bc431cea101482ab4af907bb19ec70de934175954dbe473ca858585604051610a3c93929190611d93565b60405180910390a180600b60003373ffffffffffffffffffffffffffffffffffffffff1673ffffffffffffffffffffffffffffffffffffffff16815260200190815260200160002060008201518160000160006101000a81548173ffffffffffffffffffffffffffffffffffffffff021916908373ffffffffffffffffffffffffffffffffffffffff1602179055506020820151816001019080519060200190610ae79291906115de565b50604082015181600201559050506001600960003373ffffffffffffffffffffffffffffffffffffffff1673ffffffffffffffffffffffffffffffffffffffff16815260200190815260200160002060006101000a81548160ff021916908315150217905550600e600081548092919060010191905055505050505050565b610b6e610dad565b610bad576040517f08c379a0000000000000000000000000000000000000000000000000000000008152600401610ba490611eac565b60405180910390fd5b3373ffffffffffffffffffffffffffffffffffffffff16ff5b60018060000154908060010154908060020154908060030154908060040160009054906101000a900460ff16908060040160019054906101000a900460ff16908060040160029054906101000a900460ff16905087565b6000610c27610dad565b610c66576040517f08c379a0000000000000000000000000000000000000000000000000000000008152600401610c5d90611eac565b60405180910390fd5b600160040160009054906101000a900460ff16905090565b610c86610dad565b610cc5576040517f08c379a0000000000000000000000000000000000000000000000000000000008152600401610cbc90611eac565b60405180910390fd5b600073ffffffffffffffffffffffffffffffffffffffff166000809054906101000a900473ffffffffffffffffffffffffffffffffffffffff1673ffffffffffffffffffffffffffffffffffffffff167f8be0079c531659141344cd1fd0a4f28419497f9722a3daafe3b4186f6b6457e060405160405180910390a360008060006101000a81548173ffffffffffffffffffffffffffffffffffffffff021916908373ffffffffffffffffffffffffffffffffffffffff160217905550565b60008060009054906101000a900473ffffffffffffffffffffffffffffffffffffffff16905090565b60008060009054906101000a900473ffffffffffffffffffffffffffffffffffffffff1673ffffffffffffffffffffffffffffffffffffffff16610def611471565b73ffffffffffffffffffffffffffffffffffffffff1614905090565b6000610e15610dad565b610e54576040517f08c379a0000000000000000000000000000000000000000000000000000000008152600401610e4b90611eac565b60405180910390fd5b600160040160029054906101000a900460ff16905090565b6000610e76610dad565b610eb5576040517f08c379a0000000000000000000000000000000000000000000000000000000008152600401610eac90611eac565b60405180910390fd5b81600160040160026101000a81548160ff02191690831515021790559050919050565b600e5481565b600d5481565b60008160011515600860008373ffffffffffffffffffffffffffffffffffffffff1673ffffffffffffffffffffffffffffffffffffffff16815260200190815260200160002060009054906101000a900460ff16151514610f7a576040517f08c379a0000000000000000000000000000000000000000000000000000000008152600401610f7190611e6c565b60405180910390fd5b600860008473ffffffffffffffffffffffffffffffffffffffff1673ffffffffffffffffffffffffffffffffffffffff16815260200190815260200160002060009054906101000a900460ff16915050919050565b6000610fd9610dad565b611018576040517f08c379a000000000000000000000000000000000000000000000000000000000815260040161100f90611eac565b60405180910390fd5b611020610dad565b905090565b61102d61165e565b81600073ffffffffffffffffffffffffffffffffffffffff16600b60008373ffffffffffffffffffffffffffffffffffffffff1673ffffffffffffffffffffffffffffffffffffffff16815260200190815260200160002060000160009054906101000a900473ffffffffffffffffffffffffffffffffffffffff1673ffffffffffffffffffffffffffffffffffffffff161415611100576040517f08c379a00000000000000000000000000000000000000000000000000000000081526004016110f790611e8c565b60405180910390fd5b600b60008473ffffffffffffffffffffffffffffffffffffffff1673ffffffffffffffffffffffffffffffffffffffff1681526020019081526020016000206040518060600160405290816000820160009054906101000a900473ffffffffffffffffffffffffffffffffffffffff1673ffffffffffffffffffffffffffffffffffffffff1673ffffffffffffffffffffffffffffffffffffffff168152602001600182018054600181600116156101000203166002900480601f0160208091040260200160405190810160405280929190818152602001828054600181600116156101000203166002900480156112395780601f1061120e57610100808354040283529160200191611239565b820191906000526020600020905b81548152906001019060200180831161121c57829003601f168201915b50505050508152602001600282015481525050915050919050565b61125c610dad565b61129b576040517f08c379a000000000000000000000000000000000000000000000000000000000815260040161129290611eac565b60405180910390fd5b6112a481611479565b50565b60011515600160040160019054906101000a900460ff16151514611300576040517f08c379a00000000000000000000000000000000000000000000000000000000081526004016112f790611e0c565b60405180910390fd5b33600073ffffffffffffffffffffffffffffffffffffffff16600b60008373ffffffffffffffffffffffffffffffffffffffff1673ffffffffffffffffffffffffffffffffffffffff16815260200190815260200160002060000160009054906101000a900473ffffffffffffffffffffffffffffffffffffffff1673ffffffffffffffffffffffffffffffffffffffff1614156113d3576040517f08c379a00000000000000000000000000000000000000000000000000000000081526004016113ca90611e8c565b60405180910390fd5b600a826040516113e39190611d1c565b9081526020016040518091039020600081548092919060010191905055505050565b600061140f610dad565b61144e576040517f08c379a000000000000000000000000000000000000000000000000000000000815260040161144590611eac565b60405180910390fd5b81600160040160016101000a81548160ff02191690831515021790559050919050565b600033905090565b600073ffffffffffffffffffffffffffffffffffffffff168173ffffffffffffffffffffffffffffffffffffffff1614156114e9576040517f08c379a00000000000000000000000000000000000000000000000000000000081526004016114e090611e2c565b60405180910390fd5b8073ffffffffffffffffffffffffffffffffffffffff166000809054906101000a900473ffffffffffffffffffffffffffffffffffffffff1673ffffffffffffffffffffffffffffffffffffffff167f8be0079c531659141344cd1fd0a4f28419497f9722a3daafe3b4186f6b6457e060405160405180910390a3806000806101000a81548173ffffffffffffffffffffffffffffffffffffffff021916908373ffffffffffffffffffffffffffffffffffffffff16021790555050565b6040518060600160405280600073ffffffffffffffffffffffffffffffffffffffff16815260200160608152602001606081525090565b828054600181600116156101000203166002900490600052602060002090601f016020900481019282601f1061161f57805160ff191683800117855561164d565b8280016001018555821561164d579182015b8281111561164c578251825591602001919060010190611631565b5b50905061165a9190611695565b5090565b6040518060600160405280600073ffffffffffffffffffffffffffffffffffffffff16815260200160608152602001600081525090565b6116b791905b808211156116b357600081600090555060010161169b565b5090565b90565b6000813590506116c98161210f565b92915050565b6000813590506116de81612126565b92915050565b600082601f8301126116f557600080fd5b813561170861170382612005565b611fd8565b9150808252602083016020830185838301111561172457600080fd5b61172f8382846120bc565b50505092915050565b6000813590506117478161213d565b92915050565b60006020828403121561175f57600080fd5b600061176d848285016116ba565b91505092915050565b60008060006060848603121561178b57600080fd5b6000611799868287016116ba565b935050602084013567ffffffffffffffff8111156117b657600080fd5b6117c2868287016116e4565b925050604084013567ffffffffffffffff8111156117df57600080fd5b6117eb868287016116e4565b9150509250925092565b60008060006060848603121561180a57600080fd5b6000611818868287016116ba565b935050602084013567ffffffffffffffff81111561183557600080fd5b611841868287016116e4565b925050604061185286828701611738565b9150509250925092565b60006020828403121561186e57600080fd5b600061187c848285016116cf565b91505092915050565b60006020828403121561189757600080fd5b600082013567ffffffffffffffff8111156118b157600080fd5b6118bd848285016116e4565b91505092915050565b6118cf81612074565b82525050565b6118de81612074565b82525050565b6118ed81612086565b82525050565b60006118fe8261203c565b6119088185612058565b93506119188185602086016120cb565b611921816120fe565b840191505092915050565b60006119378261203c565b6119418185612069565b93506119518185602086016120cb565b80840191505092915050565b600061196882612031565b6119728185612047565b93506119828185602086016120cb565b61198b816120fe565b840191505092915050565b60006119a3602283612058565b91507f566f74657273206d757374206265206f76657220313820746f2072656769737460008301527f65720000000000000000000000000000000000000000000000000000000000006020830152604082019050919050565b6000611a09601783612058565b91507f566f74696e6720706572696f6420697320636c6f7365640000000000000000006000830152602082019050919050565b6000611a49602683612058565b91507f4f776e61626c653a206e6577206f776e657220697320746865207a65726f206160008301527f64647265737300000000000000000000000000000000000000000000000000006020830152604082019050919050565b6000611aaf602683612058565b91507f566f7465722063616e20616c72656164792072656769737465726564206f6e6c60008301527f79206f6e636500000000000000000000000000000000000000000000000000006020830152604082019050919050565b6000611b15601483612058565b91507f43616e64696461746520697320696e76616c69640000000000000000000000006000830152602082019050919050565b6000611b55602183612058565b91507f566f746572206973206e6f742072656769737465726564206f6e6c79206f6e6360008301527f65000000000000000000000000000000000000000000000000000000000000006020830152604082019050919050565b6000611bbb602083612058565b91507f4f776e61626c653a2063616c6c6572206973206e6f7420746865206f776e65726000830152602082019050919050565b6000611bfb601d83612058565b91507f526567697374726174696f6e20706572696f6420697320636c6f7365640000006000830152602082019050919050565b6000611c3b601283612058565b91507f43616e6469646174652069732076616c696400000000000000000000000000006000830152602082019050919050565b6000611c7b601983612058565b91507f456c656374696f6e20706572696f6420697320636c6f736564000000000000006000830152602082019050919050565b6000606083016000830151611cc660008601826118c6565b5060208301518482036020860152611cde828261195d565b9150506040830151611cf36040860182611cfe565b508091505092915050565b611d07816120b2565b82525050565b611d16816120b2565b82525050565b6000611d28828461192c565b915081905092915050565b6000602082019050611d4860008301846118d5565b92915050565b6000606082019050611d6360008301866118d5565b8181036020830152611d7581856118f3565b90508181036040830152611d8981846118f3565b9050949350505050565b6000606082019050611da860008301866118d5565b8181036020830152611dba81856118f3565b9050611dc96040830184611d0d565b949350505050565b6000602082019050611de660008301846118e4565b92915050565b60006020820190508181036000830152611e0581611996565b9050919050565b60006020820190508181036000830152611e25816119fc565b9050919050565b60006020820190508181036000830152611e4581611a3c565b9050919050565b60006020820190508181036000830152611e6581611aa2565b9050919050565b60006020820190508181036000830152611e8581611b08565b9050919050565b60006020820190508181036000830152611ea581611b48565b9050919050565b60006020820190508181036000830152611ec581611bae565b9050919050565b60006020820190508181036000830152611ee581611bee565b9050919050565b60006020820190508181036000830152611f0581611c2e565b9050919050565b60006020820190508181036000830152611f2581611c6e565b9050919050565b60006020820190508181036000830152611f468184611cae565b905092915050565b6000602082019050611f636000830184611d0d565b92915050565b600060e082019050611f7e600083018a611d0d565b611f8b6020830189611d0d565b611f986040830188611d0d565b611fa56060830187611d0d565b611fb260808301866118e4565b611fbf60a08301856118e4565b611fcc60c08301846118e4565b98975050505050505050565b6000604051905081810181811067ffffffffffffffff82111715611ffb57600080fd5b8060405250919050565b600067ffffffffffffffff82111561201c57600080fd5b601f19601f8301169050602081019050919050565b600081519050919050565b600081519050919050565b600082825260208201905092915050565b600082825260208201905092915050565b600081905092915050565b600061207f82612092565b9050919050565b60008115159050919050565b600073ffffffffffffffffffffffffffffffffffffffff82169050919050565b6000819050919050565b82818337600083830152505050565b60005b838110156120e95780820151818401526020810190506120ce565b838111156120f8576000848401525b50505050565b6000601f19601f8301169050919050565b61211881612074565b811461212357600080fd5b50565b61212f81612086565b811461213a57600080fd5b50565b612146816120b2565b811461215157600080fd5b5056fea365627a7a7231582025f129bc9292715e3ff492c2a1a1d2f596c7c8ffe594158dd23a4c2eea2418c06c6578706572696d656e74616cf564736f6c634300050d0040",
  "source": "pragma solidity ^0.5.8;\npragma experimental ABIEncoderV2;\n\nimport \"../node_modules/openzeppelin-solidity/contracts/math/SafeMath.sol\";\nimport \"../node_modules/openzeppelin-solidity/contracts/ownership/Ownable.sol\";\n//import \"https://github.com/OpenZeppelin/openzeppelin-solidity/contracts/ownership/Ownable.sol\";\n\ncontract ElectionContract is Ownable {\n\n    using SafeMath for uint256;\n\n\n    struct Candidate {\n        address _address;\n        string name;\n        string party;\n    }\n\n    struct Voter {\n        address _address;\n        string name;\n        uint age;\n\n    }\n\n    struct Party {\n      string Conservative;\n      string Labour;\n      string LibDem;\n      string Green;\n      string Brexit;\n\n    }\n\n    struct Election {\n        uint256 electionTimeStamp;\n        uint256 registrationPeriod;\n        uint256 votingPeriod;\n        uint256 endTime;\n        bool openRegistrationPeriod;\n        bool openVotingPeriod;\n        bool openElectionPeriod;\n    }\n\n    Election public election;\n\n    string[2] parties = [\"Conservative\",\"Labour\"];\n\n    mapping(address => bool) isCandidateValid;\n    mapping(address => bool) isVoterValid;\n    mapping(string => uint) partyCount;\n\n    mapping(address => Voter) voters;\n    mapping(address => Candidate) candidates;\n\n\n    uint public numberOfCandidates;\n    uint public numberOfVoters;\n\n\n    constructor() public {\n      election = Election(now, 1 days, 2 days, 2 days, true, false, false);\n    }\n\n    // events\n\n    event LogNewCandidate(address _address, string _name, string _party);\n    event LogNewVoter(address _address, string _name, uint _age);\n\n\n\n\n\n\n    // modifiers\n\n    modifier registrationPeriodIsOpen()  {\n        require(election.openRegistrationPeriod == true, \"Registration period is closed\");\n    _;\n    }\n\n    modifier votingPeriodIsOpen() {\n      require(election.openVotingPeriod == true, \"Voting period is closed\");\n      _;\n    }\n\n    modifier electionPeriodIsOpen() {\n      require(election.openElectionPeriod == true, \"Election period is closed\");\n      _;\n    }\n\n    modifier registeredCandidate(address _address) {\n      require(isCandidateValid[_address] == true, \"Candidate is invalid\");\n      _;\n    }\n\n    modifier unregisteredCandidate(address _address) {\n        require(isCandidateValid[_address] != true, \"Candidate is valid\");\n        _;\n    }\n\n    modifier unregisteredVoter(address _address) {\n        require(voters[_address]._address == address(0), \"Voter can already registered only once\");\n        _;\n    }\n\n    modifier registeredVoter(address _address) {\n        require(voters[_address]._address != address(0), \"Voter is not registered only once\");\n        _;\n    }\n\n\n    //  Registration Functions\n\n    function _registerCandidate(address _address, string memory _name, string memory _party) public\n    registrationPeriodIsOpen\n    electionPeriodIsOpen\n    unregisteredCandidate(_address)\n    onlyOwner {\n\n        Candidate memory candidate = Candidate({\n           _address:_address,\n           name: _name,\n           party:_party\n        });\n        emit LogNewCandidate(_address, _name, _party);\n        candidates[_address] = candidate;\n        isCandidateValid[_address] = true;\n        numberOfCandidates++;\n    }\n\n    function _registerVoter(address _address, string memory _name, uint _age) public\n    votingPeriodIsOpen\n    electionPeriodIsOpen\n    onlyOwner\n    unregisteredVoter(msg.sender) {\n\n        require(_age >= 18, \"Voters must be over 18 to register\");\n        Voter memory newVoter = Voter({\n            _address: msg.sender,\n            name: _name,\n            age:_age\n        });\n        emit LogNewVoter(_address, _name, _age);\n        voters[msg.sender] = newVoter;\n        isVoterValid[msg.sender] = true;\n        numberOfVoters++;\n    }\n\n    // Vote Functions\n\n    function vote(string memory _party) public \n    votingPeriodIsOpen\n    registeredVoter(msg.sender) {\n      partyCount[_party]++;\n    }\n\n    // Candidate Functions\n\n    function getCandidate(address _address) public view registeredCandidate(_address) returns(bool) {\n        return(isCandidateValid[_address]);\n    }\n\n    // voting Functions\n\n    function getVoter(address _address) public view registeredVoter(_address) returns(Voter memory){\n        return(voters[_address]);\n    }\n\n    // Set Election Period Functions\n\n\n    function setElectionAccess(bool _access) public onlyOwner returns (bool) {\n              return election.openElectionPeriod = _access;\n    }\n\n    function setRegistrationAccess(bool _access) public onlyOwner returns (bool) {\n            return election.openRegistrationPeriod = _access;\n    }\n\n    function setVotingAccess(bool _access) public onlyOwner returns (bool) {\n            return election.openVotingPeriod = _access;\n    }\n\n\n    // Get Election Period Functions\n\n    function getRegistrationAccess() public view onlyOwner returns (bool) {\n            return election.openRegistrationPeriod;\n    }\n\n    function getVotingAccess() public view onlyOwner returns (bool) {\n            return election.openVotingPeriod;\n    }\n\n    function getElectionAccess() public view onlyOwner returns (bool) {\n            return election.openElectionPeriod;\n    }\n\n\n\n    function kill() onlyOwner external {\n      selfdestruct(msg.sender);\n    }\n\n    // Assertion Test Functions\n\n    function contractOwner() public view onlyOwner returns(bool){\n        return isOwner();\n    }\n\n\n\n\n}\n",
  "sourcePath": "/Users/kevinkeaveney/github/VotingSystem/contracts/ElectionContract.sol",
  "compiler": {
    "name": "solc",
    "version": "0.5.13+commit.5b0b510c.Emscripten.clang"
  },
  "schemaVersion": "3.0.16",
  "updatedAt": "2019-11-14T21:21:51.514Z",
  "devdoc": {
    "methods": {
      "isOwner()": {
        "details": "Returns true if the caller is the current owner."
      },
      "owner()": {
        "details": "Returns the address of the current owner."
      },
      "renounceOwnership()": {
        "details": "Leaves the contract without owner. It will not be possible to call `onlyOwner` functions anymore. Can only be called by the current owner.     * NOTE: Renouncing ownership will leave the contract without an owner, thereby removing any functionality that is only available to the owner."
      },
      "transferOwnership(address)": {
        "details": "Transfers ownership of the contract to a new account (`newOwner`). Can only be called by the current owner."
      }
    }
  },
  "userdoc": {
    "methods": {}
  }
}