{
  "contractName": "ElectionContract",
  "abi": [
    {
      "inputs": [],
      "payable": false,
      "stateMutability": "nonpayable",
      "type": "constructor"
    },
    {
      "anonymous": false,
      "inputs": [
        {
          "indexed": false,
          "internalType": "address",
          "name": "_address",
          "type": "address"
        },
        {
          "indexed": false,
          "internalType": "string",
          "name": "_party",
          "type": "string"
        },
        {
          "indexed": false,
          "internalType": "uint256",
          "name": "_amount",
          "type": "uint256"
        }
      ],
      "name": "LogFundParty",
      "type": "event"
    },
    {
      "anonymous": false,
      "inputs": [
        {
          "indexed": false,
          "internalType": "address",
          "name": "_address",
          "type": "address"
        },
        {
          "indexed": false,
          "internalType": "string",
          "name": "_name",
          "type": "string"
        },
        {
          "indexed": false,
          "internalType": "string",
          "name": "_party",
          "type": "string"
        }
      ],
      "name": "LogNewCandidate",
      "type": "event"
    },
    {
      "anonymous": false,
      "inputs": [
        {
          "indexed": false,
          "internalType": "address",
          "name": "_address",
          "type": "address"
        },
        {
          "indexed": false,
          "internalType": "string",
          "name": "_name",
          "type": "string"
        },
        {
          "indexed": false,
          "internalType": "uint256",
          "name": "_age",
          "type": "uint256"
        }
      ],
      "name": "LogNewVoter",
      "type": "event"
    },
    {
      "anonymous": false,
      "inputs": [
        {
          "indexed": false,
          "internalType": "string",
          "name": "_name",
          "type": "string"
        }
      ],
      "name": "LogVote",
      "type": "event"
    },
    {
      "anonymous": false,
      "inputs": [
        {
          "indexed": true,
          "internalType": "address",
          "name": "previousOwner",
          "type": "address"
        },
        {
          "indexed": true,
          "internalType": "address",
          "name": "newOwner",
          "type": "address"
        }
      ],
      "name": "OwnershipTransferred",
      "type": "event"
    },
    {
      "constant": true,
      "inputs": [],
      "name": "election",
      "outputs": [
        {
          "internalType": "uint256",
          "name": "electionTimeStamp",
          "type": "uint256"
        },
        {
          "internalType": "uint256",
          "name": "registrationPeriod",
          "type": "uint256"
        },
        {
          "internalType": "uint256",
          "name": "votingPeriod",
          "type": "uint256"
        },
        {
          "internalType": "uint256",
          "name": "endTime",
          "type": "uint256"
        },
        {
          "internalType": "bool",
          "name": "openRegistrationPeriod",
          "type": "bool"
        },
        {
          "internalType": "bool",
          "name": "openVotingPeriod",
          "type": "bool"
        },
        {
          "internalType": "bool",
          "name": "openElectionPeriod",
          "type": "bool"
        }
      ],
      "payable": false,
      "stateMutability": "view",
      "type": "function"
    },
    {
      "constant": true,
      "inputs": [],
      "name": "isOwner",
      "outputs": [
        {
          "internalType": "bool",
          "name": "",
          "type": "bool"
        }
      ],
      "payable": false,
      "stateMutability": "view",
      "type": "function"
    },
    {
      "constant": true,
      "inputs": [],
      "name": "numberOfCandidates",
      "outputs": [
        {
          "internalType": "uint256",
          "name": "",
          "type": "uint256"
        }
      ],
      "payable": false,
      "stateMutability": "view",
      "type": "function"
    },
    {
      "constant": true,
      "inputs": [],
      "name": "numberOfVoters",
      "outputs": [
        {
          "internalType": "uint256",
          "name": "",
          "type": "uint256"
        }
      ],
      "payable": false,
      "stateMutability": "view",
      "type": "function"
    },
    {
      "constant": true,
      "inputs": [],
      "name": "owner",
      "outputs": [
        {
          "internalType": "address",
          "name": "",
          "type": "address"
        }
      ],
      "payable": false,
      "stateMutability": "view",
      "type": "function"
    },
    {
      "constant": false,
      "inputs": [],
      "name": "renounceOwnership",
      "outputs": [],
      "payable": false,
      "stateMutability": "nonpayable",
      "type": "function"
    },
    {
      "constant": false,
      "inputs": [
        {
          "internalType": "address",
          "name": "newOwner",
          "type": "address"
        }
      ],
      "name": "transferOwnership",
      "outputs": [],
      "payable": false,
      "stateMutability": "nonpayable",
      "type": "function"
    },
    {
      "constant": false,
      "inputs": [
        {
          "internalType": "address",
          "name": "_address",
          "type": "address"
        },
        {
          "internalType": "string",
          "name": "_name",
          "type": "string"
        },
        {
          "internalType": "string",
          "name": "_party",
          "type": "string"
        }
      ],
      "name": "_registerCandidate",
      "outputs": [],
      "payable": false,
      "stateMutability": "nonpayable",
      "type": "function"
    },
    {
      "constant": false,
      "inputs": [
        {
          "internalType": "address",
          "name": "_address",
          "type": "address"
        },
        {
          "internalType": "string",
          "name": "_name",
          "type": "string"
        },
        {
          "internalType": "uint256",
          "name": "_age",
          "type": "uint256"
        }
      ],
      "name": "_registerVoter",
      "outputs": [],
      "payable": false,
      "stateMutability": "nonpayable",
      "type": "function"
    },
    {
      "constant": false,
      "inputs": [
        {
          "internalType": "string",
          "name": "_name",
          "type": "string"
        }
      ],
      "name": "vote",
      "outputs": [],
      "payable": false,
      "stateMutability": "nonpayable",
      "type": "function"
    },
    {
      "constant": false,
      "inputs": [
        {
          "internalType": "address",
          "name": "_address",
          "type": "address"
        },
        {
          "internalType": "string",
          "name": "_party",
          "type": "string"
        },
        {
          "internalType": "uint256",
          "name": "_amount",
          "type": "uint256"
        }
      ],
      "name": "fundPartyCampaign",
      "outputs": [],
      "payable": true,
      "stateMutability": "payable",
      "type": "function"
    },
    {
      "constant": true,
      "inputs": [
        {
          "internalType": "address",
          "name": "_address",
          "type": "address"
        }
      ],
      "name": "getCandidate",
      "outputs": [
        {
          "components": [
            {
              "internalType": "address",
              "name": "_address",
              "type": "address"
            },
            {
              "internalType": "string",
              "name": "name",
              "type": "string"
            },
            {
              "internalType": "string",
              "name": "party",
              "type": "string"
            }
          ],
          "internalType": "struct ElectionContract.Candidate",
          "name": "",
          "type": "tuple"
        }
      ],
      "payable": false,
      "stateMutability": "view",
      "type": "function"
    },
    {
      "constant": true,
      "inputs": [
        {
          "internalType": "address",
          "name": "_address",
          "type": "address"
        }
      ],
      "name": "getVoter",
      "outputs": [
        {
          "components": [
            {
              "internalType": "address",
              "name": "_address",
              "type": "address"
            },
            {
              "internalType": "string",
              "name": "name",
              "type": "string"
            },
            {
              "internalType": "uint256",
              "name": "age",
              "type": "uint256"
            },
            {
              "internalType": "bool",
              "name": "hasVoted",
              "type": "bool"
            }
          ],
          "internalType": "struct ElectionContract.Voter",
          "name": "",
          "type": "tuple"
        }
      ],
      "payable": false,
      "stateMutability": "view",
      "type": "function"
    },
    {
      "constant": true,
      "inputs": [
        {
          "internalType": "string",
          "name": "_name",
          "type": "string"
        }
      ],
      "name": "getPartyCount",
      "outputs": [
        {
          "internalType": "uint256",
          "name": "",
          "type": "uint256"
        }
      ],
      "payable": false,
      "stateMutability": "view",
      "type": "function"
    },
    {
      "constant": true,
      "inputs": [
        {
          "internalType": "string",
          "name": "_party",
          "type": "string"
        }
      ],
      "name": "getPartyFund",
      "outputs": [
        {
          "internalType": "uint256",
          "name": "_amount",
          "type": "uint256"
        }
      ],
      "payable": false,
      "stateMutability": "view",
      "type": "function"
    },
    {
      "constant": false,
      "inputs": [
        {
          "internalType": "bool",
          "name": "_access",
          "type": "bool"
        }
      ],
      "name": "setElectionAccess",
      "outputs": [
        {
          "internalType": "bool",
          "name": "",
          "type": "bool"
        }
      ],
      "payable": false,
      "stateMutability": "nonpayable",
      "type": "function"
    },
    {
      "constant": false,
      "inputs": [
        {
          "internalType": "bool",
          "name": "_access",
          "type": "bool"
        }
      ],
      "name": "setRegistrationAccess",
      "outputs": [
        {
          "internalType": "bool",
          "name": "",
          "type": "bool"
        }
      ],
      "payable": false,
      "stateMutability": "nonpayable",
      "type": "function"
    },
    {
      "constant": false,
      "inputs": [
        {
          "internalType": "bool",
          "name": "_access",
          "type": "bool"
        }
      ],
      "name": "setVotingAccess",
      "outputs": [
        {
          "internalType": "bool",
          "name": "",
          "type": "bool"
        }
      ],
      "payable": false,
      "stateMutability": "nonpayable",
      "type": "function"
    },
    {
      "constant": true,
      "inputs": [],
      "name": "getRegistrationAccess",
      "outputs": [
        {
          "internalType": "bool",
          "name": "",
          "type": "bool"
        }
      ],
      "payable": false,
      "stateMutability": "view",
      "type": "function"
    },
    {
      "constant": true,
      "inputs": [],
      "name": "getVotingAccess",
      "outputs": [
        {
          "internalType": "bool",
          "name": "",
          "type": "bool"
        }
      ],
      "payable": false,
      "stateMutability": "view",
      "type": "function"
    },
    {
      "constant": true,
      "inputs": [],
      "name": "getElectionAccess",
      "outputs": [
        {
          "internalType": "bool",
          "name": "",
          "type": "bool"
        }
      ],
      "payable": false,
      "stateMutability": "view",
      "type": "function"
    },
    {
      "constant": true,
      "inputs": [
        {
          "internalType": "string",
          "name": "_party",
          "type": "string"
        }
      ],
      "name": "validPartyStrings",
      "outputs": [
        {
          "internalType": "bool",
          "name": "",
          "type": "bool"
        }
      ],
      "payable": false,
      "stateMutability": "pure",
      "type": "function"
    },
    {
      "constant": false,
      "inputs": [],
      "name": "kill",
      "outputs": [],
      "payable": false,
      "stateMutability": "nonpayable",
      "type": "function"
    },
    {
      "constant": true,
      "inputs": [],
      "name": "contractOwner",
      "outputs": [
        {
          "internalType": "bool",
          "name": "",
          "type": "bool"
        }
      ],
      "payable": false,
      "stateMutability": "view",
      "type": "function"
    }
  ],
  "bytecode": "0x608060405234801561001057600080fd5b506100286101ba640100000000026401000000009004565b6000806101000a81548173ffffffffffffffffffffffffffffffffffffffff021916908373ffffffffffffffffffffffffffffffffffffffff1602179055506000809054906101000a900473ffffffffffffffffffffffffffffffffffffffff1673ffffffffffffffffffffffffffffffffffffffff16600073ffffffffffffffffffffffffffffffffffffffff167f8be0079c531659141344cd1fd0a4f28419497f9722a3daafe3b4186f6b6457e060405160405180910390a36040518060e001604052804281526020016201518081526020016202a30081526020016202a30081526020016001151581526020016000151581526020016000151581525060016000820151816000015560208201518160010155604082015181600201556060820151816003015560808201518160040160006101000a81548160ff02191690831515021790555060a08201518160040160016101000a81548160ff02191690831515021790555060c08201518160040160026101000a81548160ff0219169083151502179055509050506101c2565b600033905090565b612c3380620001d26000396000f3fe608060405260043610610168576000357c01000000000000000000000000000000000000000000000000000000009004806394a020a4116100d3578063d4f50f981161008c578063d4f50f9814610486578063d8609462146104c3578063dfdea59c14610500578063f2fde38b1461053d578063fc36e15b14610566578063fe1b76eb1461058f57610168565b806394a020a4146103605780639bc771b41461038b5780639bcc3361146103c85780639c84bb27146103f3578063b7adcf1d1461041e578063ce606ee01461045b57610168565b80634b1d3ede116101255780634b1d3ede1461027b5780634de3d10b146102ac5780635c8bc70e146102d7578063715018a6146102f35780638da5cb5b1461030a5780638f32d59b1461033557610168565b8063041a4d941461016d578063133b819c146101aa5780631c18b1d7146101e757806323cd35a3146102105780633aa764801461023b57806341c0e1b514610264575b600080fd5b34801561017957600080fd5b50610194600480360361018f91908101906121bf565b6105cc565b6040516101a191906129df565b60405180910390f35b3480156101b657600080fd5b506101d160048036036101cc9190810190612196565b610692565b6040516101de91906127de565b60405180910390f35b3480156101f357600080fd5b5061020e600480360361020991908101906120b0565b6106fe565b005b34801561021c57600080fd5b50610225610a37565b60405161023291906127de565b60405180910390f35b34801561024757600080fd5b50610262600480360361025d919081019061212f565b610a98565b005b34801561027057600080fd5b50610279610e21565b005b34801561028757600080fd5b50610290610e81565b6040516102a397969594939291906129fa565b60405180910390f35b3480156102b857600080fd5b506102c1610ed8565b6040516102ce91906127de565b60405180910390f35b6102f160048036036102ec919081019061212f565b610f39565b005b3480156102ff57600080fd5b50610308611153565b005b34801561031657600080fd5b5061031f611259565b60405161032c9190612740565b60405180910390f35b34801561034157600080fd5b5061034a611282565b60405161035791906127de565b60405180910390f35b34801561036c57600080fd5b506103756112e0565b60405161038291906127de565b60405180910390f35b34801561039757600080fd5b506103b260048036036103ad9190810190612196565b611341565b6040516103bf91906127de565b60405180910390f35b3480156103d457600080fd5b506103dd6113ad565b6040516103ea91906129df565b60405180910390f35b3480156103ff57600080fd5b506104086113b3565b60405161041591906129df565b60405180910390f35b34801561042a57600080fd5b5061044560048036036104409190810190612087565b6113b9565b604051610452919061299b565b60405180910390f35b34801561046757600080fd5b50610470611641565b60405161047d91906127de565b60405180910390f35b34801561049257600080fd5b506104ad60048036036104a89190810190612087565b611697565b6040516104ba91906129bd565b60405180910390f35b3480156104cf57600080fd5b506104ea60048036036104e591908101906121bf565b6118e1565b6040516104f791906127de565b60405180910390f35b34801561050c57600080fd5b50610527600480360361052291908101906121bf565b6119dc565b60405161053491906129df565b60405180910390f35b34801561054957600080fd5b50610564600480360361055f9190810190612087565b611a0a565b005b34801561057257600080fd5b5061058d600480360361058891908101906121bf565b611a5d565b005b34801561059b57600080fd5b506105b660048036036105b19190810190612196565b611d36565b6040516105c391906127de565b60405180910390f35b60006105d6611282565b610615576040517f08c379a000000000000000000000000000000000000000000000000000000000815260040161060c906128bb565b60405180910390fd5b8160011515610623826118e1565b151514610665576040517f08c379a000000000000000000000000000000000000000000000000000000000815260040161065c9061289b565b60405180910390fd5b606083905060088160405161067a9190612729565b90815260200160405180910390205492505050919050565b600061069c611282565b6106db576040517f08c379a00000000000000000000000000000000000000000000000000000000081526004016106d2906128bb565b60405180910390fd5b81600160040160006101000a81548160ff02191690831515021790559050919050565b60011515600160040160009054906101000a900460ff16151514610757576040517f08c379a000000000000000000000000000000000000000000000000000000000815260040161074e9061293b565b60405180910390fd5b60011515600160040160029054906101000a900460ff161515146107b0576040517f08c379a00000000000000000000000000000000000000000000000000000000081526004016107a79061297b565b60405180910390fd5b8260011515600660008373ffffffffffffffffffffffffffffffffffffffff1673ffffffffffffffffffffffffffffffffffffffff16815260200190815260200160002060009054906101000a900460ff1615151415610845576040517f08c379a000000000000000000000000000000000000000000000000000000000815260040161083c9061295b565b60405180910390fd5b61084d611282565b61088c576040517f08c379a0000000000000000000000000000000000000000000000000000000008152600401610883906128bb565b60405180910390fd5b610894611ed8565b60405180606001604052808673ffffffffffffffffffffffffffffffffffffffff1681526020018581526020018481525090507fa9c9f83892c88fb8ac9d0ce80c5232d111ae45178c4621184090399b36cc7f0b8585856040516108fa9392919061275b565b60405180910390a180600a60008773ffffffffffffffffffffffffffffffffffffffff1673ffffffffffffffffffffffffffffffffffffffff16815260200190815260200160002060008201518160000160006101000a81548173ffffffffffffffffffffffffffffffffffffffff021916908373ffffffffffffffffffffffffffffffffffffffff16021790555060208201518160010190805190602001906109a5929190611f0f565b5060408201518160020190805190602001906109c2929190611f0f565b509050506001600660008773ffffffffffffffffffffffffffffffffffffffff1673ffffffffffffffffffffffffffffffffffffffff16815260200190815260200160002060006101000a81548160ff021916908315150217905550600c600081548092919060010191905055505050505050565b6000610a41611282565b610a80576040517f08c379a0000000000000000000000000000000000000000000000000000000008152600401610a77906128bb565b60405180910390fd5b600160040160019054906101000a900460ff16905090565b60011515600160040160019054906101000a900460ff16151514610af1576040517f08c379a0000000000000000000000000000000000000000000000000000000008152600401610ae89061283b565b60405180910390fd5b60011515600160040160029054906101000a900460ff16151514610b4a576040517f08c379a0000000000000000000000000000000000000000000000000000000008152600401610b419061297b565b60405180910390fd5b33600073ffffffffffffffffffffffffffffffffffffffff16600960008373ffffffffffffffffffffffffffffffffffffffff1673ffffffffffffffffffffffffffffffffffffffff16815260200190815260200160002060000160009054906101000a900473ffffffffffffffffffffffffffffffffffffffff1673ffffffffffffffffffffffffffffffffffffffff1614610c1c576040517f08c379a0000000000000000000000000000000000000000000000000000000008152600401610c13906128fb565b60405180910390fd5b6012821015610c60576040517f08c379a0000000000000000000000000000000000000000000000000000000008152600401610c579061281b565b60405180910390fd5b610c68611f8f565b60405180608001604052803373ffffffffffffffffffffffffffffffffffffffff1681526020018581526020018481526020016000151581525090507ff3599dbce5b2a80bc431cea101482ab4af907bb19ec70de934175954dbe473ca858585604051610cd7939291906127a0565b60405180910390a180600960003373ffffffffffffffffffffffffffffffffffffffff1673ffffffffffffffffffffffffffffffffffffffff16815260200190815260200160002060008201518160000160006101000a81548173ffffffffffffffffffffffffffffffffffffffff021916908373ffffffffffffffffffffffffffffffffffffffff1602179055506020820151816001019080519060200190610d82929190611f0f565b506040820151816002015560608201518160030160006101000a81548160ff0219169083151502179055509050506001600760003373ffffffffffffffffffffffffffffffffffffffff1673ffffffffffffffffffffffffffffffffffffffff16815260200190815260200160002060006101000a81548160ff021916908315150217905550600d600081548092919060010191905055505050505050565b610e29611282565b610e68576040517f08c379a0000000000000000000000000000000000000000000000000000000008152600401610e5f906128bb565b60405180910390fd5b3373ffffffffffffffffffffffffffffffffffffffff16ff5b60018060000154908060010154908060020154908060030154908060040160009054906101000a900460ff16908060040160019054906101000a900460ff16908060040160029054906101000a900460ff16905087565b6000610ee2611282565b610f21576040517f08c379a0000000000000000000000000000000000000000000000000000000008152600401610f18906128bb565b60405180910390fd5b600160040160009054906101000a900460ff16905090565b60011515600160040160009054906101000a900460ff16151514610f92576040517f08c379a0000000000000000000000000000000000000000000000000000000008152600401610f899061293b565b60405180910390fd5b60011515600160040160029054906101000a900460ff16151514610feb576040517f08c379a0000000000000000000000000000000000000000000000000000000008152600401610fe29061297b565b60405180910390fd5b8260011515600660008373ffffffffffffffffffffffffffffffffffffffff1673ffffffffffffffffffffffffffffffffffffffff16815260200190815260200160002060009054906101000a900460ff1615151461107f576040517f08c379a00000000000000000000000000000000000000000000000000000000081526004016110769061287b565b60405180910390fd5b826001151561108d826118e1565b1515146110cf576040517f08c379a00000000000000000000000000000000000000000000000000000000081526004016110c69061289b565b60405180910390fd5b8260018110156110de57600080fd5b7fdfeb50c70bdb501dac52cee74161b94818cd55296d9e6aea825bf983851e96b8868686604051611111939291906127a0565b60405180910390a1606085905084600b8260405161112f9190612729565b90815260200160405180910390206000828254019250508190555050505050505050565b61115b611282565b61119a576040517f08c379a0000000000000000000000000000000000000000000000000000000008152600401611191906128bb565b60405180910390fd5b600073ffffffffffffffffffffffffffffffffffffffff166000809054906101000a900473ffffffffffffffffffffffffffffffffffffffff1673ffffffffffffffffffffffffffffffffffffffff167f8be0079c531659141344cd1fd0a4f28419497f9722a3daafe3b4186f6b6457e060405160405180910390a360008060006101000a81548173ffffffffffffffffffffffffffffffffffffffff021916908373ffffffffffffffffffffffffffffffffffffffff160217905550565b60008060009054906101000a900473ffffffffffffffffffffffffffffffffffffffff16905090565b60008060009054906101000a900473ffffffffffffffffffffffffffffffffffffffff1673ffffffffffffffffffffffffffffffffffffffff166112c4611da2565b73ffffffffffffffffffffffffffffffffffffffff1614905090565b60006112ea611282565b611329576040517f08c379a0000000000000000000000000000000000000000000000000000000008152600401611320906128bb565b60405180910390fd5b600160040160029054906101000a900460ff16905090565b600061134b611282565b61138a576040517f08c379a0000000000000000000000000000000000000000000000000000000008152600401611381906128bb565b60405180910390fd5b81600160040160026101000a81548160ff02191690831515021790559050919050565b600d5481565b600c5481565b6113c1611ed8565b8160011515600660008373ffffffffffffffffffffffffffffffffffffffff1673ffffffffffffffffffffffffffffffffffffffff16815260200190815260200160002060009054906101000a900460ff16151514611455576040517f08c379a000000000000000000000000000000000000000000000000000000000815260040161144c9061287b565b60405180910390fd5b600a60008473ffffffffffffffffffffffffffffffffffffffff1673ffffffffffffffffffffffffffffffffffffffff1681526020019081526020016000206040518060600160405290816000820160009054906101000a900473ffffffffffffffffffffffffffffffffffffffff1673ffffffffffffffffffffffffffffffffffffffff1673ffffffffffffffffffffffffffffffffffffffff168152602001600182018054600181600116156101000203166002900480601f01602080910402602001604051908101604052809291908181526020018280546001816001161561010002031660029004801561158e5780601f106115635761010080835404028352916020019161158e565b820191906000526020600020905b81548152906001019060200180831161157157829003601f168201915b50505050508152602001600282018054600181600116156101000203166002900480601f0160208091040260200160405190810160405280929190818152602001828054600181600116156101000203166002900480156116305780601f1061160557610100808354040283529160200191611630565b820191906000526020600020905b81548152906001019060200180831161161357829003601f168201915b505050505081525050915050919050565b600061164b611282565b61168a576040517f08c379a0000000000000000000000000000000000000000000000000000000008152600401611681906128bb565b60405180910390fd5b611692611282565b905090565b61169f611f8f565b81600073ffffffffffffffffffffffffffffffffffffffff16600960008373ffffffffffffffffffffffffffffffffffffffff1673ffffffffffffffffffffffffffffffffffffffff16815260200190815260200160002060000160009054906101000a900473ffffffffffffffffffffffffffffffffffffffff1673ffffffffffffffffffffffffffffffffffffffff161415611772576040517f08c379a00000000000000000000000000000000000000000000000000000000081526004016117699061291b565b60405180910390fd5b600960008473ffffffffffffffffffffffffffffffffffffffff1673ffffffffffffffffffffffffffffffffffffffff1681526020019081526020016000206040518060800160405290816000820160009054906101000a900473ffffffffffffffffffffffffffffffffffffffff1673ffffffffffffffffffffffffffffffffffffffff1673ffffffffffffffffffffffffffffffffffffffff168152602001600182018054600181600116156101000203166002900480601f0160208091040260200160405190810160405280929190818152602001828054600181600116156101000203166002900480156118ab5780601f10611880576101008083540402835291602001916118ab565b820191906000526020600020905b81548152906001019060200180831161188e57829003601f168201915b50505050508152602001600282015481526020016003820160009054906101000a900460ff161515151581525050915050919050565b600060606040518060400160405280600381526020017f436f6e0000000000000000000000000000000000000000000000000000000000815250905060606040518060400160405280600381526020017f4c61620000000000000000000000000000000000000000000000000000000000815250905060606040518060400160405280600381526020017f4c6962000000000000000000000000000000000000000000000000000000000081525090508280519060200120858051906020012014806119ba575081805190602001208580519060200120145b806119d2575080805190602001208580519060200120145b9350505050919050565b60006060829050600b816040516119f39190612729565b908152602001604051809103902054915050919050565b611a12611282565b611a51576040517f08c379a0000000000000000000000000000000000000000000000000000000008152600401611a48906128bb565b60405180910390fd5b611a5a81611daa565b50565b60011515600160040160019054906101000a900460ff16151514611ab6576040517f08c379a0000000000000000000000000000000000000000000000000000000008152600401611aad9061283b565b60405180910390fd5b8060011515611ac4826118e1565b151514611b06576040517f08c379a0000000000000000000000000000000000000000000000000000000008152600401611afd9061289b565b60405180910390fd5b33600073ffffffffffffffffffffffffffffffffffffffff16600960008373ffffffffffffffffffffffffffffffffffffffff1673ffffffffffffffffffffffffffffffffffffffff16815260200190815260200160002060000160009054906101000a900473ffffffffffffffffffffffffffffffffffffffff1673ffffffffffffffffffffffffffffffffffffffff161415611bd9576040517f08c379a0000000000000000000000000000000000000000000000000000000008152600401611bd09061291b565b60405180910390fd5b3360011515600760008373ffffffffffffffffffffffffffffffffffffffff1673ffffffffffffffffffffffffffffffffffffffff16815260200190815260200160002060009054906101000a900460ff16151514611c6d576040517f08c379a0000000000000000000000000000000000000000000000000000000008152600401611c64906128db565b60405180910390fd5b7f7c80dabf6f7887f48942410be29cbb079b2efdc2b033e4c8c15554cbf9bfa8a984604051611c9c91906127f9565b60405180910390a16000600760003373ffffffffffffffffffffffffffffffffffffffff1673ffffffffffffffffffffffffffffffffffffffff16815260200190815260200160002060006101000a81548160ff0219169083151502179055506060849050600881604051611d119190612729565b9081526020016040518091039020600081548092919060010191905055505050505050565b6000611d40611282565b611d7f576040517f08c379a0000000000000000000000000000000000000000000000000000000008152600401611d76906128bb565b60405180910390fd5b81600160040160016101000a81548160ff02191690831515021790559050919050565b600033905090565b600073ffffffffffffffffffffffffffffffffffffffff168173ffffffffffffffffffffffffffffffffffffffff161415611e1a576040517f08c379a0000000000000000000000000000000000000000000000000000000008152600401611e119061285b565b60405180910390fd5b8073ffffffffffffffffffffffffffffffffffffffff166000809054906101000a900473ffffffffffffffffffffffffffffffffffffffff1673ffffffffffffffffffffffffffffffffffffffff167f8be0079c531659141344cd1fd0a4f28419497f9722a3daafe3b4186f6b6457e060405160405180910390a3806000806101000a81548173ffffffffffffffffffffffffffffffffffffffff021916908373ffffffffffffffffffffffffffffffffffffffff16021790555050565b6040518060600160405280600073ffffffffffffffffffffffffffffffffffffffff16815260200160608152602001606081525090565b828054600181600116156101000203166002900490600052602060002090601f016020900481019282601f10611f5057805160ff1916838001178555611f7e565b82800160010185558215611f7e579182015b82811115611f7d578251825591602001919060010190611f62565b5b509050611f8b9190611fcf565b5090565b6040518060800160405280600073ffffffffffffffffffffffffffffffffffffffff16815260200160608152602001600081526020016000151581525090565b611ff191905b80821115611fed576000816000905550600101611fd5565b5090565b90565b60008135905061200381612bab565b92915050565b60008135905061201881612bc2565b92915050565b600082601f83011261202f57600080fd5b813561204261203d82612a96565b612a69565b9150808252602083016020830185838301111561205e57600080fd5b612069838284612b58565b50505092915050565b60008135905061208181612bd9565b92915050565b60006020828403121561209957600080fd5b60006120a784828501611ff4565b91505092915050565b6000806000606084860312156120c557600080fd5b60006120d386828701611ff4565b935050602084013567ffffffffffffffff8111156120f057600080fd5b6120fc8682870161201e565b925050604084013567ffffffffffffffff81111561211957600080fd5b6121258682870161201e565b9150509250925092565b60008060006060848603121561214457600080fd5b600061215286828701611ff4565b935050602084013567ffffffffffffffff81111561216f57600080fd5b61217b8682870161201e565b925050604061218c86828701612072565b9150509250925092565b6000602082840312156121a857600080fd5b60006121b684828501612009565b91505092915050565b6000602082840312156121d157600080fd5b600082013567ffffffffffffffff8111156121eb57600080fd5b6121f78482850161201e565b91505092915050565b61220981612b10565b82525050565b61221881612b10565b82525050565b61222781612b22565b82525050565b61223681612b22565b82525050565b600061224782612ac2565b6122518185612ae3565b9350612261818560208601612b67565b80840191505092915050565b600061227882612ad8565b6122828185612aff565b9350612292818560208601612b67565b61229b81612b9a565b840191505092915050565b60006122b182612acd565b6122bb8185612aee565b93506122cb818560208601612b67565b6122d481612b9a565b840191505092915050565b60006122ec602283612aff565b91507f566f74657273206d757374206265206f76657220313820746f2072656769737460008301527f65720000000000000000000000000000000000000000000000000000000000006020830152604082019050919050565b6000612352601783612aff565b91507f566f74696e6720706572696f6420697320636c6f7365640000000000000000006000830152602082019050919050565b6000612392602683612aff565b91507f4f776e61626c653a206e6577206f776e657220697320746865207a65726f206160008301527f64647265737300000000000000000000000000000000000000000000000000006020830152604082019050919050565b60006123f8601b83612aff565b91507f43616e646964617465206973206e6f74207265676973746572656400000000006000830152602082019050919050565b6000612438601283612aff565b91507f496e76616c6964205061727479206e616d6500000000000000000000000000006000830152602082019050919050565b6000612478602083612aff565b91507f4f776e61626c653a2063616c6c6572206973206e6f7420746865206f776e65726000830152602082019050919050565b60006124b8603283612aff565b91507f566f7465722069732065697468657220756e726567697374657265642c206f7260008301527f2068617320616c726561647920766f74656400000000000000000000000000006020830152604082019050919050565b600061251e601b83612aff565b91507f566f74657220697320616c7265616479207265676973746572656400000000006000830152602082019050919050565b600061255e601783612aff565b91507f566f746572206973206e6f7420726567697374657265640000000000000000006000830152602082019050919050565b600061259e601d83612aff565b91507f526567697374726174696f6e20706572696f6420697320636c6f7365640000006000830152602082019050919050565b60006125de601283612aff565b91507f43616e6469646174652069732076616c696400000000000000000000000000006000830152602082019050919050565b600061261e601983612aff565b91507f456c656374696f6e20706572696f6420697320636c6f736564000000000000006000830152602082019050919050565b60006060830160008301516126696000860182612200565b506020830151848203602086015261268182826122a6565b9150506040830151848203604086015261269b82826122a6565b9150508091505092915050565b60006080830160008301516126c06000860182612200565b50602083015184820360208601526126d882826122a6565b91505060408301516126ed604086018261270b565b506060830151612700606086018261221e565b508091505092915050565b61271481612b4e565b82525050565b61272381612b4e565b82525050565b6000612735828461223c565b915081905092915050565b6000602082019050612755600083018461220f565b92915050565b6000606082019050612770600083018661220f565b8181036020830152612782818561226d565b90508181036040830152612796818461226d565b9050949350505050565b60006060820190506127b5600083018661220f565b81810360208301526127c7818561226d565b90506127d6604083018461271a565b949350505050565b60006020820190506127f3600083018461222d565b92915050565b60006020820190508181036000830152612813818461226d565b905092915050565b60006020820190508181036000830152612834816122df565b9050919050565b6000602082019050818103600083015261285481612345565b9050919050565b6000602082019050818103600083015261287481612385565b9050919050565b60006020820190508181036000830152612894816123eb565b9050919050565b600060208201905081810360008301526128b48161242b565b9050919050565b600060208201905081810360008301526128d48161246b565b9050919050565b600060208201905081810360008301526128f4816124ab565b9050919050565b6000602082019050818103600083015261291481612511565b9050919050565b6000602082019050818103600083015261293481612551565b9050919050565b6000602082019050818103600083015261295481612591565b9050919050565b60006020820190508181036000830152612974816125d1565b9050919050565b6000602082019050818103600083015261299481612611565b9050919050565b600060208201905081810360008301526129b58184612651565b905092915050565b600060208201905081810360008301526129d781846126a8565b905092915050565b60006020820190506129f4600083018461271a565b92915050565b600060e082019050612a0f600083018a61271a565b612a1c602083018961271a565b612a29604083018861271a565b612a36606083018761271a565b612a43608083018661222d565b612a5060a083018561222d565b612a5d60c083018461222d565b98975050505050505050565b6000604051905081810181811067ffffffffffffffff82111715612a8c57600080fd5b8060405250919050565b600067ffffffffffffffff821115612aad57600080fd5b601f19601f8301169050602081019050919050565b600081519050919050565b600081519050919050565b600081519050919050565b600081905092915050565b600082825260208201905092915050565b600082825260208201905092915050565b6000612b1b82612b2e565b9050919050565b60008115159050919050565b600073ffffffffffffffffffffffffffffffffffffffff82169050919050565b6000819050919050565b82818337600083830152505050565b60005b83811015612b85578082015181840152602081019050612b6a565b83811115612b94576000848401525b50505050565b6000601f19601f8301169050919050565b612bb481612b10565b8114612bbf57600080fd5b50565b612bcb81612b22565b8114612bd657600080fd5b50565b612be281612b4e565b8114612bed57600080fd5b5056fea365627a7a7231582075cb1123d895708aa4dbed0627904bc1b8d7835ae159b6f36b713a06eddf76cc6c6578706572696d656e74616cf564736f6c634300050d0040",
  "source": "pragma solidity ^0.5.8;\npragma experimental ABIEncoderV2;\n\nimport \"../node_modules/openzeppelin-solidity/contracts/math/SafeMath.sol\";\nimport \"../node_modules/openzeppelin-solidity/contracts/ownership/Ownable.sol\";\n//import \"https://github.com/OpenZeppelin/openzeppelin-solidity/contracts/ownership/Ownable.sol\";\n\ncontract ElectionContract is Ownable {\n\n    using SafeMath for uint256;\n\n\n    struct Candidate {\n        address _address;\n        string name;\n        string party;\n    }\n\n    struct Voter {\n        address _address;\n        string name;\n        uint age;\n        bool hasVoted;\n\n    }\n\n  struct Election {\n        uint256 electionTimeStamp;\n        uint256 registrationPeriod;\n        uint256 votingPeriod;\n        uint256 endTime;\n        bool openRegistrationPeriod;\n        bool openVotingPeriod;\n        bool openElectionPeriod;\n    }\n\n    Election public election;\n\n    mapping(address => bool) isCandidateValid;\n    mapping(address => bool) isVoterValid;\n\n    mapping(bytes => uint) votesReceived;\n\n    mapping(address => Voter) voters;\n    mapping(address => Candidate) candidates;\n    mapping(bytes => uint256) fundedParties;\n\n\n    uint public numberOfCandidates;\n    uint public numberOfVoters;\n\n    //bytes32[] public parties;\n\n    constructor() public {\n\n\n      election = Election(now, 1 days, 2 days, 2 days, true, false, false);\n    }\n\n    // events\n\n    event LogNewCandidate(address _address, string _name, string _party);\n    event LogNewVoter(address _address, string _name, uint _age);\n    event LogVote(string _name);\n    event LogFundParty(address _address, string _party, uint256 _amount);\n\n\n    // modifiers\n\n    modifier registrationPeriodIsOpen()  {\n        require(election.openRegistrationPeriod == true, \"Registration period is closed\");\n    _;\n    }\n\n    modifier votingPeriodIsOpen() {\n      require(election.openVotingPeriod == true, \"Voting period is closed\");\n      _;\n    }\n\n    modifier electionPeriodIsOpen() {\n      require(election.openElectionPeriod == true, \"Election period is closed\");\n      _;\n    }\n\n    modifier registeredCandidate(address _address) {\n      require(isCandidateValid[_address] == true, \"Candidate is not registered\");\n      _;\n    }\n\n    modifier unregisteredCandidate(address _address) {\n        require(isCandidateValid[_address] != true, \"Candidate is valid\");\n        _;\n    }\n\n    modifier unregisteredVoter(address _address) {\n        require(voters[_address]._address == address(0), \"Voter is already registered\");\n        _;\n    }\n\n    modifier registeredVoter(address _address) {\n        require(voters[_address]._address != address(0), \"Voter is not registered\");\n        _;\n    }\n\n    modifier validParty(string memory _name){\n        require(validPartyStrings(_name) == true, \"Invalid Party name\");\n        _;\n    }\n\n    modifier validVoter(address _address) {\n      require(isVoterValid[_address] == true, \"Voter is either unregistered, or has already voted\");\n      _;\n    }\n\n    modifier minimumFund(uint256 _amount) {\n        require (_amount >= 1);\n        _;\n    }\n\n\n\n\n\n\n    //  Registration Functions\n\n    function _registerCandidate(address _address, string memory _name, string memory _party) public\n      registrationPeriodIsOpen\n      electionPeriodIsOpen\n      unregisteredCandidate(_address)\n      onlyOwner {\n\n        Candidate memory candidate = Candidate({\n           _address:_address,\n           name: _name,\n           party:_party\n        });\n        emit LogNewCandidate(_address, _name, _party);\n        candidates[_address] = candidate;\n        isCandidateValid[_address] = true;\n        numberOfCandidates++;\n    }\n\n    function _registerVoter(address _address, string memory _name, uint _age) public\n      votingPeriodIsOpen\n      electionPeriodIsOpen\n      unregisteredVoter(msg.sender) {\n\n        require(_age >= 18, \"Voters must be over 18 to register\");\n        Voter memory newVoter = Voter({\n            _address: msg.sender,\n            name: _name,\n            age:_age,\n            hasVoted:false\n        });\n        emit LogNewVoter(_address, _name, _age);\n        voters[msg.sender] = newVoter;\n        isVoterValid[msg.sender] = true;\n        numberOfVoters++;\n    }\n\n    // Vote Functions\n\n    function vote(string memory _name) public\n    votingPeriodIsOpen\n    validParty(_name)\n    registeredVoter(msg.sender)\n    validVoter(msg.sender)\n    {\n      \n      emit LogVote(_name);\n      isVoterValid[msg.sender] = false;\n      bytes memory name = bytes(_name);\n      votesReceived[name]++;\n    }\n\n\n    // Party Functions\n\n    function fundPartyCampaign(address _address, string memory _party, uint256 _amount) public payable\n        registrationPeriodIsOpen\n        electionPeriodIsOpen\n        registeredCandidate(_address)\n        validParty(_party)\n        minimumFund(_amount)\n        {\n            emit LogFundParty(_address, _party, _amount);\n            bytes memory party = bytes(_party);\n            fundedParties[party] += _amount;\n        }\n\n\n    // Return functions\n\n\n    function getCandidate(address _address) public view registeredCandidate(_address) returns(Candidate memory) {\n        return(candidates[_address]);\n    }\n\n    function getVoter(address _address) public view registeredVoter(_address) returns(Voter memory){\n        return(voters[_address]);\n    }\n\n    function getPartyCount(string memory _name) public view\n      onlyOwner\n      validParty( _name)\n      returns (uint) {\n        bytes memory name = bytes(_name);\n        return votesReceived[name];\n    }\n\n    function getPartyFund(string memory _party) public view returns (uint256 _amount) {\n        bytes memory party = bytes(_party);\n        return fundedParties[party];\n    }\n\n\n\n\n\n    // Set Election Period Functions\n\n\n    function setElectionAccess(bool _access) public onlyOwner returns (bool) {\n              return election.openElectionPeriod = _access;\n    }\n\n    function setRegistrationAccess(bool _access) public onlyOwner returns (bool) {\n            return election.openRegistrationPeriod = _access;\n    }\n\n    function setVotingAccess(bool _access) public onlyOwner returns (bool) {\n            return election.openVotingPeriod = _access;\n    }\n\n\n    // Get Election Period Functions\n\n    function getRegistrationAccess() public view onlyOwner returns (bool) {\n            return election.openRegistrationPeriod;\n    }\n\n    function getVotingAccess() public view onlyOwner returns (bool) {\n            return election.openVotingPeriod;\n    }\n\n    function getElectionAccess() public view onlyOwner returns (bool) {\n            return election.openElectionPeriod;\n    }\n\n\n\n    // Helper Functions\n\n    function validPartyStrings(string memory _party) public pure returns (bool) {\n\n        bytes memory con = \"Con\";\n        bytes memory lab = \"Lab\";\n        bytes memory lib = \"Lib\";\n\n\n        return keccak256(bytes(_party)) == keccak256(bytes(con))  ||\n               keccak256(bytes(_party)) == keccak256(bytes(lab))  ||\n               keccak256(bytes(_party)) == keccak256(bytes(lib));\n\n    }\n\n    function kill() onlyOwner external {\n      selfdestruct(msg.sender);\n    }\n\n    // Assertion Test Functions\n\n    function contractOwner() public view onlyOwner returns(bool){\n        return isOwner();\n    }\n\n\n\n\n}\n",
  "sourcePath": "/Users/admin/github/votingSystem/contracts/ElectionContract.sol",
  "compiler": {
    "name": "solc",
    "version": "0.5.13+commit.5b0b510c.Emscripten.clang"
  },
  "schemaVersion": "3.0.2",
  "updatedAt": "2019-12-03T17:15:57.103Z",
  "devdoc": {
    "methods": {
      "isOwner()": {
        "details": "Returns true if the caller is the current owner."
      },
      "owner()": {
        "details": "Returns the address of the current owner."
      },
      "renounceOwnership()": {
        "details": "Leaves the contract without owner. It will not be possible to call `onlyOwner` functions anymore. Can only be called by the current owner.     * NOTE: Renouncing ownership will leave the contract without an owner, thereby removing any functionality that is only available to the owner."
      },
      "transferOwnership(address)": {
        "details": "Transfers ownership of the contract to a new account (`newOwner`). Can only be called by the current owner."
      }
    }
  },
  "userdoc": {
    "methods": {}
  }
}