{
  "contractName": "ElectionContract",
  "abi": [
    {
      "inputs": [],
      "payable": false,
      "stateMutability": "nonpayable",
      "type": "constructor"
    },
    {
      "anonymous": false,
      "inputs": [
        {
          "indexed": false,
          "internalType": "address",
          "name": "_address",
          "type": "address"
        },
        {
          "indexed": false,
          "internalType": "string",
          "name": "_party",
          "type": "string"
        },
        {
          "indexed": false,
          "internalType": "uint256",
          "name": "_amount",
          "type": "uint256"
        }
      ],
      "name": "LogFundParty",
      "type": "event"
    },
    {
      "anonymous": false,
      "inputs": [
        {
          "indexed": false,
          "internalType": "address",
          "name": "_address",
          "type": "address"
        },
        {
          "indexed": false,
          "internalType": "string",
          "name": "_name",
          "type": "string"
        },
        {
          "indexed": false,
          "internalType": "string",
          "name": "_party",
          "type": "string"
        }
      ],
      "name": "LogNewCandidate",
      "type": "event"
    },
    {
      "anonymous": false,
      "inputs": [
        {
          "indexed": false,
          "internalType": "address",
          "name": "_address",
          "type": "address"
        },
        {
          "indexed": false,
          "internalType": "string",
          "name": "_name",
          "type": "string"
        },
        {
          "indexed": false,
          "internalType": "uint256",
          "name": "_age",
          "type": "uint256"
        }
      ],
      "name": "LogNewVoter",
      "type": "event"
    },
    {
      "anonymous": false,
      "inputs": [
        {
          "indexed": false,
          "internalType": "string",
          "name": "_name",
          "type": "string"
        }
      ],
      "name": "LogVote",
      "type": "event"
    },
    {
      "anonymous": false,
      "inputs": [
        {
          "indexed": true,
          "internalType": "address",
          "name": "previousOwner",
          "type": "address"
        },
        {
          "indexed": true,
          "internalType": "address",
          "name": "newOwner",
          "type": "address"
        }
      ],
      "name": "OwnershipTransferred",
      "type": "event"
    },
    {
      "constant": true,
      "inputs": [],
      "name": "election",
      "outputs": [
        {
          "internalType": "uint256",
          "name": "electionTimeStamp",
          "type": "uint256"
        },
        {
          "internalType": "uint256",
          "name": "registrationPeriod",
          "type": "uint256"
        },
        {
          "internalType": "uint256",
          "name": "votingPeriod",
          "type": "uint256"
        },
        {
          "internalType": "uint256",
          "name": "endTime",
          "type": "uint256"
        },
        {
          "internalType": "bool",
          "name": "openRegistrationPeriod",
          "type": "bool"
        },
        {
          "internalType": "bool",
          "name": "openVotingPeriod",
          "type": "bool"
        },
        {
          "internalType": "bool",
          "name": "openElectionPeriod",
          "type": "bool"
        }
      ],
      "payable": false,
      "stateMutability": "view",
      "type": "function"
    },
    {
      "constant": true,
      "inputs": [],
      "name": "isOwner",
      "outputs": [
        {
          "internalType": "bool",
          "name": "",
          "type": "bool"
        }
      ],
      "payable": false,
      "stateMutability": "view",
      "type": "function"
    },
    {
      "constant": true,
      "inputs": [],
      "name": "numberOfVoters",
      "outputs": [
        {
          "internalType": "uint256",
          "name": "",
          "type": "uint256"
        }
      ],
      "payable": false,
      "stateMutability": "view",
      "type": "function"
    },
    {
      "constant": true,
      "inputs": [],
      "name": "owner",
      "outputs": [
        {
          "internalType": "address",
          "name": "",
          "type": "address"
        }
      ],
      "payable": false,
      "stateMutability": "view",
      "type": "function"
    },
    {
      "constant": false,
      "inputs": [],
      "name": "renounceOwnership",
      "outputs": [],
      "payable": false,
      "stateMutability": "nonpayable",
      "type": "function"
    },
    {
      "constant": false,
      "inputs": [
        {
          "internalType": "address",
          "name": "newOwner",
          "type": "address"
        }
      ],
      "name": "transferOwnership",
      "outputs": [],
      "payable": false,
      "stateMutability": "nonpayable",
      "type": "function"
    },
    {
      "constant": false,
      "inputs": [
        {
          "internalType": "address",
          "name": "_address",
          "type": "address"
        },
        {
          "internalType": "string",
          "name": "_name",
          "type": "string"
        },
        {
          "internalType": "string",
          "name": "_party",
          "type": "string"
        }
      ],
      "name": "_registerCandidate",
      "outputs": [
        {
          "internalType": "uint256",
          "name": "index",
          "type": "uint256"
        }
      ],
      "payable": false,
      "stateMutability": "nonpayable",
      "type": "function"
    },
    {
      "constant": false,
      "inputs": [
        {
          "internalType": "address",
          "name": "_address",
          "type": "address"
        },
        {
          "internalType": "string",
          "name": "_name",
          "type": "string"
        },
        {
          "internalType": "uint256",
          "name": "_age",
          "type": "uint256"
        }
      ],
      "name": "_registerVoter",
      "outputs": [],
      "payable": false,
      "stateMutability": "nonpayable",
      "type": "function"
    },
    {
      "constant": false,
      "inputs": [
        {
          "internalType": "string",
          "name": "_name",
          "type": "string"
        },
        {
          "components": [
            {
              "internalType": "address",
              "name": "voterAddress",
              "type": "address"
            },
            {
              "internalType": "string",
              "name": "name",
              "type": "string"
            },
            {
              "internalType": "uint256",
              "name": "age",
              "type": "uint256"
            },
            {
              "internalType": "bool",
              "name": "hasVoted",
              "type": "bool"
            }
          ],
          "internalType": "struct ElectionContract.Voter",
          "name": "_voter",
          "type": "tuple"
        }
      ],
      "name": "vote",
      "outputs": [],
      "payable": false,
      "stateMutability": "nonpayable",
      "type": "function"
    },
    {
      "constant": false,
      "inputs": [
        {
          "internalType": "address",
          "name": "_address",
          "type": "address"
        },
        {
          "internalType": "string",
          "name": "_party",
          "type": "string"
        },
        {
          "internalType": "uint256",
          "name": "_amount",
          "type": "uint256"
        }
      ],
      "name": "fundPartyCampaign",
      "outputs": [],
      "payable": true,
      "stateMutability": "payable",
      "type": "function"
    },
    {
      "constant": true,
      "inputs": [
        {
          "internalType": "address",
          "name": "_candidateAddress",
          "type": "address"
        }
      ],
      "name": "isCandidate",
      "outputs": [
        {
          "internalType": "bool",
          "name": "_isIndeed",
          "type": "bool"
        }
      ],
      "payable": false,
      "stateMutability": "view",
      "type": "function"
    },
    {
      "constant": true,
      "inputs": [],
      "name": "getNumberOfCandidates",
      "outputs": [
        {
          "internalType": "uint256",
          "name": "_amount",
          "type": "uint256"
        }
      ],
      "payable": false,
      "stateMutability": "view",
      "type": "function"
    },
    {
      "constant": true,
      "inputs": [
        {
          "internalType": "address",
          "name": "_address",
          "type": "address"
        }
      ],
      "name": "getCandidate",
      "outputs": [
        {
          "components": [
            {
              "internalType": "address",
              "name": "candidateAddress",
              "type": "address"
            },
            {
              "internalType": "string",
              "name": "name",
              "type": "string"
            },
            {
              "internalType": "string",
              "name": "party",
              "type": "string"
            },
            {
              "internalType": "uint256",
              "name": "index",
              "type": "uint256"
            }
          ],
          "internalType": "struct ElectionContract.candidateStruct",
          "name": "",
          "type": "tuple"
        }
      ],
      "payable": false,
      "stateMutability": "view",
      "type": "function"
    },
    {
      "constant": true,
      "inputs": [
        {
          "internalType": "address",
          "name": "_address",
          "type": "address"
        }
      ],
      "name": "getVoter",
      "outputs": [
        {
          "components": [
            {
              "internalType": "address",
              "name": "voterAddress",
              "type": "address"
            },
            {
              "internalType": "string",
              "name": "name",
              "type": "string"
            },
            {
              "internalType": "uint256",
              "name": "age",
              "type": "uint256"
            },
            {
              "internalType": "bool",
              "name": "hasVoted",
              "type": "bool"
            }
          ],
          "internalType": "struct ElectionContract.Voter",
          "name": "",
          "type": "tuple"
        }
      ],
      "payable": false,
      "stateMutability": "view",
      "type": "function"
    },
    {
      "constant": true,
      "inputs": [
        {
          "internalType": "string",
          "name": "_name",
          "type": "string"
        }
      ],
      "name": "getPartyCount",
      "outputs": [
        {
          "internalType": "uint256",
          "name": "",
          "type": "uint256"
        }
      ],
      "payable": false,
      "stateMutability": "view",
      "type": "function"
    },
    {
      "constant": true,
      "inputs": [
        {
          "internalType": "string",
          "name": "_party",
          "type": "string"
        }
      ],
      "name": "getPartyFund",
      "outputs": [
        {
          "internalType": "uint256",
          "name": "_amount",
          "type": "uint256"
        }
      ],
      "payable": false,
      "stateMutability": "view",
      "type": "function"
    },
    {
      "constant": false,
      "inputs": [
        {
          "internalType": "bool",
          "name": "_access",
          "type": "bool"
        }
      ],
      "name": "setElectionAccess",
      "outputs": [
        {
          "internalType": "bool",
          "name": "",
          "type": "bool"
        }
      ],
      "payable": false,
      "stateMutability": "nonpayable",
      "type": "function"
    },
    {
      "constant": false,
      "inputs": [
        {
          "internalType": "bool",
          "name": "_access",
          "type": "bool"
        }
      ],
      "name": "setRegistrationAccess",
      "outputs": [
        {
          "internalType": "bool",
          "name": "",
          "type": "bool"
        }
      ],
      "payable": false,
      "stateMutability": "nonpayable",
      "type": "function"
    },
    {
      "constant": false,
      "inputs": [
        {
          "internalType": "bool",
          "name": "_access",
          "type": "bool"
        }
      ],
      "name": "setVotingAccess",
      "outputs": [
        {
          "internalType": "bool",
          "name": "",
          "type": "bool"
        }
      ],
      "payable": false,
      "stateMutability": "nonpayable",
      "type": "function"
    },
    {
      "constant": true,
      "inputs": [],
      "name": "getRegistrationAccess",
      "outputs": [
        {
          "internalType": "bool",
          "name": "",
          "type": "bool"
        }
      ],
      "payable": false,
      "stateMutability": "view",
      "type": "function"
    },
    {
      "constant": true,
      "inputs": [],
      "name": "getVotingAccess",
      "outputs": [
        {
          "internalType": "bool",
          "name": "",
          "type": "bool"
        }
      ],
      "payable": false,
      "stateMutability": "view",
      "type": "function"
    },
    {
      "constant": true,
      "inputs": [],
      "name": "getElectionAccess",
      "outputs": [
        {
          "internalType": "bool",
          "name": "",
          "type": "bool"
        }
      ],
      "payable": false,
      "stateMutability": "view",
      "type": "function"
    },
    {
      "constant": true,
      "inputs": [
        {
          "internalType": "string",
          "name": "_party",
          "type": "string"
        }
      ],
      "name": "validPartyStrings",
      "outputs": [
        {
          "internalType": "bool",
          "name": "",
          "type": "bool"
        }
      ],
      "payable": false,
      "stateMutability": "pure",
      "type": "function"
    },
    {
      "constant": false,
      "inputs": [],
      "name": "kill",
      "outputs": [],
      "payable": false,
      "stateMutability": "nonpayable",
      "type": "function"
    },
    {
      "constant": true,
      "inputs": [],
      "name": "contractOwner",
      "outputs": [
        {
          "internalType": "bool",
          "name": "",
          "type": "bool"
        }
      ],
      "payable": false,
      "stateMutability": "view",
      "type": "function"
    }
  ],
  "bytecode": "0x608060405234801561001057600080fd5b506100286101ba640100000000026401000000009004565b6000806101000a81548173ffffffffffffffffffffffffffffffffffffffff021916908373ffffffffffffffffffffffffffffffffffffffff1602179055506000809054906101000a900473ffffffffffffffffffffffffffffffffffffffff1673ffffffffffffffffffffffffffffffffffffffff16600073ffffffffffffffffffffffffffffffffffffffff167f8be0079c531659141344cd1fd0a4f28419497f9722a3daafe3b4186f6b6457e060405160405180910390a36040518060e001604052804281526020016201518081526020016202a30081526020016202a30081526020016001151581526020016000151581526020016000151581525060016000820151816000015560208201518160010155604082015181600201556060820151816003015560808201518160040160006101000a81548160ff02191690831515021790555060a08201518160040160016101000a81548160ff02191690831515021790555060c08201518160040160026101000a81548160ff0219169083151502179055509050506101c2565b600033905090565b612fb780620001d26000396000f3fe608060405260043610610183576000357c0100000000000000000000000000000000000000000000000000000000900480638f32d59b116100ee578063d4f50f98116100a7578063dfdea59c11610081578063dfdea59c1461056c578063e1408cfa146105a9578063f2fde38b146105d2578063fe1b76eb146105fb57610183565b8063d4f50f98146104b5578063d51b9e93146104f2578063d86094621461052f57610183565b80638f32d59b1461038f57806394a020a4146103ba5780639bc771b4146103e55780639bcc336114610422578063b7adcf1d1461044d578063ce606ee01461048a57610183565b80634b1d3ede116101405780634b1d3ede146102aa5780634de3d10b146102db5780635c8bc70e14610306578063715018a6146103225780637a84d13e146103395780638da5cb5b1461036457610183565b8063041a4d9414610188578063133b819c146101c55780631c18b1d71461020257806323cd35a31461023f5780633aa764801461026a57806341c0e1b514610293575b600080fd5b34801561019457600080fd5b506101af60048036036101aa91908101906124f8565b610638565b6040516101bc9190612d37565b60405180910390f35b3480156101d157600080fd5b506101ec60048036036101e791908101906124cf565b6106fe565b6040516101f99190612b56565b60405180910390f35b34801561020e57600080fd5b50610229600480360361022491908101906123e9565b61076a565b6040516102369190612d37565b60405180910390f35b34801561024b57600080fd5b50610254610a3c565b6040516102619190612b56565b60405180910390f35b34801561027657600080fd5b50610291600480360361028c9190810190612468565b610a9d565b005b34801561029f57600080fd5b506102a8610e26565b005b3480156102b657600080fd5b506102bf610e86565b6040516102d29796959493929190612d52565b60405180910390f35b3480156102e757600080fd5b506102f0610edd565b6040516102fd9190612b56565b60405180910390f35b610320600480360361031b9190810190612468565b610f3e565b005b34801561032e57600080fd5b506103376111ac565b005b34801561034557600080fd5b5061034e6112b2565b60405161035b9190612d37565b60405180910390f35b34801561037057600080fd5b506103796112bf565b6040516103869190612ab8565b60405180910390f35b34801561039b57600080fd5b506103a46112e8565b6040516103b19190612b56565b60405180910390f35b3480156103c657600080fd5b506103cf611346565b6040516103dc9190612b56565b60405180910390f35b3480156103f157600080fd5b5061040c600480360361040791908101906124cf565b6113a7565b6040516104199190612b56565b60405180910390f35b34801561042e57600080fd5b50610437611413565b6040516104449190612d37565b60405180910390f35b34801561045957600080fd5b50610474600480360361046f91908101906123c0565b611419565b6040516104819190612d15565b60405180910390f35b34801561049657600080fd5b5061049f6116ff565b6040516104ac9190612b56565b60405180910390f35b3480156104c157600080fd5b506104dc60048036036104d791908101906123c0565b611755565b6040516104e99190612cf3565b60405180910390f35b3480156104fe57600080fd5b50610519600480360361051491908101906123c0565b61199f565b6040516105269190612b56565b60405180910390f35b34801561053b57600080fd5b50610556600480360361055191908101906124f8565b611a50565b6040516105639190612b56565b60405180910390f35b34801561057857600080fd5b50610593600480360361058e91908101906124f8565b611b4b565b6040516105a09190612d37565b60405180910390f35b3480156105b557600080fd5b506105d060048036036105cb9190810190612539565b611b79565b005b3480156105de57600080fd5b506105f960048036036105f491908101906123c0565b611f35565b005b34801561060757600080fd5b50610622600480360361061d91908101906124cf565b611f88565b60405161062f9190612b56565b60405180910390f35b60006106426112e8565b610681576040517f08c379a000000000000000000000000000000000000000000000000000000000815260040161067890612c33565b60405180910390fd5b816001151561068f82611a50565b1515146106d1576040517f08c379a00000000000000000000000000000000000000000000000000000000081526004016106c890612c13565b60405180910390fd5b60608390506007816040516106e69190612aa1565b90815260200160405180910390205492505050919050565b60006107086112e8565b610747576040517f08c379a000000000000000000000000000000000000000000000000000000000815260040161073e90612c33565b60405180910390fd5b81600160040160006101000a81548160ff02191690831515021790559050919050565b600060011515600160040160009054906101000a900460ff161515146107c5576040517f08c379a00000000000000000000000000000000000000000000000000000000081526004016107bc90612cb3565b60405180910390fd5b60011515600160040160029054906101000a900460ff1615151461081e576040517f08c379a000000000000000000000000000000000000000000000000000000000815260040161081590612cd3565b60405180910390fd5b6108266112e8565b610865576040517f08c379a000000000000000000000000000000000000000000000000000000000815260040161085c90612c33565b60405180910390fd5b61086e8461199f565b1561087857600080fd5b61088061212a565b60405180608001604052808673ffffffffffffffffffffffffffffffffffffffff1681526020018581526020018481526020016001600c8890806001815401808255809150509060018203906000526020600020016000909192909190916101000a81548173ffffffffffffffffffffffffffffffffffffffff021916908373ffffffffffffffffffffffffffffffffffffffff1602179055500381525090507fa9c9f83892c88fb8ac9d0ce80c5232d111ae45178c4621184090399b36cc7f0b85858560405161095393929190612ad3565b60405180910390a180600b60008773ffffffffffffffffffffffffffffffffffffffff1673ffffffffffffffffffffffffffffffffffffffff16815260200190815260200160002060008201518160000160006101000a81548173ffffffffffffffffffffffffffffffffffffffff021916908373ffffffffffffffffffffffffffffffffffffffff16021790555060208201518160010190805190602001906109fe929190612168565b506040820151816002019080519060200190610a1b929190612168565b50606082015181600301559050506001600c80549050039150509392505050565b6000610a466112e8565b610a85576040517f08c379a0000000000000000000000000000000000000000000000000000000008152600401610a7c90612c33565b60405180910390fd5b600160040160019054906101000a900460ff16905090565b60011515600160040160019054906101000a900460ff16151514610af6576040517f08c379a0000000000000000000000000000000000000000000000000000000008152600401610aed90612bb3565b60405180910390fd5b60011515600160040160029054906101000a900460ff16151514610b4f576040517f08c379a0000000000000000000000000000000000000000000000000000000008152600401610b4690612cd3565b60405180910390fd5b33600073ffffffffffffffffffffffffffffffffffffffff16600860008373ffffffffffffffffffffffffffffffffffffffff1673ffffffffffffffffffffffffffffffffffffffff16815260200190815260200160002060000160009054906101000a900473ffffffffffffffffffffffffffffffffffffffff1673ffffffffffffffffffffffffffffffffffffffff1614610c21576040517f08c379a0000000000000000000000000000000000000000000000000000000008152600401610c1890612c73565b60405180910390fd5b6012821015610c65576040517f08c379a0000000000000000000000000000000000000000000000000000000008152600401610c5c90612b93565b60405180910390fd5b610c6d6121e8565b60405180608001604052803373ffffffffffffffffffffffffffffffffffffffff1681526020018581526020018481526020016000151581525090507ff3599dbce5b2a80bc431cea101482ab4af907bb19ec70de934175954dbe473ca858585604051610cdc93929190612b18565b60405180910390a180600860003373ffffffffffffffffffffffffffffffffffffffff1673ffffffffffffffffffffffffffffffffffffffff16815260200190815260200160002060008201518160000160006101000a81548173ffffffffffffffffffffffffffffffffffffffff021916908373ffffffffffffffffffffffffffffffffffffffff1602179055506020820151816001019080519060200190610d87929190612168565b506040820151816002015560608201518160030160006101000a81548160ff0219169083151502179055509050506001600660003373ffffffffffffffffffffffffffffffffffffffff1673ffffffffffffffffffffffffffffffffffffffff16815260200190815260200160002060006101000a81548160ff021916908315150217905550600a600081548092919060010191905055505050505050565b610e2e6112e8565b610e6d576040517f08c379a0000000000000000000000000000000000000000000000000000000008152600401610e6490612c33565b60405180910390fd5b3373ffffffffffffffffffffffffffffffffffffffff16ff5b60018060000154908060010154908060020154908060030154908060040160009054906101000a900460ff16908060040160019054906101000a900460ff16908060040160029054906101000a900460ff16905087565b6000610ee76112e8565b610f26576040517f08c379a0000000000000000000000000000000000000000000000000000000008152600401610f1d90612c33565b60405180910390fd5b600160040160009054906101000a900460ff16905090565b60011515600160040160009054906101000a900460ff16151514610f97576040517f08c379a0000000000000000000000000000000000000000000000000000000008152600401610f8e90612cb3565b60405180910390fd5b60011515600160040160029054906101000a900460ff16151514610ff0576040517f08c379a0000000000000000000000000000000000000000000000000000000008152600401610fe790612cd3565b60405180910390fd5b828073ffffffffffffffffffffffffffffffffffffffff16600c600b60008473ffffffffffffffffffffffffffffffffffffffff1673ffffffffffffffffffffffffffffffffffffffff168152602001908152602001600020600301548154811061105757fe5b9060005260206000200160009054906101000a900473ffffffffffffffffffffffffffffffffffffffff1673ffffffffffffffffffffffffffffffffffffffff16146110d8576040517f08c379a00000000000000000000000000000000000000000000000000000000081526004016110cf90612bf3565b60405180910390fd5b82600115156110e682611a50565b151514611128576040517f08c379a000000000000000000000000000000000000000000000000000000000815260040161111f90612c13565b60405180910390fd5b82600181101561113757600080fd5b7fdfeb50c70bdb501dac52cee74161b94818cd55296d9e6aea825bf983851e96b886868660405161116a93929190612b18565b60405180910390a16060859050846009826040516111889190612aa1565b90815260200160405180910390206000828254019250508190555050505050505050565b6111b46112e8565b6111f3576040517f08c379a00000000000000000000000000000000000000000000000000000000081526004016111ea90612c33565b60405180910390fd5b600073ffffffffffffffffffffffffffffffffffffffff166000809054906101000a900473ffffffffffffffffffffffffffffffffffffffff1673ffffffffffffffffffffffffffffffffffffffff167f8be0079c531659141344cd1fd0a4f28419497f9722a3daafe3b4186f6b6457e060405160405180910390a360008060006101000a81548173ffffffffffffffffffffffffffffffffffffffff021916908373ffffffffffffffffffffffffffffffffffffffff160217905550565b6000600c80549050905090565b60008060009054906101000a900473ffffffffffffffffffffffffffffffffffffffff16905090565b60008060009054906101000a900473ffffffffffffffffffffffffffffffffffffffff1673ffffffffffffffffffffffffffffffffffffffff1661132a611ff4565b73ffffffffffffffffffffffffffffffffffffffff1614905090565b60006113506112e8565b61138f576040517f08c379a000000000000000000000000000000000000000000000000000000000815260040161138690612c33565b60405180910390fd5b600160040160029054906101000a900460ff16905090565b60006113b16112e8565b6113f0576040517f08c379a00000000000000000000000000000000000000000000000000000000081526004016113e790612c33565b60405180910390fd5b81600160040160026101000a81548160ff02191690831515021790559050919050565b600a5481565b61142161212a565b818073ffffffffffffffffffffffffffffffffffffffff16600c600b60008473ffffffffffffffffffffffffffffffffffffffff1673ffffffffffffffffffffffffffffffffffffffff168152602001908152602001600020600301548154811061148857fe5b9060005260206000200160009054906101000a900473ffffffffffffffffffffffffffffffffffffffff1673ffffffffffffffffffffffffffffffffffffffff1614611509576040517f08c379a000000000000000000000000000000000000000000000000000000000815260040161150090612bf3565b60405180910390fd5b600b60008473ffffffffffffffffffffffffffffffffffffffff1673ffffffffffffffffffffffffffffffffffffffff1681526020019081526020016000206040518060800160405290816000820160009054906101000a900473ffffffffffffffffffffffffffffffffffffffff1673ffffffffffffffffffffffffffffffffffffffff1673ffffffffffffffffffffffffffffffffffffffff168152602001600182018054600181600116156101000203166002900480601f0160208091040260200160405190810160405280929190818152602001828054600181600116156101000203166002900480156116425780601f1061161757610100808354040283529160200191611642565b820191906000526020600020905b81548152906001019060200180831161162557829003601f168201915b50505050508152602001600282018054600181600116156101000203166002900480601f0160208091040260200160405190810160405280929190818152602001828054600181600116156101000203166002900480156116e45780601f106116b9576101008083540402835291602001916116e4565b820191906000526020600020905b8154815290600101906020018083116116c757829003601f168201915b50505050508152602001600382015481525050915050919050565b60006117096112e8565b611748576040517f08c379a000000000000000000000000000000000000000000000000000000000815260040161173f90612c33565b60405180910390fd5b6117506112e8565b905090565b61175d6121e8565b81600073ffffffffffffffffffffffffffffffffffffffff16600860008373ffffffffffffffffffffffffffffffffffffffff1673ffffffffffffffffffffffffffffffffffffffff16815260200190815260200160002060000160009054906101000a900473ffffffffffffffffffffffffffffffffffffffff1673ffffffffffffffffffffffffffffffffffffffff161415611830576040517f08c379a000000000000000000000000000000000000000000000000000000000815260040161182790612c93565b60405180910390fd5b600860008473ffffffffffffffffffffffffffffffffffffffff1673ffffffffffffffffffffffffffffffffffffffff1681526020019081526020016000206040518060800160405290816000820160009054906101000a900473ffffffffffffffffffffffffffffffffffffffff1673ffffffffffffffffffffffffffffffffffffffff1673ffffffffffffffffffffffffffffffffffffffff168152602001600182018054600181600116156101000203166002900480601f0160208091040260200160405190810160405280929190818152602001828054600181600116156101000203166002900480156119695780601f1061193e57610100808354040283529160200191611969565b820191906000526020600020905b81548152906001019060200180831161194c57829003601f168201915b50505050508152602001600282015481526020016003820160009054906101000a900460ff161515151581525050915050919050565b60008173ffffffffffffffffffffffffffffffffffffffff16600c600b60008573ffffffffffffffffffffffffffffffffffffffff1673ffffffffffffffffffffffffffffffffffffffff1681526020019081526020016000206003015481548110611a0757fe5b9060005260206000200160009054906101000a900473ffffffffffffffffffffffffffffffffffffffff1673ffffffffffffffffffffffffffffffffffffffff16149050919050565b600060606040518060400160405280600381526020017f436f6e0000000000000000000000000000000000000000000000000000000000815250905060606040518060400160405280600381526020017f4c61620000000000000000000000000000000000000000000000000000000000815250905060606040518060400160405280600381526020017f4c696200000000000000000000000000000000000000000000000000000000008152509050828051906020012085805190602001201480611b29575081805190602001208580519060200120145b80611b41575080805190602001208580519060200120145b9350505050919050565b60006060829050600981604051611b629190612aa1565b908152602001604051809103902054915050919050565b60011515600160040160019054906101000a900460ff16151514611bd2576040517f08c379a0000000000000000000000000000000000000000000000000000000008152600401611bc990612bb3565b60405180910390fd5b8160011515611be082611a50565b151514611c22576040517f08c379a0000000000000000000000000000000000000000000000000000000008152600401611c1990612c13565b60405180910390fd5b33600073ffffffffffffffffffffffffffffffffffffffff16600860008373ffffffffffffffffffffffffffffffffffffffff1673ffffffffffffffffffffffffffffffffffffffff16815260200190815260200160002060000160009054906101000a900473ffffffffffffffffffffffffffffffffffffffff1673ffffffffffffffffffffffffffffffffffffffff161415611cf5576040517f08c379a0000000000000000000000000000000000000000000000000000000008152600401611cec90612c93565b60405180910390fd5b3360011515600660008373ffffffffffffffffffffffffffffffffffffffff1673ffffffffffffffffffffffffffffffffffffffff16815260200190815260200160002060009054906101000a900460ff16151514611d89576040517f08c379a0000000000000000000000000000000000000000000000000000000008152600401611d8090612c53565b60405180910390fd5b600184606001901515908115158152505083600860003373ffffffffffffffffffffffffffffffffffffffff1673ffffffffffffffffffffffffffffffffffffffff16815260200190815260200160002060008201518160000160006101000a81548173ffffffffffffffffffffffffffffffffffffffff021916908373ffffffffffffffffffffffffffffffffffffffff1602179055506020820151816001019080519060200190611e3d929190612168565b506040820151816002015560608201518160030160006101000a81548160ff0219169083151502179055509050507f7c80dabf6f7887f48942410be29cbb079b2efdc2b033e4c8c15554cbf9bfa8a985604051611e9a9190612b71565b60405180910390a16000600660003373ffffffffffffffffffffffffffffffffffffffff1673ffffffffffffffffffffffffffffffffffffffff16815260200190815260200160002060006101000a81548160ff0219169083151502179055506060859050600781604051611f0f9190612aa1565b908152602001604051809103902060008154809291906001019190505550505050505050565b611f3d6112e8565b611f7c576040517f08c379a0000000000000000000000000000000000000000000000000000000008152600401611f7390612c33565b60405180910390fd5b611f8581611ffc565b50565b6000611f926112e8565b611fd1576040517f08c379a0000000000000000000000000000000000000000000000000000000008152600401611fc890612c33565b60405180910390fd5b81600160040160016101000a81548160ff02191690831515021790559050919050565b600033905090565b600073ffffffffffffffffffffffffffffffffffffffff168173ffffffffffffffffffffffffffffffffffffffff16141561206c576040517f08c379a000000000000000000000000000000000000000000000000000000000815260040161206390612bd3565b60405180910390fd5b8073ffffffffffffffffffffffffffffffffffffffff166000809054906101000a900473ffffffffffffffffffffffffffffffffffffffff1673ffffffffffffffffffffffffffffffffffffffff167f8be0079c531659141344cd1fd0a4f28419497f9722a3daafe3b4186f6b6457e060405160405180910390a3806000806101000a81548173ffffffffffffffffffffffffffffffffffffffff021916908373ffffffffffffffffffffffffffffffffffffffff16021790555050565b6040518060800160405280600073ffffffffffffffffffffffffffffffffffffffff1681526020016060815260200160608152602001600081525090565b828054600181600116156101000203166002900490600052602060002090601f016020900481019282601f106121a957805160ff19168380011785556121d7565b828001600101855582156121d7579182015b828111156121d65782518255916020019190600101906121bb565b5b5090506121e49190612228565b5090565b6040518060800160405280600073ffffffffffffffffffffffffffffffffffffffff16815260200160608152602001600081526020016000151581525090565b61224a91905b8082111561224657600081600090555060010161222e565b5090565b90565b60008135905061225c81612f2f565b92915050565b60008135905061227181612f46565b92915050565b600082601f83011261228857600080fd5b813561229b61229682612dee565b612dc1565b915080825260208301602083018583830111156122b757600080fd5b6122c2838284612edc565b50505092915050565b600082601f8301126122dc57600080fd5b81356122ef6122ea82612e1a565b612dc1565b9150808252602083016020830185838301111561230b57600080fd5b612316838284612edc565b50505092915050565b60006080828403121561233157600080fd5b61233b6080612dc1565b9050600061234b8482850161224d565b600083015250602082013567ffffffffffffffff81111561236b57600080fd5b61237784828501612277565b602083015250604061238b848285016123ab565b604083015250606061239f84828501612262565b60608301525092915050565b6000813590506123ba81612f5d565b92915050565b6000602082840312156123d257600080fd5b60006123e08482850161224d565b91505092915050565b6000806000606084860312156123fe57600080fd5b600061240c8682870161224d565b935050602084013567ffffffffffffffff81111561242957600080fd5b612435868287016122cb565b925050604084013567ffffffffffffffff81111561245257600080fd5b61245e868287016122cb565b9150509250925092565b60008060006060848603121561247d57600080fd5b600061248b8682870161224d565b935050602084013567ffffffffffffffff8111156124a857600080fd5b6124b4868287016122cb565b92505060406124c5868287016123ab565b9150509250925092565b6000602082840312156124e157600080fd5b60006124ef84828501612262565b91505092915050565b60006020828403121561250a57600080fd5b600082013567ffffffffffffffff81111561252457600080fd5b612530848285016122cb565b91505092915050565b6000806040838503121561254c57600080fd5b600083013567ffffffffffffffff81111561256657600080fd5b612572858286016122cb565b925050602083013567ffffffffffffffff81111561258f57600080fd5b61259b8582860161231f565b9150509250929050565b6125ae81612e94565b82525050565b6125bd81612e94565b82525050565b6125cc81612ea6565b82525050565b6125db81612ea6565b82525050565b60006125ec82612e46565b6125f68185612e67565b9350612606818560208601612eeb565b80840191505092915050565b600061261d82612e5c565b6126278185612e83565b9350612637818560208601612eeb565b61264081612f1e565b840191505092915050565b600061265682612e51565b6126608185612e72565b9350612670818560208601612eeb565b61267981612f1e565b840191505092915050565b6000612691602283612e83565b91507f566f74657273206d757374206265206f76657220313820746f2072656769737460008301527f65720000000000000000000000000000000000000000000000000000000000006020830152604082019050919050565b60006126f7601783612e83565b91507f566f74696e6720706572696f6420697320636c6f7365640000000000000000006000830152602082019050919050565b6000612737602683612e83565b91507f4f776e61626c653a206e6577206f776e657220697320746865207a65726f206160008301527f64647265737300000000000000000000000000000000000000000000000000006020830152604082019050919050565b600061279d601b83612e83565b91507f43616e646964617465206973206e6f74207265676973746572656400000000006000830152602082019050919050565b60006127dd601283612e83565b91507f496e76616c6964205061727479206e616d6500000000000000000000000000006000830152602082019050919050565b600061281d602083612e83565b91507f4f776e61626c653a2063616c6c6572206973206e6f7420746865206f776e65726000830152602082019050919050565b600061285d603283612e83565b91507f566f7465722069732065697468657220756e726567697374657265642c206f7260008301527f2068617320616c726561647920766f74656400000000000000000000000000006020830152604082019050919050565b60006128c3601b83612e83565b91507f566f74657220697320616c7265616479207265676973746572656400000000006000830152602082019050919050565b6000612903601783612e83565b91507f566f746572206973206e6f7420726567697374657265640000000000000000006000830152602082019050919050565b6000612943601d83612e83565b91507f526567697374726174696f6e20706572696f6420697320636c6f7365640000006000830152602082019050919050565b6000612983601983612e83565b91507f456c656374696f6e20706572696f6420697320636c6f736564000000000000006000830152602082019050919050565b60006080830160008301516129ce60008601826125a5565b50602083015184820360208601526129e6828261264b565b91505060408301516129fb6040860182612a83565b506060830151612a0e60608601826125c3565b508091505092915050565b6000608083016000830151612a3160008601826125a5565b5060208301518482036020860152612a49828261264b565b91505060408301518482036040860152612a63828261264b565b9150506060830151612a786060860182612a83565b508091505092915050565b612a8c81612ed2565b82525050565b612a9b81612ed2565b82525050565b6000612aad82846125e1565b915081905092915050565b6000602082019050612acd60008301846125b4565b92915050565b6000606082019050612ae860008301866125b4565b8181036020830152612afa8185612612565b90508181036040830152612b0e8184612612565b9050949350505050565b6000606082019050612b2d60008301866125b4565b8181036020830152612b3f8185612612565b9050612b4e6040830184612a92565b949350505050565b6000602082019050612b6b60008301846125d2565b92915050565b60006020820190508181036000830152612b8b8184612612565b905092915050565b60006020820190508181036000830152612bac81612684565b9050919050565b60006020820190508181036000830152612bcc816126ea565b9050919050565b60006020820190508181036000830152612bec8161272a565b9050919050565b60006020820190508181036000830152612c0c81612790565b9050919050565b60006020820190508181036000830152612c2c816127d0565b9050919050565b60006020820190508181036000830152612c4c81612810565b9050919050565b60006020820190508181036000830152612c6c81612850565b9050919050565b60006020820190508181036000830152612c8c816128b6565b9050919050565b60006020820190508181036000830152612cac816128f6565b9050919050565b60006020820190508181036000830152612ccc81612936565b9050919050565b60006020820190508181036000830152612cec81612976565b9050919050565b60006020820190508181036000830152612d0d81846129b6565b905092915050565b60006020820190508181036000830152612d2f8184612a19565b905092915050565b6000602082019050612d4c6000830184612a92565b92915050565b600060e082019050612d67600083018a612a92565b612d746020830189612a92565b612d816040830188612a92565b612d8e6060830187612a92565b612d9b60808301866125d2565b612da860a08301856125d2565b612db560c08301846125d2565b98975050505050505050565b6000604051905081810181811067ffffffffffffffff82111715612de457600080fd5b8060405250919050565b600067ffffffffffffffff821115612e0557600080fd5b601f19601f8301169050602081019050919050565b600067ffffffffffffffff821115612e3157600080fd5b601f19601f8301169050602081019050919050565b600081519050919050565b600081519050919050565b600081519050919050565b600081905092915050565b600082825260208201905092915050565b600082825260208201905092915050565b6000612e9f82612eb2565b9050919050565b60008115159050919050565b600073ffffffffffffffffffffffffffffffffffffffff82169050919050565b6000819050919050565b82818337600083830152505050565b60005b83811015612f09578082015181840152602081019050612eee565b83811115612f18576000848401525b50505050565b6000601f19601f8301169050919050565b612f3881612e94565b8114612f4357600080fd5b50565b612f4f81612ea6565b8114612f5a57600080fd5b50565b612f6681612ed2565b8114612f7157600080fd5b5056fea365627a7a72315820e5dbe283f7252b3c7f21612712309dad59a94c3b420c1140a735a4e529cc7f7b6c6578706572696d656e74616cf564736f6c634300050f0040",
  "source": "pragma solidity ^0.5.8;\npragma experimental ABIEncoderV2;\n\nimport \"../node_modules/openzeppelin-solidity/contracts/math/SafeMath.sol\";\nimport \"../node_modules/openzeppelin-solidity/contracts/ownership/Ownable.sol\";\n//import \"https://github.com/OpenZeppelin/openzeppelin-solidity/contracts/ownership/Ownable.sol\";\n\ncontract ElectionContract is Ownable {\n\n    using SafeMath for uint256;\n\n\n    struct candidateStruct {\n        address candidateAddress;\n        string name;\n        string party;\n        uint index;\n    }\n\n    struct Voter {\n        address voterAddress;\n        string name;\n        uint age;\n        bool hasVoted;\n\n    }\n\n  struct Election {\n        uint256 electionTimeStamp;\n        uint256 registrationPeriod;\n        uint256 votingPeriod;\n        uint256 endTime;\n        bool openRegistrationPeriod;\n        bool openVotingPeriod;\n        bool openElectionPeriod;\n    }\n\n    Election public election;\n\n    //mapping(address => bool) isCandidateValid;\n    mapping(address => bool) isVoterValid;\n\n    mapping(bytes => uint) votesReceived;\n\n    mapping(address => Voter) voters;\n\n    mapping(bytes => uint256) fundedParties;\n\n\n    //uint public numberOfCandidates;\n    uint public numberOfVoters;\n\n    mapping(address => candidateStruct) private candidates;\n    address[] private candidateIndex;\n\n\n    constructor() public {\n\n\n      election = Election(now, 1 days, 2 days, 2 days, true, false, false);\n    }\n\n    // events\n\n    event LogNewCandidate(address _address, string _name, string _party);\n    event LogNewVoter(address _address, string _name, uint _age);\n    event LogVote(string _name);\n    event LogFundParty(address _address, string _party, uint256 _amount);\n\n\n    // modifiers\n\n    modifier registrationPeriodIsOpen()  {\n        require(election.openRegistrationPeriod == true, \"Registration period is closed\");\n    _;\n    }\n\n    modifier votingPeriodIsOpen() {\n      require(election.openVotingPeriod == true, \"Voting period is closed\");\n      _;\n    }\n\n    modifier electionPeriodIsOpen() {\n      require(election.openElectionPeriod == true, \"Election period is closed\");\n      _;\n    }\n\n    modifier registeredCandidate(address _address) {\n        require(candidateIndex[candidates[_address].index] == _address, \"Candidate is not registered\");\n        _;\n    }\n\n/*    modifier unregisteredCandidate(address _address) {\n        require(candidateIndex[candidates[_address].index] == _address,  \"Candidate is already registered\");\n        _;\n  }\n*/\n    modifier unregisteredVoter(address _address) {\n        require(voters[_address].voterAddress == address(0), \"Voter is already registered\");\n        _;\n    }\n\n    modifier registeredVoter(address _address) {\n        require(voters[_address].voterAddress != address(0), \"Voter is not registered\");\n        _;\n    }\n\n    modifier validParty(string memory _name){\n        require(validPartyStrings(_name) == true, \"Invalid Party name\");\n        _;\n    }\n\n    modifier validVoter(address _address) {\n      require(isVoterValid[_address] == true, \"Voter is either unregistered, or has already voted\");\n      _;\n    }\n\n    modifier minimumFund(uint256 _amount) {\n        require (_amount >= 1);\n        _;\n    }\n\n\n\n\n\n\n    //  Registration Functions\n\n    function _registerCandidate(address _address, string memory _name, string memory _party) public\n      registrationPeriodIsOpen\n      electionPeriodIsOpen\n      //unregisteredCandidate(_address)\n      onlyOwner\n      returns (uint index) {\n      if(isCandidate(_address)) revert();\n\n        candidateStruct memory candidate = candidateStruct({\n           candidateAddress:_address,\n           name: _name,\n           party:_party,\n           index:candidateIndex.push(_address) - 1\n\n        });\n        emit LogNewCandidate(_address, _name, _party);\n        candidates[_address] = candidate;\n        //isCandidateValid[_address] = true;\n        //numberOfCandidates++;\n\n        return candidateIndex.length - 1;\n    }\n\n    function _registerVoter(address _address, string memory _name, uint _age) public\n      votingPeriodIsOpen\n      electionPeriodIsOpen\n      unregisteredVoter(msg.sender) {\n\n        require(_age >= 18, \"Voters must be over 18 to register\");\n        Voter memory newVoter = Voter({\n            voterAddress: msg.sender,\n            name: _name,\n            age:_age,\n            hasVoted:false\n        });\n        emit LogNewVoter(_address, _name, _age);\n        voters[msg.sender] = newVoter;\n        isVoterValid[msg.sender] = true;\n        numberOfVoters++;\n    }\n\n    // Vote Functions\n\n    function vote(string memory _name, Voter memory _voter) public\n    votingPeriodIsOpen\n    validParty(_name)\n    registeredVoter(msg.sender)\n    validVoter(msg.sender)\n    {\n\n      _voter.hasVoted = true;\n      voters[msg.sender] = _voter;\n      emit LogVote(_name);\n      isVoterValid[msg.sender] = false;\n      bytes memory name = bytes(_name);\n      votesReceived[name]++;\n    }\n\n\n    // Party Functions\n\n    function fundPartyCampaign(address _address, string memory _party, uint256 _amount) public payable\n        registrationPeriodIsOpen\n        electionPeriodIsOpen\n        registeredCandidate(_address)\n        validParty(_party)\n        minimumFund(_amount)\n        {\n            emit LogFundParty(_address, _party, _amount);\n            bytes memory party = bytes(_party);\n            fundedParties[party] += _amount;\n        }\n\n\n    // Return functions\n\n    function isCandidate(address _candidateAddress) public view returns (bool _isIndeed) {\n      //if(candidateIndex.length == 0) return false;\n      return (candidateIndex[candidates[_candidateAddress].index] == _candidateAddress);\n    }\n\n    function getNumberOfCandidates() public view returns (uint _amount) {\n      return candidateIndex.length;\n    }\n\n    function getCandidate(address _address) public view registeredCandidate(_address) returns(candidateStruct memory) {\n        return(candidates[_address]);\n    }\n\n    function getVoter(address _address) public view registeredVoter(_address) returns(Voter memory){\n        return(voters[_address]);\n    }\n\n    function getPartyCount(string memory _name) public view\n      onlyOwner\n      validParty( _name)\n      returns (uint) {\n        bytes memory name = bytes(_name);\n        return votesReceived[name];\n    }\n\n    function getPartyFund(string memory _party) public view returns (uint256 _amount) {\n        bytes memory party = bytes(_party);\n        return fundedParties[party];\n    }\n\n\n\n\n\n    // Set Election Period Functions\n\n\n    function setElectionAccess(bool _access) public onlyOwner returns (bool) {\n              return election.openElectionPeriod = _access;\n    }\n\n    function setRegistrationAccess(bool _access) public onlyOwner returns (bool) {\n            return election.openRegistrationPeriod = _access;\n    }\n\n    function setVotingAccess(bool _access) public onlyOwner returns (bool) {\n            return election.openVotingPeriod = _access;\n    }\n\n\n    // Get Election Period Functions\n\n    function getRegistrationAccess() public view onlyOwner returns (bool) {\n            return election.openRegistrationPeriod;\n    }\n\n    function getVotingAccess() public view onlyOwner returns (bool) {\n            return election.openVotingPeriod;\n    }\n\n    function getElectionAccess() public view onlyOwner returns (bool) {\n            return election.openElectionPeriod;\n    }\n\n\n\n    // Helper Functions\n\n    function validPartyStrings(string memory _party) public pure returns (bool) {\n\n        bytes memory con = \"Con\";\n        bytes memory lab = \"Lab\";\n        bytes memory lib = \"Lib\";\n\n\n        return keccak256(bytes(_party)) == keccak256(bytes(con))  ||\n               keccak256(bytes(_party)) == keccak256(bytes(lab))  ||\n               keccak256(bytes(_party)) == keccak256(bytes(lib));\n\n    }\n\n    function kill() onlyOwner external {\n      selfdestruct(msg.sender);\n    }\n\n    // Assertion Test Functions\n\n    function contractOwner() public view onlyOwner returns(bool){\n        return isOwner();\n    }\n\n\n\n\n}\n",
  "sourcePath": "/Users/kevinkeaveney/github/VotingSystem/contracts/ElectionContract.sol",
  "compiler": {
    "name": "solc",
    "version": "0.5.15+commit.6a57276f.Emscripten.clang"
  },
  "schemaVersion": "3.0.2",
  "updatedAt": "2020-01-02T19:19:53.626Z",
  "devdoc": {
    "methods": {
      "isOwner()": {
        "details": "Returns true if the caller is the current owner."
      },
      "owner()": {
        "details": "Returns the address of the current owner."
      },
      "renounceOwnership()": {
        "details": "Leaves the contract without owner. It will not be possible to call `onlyOwner` functions anymore. Can only be called by the current owner.     * NOTE: Renouncing ownership will leave the contract without an owner, thereby removing any functionality that is only available to the owner."
      },
      "transferOwnership(address)": {
        "details": "Transfers ownership of the contract to a new account (`newOwner`). Can only be called by the current owner."
      }
    }
  },
  "userdoc": {
    "methods": {}
  }
}