{
  "contractName": "ElectionContract",
  "abi": [
    {
      "inputs": [],
      "payable": false,
      "stateMutability": "nonpayable",
      "type": "constructor"
    },
    {
      "anonymous": false,
      "inputs": [
        {
          "indexed": true,
          "internalType": "address",
          "name": "previousOwner",
          "type": "address"
        },
        {
          "indexed": true,
          "internalType": "address",
          "name": "newOwner",
          "type": "address"
        }
      ],
      "name": "OwnershipTransferred",
      "type": "event"
    },
    {
      "constant": true,
      "inputs": [],
      "name": "election",
      "outputs": [
        {
          "internalType": "uint256",
          "name": "electionTimeStamp",
          "type": "uint256"
        },
        {
          "internalType": "uint256",
          "name": "registrationPeriod",
          "type": "uint256"
        },
        {
          "internalType": "uint256",
          "name": "votingPeriod",
          "type": "uint256"
        },
        {
          "internalType": "uint256",
          "name": "endTime",
          "type": "uint256"
        }
      ],
      "payable": false,
      "stateMutability": "view",
      "type": "function"
    },
    {
      "constant": true,
      "inputs": [],
      "name": "isOwner",
      "outputs": [
        {
          "internalType": "bool",
          "name": "",
          "type": "bool"
        }
      ],
      "payable": false,
      "stateMutability": "view",
      "type": "function"
    },
    {
      "constant": true,
      "inputs": [],
      "name": "numberOfCandidates",
      "outputs": [
        {
          "internalType": "uint256",
          "name": "",
          "type": "uint256"
        }
      ],
      "payable": false,
      "stateMutability": "view",
      "type": "function"
    },
    {
      "constant": true,
      "inputs": [],
      "name": "owner",
      "outputs": [
        {
          "internalType": "address",
          "name": "",
          "type": "address"
        }
      ],
      "payable": false,
      "stateMutability": "view",
      "type": "function"
    },
    {
      "constant": false,
      "inputs": [],
      "name": "renounceOwnership",
      "outputs": [],
      "payable": false,
      "stateMutability": "nonpayable",
      "type": "function"
    },
    {
      "constant": false,
      "inputs": [
        {
          "internalType": "address",
          "name": "newOwner",
          "type": "address"
        }
      ],
      "name": "transferOwnership",
      "outputs": [],
      "payable": false,
      "stateMutability": "nonpayable",
      "type": "function"
    },
    {
      "constant": true,
      "inputs": [
        {
          "internalType": "address",
          "name": "_address",
          "type": "address"
        }
      ],
      "name": "_isOwner",
      "outputs": [
        {
          "internalType": "bool",
          "name": "",
          "type": "bool"
        }
      ],
      "payable": false,
      "stateMutability": "view",
      "type": "function"
    },
    {
      "constant": false,
      "inputs": [
        {
          "internalType": "string",
          "name": "_name",
          "type": "string"
        },
        {
          "internalType": "string",
          "name": "_party",
          "type": "string"
        }
      ],
      "name": "_registerCandidate",
      "outputs": [],
      "payable": false,
      "stateMutability": "nonpayable",
      "type": "function"
    },
    {
      "constant": false,
      "inputs": [
        {
          "internalType": "string",
          "name": "_name",
          "type": "string"
        },
        {
          "internalType": "uint256",
          "name": "_age",
          "type": "uint256"
        }
      ],
      "name": "_registerVoter",
      "outputs": [],
      "payable": false,
      "stateMutability": "nonpayable",
      "type": "function"
    },
    {
      "constant": true,
      "inputs": [],
      "name": "_remainingRegistrationPeriod",
      "outputs": [
        {
          "internalType": "uint256",
          "name": "",
          "type": "uint256"
        }
      ],
      "payable": false,
      "stateMutability": "view",
      "type": "function"
    },
    {
      "constant": true,
      "inputs": [],
      "name": "_remainingVotingPeriod",
      "outputs": [
        {
          "internalType": "uint256",
          "name": "",
          "type": "uint256"
        }
      ],
      "payable": false,
      "stateMutability": "view",
      "type": "function"
    }
  ],
  "bytecode": "0x608060405234801561001057600080fd5b5061001f61013660201b60201c565b6000806101000a81548173ffffffffffffffffffffffffffffffffffffffff021916908373ffffffffffffffffffffffffffffffffffffffff1602179055506000809054906101000a900473ffffffffffffffffffffffffffffffffffffffff1673ffffffffffffffffffffffffffffffffffffffff16600073ffffffffffffffffffffffffffffffffffffffff167f8be0079c531659141344cd1fd0a4f28419497f9722a3daafe3b4186f6b6457e060405160405180910390a360405180608001604052804281526020016201518081526020016201518081526020016201518081525060016000820151816000015560208201518160010155604082015181600201556060820151816003015590505061013e565b600033905090565b610cfe8061014d6000396000f3fe608060405234801561001057600080fd5b50600436106100a95760003560e01c8063715018a611610071578063715018a6146103345780638da5cb5b1461033e5780638f32d59b146103885780639c84bb27146103aa578063b71fbe4b146103c8578063f2fde38b14610424576100a9565b80633aa02ad2146100ae57806347eb1d89146100cc5780634b1d3ede1461021e57806362a6e7c01461025157806369ab927f1461026f575b600080fd5b6100b6610468565b6040518082815260200191505060405180910390f35b61021c600480360360408110156100e257600080fd5b81019080803590602001906401000000008111156100ff57600080fd5b82018360208201111561011157600080fd5b8035906020019184600183028401116401000000008311171561013357600080fd5b91908080601f016020809104026020016040519081016040528093929190818152602001838380828437600081840152601f19601f8201169050808301925050505050505091929192908035906020019064010000000081111561019657600080fd5b8201836020820111156101a857600080fd5b803590602001918460018302840111640100000000831117156101ca57600080fd5b91908080601f016020809104026020016040519081016040528093929190818152602001838380828437600081840152601f19601f820116905080830192505050505050509192919290505050610487565b005b6102266105ae565b6040518085815260200184815260200183815260200182815260200194505050505060405180910390f35b6102596105cc565b6040518082815260200191505060405180910390f35b6103326004803603604081101561028557600080fd5b81019080803590602001906401000000008111156102a257600080fd5b8201836020820111156102b457600080fd5b803590602001918460018302840111640100000000831117156102d657600080fd5b91908080601f016020809104026020016040519081016040528093929190818152602001838380828437600081840152601f19601f820116905080830192505050505050509192919290803590602001909291905050506105eb565b005b61033c61071d565b005b610346610856565b604051808273ffffffffffffffffffffffffffffffffffffffff1673ffffffffffffffffffffffffffffffffffffffff16815260200191505060405180910390f35b61039061087f565b604051808215151515815260200191505060405180910390f35b6103b26108dd565b6040518082815260200191505060405180910390f35b61040a600480360360208110156103de57600080fd5b81019080803573ffffffffffffffffffffffffffffffffffffffff1690602001909291905050506108e3565b604051808215151515815260200191505060405180910390f35b6104666004803603602081101561043a57600080fd5b81019080803573ffffffffffffffffffffffffffffffffffffffff169060200190929190505050610922565b005b6000610482600160000154426109a890919063ffffffff16565b905090565b61048f61087f565b610501576040517f08c379a00000000000000000000000000000000000000000000000000000000081526004018080602001828103825260208152602001807f4f776e61626c653a2063616c6c6572206973206e6f7420746865206f776e657281525060200191505060405180910390fd5b600180015461050e610468565b111561051957600080fd5b6005604051806040016040528084815260200183815250908060018154018082558091505090600182039060005260206000209060020201600090919290919091506000820151816000019080519060200190610577929190610bfe565b506020820151816001019080519060200190610594929190610bfe565b505050506006600081548092919060010191905055505050565b60018060000154908060010154908060020154908060030154905084565b60006105e6600160000154426109a890919063ffffffff16565b905090565b6105f361087f565b610665576040517f08c379a00000000000000000000000000000000000000000000000000000000081526004018080602001828103825260208152602001807f4f776e61626c653a2063616c6c6572206973206e6f7420746865206f776e657281525060200191505060405180910390fd5b600160020154600160000154016001600001541161068257600080fd5b6001600201546106906105cc565b111561069b57600080fd5b60076040518060400160405280848152602001838152509080600181540180825580915050906001820390600052602060002090600202016000909192909190915060008201518160000190805190602001906106f9929190610bfe565b50602082015181600101555050506008600081548092919060010191905055505050565b61072561087f565b610797576040517f08c379a00000000000000000000000000000000000000000000000000000000081526004018080602001828103825260208152602001807f4f776e61626c653a2063616c6c6572206973206e6f7420746865206f776e657281525060200191505060405180910390fd5b600073ffffffffffffffffffffffffffffffffffffffff166000809054906101000a900473ffffffffffffffffffffffffffffffffffffffff1673ffffffffffffffffffffffffffffffffffffffff167f8be0079c531659141344cd1fd0a4f28419497f9722a3daafe3b4186f6b6457e060405160405180910390a360008060006101000a81548173ffffffffffffffffffffffffffffffffffffffff021916908373ffffffffffffffffffffffffffffffffffffffff160217905550565b60008060009054906101000a900473ffffffffffffffffffffffffffffffffffffffff16905090565b60008060009054906101000a900473ffffffffffffffffffffffffffffffffffffffff1673ffffffffffffffffffffffffffffffffffffffff166108c16109f2565b73ffffffffffffffffffffffffffffffffffffffff1614905090565b60065481565b60006108ed610856565b73ffffffffffffffffffffffffffffffffffffffff168273ffffffffffffffffffffffffffffffffffffffff16149050919050565b61092a61087f565b61099c576040517f08c379a00000000000000000000000000000000000000000000000000000000081526004018080602001828103825260208152602001807f4f776e61626c653a2063616c6c6572206973206e6f7420746865206f776e657281525060200191505060405180910390fd5b6109a5816109fa565b50565b60006109ea83836040518060400160405280601e81526020017f536166654d6174683a207375627472616374696f6e206f766572666c6f770000815250610b3e565b905092915050565b600033905090565b600073ffffffffffffffffffffffffffffffffffffffff168173ffffffffffffffffffffffffffffffffffffffff161415610a80576040517f08c379a0000000000000000000000000000000000000000000000000000000008152600401808060200182810382526026815260200180610ca46026913960400191505060405180910390fd5b8073ffffffffffffffffffffffffffffffffffffffff166000809054906101000a900473ffffffffffffffffffffffffffffffffffffffff1673ffffffffffffffffffffffffffffffffffffffff167f8be0079c531659141344cd1fd0a4f28419497f9722a3daafe3b4186f6b6457e060405160405180910390a3806000806101000a81548173ffffffffffffffffffffffffffffffffffffffff021916908373ffffffffffffffffffffffffffffffffffffffff16021790555050565b6000838311158290610beb576040517f08c379a00000000000000000000000000000000000000000000000000000000081526004018080602001828103825283818151815260200191508051906020019080838360005b83811015610bb0578082015181840152602081019050610b95565b50505050905090810190601f168015610bdd5780820380516001836020036101000a031916815260200191505b509250505060405180910390fd5b5060008385039050809150509392505050565b828054600181600116156101000203166002900490600052602060002090601f016020900481019282601f10610c3f57805160ff1916838001178555610c6d565b82800160010185558215610c6d579182015b82811115610c6c578251825591602001919060010190610c51565b5b509050610c7a9190610c7e565b5090565b610ca091905b80821115610c9c576000816000905550600101610c84565b5090565b9056fe4f776e61626c653a206e6577206f776e657220697320746865207a65726f2061646472657373a265627a7a72315820577e586b5e8217e10c3331fd0a503bc8a8af18c81667b65c157ce01a7cc5a4e564736f6c634300050c0032",
  "source": "pragma solidity ^0.5.8;\n\nimport \"../node_modules/openzeppelin-solidity/contracts/math/SafeMath.sol\";\nimport \"../node_modules/openzeppelin-solidity/contracts/ownership/Ownable.sol\";\n//import \"https://github.com/OpenZeppelin/openzeppelin-solidity/contracts/ownership/Ownable.sol\";\n\ncontract ElectionContract is Ownable {\n\n    using SafeMath for uint256;\n    struct Candidate {\n        string name;\n        string party;\n    }\n\n    struct Voter {\n        string name;\n        uint age;\n    }\n\n    struct Election {\n        uint256 electionTimeStamp;\n        uint256 registrationPeriod;\n        uint256 votingPeriod;\n        uint256 endTime;\n    }\n    Election public election;\n\n    Candidate[] private candidates;\n    uint public numberOfCandidates;\n\n    Voter[] private voters;\n    uint private numberOfVoters;\n\n\n\n    constructor() public {\n     election = Election(now, 1 days, 1 days, 1 days);\n\n    }\n\n    modifier isvalidRegistrationPeriod () {\n        require(_remainingRegistrationPeriod() <= election.registrationPeriod);\n     _;\n    }\n\n    modifier voteIsOpen()  {\n        require(election.electionTimeStamp > (election.electionTimeStamp + election.votingPeriod));\n    _;\n    }\n\n    modifier isvalidVotingPeriod() {\n        require(_remainingVotingPeriod() <= election.votingPeriod);\n        _;\n    }\n\n    function _isOwner(address _address) public view returns(bool) {\n      return _address == owner();\n    }\n\n    function _registerCandidate(string memory _name, string memory _party) public onlyOwner isvalidRegistrationPeriod {\n        candidates.push(Candidate(_name, _party));\n        numberOfCandidates++;\n    }\n\n    function _registerVoter(string memory _name, uint _age) public onlyOwner voteIsOpen isvalidVotingPeriod{\n        voters.push(Voter(_name,_age));\n        numberOfVoters++;\n    }\n\n    function _remainingRegistrationPeriod() public view returns (uint256){\n        return now.sub(election.electionTimeStamp);\n\n    }\n\n    function _remainingVotingPeriod() public view returns (uint256) {\n        return now.sub(election.electionTimeStamp);\n    }\n\n  }\n",
  "sourcePath": "/Users/kevinkeaveney/github/VotingSystem/contracts/ElectionContract.sol",
  "compiler": {
    "name": "solc",
    "version": "0.5.12+commit.7709ece9.Emscripten.clang"
  },
  "schemaVersion": "3.0.16",
  "updatedAt": "2019-11-02T17:10:12.792Z",
  "devdoc": {
    "methods": {
      "isOwner()": {
        "details": "Returns true if the caller is the current owner."
      },
      "owner()": {
        "details": "Returns the address of the current owner."
      },
      "renounceOwnership()": {
        "details": "Leaves the contract without owner. It will not be possible to call `onlyOwner` functions anymore. Can only be called by the current owner.     * NOTE: Renouncing ownership will leave the contract without an owner, thereby removing any functionality that is only available to the owner."
      },
      "transferOwnership(address)": {
        "details": "Transfers ownership of the contract to a new account (`newOwner`). Can only be called by the current owner."
      }
    }
  },
  "userdoc": {
    "methods": {}
  }
}