{
  "contractName": "ElectionContract",
  "abi": [
    {
      "inputs": [],
      "payable": false,
      "stateMutability": "nonpayable",
      "type": "constructor"
    },
    {
      "anonymous": false,
      "inputs": [
        {
          "indexed": false,
          "internalType": "address",
          "name": "_address",
          "type": "address"
        },
        {
          "indexed": false,
          "internalType": "string",
          "name": "_party",
          "type": "string"
        },
        {
          "indexed": false,
          "internalType": "uint256",
          "name": "_amount",
          "type": "uint256"
        }
      ],
      "name": "LogFundParty",
      "type": "event"
    },
    {
      "anonymous": false,
      "inputs": [
        {
          "indexed": false,
          "internalType": "address",
          "name": "_address",
          "type": "address"
        },
        {
          "indexed": false,
          "internalType": "string",
          "name": "_name",
          "type": "string"
        },
        {
          "indexed": false,
          "internalType": "string",
          "name": "_party",
          "type": "string"
        }
      ],
      "name": "LogNewCandidate",
      "type": "event"
    },
    {
      "anonymous": false,
      "inputs": [
        {
          "indexed": false,
          "internalType": "address",
          "name": "_address",
          "type": "address"
        },
        {
          "indexed": false,
          "internalType": "string",
          "name": "_name",
          "type": "string"
        },
        {
          "indexed": false,
          "internalType": "uint256",
          "name": "_age",
          "type": "uint256"
        }
      ],
      "name": "LogNewVoter",
      "type": "event"
    },
    {
      "anonymous": false,
      "inputs": [
        {
          "indexed": false,
          "internalType": "string",
          "name": "_name",
          "type": "string"
        }
      ],
      "name": "LogVote",
      "type": "event"
    },
    {
      "anonymous": false,
      "inputs": [
        {
          "indexed": true,
          "internalType": "address",
          "name": "previousOwner",
          "type": "address"
        },
        {
          "indexed": true,
          "internalType": "address",
          "name": "newOwner",
          "type": "address"
        }
      ],
      "name": "OwnershipTransferred",
      "type": "event"
    },
    {
      "constant": true,
      "inputs": [],
      "name": "election",
      "outputs": [
        {
          "internalType": "uint256",
          "name": "electionTimeStamp",
          "type": "uint256"
        },
        {
          "internalType": "uint256",
          "name": "registrationPeriod",
          "type": "uint256"
        },
        {
          "internalType": "uint256",
          "name": "votingPeriod",
          "type": "uint256"
        },
        {
          "internalType": "uint256",
          "name": "endTime",
          "type": "uint256"
        },
        {
          "internalType": "bool",
          "name": "openRegistrationPeriod",
          "type": "bool"
        },
        {
          "internalType": "bool",
          "name": "openVotingPeriod",
          "type": "bool"
        },
        {
          "internalType": "bool",
          "name": "openElectionPeriod",
          "type": "bool"
        }
      ],
      "payable": false,
      "stateMutability": "view",
      "type": "function"
    },
    {
      "constant": true,
      "inputs": [],
      "name": "isOwner",
      "outputs": [
        {
          "internalType": "bool",
          "name": "",
          "type": "bool"
        }
      ],
      "payable": false,
      "stateMutability": "view",
      "type": "function"
    },
    {
      "constant": true,
      "inputs": [],
      "name": "owner",
      "outputs": [
        {
          "internalType": "address",
          "name": "",
          "type": "address"
        }
      ],
      "payable": false,
      "stateMutability": "view",
      "type": "function"
    },
    {
      "constant": false,
      "inputs": [],
      "name": "renounceOwnership",
      "outputs": [],
      "payable": false,
      "stateMutability": "nonpayable",
      "type": "function"
    },
    {
      "constant": false,
      "inputs": [
        {
          "internalType": "address",
          "name": "newOwner",
          "type": "address"
        }
      ],
      "name": "transferOwnership",
      "outputs": [],
      "payable": false,
      "stateMutability": "nonpayable",
      "type": "function"
    },
    {
      "constant": false,
      "inputs": [
        {
          "internalType": "address",
          "name": "_address",
          "type": "address"
        },
        {
          "internalType": "string",
          "name": "_name",
          "type": "string"
        },
        {
          "internalType": "string",
          "name": "_party",
          "type": "string"
        }
      ],
      "name": "_registerCandidate",
      "outputs": [],
      "payable": false,
      "stateMutability": "nonpayable",
      "type": "function"
    },
    {
      "constant": false,
      "inputs": [
        {
          "internalType": "address",
          "name": "_address",
          "type": "address"
        },
        {
          "internalType": "string",
          "name": "_name",
          "type": "string"
        },
        {
          "internalType": "uint256",
          "name": "_age",
          "type": "uint256"
        }
      ],
      "name": "_registerVoter",
      "outputs": [],
      "payable": false,
      "stateMutability": "nonpayable",
      "type": "function"
    },
    {
      "constant": false,
      "inputs": [
        {
          "internalType": "string",
          "name": "_name",
          "type": "string"
        },
        {
          "internalType": "address",
          "name": "_voter",
          "type": "address"
        }
      ],
      "name": "vote",
      "outputs": [],
      "payable": false,
      "stateMutability": "nonpayable",
      "type": "function"
    },
    {
      "constant": false,
      "inputs": [
        {
          "internalType": "address",
          "name": "_address",
          "type": "address"
        },
        {
          "internalType": "string",
          "name": "_party",
          "type": "string"
        },
        {
          "internalType": "uint256",
          "name": "_amount",
          "type": "uint256"
        }
      ],
      "name": "fundPartyCampaign",
      "outputs": [],
      "payable": true,
      "stateMutability": "payable",
      "type": "function"
    },
    {
      "constant": true,
      "inputs": [
        {
          "internalType": "address",
          "name": "_candidateAddress",
          "type": "address"
        }
      ],
      "name": "isCandidate",
      "outputs": [
        {
          "internalType": "bool",
          "name": "_isIndeed",
          "type": "bool"
        }
      ],
      "payable": false,
      "stateMutability": "view",
      "type": "function"
    },
    {
      "constant": true,
      "inputs": [
        {
          "internalType": "address",
          "name": "_voterAddress",
          "type": "address"
        }
      ],
      "name": "isRegisteredVoter",
      "outputs": [
        {
          "internalType": "bool",
          "name": "_isIndeed",
          "type": "bool"
        }
      ],
      "payable": false,
      "stateMutability": "view",
      "type": "function"
    },
    {
      "constant": true,
      "inputs": [],
      "name": "getNumberOfCandidates",
      "outputs": [
        {
          "internalType": "uint256",
          "name": "_amount",
          "type": "uint256"
        }
      ],
      "payable": false,
      "stateMutability": "view",
      "type": "function"
    },
    {
      "constant": true,
      "inputs": [
        {
          "internalType": "uint256",
          "name": "_index",
          "type": "uint256"
        }
      ],
      "name": "getCandidate",
      "outputs": [
        {
          "internalType": "address",
          "name": "_address",
          "type": "address"
        }
      ],
      "payable": false,
      "stateMutability": "view",
      "type": "function"
    },
    {
      "constant": true,
      "inputs": [
        {
          "internalType": "uint256",
          "name": "_index",
          "type": "uint256"
        }
      ],
      "name": "getVoter",
      "outputs": [
        {
          "internalType": "address",
          "name": "_address",
          "type": "address"
        }
      ],
      "payable": false,
      "stateMutability": "view",
      "type": "function"
    },
    {
      "constant": true,
      "inputs": [
        {
          "internalType": "string",
          "name": "_name",
          "type": "string"
        }
      ],
      "name": "getPartyCount",
      "outputs": [
        {
          "internalType": "uint256",
          "name": "",
          "type": "uint256"
        }
      ],
      "payable": false,
      "stateMutability": "view",
      "type": "function"
    },
    {
      "constant": true,
      "inputs": [
        {
          "internalType": "string",
          "name": "_party",
          "type": "string"
        }
      ],
      "name": "getPartyFund",
      "outputs": [
        {
          "internalType": "uint256",
          "name": "_amount",
          "type": "uint256"
        }
      ],
      "payable": false,
      "stateMutability": "view",
      "type": "function"
    },
    {
      "constant": false,
      "inputs": [
        {
          "internalType": "bool",
          "name": "_access",
          "type": "bool"
        }
      ],
      "name": "setElectionAccess",
      "outputs": [
        {
          "internalType": "bool",
          "name": "",
          "type": "bool"
        }
      ],
      "payable": false,
      "stateMutability": "nonpayable",
      "type": "function"
    },
    {
      "constant": false,
      "inputs": [
        {
          "internalType": "bool",
          "name": "_access",
          "type": "bool"
        }
      ],
      "name": "setRegistrationAccess",
      "outputs": [
        {
          "internalType": "bool",
          "name": "",
          "type": "bool"
        }
      ],
      "payable": false,
      "stateMutability": "nonpayable",
      "type": "function"
    },
    {
      "constant": false,
      "inputs": [
        {
          "internalType": "bool",
          "name": "_access",
          "type": "bool"
        }
      ],
      "name": "setVotingAccess",
      "outputs": [
        {
          "internalType": "bool",
          "name": "",
          "type": "bool"
        }
      ],
      "payable": false,
      "stateMutability": "nonpayable",
      "type": "function"
    },
    {
      "constant": true,
      "inputs": [],
      "name": "getRegistrationAccess",
      "outputs": [
        {
          "internalType": "bool",
          "name": "",
          "type": "bool"
        }
      ],
      "payable": false,
      "stateMutability": "view",
      "type": "function"
    },
    {
      "constant": true,
      "inputs": [],
      "name": "getVotingAccess",
      "outputs": [
        {
          "internalType": "bool",
          "name": "",
          "type": "bool"
        }
      ],
      "payable": false,
      "stateMutability": "view",
      "type": "function"
    },
    {
      "constant": true,
      "inputs": [],
      "name": "getElectionAccess",
      "outputs": [
        {
          "internalType": "bool",
          "name": "",
          "type": "bool"
        }
      ],
      "payable": false,
      "stateMutability": "view",
      "type": "function"
    },
    {
      "constant": true,
      "inputs": [
        {
          "internalType": "string",
          "name": "_party",
          "type": "string"
        }
      ],
      "name": "validPartyStrings",
      "outputs": [
        {
          "internalType": "bool",
          "name": "",
          "type": "bool"
        }
      ],
      "payable": false,
      "stateMutability": "pure",
      "type": "function"
    },
    {
      "constant": false,
      "inputs": [],
      "name": "kill",
      "outputs": [],
      "payable": false,
      "stateMutability": "nonpayable",
      "type": "function"
    },
    {
      "constant": true,
      "inputs": [],
      "name": "contractOwner",
      "outputs": [
        {
          "internalType": "bool",
          "name": "",
          "type": "bool"
        }
      ],
      "payable": false,
      "stateMutability": "view",
      "type": "function"
    }
  ],
  "bytecode": "0x608060405234801561001057600080fd5b506100286101ba640100000000026401000000009004565b6000806101000a81548173ffffffffffffffffffffffffffffffffffffffff021916908373ffffffffffffffffffffffffffffffffffffffff1602179055506000809054906101000a900473ffffffffffffffffffffffffffffffffffffffff1673ffffffffffffffffffffffffffffffffffffffff16600073ffffffffffffffffffffffffffffffffffffffff167f8be0079c531659141344cd1fd0a4f28419497f9722a3daafe3b4186f6b6457e060405160405180910390a36040518060e001604052804281526020016201518081526020016202a30081526020016202a30081526020016001151581526020016000151581526020016000151581525060016000820151816000015560208201518160010155604082015181600201556060820151816003015560808201518160040160006101000a81548160ff02191690831515021790555060a08201518160040160016101000a81548160ff02191690831515021790555060c08201518160040160026101000a81548160ff0219169083151502179055509050506101c2565b600033905090565b6122e4806101d16000396000f3fe608060405260043610610183576000357c0100000000000000000000000000000000000000000000000000000000900480637a84d13e116100ee578063d07bff0c116100a7578063da36cffe11610081578063da36cffe14610556578063dfdea59c14610593578063f2fde38b146105d0578063fe1b76eb146105f957610183565b8063d07bff0c1461049f578063d51b9e93146104dc578063d86094621461051957610183565b80637a84d13e1461038b5780638da5cb5b146103b65780638f32d59b146103e157806394a020a41461040c5780639bc771b414610437578063ce606ee01461047457610183565b806341c0e1b51161014057806341c0e1b5146102bc5780634b1d3ede146102d35780634de3d10b146103045780635a436c061461032f5780635c8bc70e14610358578063715018a61461037457610183565b8063041a4d9414610188578063133b819c146101c55780631c18b1d71461020257806323cd35a31461022b57806335b8e820146102565780633aa7648014610293575b600080fd5b34801561019457600080fd5b506101af60048036036101aa9190810190611b79565b610636565b6040516101bc91906120ac565b60405180910390f35b3480156101d157600080fd5b506101ec60048036036101e79190810190611b50565b6106fc565b6040516101f99190611f8f565b60405180910390f35b34801561020e57600080fd5b5061022960048036036102249190810190611a6a565b610768565b005b34801561023757600080fd5b506102406109c8565b60405161024d9190611f8f565b60405180910390f35b34801561026257600080fd5b5061027d60048036036102789190810190611c0e565b610a29565b60405161028a9190611ef1565b60405180910390f35b34801561029f57600080fd5b506102ba60048036036102b59190810190611ae9565b610a6a565b005b3480156102c857600080fd5b506102d1610cdd565b005b3480156102df57600080fd5b506102e8610d3d565b6040516102fb97969594939291906120c7565b60405180910390f35b34801561031057600080fd5b50610319610d94565b6040516103269190611f8f565b60405180910390f35b34801561033b57600080fd5b5061035660048036036103519190810190611bba565b610df5565b005b610372600480360361036d9190810190611ae9565b610f7b565b005b34801561038057600080fd5b50610389611112565b005b34801561039757600080fd5b506103a0611218565b6040516103ad91906120ac565b60405180910390f35b3480156103c257600080fd5b506103cb611225565b6040516103d89190611ef1565b60405180910390f35b3480156103ed57600080fd5b506103f661124e565b6040516104039190611f8f565b60405180910390f35b34801561041857600080fd5b506104216112ac565b60405161042e9190611f8f565b60405180910390f35b34801561044357600080fd5b5061045e60048036036104599190810190611b50565b61130d565b60405161046b9190611f8f565b60405180910390f35b34801561048057600080fd5b50610489611379565b6040516104969190611f8f565b60405180910390f35b3480156104ab57600080fd5b506104c660048036036104c19190810190611c0e565b6113cf565b6040516104d39190611ef1565b60405180910390f35b3480156104e857600080fd5b5061050360048036036104fe9190810190611a41565b611410565b6040516105109190611f8f565b60405180910390f35b34801561052557600080fd5b50610540600480360361053b9190810190611b79565b6114d8565b60405161054d9190611f8f565b60405180910390f35b34801561056257600080fd5b5061057d60048036036105789190810190611a41565b6115d3565b60405161058a9190611f8f565b60405180910390f35b34801561059f57600080fd5b506105ba60048036036105b59190810190611b79565b61169b565b6040516105c791906120ac565b60405180910390f35b3480156105dc57600080fd5b506105f760048036036105f29190810190611a41565b6116c9565b005b34801561060557600080fd5b50610620600480360361061b9190810190611b50565b61171c565b60405161062d9190611f8f565b60405180910390f35b600061064061124e565b61067f576040517f08c379a00000000000000000000000000000000000000000000000000000000081526004016106769061204c565b60405180910390fd5b816001151561068d826114d8565b1515146106cf576040517f08c379a00000000000000000000000000000000000000000000000000000000081526004016106c69061202c565b60405180910390fd5b60608390506006816040516106e49190611eda565b90815260200160405180910390205492505050919050565b600061070661124e565b610745576040517f08c379a000000000000000000000000000000000000000000000000000000000815260040161073c9061204c565b60405180910390fd5b81600160040160006101000a81548160ff02191690831515021790559050919050565b60011515600160040160009054906101000a900460ff161515146107c1576040517f08c379a00000000000000000000000000000000000000000000000000000000081526004016107b89061206c565b60405180910390fd5b60011515600160040160029054906101000a900460ff1615151461081a576040517f08c379a00000000000000000000000000000000000000000000000000000000081526004016108119061208c565b60405180910390fd5b61082261124e565b610861576040517f08c379a00000000000000000000000000000000000000000000000000000000081526004016108589061204c565b60405180910390fd5b61086a83611410565b1561087457600080fd5b61087c6118be565b6040518060600160405280848152602001838152602001600160098790806001815401808255809150509060018203906000526020600020016000909192909190916101000a81548173ffffffffffffffffffffffffffffffffffffffff021916908373ffffffffffffffffffffffffffffffffffffffff1602179055500381525090507fa9c9f83892c88fb8ac9d0ce80c5232d111ae45178c4621184090399b36cc7f0b84848460405161093393929190611f0c565b60405180910390a180600860008673ffffffffffffffffffffffffffffffffffffffff1673ffffffffffffffffffffffffffffffffffffffff16815260200190815260200160002060008201518160000190805190602001906109979291906118df565b5060208201518160010190805190602001906109b49291906118df565b506040820151816002015590505050505050565b60006109d261124e565b610a11576040517f08c379a0000000000000000000000000000000000000000000000000000000008152600401610a089061204c565b60405180910390fd5b600160040160019054906101000a900460ff16905090565b600060098281548110610a3857fe5b9060005260206000200160009054906101000a900473ffffffffffffffffffffffffffffffffffffffff169050919050565b60011515600160040160019054906101000a900460ff16151514610ac3576040517f08c379a0000000000000000000000000000000000000000000000000000000008152600401610aba90611fec565b60405180910390fd5b60011515600160040160029054906101000a900460ff16151514610b1c576040517f08c379a0000000000000000000000000000000000000000000000000000000008152600401610b139061208c565b60405180910390fd5b610b25836115d3565b15610b2f57600080fd5b6012811015610b73576040517f08c379a0000000000000000000000000000000000000000000000000000000008152600401610b6a90611fcc565b60405180910390fd5b610b7b61195f565b60405180608001604052808481526020018381526020016000151581526020016001600b8790806001815401808255809150509060018203906000526020600020016000909192909190916101000a81548173ffffffffffffffffffffffffffffffffffffffff021916908373ffffffffffffffffffffffffffffffffffffffff1602179055500381525090507ff3599dbce5b2a80bc431cea101482ab4af907bb19ec70de934175954dbe473ca848484604051610c3b93929190611f51565b60405180910390a180600a60008673ffffffffffffffffffffffffffffffffffffffff1673ffffffffffffffffffffffffffffffffffffffff1681526020019081526020016000206000820151816000019080519060200190610c9f9291906118df565b506020820151816001015560408201518160020160006101000a81548160ff0219169083151502179055506060820151816003015590505050505050565b610ce561124e565b610d24576040517f08c379a0000000000000000000000000000000000000000000000000000000008152600401610d1b9061204c565b60405180910390fd5b3373ffffffffffffffffffffffffffffffffffffffff16ff5b60018060000154908060010154908060020154908060030154908060040160009054906101000a900460ff16908060040160019054906101000a900460ff16908060040160029054906101000a900460ff16905087565b6000610d9e61124e565b610ddd576040517f08c379a0000000000000000000000000000000000000000000000000000000008152600401610dd49061204c565b60405180910390fd5b600160040160009054906101000a900460ff16905090565b60011515600160040160019054906101000a900460ff16151514610e4e576040517f08c379a0000000000000000000000000000000000000000000000000000000008152600401610e4590611fec565b60405180910390fd5b8160011515610e5c826114d8565b151514610e9e576040517f08c379a0000000000000000000000000000000000000000000000000000000008152600401610e959061202c565b60405180910390fd5b610ea7826115d3565b610eb057600080fd5b6001600a60008473ffffffffffffffffffffffffffffffffffffffff1673ffffffffffffffffffffffffffffffffffffffff16815260200190815260200160002060020160006101000a81548160ff0219169083151502179055507f7c80dabf6f7887f48942410be29cbb079b2efdc2b033e4c8c15554cbf9bfa8a983604051610f3a9190611faa565b60405180910390a16060839050600681604051610f579190611eda565b90815260200160405180910390206000815480929190600101919050555050505050565b60011515600160040160009054906101000a900460ff16151514610fd4576040517f08c379a0000000000000000000000000000000000000000000000000000000008152600401610fcb9061206c565b60405180910390fd5b60011515600160040160029054906101000a900460ff1615151461102d576040517f08c379a00000000000000000000000000000000000000000000000000000000081526004016110249061208c565b60405180910390fd5b816001151561103b826114d8565b15151461107d576040517f08c379a00000000000000000000000000000000000000000000000000000000081526004016110749061202c565b60405180910390fd5b81600181101561108c57600080fd5b61109585611410565b61109e57600080fd5b7fdfeb50c70bdb501dac52cee74161b94818cd55296d9e6aea825bf983851e96b88585856040516110d193929190611f51565b60405180910390a16060849050836007826040516110ef9190611eda565b908152602001604051809103902060008282540192505081905550505050505050565b61111a61124e565b611159576040517f08c379a00000000000000000000000000000000000000000000000000000000081526004016111509061204c565b60405180910390fd5b600073ffffffffffffffffffffffffffffffffffffffff166000809054906101000a900473ffffffffffffffffffffffffffffffffffffffff1673ffffffffffffffffffffffffffffffffffffffff167f8be0079c531659141344cd1fd0a4f28419497f9722a3daafe3b4186f6b6457e060405160405180910390a360008060006101000a81548173ffffffffffffffffffffffffffffffffffffffff021916908373ffffffffffffffffffffffffffffffffffffffff160217905550565b6000600980549050905090565b60008060009054906101000a900473ffffffffffffffffffffffffffffffffffffffff16905090565b60008060009054906101000a900473ffffffffffffffffffffffffffffffffffffffff1673ffffffffffffffffffffffffffffffffffffffff16611290611788565b73ffffffffffffffffffffffffffffffffffffffff1614905090565b60006112b661124e565b6112f5576040517f08c379a00000000000000000000000000000000000000000000000000000000081526004016112ec9061204c565b60405180910390fd5b600160040160029054906101000a900460ff16905090565b600061131761124e565b611356576040517f08c379a000000000000000000000000000000000000000000000000000000000815260040161134d9061204c565b60405180910390fd5b81600160040160026101000a81548160ff02191690831515021790559050919050565b600061138361124e565b6113c2576040517f08c379a00000000000000000000000000000000000000000000000000000000081526004016113b99061204c565b60405180910390fd5b6113ca61124e565b905090565b6000600b82815481106113de57fe5b9060005260206000200160009054906101000a900473ffffffffffffffffffffffffffffffffffffffff169050919050565b600080600980549050141561142857600090506114d3565b8173ffffffffffffffffffffffffffffffffffffffff166009600860008573ffffffffffffffffffffffffffffffffffffffff1673ffffffffffffffffffffffffffffffffffffffff168152602001908152602001600020600201548154811061148e57fe5b9060005260206000200160009054906101000a900473ffffffffffffffffffffffffffffffffffffffff1673ffffffffffffffffffffffffffffffffffffffff161490505b919050565b600060606040518060400160405280600381526020017f436f6e0000000000000000000000000000000000000000000000000000000000815250905060606040518060400160405280600381526020017f4c61620000000000000000000000000000000000000000000000000000000000815250905060606040518060400160405280600381526020017f4c6962000000000000000000000000000000000000000000000000000000000081525090508280519060200120858051906020012014806115b1575081805190602001208580519060200120145b806115c9575080805190602001208580519060200120145b9350505050919050565b600080600b8054905014156115eb5760009050611696565b8173ffffffffffffffffffffffffffffffffffffffff16600b600a60008573ffffffffffffffffffffffffffffffffffffffff1673ffffffffffffffffffffffffffffffffffffffff168152602001908152602001600020600301548154811061165157fe5b9060005260206000200160009054906101000a900473ffffffffffffffffffffffffffffffffffffffff1673ffffffffffffffffffffffffffffffffffffffff161490505b919050565b600060608290506007816040516116b29190611eda565b908152602001604051809103902054915050919050565b6116d161124e565b611710576040517f08c379a00000000000000000000000000000000000000000000000000000000081526004016117079061204c565b60405180910390fd5b61171981611790565b50565b600061172661124e565b611765576040517f08c379a000000000000000000000000000000000000000000000000000000000815260040161175c9061204c565b60405180910390fd5b81600160040160016101000a81548160ff02191690831515021790559050919050565b600033905090565b600073ffffffffffffffffffffffffffffffffffffffff168173ffffffffffffffffffffffffffffffffffffffff161415611800576040517f08c379a00000000000000000000000000000000000000000000000000000000081526004016117f79061200c565b60405180910390fd5b8073ffffffffffffffffffffffffffffffffffffffff166000809054906101000a900473ffffffffffffffffffffffffffffffffffffffff1673ffffffffffffffffffffffffffffffffffffffff167f8be0079c531659141344cd1fd0a4f28419497f9722a3daafe3b4186f6b6457e060405160405180910390a3806000806101000a81548173ffffffffffffffffffffffffffffffffffffffff021916908373ffffffffffffffffffffffffffffffffffffffff16021790555050565b60405180606001604052806060815260200160608152602001600081525090565b828054600181600116156101000203166002900490600052602060002090601f016020900481019282601f1061192057805160ff191683800117855561194e565b8280016001018555821561194e579182015b8281111561194d578251825591602001919060010190611932565b5b50905061195b9190611989565b5090565b60405180608001604052806060815260200160008152602001600015158152602001600081525090565b6119ab91905b808211156119a757600081600090555060010161198f565b5090565b90565b6000813590506119bd8161225c565b92915050565b6000813590506119d281612273565b92915050565b600082601f8301126119e957600080fd5b81356119fc6119f782612163565b612136565b91508082526020830160208301858383011115611a1857600080fd5b611a23838284612209565b50505092915050565b600081359050611a3b8161228a565b92915050565b600060208284031215611a5357600080fd5b6000611a61848285016119ae565b91505092915050565b600080600060608486031215611a7f57600080fd5b6000611a8d868287016119ae565b935050602084013567ffffffffffffffff811115611aaa57600080fd5b611ab6868287016119d8565b925050604084013567ffffffffffffffff811115611ad357600080fd5b611adf868287016119d8565b9150509250925092565b600080600060608486031215611afe57600080fd5b6000611b0c868287016119ae565b935050602084013567ffffffffffffffff811115611b2957600080fd5b611b35868287016119d8565b9250506040611b4686828701611a2c565b9150509250925092565b600060208284031215611b6257600080fd5b6000611b70848285016119c3565b91505092915050565b600060208284031215611b8b57600080fd5b600082013567ffffffffffffffff811115611ba557600080fd5b611bb1848285016119d8565b91505092915050565b60008060408385031215611bcd57600080fd5b600083013567ffffffffffffffff811115611be757600080fd5b611bf3858286016119d8565b9250506020611c04858286016119ae565b9150509250929050565b600060208284031215611c2057600080fd5b6000611c2e84828501611a2c565b91505092915050565b611c40816121c1565b82525050565b611c4f816121d3565b82525050565b6000611c608261218f565b611c6a81856121a5565b9350611c7a818560208601612218565b80840191505092915050565b6000611c918261219a565b611c9b81856121b0565b9350611cab818560208601612218565b611cb48161224b565b840191505092915050565b6000611ccc6022836121b0565b91507f566f74657273206d757374206265206f76657220313820746f2072656769737460008301527f65720000000000000000000000000000000000000000000000000000000000006020830152604082019050919050565b6000611d326017836121b0565b91507f566f74696e6720706572696f6420697320636c6f7365640000000000000000006000830152602082019050919050565b6000611d726026836121b0565b91507f4f776e61626c653a206e6577206f776e657220697320746865207a65726f206160008301527f64647265737300000000000000000000000000000000000000000000000000006020830152604082019050919050565b6000611dd86012836121b0565b91507f496e76616c6964205061727479206e616d6500000000000000000000000000006000830152602082019050919050565b6000611e186020836121b0565b91507f4f776e61626c653a2063616c6c6572206973206e6f7420746865206f776e65726000830152602082019050919050565b6000611e58601d836121b0565b91507f526567697374726174696f6e20706572696f6420697320636c6f7365640000006000830152602082019050919050565b6000611e986019836121b0565b91507f456c656374696f6e20706572696f6420697320636c6f736564000000000000006000830152602082019050919050565b611ed4816121ff565b82525050565b6000611ee68284611c55565b915081905092915050565b6000602082019050611f066000830184611c37565b92915050565b6000606082019050611f216000830186611c37565b8181036020830152611f338185611c86565b90508181036040830152611f478184611c86565b9050949350505050565b6000606082019050611f666000830186611c37565b8181036020830152611f788185611c86565b9050611f876040830184611ecb565b949350505050565b6000602082019050611fa46000830184611c46565b92915050565b60006020820190508181036000830152611fc48184611c86565b905092915050565b60006020820190508181036000830152611fe581611cbf565b9050919050565b6000602082019050818103600083015261200581611d25565b9050919050565b6000602082019050818103600083015261202581611d65565b9050919050565b6000602082019050818103600083015261204581611dcb565b9050919050565b6000602082019050818103600083015261206581611e0b565b9050919050565b6000602082019050818103600083015261208581611e4b565b9050919050565b600060208201905081810360008301526120a581611e8b565b9050919050565b60006020820190506120c16000830184611ecb565b92915050565b600060e0820190506120dc600083018a611ecb565b6120e96020830189611ecb565b6120f66040830188611ecb565b6121036060830187611ecb565b6121106080830186611c46565b61211d60a0830185611c46565b61212a60c0830184611c46565b98975050505050505050565b6000604051905081810181811067ffffffffffffffff8211171561215957600080fd5b8060405250919050565b600067ffffffffffffffff82111561217a57600080fd5b601f19601f8301169050602081019050919050565b600081519050919050565b600081519050919050565b600081905092915050565b600082825260208201905092915050565b60006121cc826121df565b9050919050565b60008115159050919050565b600073ffffffffffffffffffffffffffffffffffffffff82169050919050565b6000819050919050565b82818337600083830152505050565b60005b8381101561223657808201518184015260208101905061221b565b83811115612245576000848401525b50505050565b6000601f19601f8301169050919050565b612265816121c1565b811461227057600080fd5b50565b61227c816121d3565b811461228757600080fd5b50565b612293816121ff565b811461229e57600080fd5b5056fea365627a7a72315820934b5c24b496ee400ad9c5dc0097d1eed0f0d73f6d8fbfb6e8c2bc3b4df730b06c6578706572696d656e74616cf564736f6c63430005100040",
  "source": "pragma solidity ^0.5.8;\npragma experimental ABIEncoderV2;\n\nimport \"../node_modules/openzeppelin-solidity/contracts/math/SafeMath.sol\";\nimport \"../node_modules/openzeppelin-solidity/contracts/ownership/Ownable.sol\";\n//import \"https://github.com/OpenZeppelin/openzeppelin-solidity/contracts/ownership/Ownable.sol\";\n\ncontract ElectionContract is Ownable {\n\n    using SafeMath for uint256;\n\n    struct candidateStruct {\n        string name;\n        string party;\n        uint index;\n    }\n\n    struct voterStruct {\n        //address voterAddress;\n        string name;\n        uint age;\n        bool hasVoted;\n        uint index;\n      }\n\n    struct Election {\n          uint256 electionTimeStamp;\n          uint256 registrationPeriod;\n          uint256 votingPeriod;\n          uint256 endTime;\n          bool openRegistrationPeriod;\n          bool openVotingPeriod;\n          bool openElectionPeriod;\n    }\n\n    Election public election;\n\n    //mapping(address => bool) isVoterValid;\n    mapping(bytes => uint) votesReceived;\n\n    mapping(bytes => uint256) fundedParties;\n\n    //uint public numberOfVoters;\n\n    mapping(address => candidateStruct) private candidates;\n    address[] private candidateIndex;\n\n    mapping(address => voterStruct) private voters;\n    address[] private votersIndex;\n\n    constructor() public {\n      election = Election(now, 1 days, 2 days, 2 days, true, false, false);\n    }\n\n    // events\n    event LogNewCandidate(address _address, string _name, string _party);\n    event LogNewVoter(address _address, string _name, uint _age);\n    event LogVote(string _name);\n    event LogFundParty(address _address, string _party, uint256 _amount);\n\n\n    // modifiers\n    modifier registrationPeriodIsOpen()  {\n        require(election.openRegistrationPeriod == true, \"Registration period is closed\");\n    _;\n    }\n\n    modifier votingPeriodIsOpen() {\n      require(election.openVotingPeriod == true, \"Voting period is closed\");\n      _;\n    }\n\n    modifier electionPeriodIsOpen() {\n      require(election.openElectionPeriod == true, \"Election period is closed\");\n      _;\n    }\n\n/*    modifier registeredCandidate(address _address) {\n        require(candidateIndex[candidates[_address].index] == _address, \"Candidate is not registered\");\n        //require(candidates[_address].isCandidate == true, \"Candidate is not registered\");\n        _;\n    }\n\n    modifier unregisteredCandidate(address _address) {\n        //require(candidates[_address].isCandidate == false,  \"Candidate is already registered\");\n        //require(candidates[_address] == _address);\n        require(candidateIndex[candidates[_address].index] == _address, \"Candidate is not registered\");\n        _;\n  }\n*\n    modifier unregisteredVoter(address _address) {\n        require(voters[_address].isRegistered == false, \"Voter is already registered\");\n        _;\n    }\n\n    modifier registeredVoter(address _address) {\n        require(voters[_address].isRegistered == true, \"Voter is not registered\");\n        _;\n    }\n\n    modifier validVoter(address _address) {\n      require(voters[_address].hasVoted == false, \"Voter is either unregistered, or has already voted\");\n      _;\n    }\n*/\n    modifier validParty(string memory _name){\n        require(validPartyStrings(_name) == true, \"Invalid Party name\");\n        _;\n    }\n\n\n\n    modifier minimumFund(uint256 _amount) {\n        require (_amount >= 1);\n        _;\n    }\n\n    //  Registration Functions\n    function _registerCandidate(address _address, string memory _name, string memory _party) public\n      registrationPeriodIsOpen\n      electionPeriodIsOpen\n      //unregisteredCandidate(_address)\n      onlyOwner\n      {\n      if(isCandidate(_address)) revert();\n        candidateStruct memory candidate = candidateStruct({\n           name: _name,\n           party:_party,\n           index: candidateIndex.push(_address) - 1\n        });\n        emit LogNewCandidate(_address, _name, _party);\n        candidates[_address] = candidate;\n    }\n\n    function _registerVoter(address _address, string memory _name, uint _age) public\n      votingPeriodIsOpen\n      electionPeriodIsOpen\n      //unregisteredVoter(msg.sender)\n      {\n        if(isRegisteredVoter(_address)) revert();\n        require(_age >= 18, \"Voters must be over 18 to register\");\n        voterStruct memory newVoter = voterStruct({\n            name: _name,\n            age:_age,\n            hasVoted: false,\n            index: votersIndex.push(_address) - 1\n\n        });\n        emit LogNewVoter(_address, _name, _age);\n        voters[_address] = newVoter;\n      }\n\n    // Vote Functions\n\n    function vote(string memory _name, address _voter) public\n    votingPeriodIsOpen\n    validParty(_name)\n    //registeredVoter(_voter)\n    //validVoter(_voter)\n    {\n      if(!isRegisteredVoter(_voter)) revert();\n      voters[_voter].hasVoted = true;\n      emit LogVote(_name);\n\n      bytes memory name = bytes(_name);\n      votesReceived[name]++;\n    }\n\n    // Party Functions\n    function fundPartyCampaign(address _address, string memory _party, uint _amount) public payable\n          registrationPeriodIsOpen\n          electionPeriodIsOpen\n          //registeredCandidate(_address)\n          validParty(_party)\n          minimumFund(_amount)\n        {\n            if(!isCandidate(_address)) revert();\n            emit LogFundParty(_address, _party, _amount);\n            bytes memory party = bytes(_party);\n            fundedParties[party] += _amount;\n        }\n\n    // Return functions\n    function isCandidate(address _candidateAddress) public view returns (bool _isIndeed) {\n      if(candidateIndex.length == 0) return false;\n      return (candidateIndex[candidates[_candidateAddress].index] == _candidateAddress);\n    }\n\n    function isRegisteredVoter(address _voterAddress) public view returns (bool _isIndeed) {\n      if(votersIndex.length == 0) return false;\n      return (votersIndex[voters[_voterAddress].index] == _voterAddress);\n    }\n\n    function getNumberOfCandidates() public view returns (uint _amount) {\n      return candidateIndex.length;\n    }\n\n    function getCandidate(uint _index) public view returns(address _address) {\n        return(candidateIndex[_index]);\n    }\n\n    function getVoter(uint _index) public view returns(address _address){\n        return(votersIndex[_index]);\n    }\n\n    function getPartyCount(string memory _name) public view\n      onlyOwner\n      validParty( _name)\n      returns (uint) {\n        bytes memory name = bytes(_name);\n        return votesReceived[name];\n    }\n\n    function getPartyFund(string memory _party) public view returns (uint256 _amount) {\n        bytes memory party = bytes(_party);\n        return fundedParties[party];\n    }\n\n    // Set Election Period Functions\n    function setElectionAccess(bool _access) public onlyOwner returns (bool) {\n              return election.openElectionPeriod = _access;\n    }\n\n    function setRegistrationAccess(bool _access) public onlyOwner returns (bool) {\n            return election.openRegistrationPeriod = _access;\n    }\n\n    function setVotingAccess(bool _access) public onlyOwner returns (bool) {\n            return election.openVotingPeriod = _access;\n    }\n\n\n    // Get Election Period Functions\n\n    function getRegistrationAccess() public view onlyOwner returns (bool) {\n            return election.openRegistrationPeriod;\n    }\n\n    function getVotingAccess() public view onlyOwner returns (bool) {\n            return election.openVotingPeriod;\n    }\n\n    function getElectionAccess() public view onlyOwner returns (bool) {\n            return election.openElectionPeriod;\n    }\n\n    // Helper Functions\n    function validPartyStrings(string memory _party) public pure returns (bool) {\n\n        bytes memory con = \"Con\";\n        bytes memory lab = \"Lab\";\n        bytes memory lib = \"Lib\";\n\n        return keccak256(bytes(_party)) == keccak256(bytes(con))  ||\n               keccak256(bytes(_party)) == keccak256(bytes(lab))  ||\n               keccak256(bytes(_party)) == keccak256(bytes(lib));\n    }\n\n    function kill() onlyOwner external {\n      selfdestruct(msg.sender);\n    }\n\n    // Assertion Test Functions\n    function contractOwner() public view onlyOwner returns(bool){\n        return isOwner();\n    }\n}\n",
  "sourcePath": "/Users/kevinkeaveney/github/VotingSystem/contracts/ElectionContract.sol",
  "compiler": {
    "name": "solc",
    "version": "0.5.16+commit.9c3226ce.Emscripten.clang"
  },
  "schemaVersion": "3.0.2",
  "updatedAt": "2020-01-04T00:41:18.529Z",
  "devdoc": {
    "methods": {
      "isOwner()": {
        "details": "Returns true if the caller is the current owner."
      },
      "owner()": {
        "details": "Returns the address of the current owner."
      },
      "renounceOwnership()": {
        "details": "Leaves the contract without owner. It will not be possible to call `onlyOwner` functions anymore. Can only be called by the current owner.     * NOTE: Renouncing ownership will leave the contract without an owner, thereby removing any functionality that is only available to the owner."
      },
      "transferOwnership(address)": {
        "details": "Transfers ownership of the contract to a new account (`newOwner`). Can only be called by the current owner."
      }
    }
  },
  "userdoc": {
    "methods": {}
  }
}