{
  "contractName": "ElectionContract",
  "abi": [
    {
      "inputs": [],
      "payable": false,
      "stateMutability": "nonpayable",
      "type": "constructor"
    },
    {
      "anonymous": false,
      "inputs": [
        {
          "indexed": false,
          "internalType": "address",
          "name": "sender",
          "type": "address"
        }
      ],
      "name": "LogNewCandidate",
      "type": "event"
    },
    {
      "anonymous": false,
      "inputs": [
        {
          "indexed": false,
          "internalType": "address",
          "name": "sender",
          "type": "address"
        }
      ],
      "name": "LogNewVoter",
      "type": "event"
    },
    {
      "anonymous": false,
      "inputs": [
        {
          "indexed": true,
          "internalType": "address",
          "name": "previousOwner",
          "type": "address"
        },
        {
          "indexed": true,
          "internalType": "address",
          "name": "newOwner",
          "type": "address"
        }
      ],
      "name": "OwnershipTransferred",
      "type": "event"
    },
    {
      "constant": true,
      "inputs": [],
      "name": "election",
      "outputs": [
        {
          "internalType": "uint256",
          "name": "electionTimeStamp",
          "type": "uint256"
        },
        {
          "internalType": "uint256",
          "name": "registrationPeriod",
          "type": "uint256"
        },
        {
          "internalType": "uint256",
          "name": "votingPeriod",
          "type": "uint256"
        },
        {
          "internalType": "uint256",
          "name": "endTime",
          "type": "uint256"
        },
        {
          "internalType": "bool",
          "name": "openRegistrationPeriod",
          "type": "bool"
        },
        {
          "internalType": "bool",
          "name": "openVotingPeriod",
          "type": "bool"
        },
        {
          "internalType": "bool",
          "name": "openElectionPeriod",
          "type": "bool"
        }
      ],
      "payable": false,
      "stateMutability": "view",
      "type": "function"
    },
    {
      "constant": true,
      "inputs": [],
      "name": "isOwner",
      "outputs": [
        {
          "internalType": "bool",
          "name": "",
          "type": "bool"
        }
      ],
      "payable": false,
      "stateMutability": "view",
      "type": "function"
    },
    {
      "constant": true,
      "inputs": [],
      "name": "numberOfCandidates",
      "outputs": [
        {
          "internalType": "uint256",
          "name": "",
          "type": "uint256"
        }
      ],
      "payable": false,
      "stateMutability": "view",
      "type": "function"
    },
    {
      "constant": true,
      "inputs": [],
      "name": "numberOfVoters",
      "outputs": [
        {
          "internalType": "uint256",
          "name": "",
          "type": "uint256"
        }
      ],
      "payable": false,
      "stateMutability": "view",
      "type": "function"
    },
    {
      "constant": true,
      "inputs": [],
      "name": "owner",
      "outputs": [
        {
          "internalType": "address",
          "name": "",
          "type": "address"
        }
      ],
      "payable": false,
      "stateMutability": "view",
      "type": "function"
    },
    {
      "constant": false,
      "inputs": [],
      "name": "renounceOwnership",
      "outputs": [],
      "payable": false,
      "stateMutability": "nonpayable",
      "type": "function"
    },
    {
      "constant": false,
      "inputs": [
        {
          "internalType": "address",
          "name": "newOwner",
          "type": "address"
        }
      ],
      "name": "transferOwnership",
      "outputs": [],
      "payable": false,
      "stateMutability": "nonpayable",
      "type": "function"
    },
    {
      "constant": false,
      "inputs": [
        {
          "internalType": "address",
          "name": "_address",
          "type": "address"
        },
        {
          "internalType": "string",
          "name": "_name",
          "type": "string"
        },
        {
          "internalType": "string",
          "name": "_party",
          "type": "string"
        }
      ],
      "name": "_registerCandidate",
      "outputs": [],
      "payable": false,
      "stateMutability": "nonpayable",
      "type": "function"
    },
    {
      "constant": false,
      "inputs": [
        {
          "internalType": "string",
          "name": "_name",
          "type": "string"
        },
        {
          "internalType": "uint256",
          "name": "_age",
          "type": "uint256"
        }
      ],
      "name": "_registerVoter",
      "outputs": [],
      "payable": false,
      "stateMutability": "nonpayable",
      "type": "function"
    },
    {
      "constant": true,
      "inputs": [
        {
          "internalType": "address",
          "name": "_address",
          "type": "address"
        }
      ],
      "name": "getVoter",
      "outputs": [
        {
          "components": [
            {
              "internalType": "address",
              "name": "_address",
              "type": "address"
            },
            {
              "internalType": "string",
              "name": "name",
              "type": "string"
            },
            {
              "internalType": "uint256",
              "name": "age",
              "type": "uint256"
            }
          ],
          "internalType": "struct ElectionContract.Voter",
          "name": "",
          "type": "tuple"
        }
      ],
      "payable": false,
      "stateMutability": "view",
      "type": "function"
    },
    {
      "constant": false,
      "inputs": [
        {
          "internalType": "bool",
          "name": "_access",
          "type": "bool"
        }
      ],
      "name": "setRegistrationAccess",
      "outputs": [
        {
          "internalType": "bool",
          "name": "",
          "type": "bool"
        }
      ],
      "payable": false,
      "stateMutability": "nonpayable",
      "type": "function"
    },
    {
      "constant": false,
      "inputs": [
        {
          "internalType": "bool",
          "name": "_access",
          "type": "bool"
        }
      ],
      "name": "setVotingAccess",
      "outputs": [
        {
          "internalType": "bool",
          "name": "",
          "type": "bool"
        }
      ],
      "payable": false,
      "stateMutability": "nonpayable",
      "type": "function"
    },
    {
      "constant": true,
      "inputs": [],
      "name": "getRegistrationAccess",
      "outputs": [
        {
          "internalType": "bool",
          "name": "",
          "type": "bool"
        }
      ],
      "payable": false,
      "stateMutability": "view",
      "type": "function"
    },
    {
      "constant": true,
      "inputs": [],
      "name": "getVotingAccess",
      "outputs": [
        {
          "internalType": "bool",
          "name": "",
          "type": "bool"
        }
      ],
      "payable": false,
      "stateMutability": "view",
      "type": "function"
    },
    {
      "constant": false,
      "inputs": [],
      "name": "kill",
      "outputs": [],
      "payable": false,
      "stateMutability": "nonpayable",
      "type": "function"
    },
    {
      "constant": true,
      "inputs": [
        {
          "internalType": "address",
          "name": "_address",
          "type": "address"
        }
      ],
      "name": "contractOwner",
      "outputs": [],
      "payable": false,
      "stateMutability": "view",
      "type": "function"
    }
  ],
  "bytecode": "0x608060405234801561001057600080fd5b506100286101ba640100000000026401000000009004565b6000806101000a81548173ffffffffffffffffffffffffffffffffffffffff021916908373ffffffffffffffffffffffffffffffffffffffff1602179055506000809054906101000a900473ffffffffffffffffffffffffffffffffffffffff1673ffffffffffffffffffffffffffffffffffffffff16600073ffffffffffffffffffffffffffffffffffffffff167f8be0079c531659141344cd1fd0a4f28419497f9722a3daafe3b4186f6b6457e060405160405180910390a36040518060e001604052804281526020016201518081526020016202a30081526020016202a30081526020016001151581526020016000151581526020016000151581525060016000820151816000015560208201518160010155604082015181600201556060820151816003015560808201518160040160006101000a81548160ff02191690831515021790555060a08201518160040160016101000a81548160ff02191690831515021790555060c08201518160040160026101000a81548160ff0219169083151502179055509050506101c2565b600033905090565b611884806101d16000396000f3fe608060405234801561001057600080fd5b506004361061011d576000357c010000000000000000000000000000000000000000000000000000000090048063715018a6116100b45780639c84bb27116100835780639c84bb2714610274578063d4f50f9814610292578063f2fde38b146102c2578063fe1b76eb146102de5761011d565b8063715018a6146102105780638da5cb5b1461021a5780638f32d59b146102385780639bcc3361146102565761011d565b80634b1d3ede116100f05780634b1d3ede146101965780634de3d10b146101ba5780635152b14c146101d857806369ab927f146101f45761011d565b8063133b819c146101225780631c18b1d71461015257806323cd35a31461016e57806341c0e1b51461018c575b600080fd5b61013c600480360361013791908101906111bc565b61030e565b604051610149919061151e565b60405180910390f35b61016c6004803603610167919081019061113d565b61037a565b005b6101766105c0565b604051610183919061151e565b60405180910390f35b610194610621565b005b61019e610681565b6040516101b19796959493929190611636565b60405180910390f35b6101c26106d8565b6040516101cf919061151e565b60405180910390f35b6101f260048036036101ed9190810190611114565b610739565b005b61020e600480360361020991908101906111e5565b610783565b005b610218610a85565b005b610222610b8b565b60405161022f91906114e8565b60405180910390f35b610240610bb4565b60405161024d919061151e565b60405180910390f35b61025e610c12565b60405161026b919061161b565b60405180910390f35b61027c610c18565b604051610289919061161b565b60405180910390f35b6102ac60048036036102a79190810190611114565b610c1e565b6040516102b991906115f9565b60405180910390f35b6102dc60048036036102d79190810190611114565b610d79565b005b6102f860048036036102f391908101906111bc565b610dcc565b604051610305919061151e565b60405180910390f35b6000610318610bb4565b610357576040517f08c379a000000000000000000000000000000000000000000000000000000000815260040161034e90611599565b60405180910390fd5b81600160040160006101000a81548160ff02191690831515021790559050919050565b60011515600160040160009054906101000a900460ff161515146103d3576040517f08c379a00000000000000000000000000000000000000000000000000000000081526004016103ca906115b9565b60405180910390fd5b6103db610bb4565b61041a576040517f08c379a000000000000000000000000000000000000000000000000000000000815260040161041190611599565b60405180910390fd5b610422610f6e565b60405180606001604052808573ffffffffffffffffffffffffffffffffffffffff1681526020018481526020018381525090507fea58b9e601d38c6cd2de8e796bfcf199b4a61c0bd737724d359a0755fdb0c2c68460405161048491906114e8565b60405180910390a180600960008673ffffffffffffffffffffffffffffffffffffffff1673ffffffffffffffffffffffffffffffffffffffff16815260200190815260200160002060008201518160000160006101000a81548173ffffffffffffffffffffffffffffffffffffffff021916908373ffffffffffffffffffffffffffffffffffffffff160217905550602082015181600101908051906020019061052f929190610fa5565b50604082015181600201908051906020019061054c929190610fa5565b509050506001600660008673ffffffffffffffffffffffffffffffffffffffff1673ffffffffffffffffffffffffffffffffffffffff16815260200190815260200160002060006101000a81548160ff021916908315150217905550600a6000815480929190600101919050555050505050565b60006105ca610bb4565b610609576040517f08c379a000000000000000000000000000000000000000000000000000000000815260040161060090611599565b60405180910390fd5b600160040160019054906101000a900460ff16905090565b610629610bb4565b610668576040517f08c379a000000000000000000000000000000000000000000000000000000000815260040161065f90611599565b60405180910390fd5b3373ffffffffffffffffffffffffffffffffffffffff16ff5b60018060000154908060010154908060020154908060030154908060040160009054906101000a900460ff16908060040160019054906101000a900460ff16908060040160029054906101000a900460ff16905087565b60006106e2610bb4565b610721576040517f08c379a000000000000000000000000000000000000000000000000000000000815260040161071890611599565b60405180910390fd5b600160040160009054906101000a900460ff16905090565b610741610bb4565b610780576040517f08c379a000000000000000000000000000000000000000000000000000000000815260040161077790611599565b60405180910390fd5b50565b60011515600160040160019054906101000a900460ff161515146107dc576040517f08c379a00000000000000000000000000000000000000000000000000000000081526004016107d390611559565b60405180910390fd5b33600073ffffffffffffffffffffffffffffffffffffffff16600860008373ffffffffffffffffffffffffffffffffffffffff1673ffffffffffffffffffffffffffffffffffffffff16815260200190815260200160002060000160009054906101000a900473ffffffffffffffffffffffffffffffffffffffff1673ffffffffffffffffffffffffffffffffffffffff16146108ae576040517f08c379a00000000000000000000000000000000000000000000000000000000081526004016108a5906115d9565b60405180910390fd5b60128210156108f2576040517f08c379a00000000000000000000000000000000000000000000000000000000081526004016108e990611539565b60405180910390fd5b6108fa611025565b60405180606001604052803373ffffffffffffffffffffffffffffffffffffffff1681526020018581526020018481525090507fc35be007a236088cf0e03bd876c5857f0dfcc266ac92bcb1905169739b1292103360405161095c9190611503565b60405180910390a180600860003373ffffffffffffffffffffffffffffffffffffffff1673ffffffffffffffffffffffffffffffffffffffff16815260200190815260200160002060008201518160000160006101000a81548173ffffffffffffffffffffffffffffffffffffffff021916908373ffffffffffffffffffffffffffffffffffffffff1602179055506020820151816001019080519060200190610a07929190610fa5565b50604082015181600201559050506001600760003373ffffffffffffffffffffffffffffffffffffffff1673ffffffffffffffffffffffffffffffffffffffff16815260200190815260200160002060006101000a81548160ff021916908315150217905550600b6000815480929190600101919050555050505050565b610a8d610bb4565b610acc576040517f08c379a0000000000000000000000000000000000000000000000000000000008152600401610ac390611599565b60405180910390fd5b600073ffffffffffffffffffffffffffffffffffffffff166000809054906101000a900473ffffffffffffffffffffffffffffffffffffffff1673ffffffffffffffffffffffffffffffffffffffff167f8be0079c531659141344cd1fd0a4f28419497f9722a3daafe3b4186f6b6457e060405160405180910390a360008060006101000a81548173ffffffffffffffffffffffffffffffffffffffff021916908373ffffffffffffffffffffffffffffffffffffffff160217905550565b60008060009054906101000a900473ffffffffffffffffffffffffffffffffffffffff16905090565b60008060009054906101000a900473ffffffffffffffffffffffffffffffffffffffff1673ffffffffffffffffffffffffffffffffffffffff16610bf6610e38565b73ffffffffffffffffffffffffffffffffffffffff1614905090565b600b5481565b600a5481565b610c26611025565b600860008373ffffffffffffffffffffffffffffffffffffffff1673ffffffffffffffffffffffffffffffffffffffff1681526020019081526020016000206040518060600160405290816000820160009054906101000a900473ffffffffffffffffffffffffffffffffffffffff1673ffffffffffffffffffffffffffffffffffffffff1673ffffffffffffffffffffffffffffffffffffffff168152602001600182018054600181600116156101000203166002900480601f016020809104026020016040519081016040528092919081815260200182805460018160011615610100020316600290048015610d5f5780601f10610d3457610100808354040283529160200191610d5f565b820191906000526020600020905b815481529060010190602001808311610d4257829003601f168201915b505050505081526020016002820154815250509050919050565b610d81610bb4565b610dc0576040517f08c379a0000000000000000000000000000000000000000000000000000000008152600401610db790611599565b60405180910390fd5b610dc981610e40565b50565b6000610dd6610bb4565b610e15576040517f08c379a0000000000000000000000000000000000000000000000000000000008152600401610e0c90611599565b60405180910390fd5b81600160040160016101000a81548160ff02191690831515021790559050919050565b600033905090565b600073ffffffffffffffffffffffffffffffffffffffff168173ffffffffffffffffffffffffffffffffffffffff161415610eb0576040517f08c379a0000000000000000000000000000000000000000000000000000000008152600401610ea790611579565b60405180910390fd5b8073ffffffffffffffffffffffffffffffffffffffff166000809054906101000a900473ffffffffffffffffffffffffffffffffffffffff1673ffffffffffffffffffffffffffffffffffffffff167f8be0079c531659141344cd1fd0a4f28419497f9722a3daafe3b4186f6b6457e060405160405180910390a3806000806101000a81548173ffffffffffffffffffffffffffffffffffffffff021916908373ffffffffffffffffffffffffffffffffffffffff16021790555050565b6040518060600160405280600073ffffffffffffffffffffffffffffffffffffffff16815260200160608152602001606081525090565b828054600181600116156101000203166002900490600052602060002090601f016020900481019282601f10610fe657805160ff1916838001178555611014565b82800160010185558215611014579182015b82811115611013578251825591602001919060010190610ff8565b5b509050611021919061105c565b5090565b6040518060600160405280600073ffffffffffffffffffffffffffffffffffffffff16815260200160608152602001600081525090565b61107e91905b8082111561107a576000816000905550600101611062565b5090565b90565b600081359050611090816117fc565b92915050565b6000813590506110a581611813565b92915050565b600082601f8301126110bc57600080fd5b81356110cf6110ca826116d2565b6116a5565b915080825260208301602083018583830111156110eb57600080fd5b6110f68382846117a9565b50505092915050565b60008135905061110e8161182a565b92915050565b60006020828403121561112657600080fd5b600061113484828501611081565b91505092915050565b60008060006060848603121561115257600080fd5b600061116086828701611081565b935050602084013567ffffffffffffffff81111561117d57600080fd5b611189868287016110ab565b925050604084013567ffffffffffffffff8111156111a657600080fd5b6111b2868287016110ab565b9150509250925092565b6000602082840312156111ce57600080fd5b60006111dc84828501611096565b91505092915050565b600080604083850312156111f857600080fd5b600083013567ffffffffffffffff81111561121257600080fd5b61121e858286016110ab565b925050602061122f858286016110ff565b9150509250929050565b61124281611773565b82525050565b6112518161172b565b82525050565b6112608161172b565b82525050565b61126f8161173d565b82525050565b6000611280826116fe565b61128a8185611709565b935061129a8185602086016117b8565b6112a3816117eb565b840191505092915050565b60006112bb60228361171a565b91507f566f74657273206d757374206265206f76657220313820746f2072656769737460008301527f65720000000000000000000000000000000000000000000000000000000000006020830152604082019050919050565b600061132160178361171a565b91507f566f74696e6720706572696f6420697320636c6f7365640000000000000000006000830152602082019050919050565b600061136160268361171a565b91507f4f776e61626c653a206e6577206f776e657220697320746865207a65726f206160008301527f64647265737300000000000000000000000000000000000000000000000000006020830152604082019050919050565b60006113c760208361171a565b91507f4f776e61626c653a2063616c6c6572206973206e6f7420746865206f776e65726000830152602082019050919050565b6000611407601d8361171a565b91507f526567697374726174696f6e20706572696f6420697320636c6f7365640000006000830152602082019050919050565b6000611447601c8361171a565b91507f566f7465722063616e207265676973746572206f6e6c79206f6e6365000000006000830152602082019050919050565b60006060830160008301516114926000860182611248565b50602083015184820360208601526114aa8282611275565b91505060408301516114bf60408601826114ca565b508091505092915050565b6114d381611769565b82525050565b6114e281611769565b82525050565b60006020820190506114fd6000830184611257565b92915050565b60006020820190506115186000830184611239565b92915050565b60006020820190506115336000830184611266565b92915050565b60006020820190508181036000830152611552816112ae565b9050919050565b6000602082019050818103600083015261157281611314565b9050919050565b6000602082019050818103600083015261159281611354565b9050919050565b600060208201905081810360008301526115b2816113ba565b9050919050565b600060208201905081810360008301526115d2816113fa565b9050919050565b600060208201905081810360008301526115f28161143a565b9050919050565b60006020820190508181036000830152611613818461147a565b905092915050565b600060208201905061163060008301846114d9565b92915050565b600060e08201905061164b600083018a6114d9565b61165860208301896114d9565b61166560408301886114d9565b61167260608301876114d9565b61167f6080830186611266565b61168c60a0830185611266565b61169960c0830184611266565b98975050505050505050565b6000604051905081810181811067ffffffffffffffff821117156116c857600080fd5b8060405250919050565b600067ffffffffffffffff8211156116e957600080fd5b601f19601f8301169050602081019050919050565b600081519050919050565b600082825260208201905092915050565b600082825260208201905092915050565b600061173682611749565b9050919050565b60008115159050919050565b600073ffffffffffffffffffffffffffffffffffffffff82169050919050565b6000819050919050565b600061177e82611785565b9050919050565b600061179082611797565b9050919050565b60006117a282611749565b9050919050565b82818337600083830152505050565b60005b838110156117d65780820151818401526020810190506117bb565b838111156117e5576000848401525b50505050565b6000601f19601f8301169050919050565b6118058161172b565b811461181057600080fd5b50565b61181c8161173d565b811461182757600080fd5b50565b61183381611769565b811461183e57600080fd5b5056fea365627a7a723158200e908bfab831998e20243b4610923b62b42dad22f835319b475887f2c7610cbd6c6578706572696d656e74616cf564736f6c634300050c0040",
  "source": "pragma solidity ^0.5.8;\npragma experimental ABIEncoderV2;\n\nimport \"../node_modules/openzeppelin-solidity/contracts/math/SafeMath.sol\";\nimport \"../node_modules/openzeppelin-solidity/contracts/ownership/Ownable.sol\";\n//import \"https://github.com/OpenZeppelin/openzeppelin-solidity/contracts/ownership/Ownable.sol\";\n\ncontract ElectionContract is Ownable {\n\n    using SafeMath for uint256;\n\n\n    struct Candidate {\n        address _address;\n        string name;\n        string party;\n    }\n\n    struct Voter {\n        address _address;\n        string name;\n        uint age;\n\n    }\n\n    struct Election {\n        uint256 electionTimeStamp;\n        uint256 registrationPeriod;\n        uint256 votingPeriod;\n        uint256 endTime;\n        bool openRegistrationPeriod;\n        bool openVotingPeriod;\n        bool openElectionPeriod;\n    }\n\n    Election public election;\n\n    mapping(address => bool) isCandidateValid;\n    mapping(address => bool) isVoterValid;\n\n    mapping(address => Voter) voters;\n    mapping(address => Candidate) candidates;\n\n\n    uint public numberOfCandidates;\n    uint public numberOfVoters;\n\n\n    constructor() public {\n      election = Election(now, 1 days, 2 days, 2 days, true, false, false);\n    }\n\n    // events\n\n    event LogNewCandidate(address sender);\n    event LogNewVoter(address sender);\n\n\n\n\n\n\n    // modifiers\n\n    // Ownable\n\n    /**\n     * @dev Throws if called by any account other than the owner.\n\n    modifier onlyOwner() {\n        require(isOwner(), \"Ownable: caller is not the owner\");\n        _;\n    }\n\n    */\n\n    modifier registrationPeriodIsOpen()  {\n        require(election.openRegistrationPeriod == true, \"Registration period is closed\");\n    _;\n    }\n\n    modifier votingPeriodIsOpen() {\n      require(election.openVotingPeriod == true, \"Voting period is closed\");\n      _;\n    }\n\n    modifier closeElectionPeriod() {\n      require(election.openElectionPeriod == true, \"Election period is closed\");\n      _;\n    }\n\n    modifier validCandidate(address _address) {\n      require(isCandidateValid[_address] == true, \"Candidate is invalid\");\n      _;\n    }\n\n    modifier unvalidatedCandidate(address _address) {\n        require(isCandidateValid[_address] != true, \"Candidate is valid\");\n        _;\n    }\n\n    modifier validVoter(address _address) {\n        require(voters[_address]._address == address(0), \"Voter can register only once\");\n        _;\n    }\n\n\n    // Contract Owner\n\n    /**\n     * @dev Returns the address of the current owner.\n\n    function owner() public view returns (address) {\n        return _owner;\n    }\n\n    /**\n     * @dev Returns true if the caller is the current owner.\n\n    function isOwner() public view returns (bool) {\n        return _msgSender() == _owner;\n    }\n\n\n    function _msgSender() internal view returns (address payable) {\n        return msg.sender;\n    }\n    */\n\n    //  Registration Functions\n\n    function _registerCandidate(address _address, string memory _name, string memory _party) public registrationPeriodIsOpen onlyOwner {\n\n        Candidate memory candidate = Candidate({\n           _address:_address,\n           name: _name,\n           party:_party\n        });\n        emit LogNewCandidate(_address);\n        candidates[_address] = candidate;\n        isCandidateValid[_address] = true;\n        numberOfCandidates++;\n    }\n\n    function _registerVoter(string memory _name, uint _age) public votingPeriodIsOpen validVoter(msg.sender) {\n\n        require(_age >= 18, \"Voters must be over 18 to register\");\n        Voter memory newVoter = Voter({\n            _address: msg.sender,\n            name: _name,\n            age:_age\n        });\n        emit LogNewVoter(msg.sender);\n        voters[msg.sender] = newVoter;\n        isVoterValid[msg.sender] = true;\n        numberOfVoters++;\n    }\n\n\n\n    // voting Functions\n\n    function getVoter(address _address) public view returns(Voter memory){\n        return(voters[_address]);\n    }\n\n    // Set Election Period Functions\n\n    function setRegistrationAccess(bool _access) public onlyOwner returns (bool) {\n            return election.openRegistrationPeriod = _access;\n    }\n\n    function setVotingAccess(bool _access) public onlyOwner returns (bool) {\n            return election.openVotingPeriod = _access;\n    }\n\n\n    // Get Election Period Functions\n\n    function getRegistrationAccess() public view onlyOwner returns (bool) {\n            return election.openRegistrationPeriod;\n    }\n\n    function getVotingAccess() public view onlyOwner returns (bool) {\n            return election.openVotingPeriod;\n\n    }\n\n    function kill() onlyOwner external {\n      selfdestruct(msg.sender);\n    }\n\n    // Assertion Test Functions\n\n    function contractOwner(address _address) public view onlyOwner{\n\n    }\n\n\n\n\n}\n",
  "sourcePath": "/Users/admin/github/votingSystem/contracts/ElectionContract.sol",
  "compiler": {
    "name": "solc",
    "version": "0.5.12+commit.7709ece9.Emscripten.clang"
  },
  "schemaVersion": "3.0.2",
  "updatedAt": "2019-11-13T14:09:06.625Z",
  "devdoc": {
    "methods": {
      "_registerCandidate(address,string,string)": {
        "details": "Returns the address of the current owner. function owner() public view returns (address) { return _owner; } /**Returns true if the caller is the current owner. function isOwner() public view returns (bool) { return _msgSender() == _owner; } function _msgSender() internal view returns (address payable) { return msg.sender; }"
      },
      "isOwner()": {
        "details": "Returns true if the caller is the current owner."
      },
      "owner()": {
        "details": "Returns the address of the current owner."
      },
      "renounceOwnership()": {
        "details": "Leaves the contract without owner. It will not be possible to call `onlyOwner` functions anymore. Can only be called by the current owner.     * NOTE: Renouncing ownership will leave the contract without an owner, thereby removing any functionality that is only available to the owner."
      },
      "transferOwnership(address)": {
        "details": "Transfers ownership of the contract to a new account (`newOwner`). Can only be called by the current owner."
      }
    }
  },
  "userdoc": {
    "methods": {}
  }
}