{
  "contractName": "ElectionContract",
  "abi": [
    {
      "inputs": [],
      "payable": false,
      "stateMutability": "nonpayable",
      "type": "constructor"
    },
    {
      "anonymous": false,
      "inputs": [
        {
          "indexed": false,
          "internalType": "address",
          "name": "_address",
          "type": "address"
        },
        {
          "indexed": false,
          "internalType": "string",
          "name": "_name",
          "type": "string"
        },
        {
          "indexed": false,
          "internalType": "string",
          "name": "_party",
          "type": "string"
        }
      ],
      "name": "LogNewCandidate",
      "type": "event"
    },
    {
      "anonymous": false,
      "inputs": [
        {
          "indexed": false,
          "internalType": "address",
          "name": "_address",
          "type": "address"
        },
        {
          "indexed": false,
          "internalType": "string",
          "name": "_name",
          "type": "string"
        },
        {
          "indexed": false,
          "internalType": "uint256",
          "name": "_age",
          "type": "uint256"
        }
      ],
      "name": "LogNewVoter",
      "type": "event"
    },
    {
      "anonymous": false,
      "inputs": [
        {
          "indexed": true,
          "internalType": "address",
          "name": "previousOwner",
          "type": "address"
        },
        {
          "indexed": true,
          "internalType": "address",
          "name": "newOwner",
          "type": "address"
        }
      ],
      "name": "OwnershipTransferred",
      "type": "event"
    },
    {
      "constant": true,
      "inputs": [],
      "name": "election",
      "outputs": [
        {
          "internalType": "uint256",
          "name": "electionTimeStamp",
          "type": "uint256"
        },
        {
          "internalType": "uint256",
          "name": "registrationPeriod",
          "type": "uint256"
        },
        {
          "internalType": "uint256",
          "name": "votingPeriod",
          "type": "uint256"
        },
        {
          "internalType": "uint256",
          "name": "endTime",
          "type": "uint256"
        },
        {
          "internalType": "bool",
          "name": "openRegistrationPeriod",
          "type": "bool"
        },
        {
          "internalType": "bool",
          "name": "openVotingPeriod",
          "type": "bool"
        },
        {
          "internalType": "bool",
          "name": "openElectionPeriod",
          "type": "bool"
        }
      ],
      "payable": false,
      "stateMutability": "view",
      "type": "function"
    },
    {
      "constant": true,
      "inputs": [],
      "name": "isOwner",
      "outputs": [
        {
          "internalType": "bool",
          "name": "",
          "type": "bool"
        }
      ],
      "payable": false,
      "stateMutability": "view",
      "type": "function"
    },
    {
      "constant": true,
      "inputs": [],
      "name": "numberOfCandidates",
      "outputs": [
        {
          "internalType": "uint256",
          "name": "",
          "type": "uint256"
        }
      ],
      "payable": false,
      "stateMutability": "view",
      "type": "function"
    },
    {
      "constant": true,
      "inputs": [],
      "name": "numberOfVoters",
      "outputs": [
        {
          "internalType": "uint256",
          "name": "",
          "type": "uint256"
        }
      ],
      "payable": false,
      "stateMutability": "view",
      "type": "function"
    },
    {
      "constant": true,
      "inputs": [],
      "name": "owner",
      "outputs": [
        {
          "internalType": "address",
          "name": "",
          "type": "address"
        }
      ],
      "payable": false,
      "stateMutability": "view",
      "type": "function"
    },
    {
      "constant": false,
      "inputs": [],
      "name": "renounceOwnership",
      "outputs": [],
      "payable": false,
      "stateMutability": "nonpayable",
      "type": "function"
    },
    {
      "constant": false,
      "inputs": [
        {
          "internalType": "address",
          "name": "newOwner",
          "type": "address"
        }
      ],
      "name": "transferOwnership",
      "outputs": [],
      "payable": false,
      "stateMutability": "nonpayable",
      "type": "function"
    },
    {
      "constant": false,
      "inputs": [
        {
          "internalType": "address",
          "name": "_address",
          "type": "address"
        },
        {
          "internalType": "string",
          "name": "_name",
          "type": "string"
        },
        {
          "internalType": "string",
          "name": "_party",
          "type": "string"
        }
      ],
      "name": "_registerCandidate",
      "outputs": [],
      "payable": false,
      "stateMutability": "nonpayable",
      "type": "function"
    },
    {
      "constant": false,
      "inputs": [
        {
          "internalType": "address",
          "name": "_address",
          "type": "address"
        },
        {
          "internalType": "string",
          "name": "_name",
          "type": "string"
        },
        {
          "internalType": "uint256",
          "name": "_age",
          "type": "uint256"
        }
      ],
      "name": "_registerVoter",
      "outputs": [],
      "payable": false,
      "stateMutability": "nonpayable",
      "type": "function"
    },
    {
      "constant": false,
      "inputs": [
        {
          "internalType": "string",
          "name": "_party",
          "type": "string"
        }
      ],
      "name": "vote",
      "outputs": [],
      "payable": false,
      "stateMutability": "nonpayable",
      "type": "function"
    },
    {
      "constant": true,
      "inputs": [
        {
          "internalType": "address",
          "name": "_address",
          "type": "address"
        }
      ],
      "name": "getCandidate",
      "outputs": [
        {
          "internalType": "bool",
          "name": "",
          "type": "bool"
        }
      ],
      "payable": false,
      "stateMutability": "view",
      "type": "function"
    },
    {
      "constant": true,
      "inputs": [
        {
          "internalType": "address",
          "name": "_address",
          "type": "address"
        }
      ],
      "name": "getVoter",
      "outputs": [
        {
          "components": [
            {
              "internalType": "address",
              "name": "_address",
              "type": "address"
            },
            {
              "internalType": "string",
              "name": "name",
              "type": "string"
            },
            {
              "internalType": "uint256",
              "name": "age",
              "type": "uint256"
            }
          ],
          "internalType": "struct ElectionContract.Voter",
          "name": "",
          "type": "tuple"
        }
      ],
      "payable": false,
      "stateMutability": "view",
      "type": "function"
    },
    {
      "constant": true,
      "inputs": [
        {
          "internalType": "string",
          "name": "_party",
          "type": "string"
        }
      ],
      "name": "getPartyCount",
      "outputs": [
        {
          "internalType": "uint256",
          "name": "",
          "type": "uint256"
        }
      ],
      "payable": false,
      "stateMutability": "view",
      "type": "function"
    },
    {
      "constant": false,
      "inputs": [
        {
          "internalType": "bool",
          "name": "_access",
          "type": "bool"
        }
      ],
      "name": "setElectionAccess",
      "outputs": [
        {
          "internalType": "bool",
          "name": "",
          "type": "bool"
        }
      ],
      "payable": false,
      "stateMutability": "nonpayable",
      "type": "function"
    },
    {
      "constant": false,
      "inputs": [
        {
          "internalType": "bool",
          "name": "_access",
          "type": "bool"
        }
      ],
      "name": "setRegistrationAccess",
      "outputs": [
        {
          "internalType": "bool",
          "name": "",
          "type": "bool"
        }
      ],
      "payable": false,
      "stateMutability": "nonpayable",
      "type": "function"
    },
    {
      "constant": false,
      "inputs": [
        {
          "internalType": "bool",
          "name": "_access",
          "type": "bool"
        }
      ],
      "name": "setVotingAccess",
      "outputs": [
        {
          "internalType": "bool",
          "name": "",
          "type": "bool"
        }
      ],
      "payable": false,
      "stateMutability": "nonpayable",
      "type": "function"
    },
    {
      "constant": true,
      "inputs": [],
      "name": "getRegistrationAccess",
      "outputs": [
        {
          "internalType": "bool",
          "name": "",
          "type": "bool"
        }
      ],
      "payable": false,
      "stateMutability": "view",
      "type": "function"
    },
    {
      "constant": true,
      "inputs": [],
      "name": "getVotingAccess",
      "outputs": [
        {
          "internalType": "bool",
          "name": "",
          "type": "bool"
        }
      ],
      "payable": false,
      "stateMutability": "view",
      "type": "function"
    },
    {
      "constant": true,
      "inputs": [],
      "name": "getElectionAccess",
      "outputs": [
        {
          "internalType": "bool",
          "name": "",
          "type": "bool"
        }
      ],
      "payable": false,
      "stateMutability": "view",
      "type": "function"
    },
    {
      "constant": false,
      "inputs": [],
      "name": "kill",
      "outputs": [],
      "payable": false,
      "stateMutability": "nonpayable",
      "type": "function"
    },
    {
      "constant": true,
      "inputs": [],
      "name": "contractOwner",
      "outputs": [
        {
          "internalType": "bool",
          "name": "",
          "type": "bool"
        }
      ],
      "payable": false,
      "stateMutability": "view",
      "type": "function"
    }
  ],
  "bytecode": "0x608060405234801561001057600080fd5b5061001f6101b160201b60201c565b6000806101000a81548173ffffffffffffffffffffffffffffffffffffffff021916908373ffffffffffffffffffffffffffffffffffffffff1602179055506000809054906101000a900473ffffffffffffffffffffffffffffffffffffffff1673ffffffffffffffffffffffffffffffffffffffff16600073ffffffffffffffffffffffffffffffffffffffff167f8be0079c531659141344cd1fd0a4f28419497f9722a3daafe3b4186f6b6457e060405160405180910390a36040518060e001604052804281526020016201518081526020016202a30081526020016202a30081526020016001151581526020016000151581526020016000151581525060016000820151816000015560208201518160010155604082015181600201556060820151816003015560808201518160040160006101000a81548160ff02191690831515021790555060a08201518160040160016101000a81548160ff02191690831515021790555060c08201518160040160026101000a81548160ff0219169083151502179055509050506101b9565b600033905090565b612241806101c86000396000f3fe608060405234801561001057600080fd5b50600436106101375760003560e01c80638f32d59b116100b8578063b7adcf1d1161007c578063b7adcf1d1461030e578063ce606ee01461033e578063d4f50f981461035c578063f2fde38b1461038c578063fc36e15b146103a8578063fe1b76eb146103c457610137565b80638f32d59b1461026657806394a020a4146102845780639bc771b4146102a25780639bcc3361146102d25780639c84bb27146102f057610137565b806341c0e1b5116100ff57806341c0e1b5146101f25780634b1d3ede146101fc5780634de3d10b14610220578063715018a61461023e5780638da5cb5b1461024857610137565b8063041a4d941461013c578063133b819c1461016c5780631c18b1d71461019c57806323cd35a3146101b85780633aa76480146101d6575b600080fd5b6101566004803603610151919081019061192f565b6103f4565b6040516101639190611ff8565b60405180910390f35b61018660048036036101819190810190611906565b610463565b6040516101939190611e7b565b60405180910390f35b6101b660048036036101b19190810190611820565b6104cf565b005b6101c0610808565b6040516101cd9190611e7b565b60405180910390f35b6101f060048036036101eb919081019061189f565b610869565b005b6101fa610c10565b005b610204610c70565b6040516102179796959493929190612013565b60405180910390f35b610228610cc7565b6040516102359190611e7b565b60405180910390f35b610246610d28565b005b610250610e2e565b60405161025d9190611ddd565b60405180910390f35b61026e610e57565b60405161027b9190611e7b565b60405180910390f35b61028c610eb5565b6040516102999190611e7b565b60405180910390f35b6102bc60048036036102b79190810190611906565b610f16565b6040516102c99190611e7b565b60405180910390f35b6102da610f82565b6040516102e79190611ff8565b60405180910390f35b6102f8610f88565b6040516103059190611ff8565b60405180910390f35b610328600480360361032391908101906117f7565b610f8e565b6040516103359190611e7b565b60405180910390f35b610346611079565b6040516103539190611e7b565b60405180910390f35b610376600480360361037191908101906117f7565b6110cf565b6040516103839190611fd6565b60405180910390f35b6103a660048036036103a191908101906117f7565b6112fe565b005b6103c260048036036103bd919081019061192f565b611351565b005b6103de60048036036103d99190810190611906565b6114af565b6040516103eb9190611e7b565b60405180910390f35b60006103fe610e57565b61043d576040517f08c379a000000000000000000000000000000000000000000000000000000000815260040161043490611f56565b60405180910390fd5b60088260405161044d9190611dc6565b9081526020016040518091039020549050919050565b600061046d610e57565b6104ac576040517f08c379a00000000000000000000000000000000000000000000000000000000081526004016104a390611f56565b60405180910390fd5b81600160040160006101000a81548160ff02191690831515021790559050919050565b60011515600160040160009054906101000a900460ff16151514610528576040517f08c379a000000000000000000000000000000000000000000000000000000000815260040161051f90611f76565b60405180910390fd5b60011515600160040160029054906101000a900460ff16151514610581576040517f08c379a000000000000000000000000000000000000000000000000000000000815260040161057890611fb6565b60405180910390fd5b8260011515600660008373ffffffffffffffffffffffffffffffffffffffff1673ffffffffffffffffffffffffffffffffffffffff16815260200190815260200160002060009054906101000a900460ff1615151415610616576040517f08c379a000000000000000000000000000000000000000000000000000000000815260040161060d90611f96565b60405180910390fd5b61061e610e57565b61065d576040517f08c379a000000000000000000000000000000000000000000000000000000000815260040161065490611f56565b60405180910390fd5b610665611651565b60405180606001604052808673ffffffffffffffffffffffffffffffffffffffff1681526020018581526020018481525090507fa9c9f83892c88fb8ac9d0ce80c5232d111ae45178c4621184090399b36cc7f0b8585856040516106cb93929190611df8565b60405180910390a180600a60008773ffffffffffffffffffffffffffffffffffffffff1673ffffffffffffffffffffffffffffffffffffffff16815260200190815260200160002060008201518160000160006101000a81548173ffffffffffffffffffffffffffffffffffffffff021916908373ffffffffffffffffffffffffffffffffffffffff1602179055506020820151816001019080519060200190610776929190611688565b506040820151816002019080519060200190610793929190611688565b509050506001600660008773ffffffffffffffffffffffffffffffffffffffff1673ffffffffffffffffffffffffffffffffffffffff16815260200190815260200160002060006101000a81548160ff021916908315150217905550600b600081548092919060010191905055505050505050565b6000610812610e57565b610851576040517f08c379a000000000000000000000000000000000000000000000000000000000815260040161084890611f56565b60405180910390fd5b600160040160019054906101000a900460ff16905090565b60011515600160040160019054906101000a900460ff161515146108c2576040517f08c379a00000000000000000000000000000000000000000000000000000000081526004016108b990611eb6565b60405180910390fd5b60011515600160040160029054906101000a900460ff1615151461091b576040517f08c379a000000000000000000000000000000000000000000000000000000000815260040161091290611fb6565b60405180910390fd5b610923610e57565b610962576040517f08c379a000000000000000000000000000000000000000000000000000000000815260040161095990611f56565b60405180910390fd5b33600073ffffffffffffffffffffffffffffffffffffffff16600960008373ffffffffffffffffffffffffffffffffffffffff1673ffffffffffffffffffffffffffffffffffffffff16815260200190815260200160002060000160009054906101000a900473ffffffffffffffffffffffffffffffffffffffff1673ffffffffffffffffffffffffffffffffffffffff1614610a34576040517f08c379a0000000000000000000000000000000000000000000000000000000008152600401610a2b90611ef6565b60405180910390fd5b6012821015610a78576040517f08c379a0000000000000000000000000000000000000000000000000000000008152600401610a6f90611e96565b60405180910390fd5b610a80611708565b60405180606001604052803373ffffffffffffffffffffffffffffffffffffffff1681526020018581526020018481525090507ff3599dbce5b2a80bc431cea101482ab4af907bb19ec70de934175954dbe473ca858585604051610ae693929190611e3d565b60405180910390a180600960003373ffffffffffffffffffffffffffffffffffffffff1673ffffffffffffffffffffffffffffffffffffffff16815260200190815260200160002060008201518160000160006101000a81548173ffffffffffffffffffffffffffffffffffffffff021916908373ffffffffffffffffffffffffffffffffffffffff1602179055506020820151816001019080519060200190610b91929190611688565b50604082015181600201559050506001600760003373ffffffffffffffffffffffffffffffffffffffff1673ffffffffffffffffffffffffffffffffffffffff16815260200190815260200160002060006101000a81548160ff021916908315150217905550600c600081548092919060010191905055505050505050565b610c18610e57565b610c57576040517f08c379a0000000000000000000000000000000000000000000000000000000008152600401610c4e90611f56565b60405180910390fd5b3373ffffffffffffffffffffffffffffffffffffffff16ff5b60018060000154908060010154908060020154908060030154908060040160009054906101000a900460ff16908060040160019054906101000a900460ff16908060040160029054906101000a900460ff16905087565b6000610cd1610e57565b610d10576040517f08c379a0000000000000000000000000000000000000000000000000000000008152600401610d0790611f56565b60405180910390fd5b600160040160009054906101000a900460ff16905090565b610d30610e57565b610d6f576040517f08c379a0000000000000000000000000000000000000000000000000000000008152600401610d6690611f56565b60405180910390fd5b600073ffffffffffffffffffffffffffffffffffffffff166000809054906101000a900473ffffffffffffffffffffffffffffffffffffffff1673ffffffffffffffffffffffffffffffffffffffff167f8be0079c531659141344cd1fd0a4f28419497f9722a3daafe3b4186f6b6457e060405160405180910390a360008060006101000a81548173ffffffffffffffffffffffffffffffffffffffff021916908373ffffffffffffffffffffffffffffffffffffffff160217905550565b60008060009054906101000a900473ffffffffffffffffffffffffffffffffffffffff16905090565b60008060009054906101000a900473ffffffffffffffffffffffffffffffffffffffff1673ffffffffffffffffffffffffffffffffffffffff16610e9961151b565b73ffffffffffffffffffffffffffffffffffffffff1614905090565b6000610ebf610e57565b610efe576040517f08c379a0000000000000000000000000000000000000000000000000000000008152600401610ef590611f56565b60405180910390fd5b600160040160029054906101000a900460ff16905090565b6000610f20610e57565b610f5f576040517f08c379a0000000000000000000000000000000000000000000000000000000008152600401610f5690611f56565b60405180910390fd5b81600160040160026101000a81548160ff02191690831515021790559050919050565b600c5481565b600b5481565b60008160011515600660008373ffffffffffffffffffffffffffffffffffffffff1673ffffffffffffffffffffffffffffffffffffffff16815260200190815260200160002060009054906101000a900460ff16151514611024576040517f08c379a000000000000000000000000000000000000000000000000000000000815260040161101b90611f16565b60405180910390fd5b600660008473ffffffffffffffffffffffffffffffffffffffff1673ffffffffffffffffffffffffffffffffffffffff16815260200190815260200160002060009054906101000a900460ff16915050919050565b6000611083610e57565b6110c2576040517f08c379a00000000000000000000000000000000000000000000000000000000081526004016110b990611f56565b60405180910390fd5b6110ca610e57565b905090565b6110d7611708565b81600073ffffffffffffffffffffffffffffffffffffffff16600960008373ffffffffffffffffffffffffffffffffffffffff1673ffffffffffffffffffffffffffffffffffffffff16815260200190815260200160002060000160009054906101000a900473ffffffffffffffffffffffffffffffffffffffff1673ffffffffffffffffffffffffffffffffffffffff1614156111aa576040517f08c379a00000000000000000000000000000000000000000000000000000000081526004016111a190611f36565b60405180910390fd5b600960008473ffffffffffffffffffffffffffffffffffffffff1673ffffffffffffffffffffffffffffffffffffffff1681526020019081526020016000206040518060600160405290816000820160009054906101000a900473ffffffffffffffffffffffffffffffffffffffff1673ffffffffffffffffffffffffffffffffffffffff1673ffffffffffffffffffffffffffffffffffffffff168152602001600182018054600181600116156101000203166002900480601f0160208091040260200160405190810160405280929190818152602001828054600181600116156101000203166002900480156112e35780601f106112b8576101008083540402835291602001916112e3565b820191906000526020600020905b8154815290600101906020018083116112c657829003601f168201915b50505050508152602001600282015481525050915050919050565b611306610e57565b611345576040517f08c379a000000000000000000000000000000000000000000000000000000000815260040161133c90611f56565b60405180910390fd5b61134e81611523565b50565b60011515600160040160019054906101000a900460ff161515146113aa576040517f08c379a00000000000000000000000000000000000000000000000000000000081526004016113a190611eb6565b60405180910390fd5b33600073ffffffffffffffffffffffffffffffffffffffff16600960008373ffffffffffffffffffffffffffffffffffffffff1673ffffffffffffffffffffffffffffffffffffffff16815260200190815260200160002060000160009054906101000a900473ffffffffffffffffffffffffffffffffffffffff1673ffffffffffffffffffffffffffffffffffffffff16141561147d576040517f08c379a000000000000000000000000000000000000000000000000000000000815260040161147490611f36565b60405180910390fd5b60088260405161148d9190611dc6565b9081526020016040518091039020600081548092919060010191905055505050565b60006114b9610e57565b6114f8576040517f08c379a00000000000000000000000000000000000000000000000000000000081526004016114ef90611f56565b60405180910390fd5b81600160040160016101000a81548160ff02191690831515021790559050919050565b600033905090565b600073ffffffffffffffffffffffffffffffffffffffff168173ffffffffffffffffffffffffffffffffffffffff161415611593576040517f08c379a000000000000000000000000000000000000000000000000000000000815260040161158a90611ed6565b60405180910390fd5b8073ffffffffffffffffffffffffffffffffffffffff166000809054906101000a900473ffffffffffffffffffffffffffffffffffffffff1673ffffffffffffffffffffffffffffffffffffffff167f8be0079c531659141344cd1fd0a4f28419497f9722a3daafe3b4186f6b6457e060405160405180910390a3806000806101000a81548173ffffffffffffffffffffffffffffffffffffffff021916908373ffffffffffffffffffffffffffffffffffffffff16021790555050565b6040518060600160405280600073ffffffffffffffffffffffffffffffffffffffff16815260200160608152602001606081525090565b828054600181600116156101000203166002900490600052602060002090601f016020900481019282601f106116c957805160ff19168380011785556116f7565b828001600101855582156116f7579182015b828111156116f65782518255916020019190600101906116db565b5b509050611704919061173f565b5090565b6040518060600160405280600073ffffffffffffffffffffffffffffffffffffffff16815260200160608152602001600081525090565b61176191905b8082111561175d576000816000905550600101611745565b5090565b90565b600081359050611773816121b9565b92915050565b600081359050611788816121d0565b92915050565b600082601f83011261179f57600080fd5b81356117b26117ad826120af565b612082565b915080825260208301602083018583830111156117ce57600080fd5b6117d9838284612166565b50505092915050565b6000813590506117f1816121e7565b92915050565b60006020828403121561180957600080fd5b600061181784828501611764565b91505092915050565b60008060006060848603121561183557600080fd5b600061184386828701611764565b935050602084013567ffffffffffffffff81111561186057600080fd5b61186c8682870161178e565b925050604084013567ffffffffffffffff81111561188957600080fd5b6118958682870161178e565b9150509250925092565b6000806000606084860312156118b457600080fd5b60006118c286828701611764565b935050602084013567ffffffffffffffff8111156118df57600080fd5b6118eb8682870161178e565b92505060406118fc868287016117e2565b9150509250925092565b60006020828403121561191857600080fd5b600061192684828501611779565b91505092915050565b60006020828403121561194157600080fd5b600082013567ffffffffffffffff81111561195b57600080fd5b6119678482850161178e565b91505092915050565b6119798161211e565b82525050565b6119888161211e565b82525050565b61199781612130565b82525050565b60006119a8826120e6565b6119b28185612102565b93506119c2818560208601612175565b6119cb816121a8565b840191505092915050565b60006119e1826120e6565b6119eb8185612113565b93506119fb818560208601612175565b80840191505092915050565b6000611a12826120db565b611a1c81856120f1565b9350611a2c818560208601612175565b611a35816121a8565b840191505092915050565b6000611a4d602283612102565b91507f566f74657273206d757374206265206f76657220313820746f2072656769737460008301527f65720000000000000000000000000000000000000000000000000000000000006020830152604082019050919050565b6000611ab3601783612102565b91507f566f74696e6720706572696f6420697320636c6f7365640000000000000000006000830152602082019050919050565b6000611af3602683612102565b91507f4f776e61626c653a206e6577206f776e657220697320746865207a65726f206160008301527f64647265737300000000000000000000000000000000000000000000000000006020830152604082019050919050565b6000611b59602683612102565b91507f566f7465722063616e20616c72656164792072656769737465726564206f6e6c60008301527f79206f6e636500000000000000000000000000000000000000000000000000006020830152604082019050919050565b6000611bbf601483612102565b91507f43616e64696461746520697320696e76616c69640000000000000000000000006000830152602082019050919050565b6000611bff602183612102565b91507f566f746572206973206e6f742072656769737465726564206f6e6c79206f6e6360008301527f65000000000000000000000000000000000000000000000000000000000000006020830152604082019050919050565b6000611c65602083612102565b91507f4f776e61626c653a2063616c6c6572206973206e6f7420746865206f776e65726000830152602082019050919050565b6000611ca5601d83612102565b91507f526567697374726174696f6e20706572696f6420697320636c6f7365640000006000830152602082019050919050565b6000611ce5601283612102565b91507f43616e6469646174652069732076616c696400000000000000000000000000006000830152602082019050919050565b6000611d25601983612102565b91507f456c656374696f6e20706572696f6420697320636c6f736564000000000000006000830152602082019050919050565b6000606083016000830151611d706000860182611970565b5060208301518482036020860152611d888282611a07565b9150506040830151611d9d6040860182611da8565b508091505092915050565b611db18161215c565b82525050565b611dc08161215c565b82525050565b6000611dd282846119d6565b915081905092915050565b6000602082019050611df2600083018461197f565b92915050565b6000606082019050611e0d600083018661197f565b8181036020830152611e1f818561199d565b90508181036040830152611e33818461199d565b9050949350505050565b6000606082019050611e52600083018661197f565b8181036020830152611e64818561199d565b9050611e736040830184611db7565b949350505050565b6000602082019050611e90600083018461198e565b92915050565b60006020820190508181036000830152611eaf81611a40565b9050919050565b60006020820190508181036000830152611ecf81611aa6565b9050919050565b60006020820190508181036000830152611eef81611ae6565b9050919050565b60006020820190508181036000830152611f0f81611b4c565b9050919050565b60006020820190508181036000830152611f2f81611bb2565b9050919050565b60006020820190508181036000830152611f4f81611bf2565b9050919050565b60006020820190508181036000830152611f6f81611c58565b9050919050565b60006020820190508181036000830152611f8f81611c98565b9050919050565b60006020820190508181036000830152611faf81611cd8565b9050919050565b60006020820190508181036000830152611fcf81611d18565b9050919050565b60006020820190508181036000830152611ff08184611d58565b905092915050565b600060208201905061200d6000830184611db7565b92915050565b600060e082019050612028600083018a611db7565b6120356020830189611db7565b6120426040830188611db7565b61204f6060830187611db7565b61205c608083018661198e565b61206960a083018561198e565b61207660c083018461198e565b98975050505050505050565b6000604051905081810181811067ffffffffffffffff821117156120a557600080fd5b8060405250919050565b600067ffffffffffffffff8211156120c657600080fd5b601f19601f8301169050602081019050919050565b600081519050919050565b600081519050919050565b600082825260208201905092915050565b600082825260208201905092915050565b600081905092915050565b60006121298261213c565b9050919050565b60008115159050919050565b600073ffffffffffffffffffffffffffffffffffffffff82169050919050565b6000819050919050565b82818337600083830152505050565b60005b83811015612193578082015181840152602081019050612178565b838111156121a2576000848401525b50505050565b6000601f19601f8301169050919050565b6121c28161211e565b81146121cd57600080fd5b50565b6121d981612130565b81146121e457600080fd5b50565b6121f08161215c565b81146121fb57600080fd5b5056fea365627a7a723158208475cb73b9e2ec10f7dfc4848705a46416a600a4d947b4959d5224cde125b16b6c6578706572696d656e74616cf564736f6c634300050d0040",
  "source": "pragma solidity ^0.5.8;\npragma experimental ABIEncoderV2;\n\nimport \"../node_modules/openzeppelin-solidity/contracts/math/SafeMath.sol\";\nimport \"../node_modules/openzeppelin-solidity/contracts/ownership/Ownable.sol\";\n//import \"https://github.com/OpenZeppelin/openzeppelin-solidity/contracts/ownership/Ownable.sol\";\n\ncontract ElectionContract is Ownable {\n\n    using SafeMath for uint256;\n\n\n    struct Candidate {\n        address _address;\n        string name;\n        string party;\n    }\n\n    struct Voter {\n        address _address;\n        string name;\n        uint age;\n\n    }\n\n  struct Election {\n        uint256 electionTimeStamp;\n        uint256 registrationPeriod;\n        uint256 votingPeriod;\n        uint256 endTime;\n        bool openRegistrationPeriod;\n        bool openVotingPeriod;\n        bool openElectionPeriod;\n    }\n\n    Election public election;\n\n    enum parties  {Conservative, Labour, LibDem, Green, Brexit }\n\n    mapping(address => bool) isCandidateValid;\n    mapping(address => bool) isVoterValid;\n    mapping(string => uint256) partyCount;\n\n    mapping(address => Voter) voters;\n    mapping(address => Candidate) candidates;\n\n\n    uint public numberOfCandidates;\n    uint public numberOfVoters;\n\n\n    constructor() public {\n      election = Election(now, 1 days, 2 days, 2 days, true, false, false);\n    }\n\n    // events\n\n    event LogNewCandidate(address _address, string _name, string _party);\n    event LogNewVoter(address _address, string _name, uint _age);\n\n\n\n\n\n\n    // modifiers\n\n    modifier registrationPeriodIsOpen()  {\n        require(election.openRegistrationPeriod == true, \"Registration period is closed\");\n    _;\n    }\n\n    modifier votingPeriodIsOpen() {\n      require(election.openVotingPeriod == true, \"Voting period is closed\");\n      _;\n    }\n\n    modifier electionPeriodIsOpen() {\n      require(election.openElectionPeriod == true, \"Election period is closed\");\n      _;\n    }\n\n    modifier registeredCandidate(address _address) {\n      require(isCandidateValid[_address] == true, \"Candidate is invalid\");\n      _;\n    }\n\n    modifier unregisteredCandidate(address _address) {\n        require(isCandidateValid[_address] != true, \"Candidate is valid\");\n        _;\n    }\n\n    modifier unregisteredVoter(address _address) {\n        require(voters[_address]._address == address(0), \"Voter can already registered only once\");\n        _;\n    }\n\n    modifier registeredVoter(address _address) {\n        require(voters[_address]._address != address(0), \"Voter is not registered only once\");\n        _;\n    }\n\n    modifier validVote(string memory _party) {\n      //require(_party == parties[0], \"Vote must be from valid party\");\n      _;\n    }\n\n\n    //  Registration Functions\n\n    function _registerCandidate(address _address, string memory _name, string memory _party) public\n      registrationPeriodIsOpen\n      electionPeriodIsOpen\n      unregisteredCandidate(_address)\n      onlyOwner {\n\n        Candidate memory candidate = Candidate({\n           _address:_address,\n           name: _name,\n           party:_party\n        });\n        emit LogNewCandidate(_address, _name, _party);\n        candidates[_address] = candidate;\n        isCandidateValid[_address] = true;\n        numberOfCandidates++;\n    }\n\n    function _registerVoter(address _address, string memory _name, uint _age) public\n      votingPeriodIsOpen\n      electionPeriodIsOpen\n      onlyOwner\n      unregisteredVoter(msg.sender) {\n\n        require(_age >= 18, \"Voters must be over 18 to register\");\n        Voter memory newVoter = Voter({\n            _address: msg.sender,\n            name: _name,\n            age:_age\n        });\n        emit LogNewVoter(_address, _name, _age);\n        voters[msg.sender] = newVoter;\n        isVoterValid[msg.sender] = true;\n        numberOfVoters++;\n    }\n\n    // Vote Functions\n\n    function vote(string memory _party) public\n      votingPeriodIsOpen\n      //validVote(_party)\n      registeredVoter(msg.sender) {\n        partyCount[_party]++;\n      }\n\n    // Candidate Functions\n\n    function getCandidate(address _address) public view registeredCandidate(_address) returns(bool) {\n        return(isCandidateValid[_address]);\n    }\n\n    // voting Functions\n\n    function getVoter(address _address) public view registeredVoter(_address) returns(Voter memory){\n        return(voters[_address]);\n    }\n\n    function getPartyCount(string memory _party) public view\n      onlyOwner\n      returns (uint256) {\n          return(partyCount[_party]);\n      }\n\n    // Set Election Period Functions\n\n\n    function setElectionAccess(bool _access) public onlyOwner returns (bool) {\n              return election.openElectionPeriod = _access;\n    }\n\n    function setRegistrationAccess(bool _access) public onlyOwner returns (bool) {\n            return election.openRegistrationPeriod = _access;\n    }\n\n    function setVotingAccess(bool _access) public onlyOwner returns (bool) {\n            return election.openVotingPeriod = _access;\n    }\n\n\n    // Get Election Period Functions\n\n    function getRegistrationAccess() public view onlyOwner returns (bool) {\n            return election.openRegistrationPeriod;\n    }\n\n    function getVotingAccess() public view onlyOwner returns (bool) {\n            return election.openVotingPeriod;\n    }\n\n    function getElectionAccess() public view onlyOwner returns (bool) {\n            return election.openElectionPeriod;\n    }\n\n\n\n    function kill() onlyOwner external {\n      selfdestruct(msg.sender);\n    }\n\n    // Assertion Test Functions\n\n    function contractOwner() public view onlyOwner returns(bool){\n        return isOwner();\n    }\n\n\n\n\n}\n",
  "sourcePath": "/Users/kevinkeaveney/github/VotingSystem/contracts/ElectionContract.sol",
  "compiler": {
    "name": "solc",
    "version": "0.5.13+commit.5b0b510c.Emscripten.clang"
  },
  "schemaVersion": "3.0.16",
  "updatedAt": "2019-11-14T22:37:12.580Z",
  "devdoc": {
    "methods": {
      "isOwner()": {
        "details": "Returns true if the caller is the current owner."
      },
      "owner()": {
        "details": "Returns the address of the current owner."
      },
      "renounceOwnership()": {
        "details": "Leaves the contract without owner. It will not be possible to call `onlyOwner` functions anymore. Can only be called by the current owner.     * NOTE: Renouncing ownership will leave the contract without an owner, thereby removing any functionality that is only available to the owner."
      },
      "transferOwnership(address)": {
        "details": "Transfers ownership of the contract to a new account (`newOwner`). Can only be called by the current owner."
      }
    }
  },
  "userdoc": {
    "methods": {}
  }
}