{
  "contractName": "ElectionContract",
  "abi": [
    {
      "inputs": [],
      "payable": false,
      "stateMutability": "nonpayable",
      "type": "constructor"
    },
    {
      "anonymous": false,
      "inputs": [
        {
          "indexed": false,
          "internalType": "address",
          "name": "_address",
          "type": "address"
        },
        {
          "indexed": false,
          "internalType": "string",
          "name": "_party",
          "type": "string"
        },
        {
          "indexed": false,
          "internalType": "uint256",
          "name": "_amount",
          "type": "uint256"
        }
      ],
      "name": "LogFundParty",
      "type": "event"
    },
    {
      "anonymous": false,
      "inputs": [
        {
          "indexed": false,
          "internalType": "address",
          "name": "_address",
          "type": "address"
        },
        {
          "indexed": false,
          "internalType": "string",
          "name": "_name",
          "type": "string"
        },
        {
          "indexed": false,
          "internalType": "string",
          "name": "_party",
          "type": "string"
        }
      ],
      "name": "LogNewCandidate",
      "type": "event"
    },
    {
      "anonymous": false,
      "inputs": [
        {
          "indexed": false,
          "internalType": "address",
          "name": "_address",
          "type": "address"
        },
        {
          "indexed": false,
          "internalType": "string",
          "name": "_name",
          "type": "string"
        },
        {
          "indexed": false,
          "internalType": "uint256",
          "name": "_age",
          "type": "uint256"
        }
      ],
      "name": "LogNewVoter",
      "type": "event"
    },
    {
      "anonymous": false,
      "inputs": [
        {
          "indexed": false,
          "internalType": "string",
          "name": "_name",
          "type": "string"
        }
      ],
      "name": "LogVote",
      "type": "event"
    },
    {
      "anonymous": false,
      "inputs": [
        {
          "indexed": true,
          "internalType": "address",
          "name": "previousOwner",
          "type": "address"
        },
        {
          "indexed": true,
          "internalType": "address",
          "name": "newOwner",
          "type": "address"
        }
      ],
      "name": "OwnershipTransferred",
      "type": "event"
    },
    {
      "constant": true,
      "inputs": [],
      "name": "election",
      "outputs": [
        {
          "internalType": "uint256",
          "name": "electionTimeStamp",
          "type": "uint256"
        },
        {
          "internalType": "uint256",
          "name": "registrationPeriod",
          "type": "uint256"
        },
        {
          "internalType": "uint256",
          "name": "votingPeriod",
          "type": "uint256"
        },
        {
          "internalType": "uint256",
          "name": "endTime",
          "type": "uint256"
        },
        {
          "internalType": "bool",
          "name": "openRegistrationPeriod",
          "type": "bool"
        },
        {
          "internalType": "bool",
          "name": "openVotingPeriod",
          "type": "bool"
        },
        {
          "internalType": "bool",
          "name": "openElectionPeriod",
          "type": "bool"
        }
      ],
      "payable": false,
      "stateMutability": "view",
      "type": "function"
    },
    {
      "constant": true,
      "inputs": [],
      "name": "isOwner",
      "outputs": [
        {
          "internalType": "bool",
          "name": "",
          "type": "bool"
        }
      ],
      "payable": false,
      "stateMutability": "view",
      "type": "function"
    },
    {
      "constant": true,
      "inputs": [],
      "name": "numberOfVoters",
      "outputs": [
        {
          "internalType": "uint256",
          "name": "",
          "type": "uint256"
        }
      ],
      "payable": false,
      "stateMutability": "view",
      "type": "function"
    },
    {
      "constant": true,
      "inputs": [],
      "name": "owner",
      "outputs": [
        {
          "internalType": "address",
          "name": "",
          "type": "address"
        }
      ],
      "payable": false,
      "stateMutability": "view",
      "type": "function"
    },
    {
      "constant": false,
      "inputs": [],
      "name": "renounceOwnership",
      "outputs": [],
      "payable": false,
      "stateMutability": "nonpayable",
      "type": "function"
    },
    {
      "constant": false,
      "inputs": [
        {
          "internalType": "address",
          "name": "newOwner",
          "type": "address"
        }
      ],
      "name": "transferOwnership",
      "outputs": [],
      "payable": false,
      "stateMutability": "nonpayable",
      "type": "function"
    },
    {
      "constant": false,
      "inputs": [
        {
          "internalType": "address",
          "name": "_address",
          "type": "address"
        },
        {
          "internalType": "string",
          "name": "_name",
          "type": "string"
        },
        {
          "internalType": "string",
          "name": "_party",
          "type": "string"
        }
      ],
      "name": "_registerCandidate",
      "outputs": [],
      "payable": false,
      "stateMutability": "nonpayable",
      "type": "function"
    },
    {
      "constant": false,
      "inputs": [
        {
          "internalType": "address",
          "name": "_address",
          "type": "address"
        },
        {
          "internalType": "string",
          "name": "_name",
          "type": "string"
        },
        {
          "internalType": "uint256",
          "name": "_age",
          "type": "uint256"
        }
      ],
      "name": "_registerVoter",
      "outputs": [],
      "payable": false,
      "stateMutability": "nonpayable",
      "type": "function"
    },
    {
      "constant": false,
      "inputs": [
        {
          "internalType": "string",
          "name": "_name",
          "type": "string"
        },
        {
          "components": [
            {
              "internalType": "address",
              "name": "voterAddress",
              "type": "address"
            },
            {
              "internalType": "string",
              "name": "name",
              "type": "string"
            },
            {
              "internalType": "uint256",
              "name": "age",
              "type": "uint256"
            },
            {
              "internalType": "bool",
              "name": "hasVoted",
              "type": "bool"
            }
          ],
          "internalType": "struct ElectionContract.Voter",
          "name": "_voter",
          "type": "tuple"
        }
      ],
      "name": "vote",
      "outputs": [],
      "payable": false,
      "stateMutability": "nonpayable",
      "type": "function"
    },
    {
      "constant": false,
      "inputs": [
        {
          "internalType": "address",
          "name": "_address",
          "type": "address"
        },
        {
          "internalType": "string",
          "name": "_party",
          "type": "string"
        },
        {
          "internalType": "uint256",
          "name": "_amount",
          "type": "uint256"
        }
      ],
      "name": "fundPartyCampaign",
      "outputs": [],
      "payable": true,
      "stateMutability": "payable",
      "type": "function"
    },
    {
      "constant": true,
      "inputs": [
        {
          "internalType": "address",
          "name": "_candidateAddress",
          "type": "address"
        }
      ],
      "name": "isCandidate",
      "outputs": [
        {
          "internalType": "bool",
          "name": "_isIndeed",
          "type": "bool"
        }
      ],
      "payable": false,
      "stateMutability": "view",
      "type": "function"
    },
    {
      "constant": true,
      "inputs": [],
      "name": "getNumberOfCandidates",
      "outputs": [
        {
          "internalType": "uint256",
          "name": "_amount",
          "type": "uint256"
        }
      ],
      "payable": false,
      "stateMutability": "view",
      "type": "function"
    },
    {
      "constant": true,
      "inputs": [
        {
          "internalType": "uint256",
          "name": "_index",
          "type": "uint256"
        }
      ],
      "name": "getCandidate",
      "outputs": [
        {
          "internalType": "address",
          "name": "_address",
          "type": "address"
        }
      ],
      "payable": false,
      "stateMutability": "view",
      "type": "function"
    },
    {
      "constant": true,
      "inputs": [
        {
          "internalType": "address",
          "name": "_address",
          "type": "address"
        }
      ],
      "name": "getVoter",
      "outputs": [
        {
          "components": [
            {
              "internalType": "address",
              "name": "voterAddress",
              "type": "address"
            },
            {
              "internalType": "string",
              "name": "name",
              "type": "string"
            },
            {
              "internalType": "uint256",
              "name": "age",
              "type": "uint256"
            },
            {
              "internalType": "bool",
              "name": "hasVoted",
              "type": "bool"
            }
          ],
          "internalType": "struct ElectionContract.Voter",
          "name": "",
          "type": "tuple"
        }
      ],
      "payable": false,
      "stateMutability": "view",
      "type": "function"
    },
    {
      "constant": true,
      "inputs": [
        {
          "internalType": "string",
          "name": "_name",
          "type": "string"
        }
      ],
      "name": "getPartyCount",
      "outputs": [
        {
          "internalType": "uint256",
          "name": "",
          "type": "uint256"
        }
      ],
      "payable": false,
      "stateMutability": "view",
      "type": "function"
    },
    {
      "constant": true,
      "inputs": [
        {
          "internalType": "string",
          "name": "_party",
          "type": "string"
        }
      ],
      "name": "getPartyFund",
      "outputs": [
        {
          "internalType": "uint256",
          "name": "_amount",
          "type": "uint256"
        }
      ],
      "payable": false,
      "stateMutability": "view",
      "type": "function"
    },
    {
      "constant": false,
      "inputs": [
        {
          "internalType": "bool",
          "name": "_access",
          "type": "bool"
        }
      ],
      "name": "setElectionAccess",
      "outputs": [
        {
          "internalType": "bool",
          "name": "",
          "type": "bool"
        }
      ],
      "payable": false,
      "stateMutability": "nonpayable",
      "type": "function"
    },
    {
      "constant": false,
      "inputs": [
        {
          "internalType": "bool",
          "name": "_access",
          "type": "bool"
        }
      ],
      "name": "setRegistrationAccess",
      "outputs": [
        {
          "internalType": "bool",
          "name": "",
          "type": "bool"
        }
      ],
      "payable": false,
      "stateMutability": "nonpayable",
      "type": "function"
    },
    {
      "constant": false,
      "inputs": [
        {
          "internalType": "bool",
          "name": "_access",
          "type": "bool"
        }
      ],
      "name": "setVotingAccess",
      "outputs": [
        {
          "internalType": "bool",
          "name": "",
          "type": "bool"
        }
      ],
      "payable": false,
      "stateMutability": "nonpayable",
      "type": "function"
    },
    {
      "constant": true,
      "inputs": [],
      "name": "getRegistrationAccess",
      "outputs": [
        {
          "internalType": "bool",
          "name": "",
          "type": "bool"
        }
      ],
      "payable": false,
      "stateMutability": "view",
      "type": "function"
    },
    {
      "constant": true,
      "inputs": [],
      "name": "getVotingAccess",
      "outputs": [
        {
          "internalType": "bool",
          "name": "",
          "type": "bool"
        }
      ],
      "payable": false,
      "stateMutability": "view",
      "type": "function"
    },
    {
      "constant": true,
      "inputs": [],
      "name": "getElectionAccess",
      "outputs": [
        {
          "internalType": "bool",
          "name": "",
          "type": "bool"
        }
      ],
      "payable": false,
      "stateMutability": "view",
      "type": "function"
    },
    {
      "constant": true,
      "inputs": [
        {
          "internalType": "string",
          "name": "_party",
          "type": "string"
        }
      ],
      "name": "validPartyStrings",
      "outputs": [
        {
          "internalType": "bool",
          "name": "",
          "type": "bool"
        }
      ],
      "payable": false,
      "stateMutability": "pure",
      "type": "function"
    },
    {
      "constant": false,
      "inputs": [],
      "name": "kill",
      "outputs": [],
      "payable": false,
      "stateMutability": "nonpayable",
      "type": "function"
    },
    {
      "constant": true,
      "inputs": [],
      "name": "contractOwner",
      "outputs": [
        {
          "internalType": "bool",
          "name": "",
          "type": "bool"
        }
      ],
      "payable": false,
      "stateMutability": "view",
      "type": "function"
    }
  ],
  "bytecode": "0x608060405234801561001057600080fd5b506100286101ba640100000000026401000000009004565b6000806101000a81548173ffffffffffffffffffffffffffffffffffffffff021916908373ffffffffffffffffffffffffffffffffffffffff1602179055506000809054906101000a900473ffffffffffffffffffffffffffffffffffffffff1673ffffffffffffffffffffffffffffffffffffffff16600073ffffffffffffffffffffffffffffffffffffffff167f8be0079c531659141344cd1fd0a4f28419497f9722a3daafe3b4186f6b6457e060405160405180910390a36040518060e001604052804281526020016201518081526020016202a30081526020016202a30081526020016001151581526020016000151581526020016000151581525060016000820151816000015560208201518160010155604082015181600201556060820151816003015560808201518160040160006101000a81548160ff02191690831515021790555060a08201518160040160016101000a81548160ff02191690831515021790555060c08201518160040160026101000a81548160ff0219169083151502179055509050506101c2565b600033905090565b612bda80620001d26000396000f3fe608060405260043610610183576000357c0100000000000000000000000000000000000000000000000000000000900480638da5cb5b116100ee578063d4f50f98116100a7578063dfdea59c11610081578063dfdea59c14610558578063e1408cfa14610595578063f2fde38b146105be578063fe1b76eb146105e757610183565b8063d4f50f98146104a1578063d51b9e93146104de578063d86094621461051b57610183565b80638da5cb5b1461038d5780638f32d59b146103b857806394a020a4146103e35780639bc771b41461040e5780639bcc33611461044b578063ce606ee01461047657610183565b806341c0e1b51161014057806341c0e1b5146102bc5780634b1d3ede146102d35780634de3d10b146103045780635c8bc70e1461032f578063715018a61461034b5780637a84d13e1461036257610183565b8063041a4d9414610188578063133b819c146101c55780631c18b1d71461020257806323cd35a31461022b57806335b8e820146102565780633aa7648014610293575b600080fd5b34801561019457600080fd5b506101af60048036036101aa919081019061217e565b610624565b6040516101bc919061295a565b60405180910390f35b3480156101d157600080fd5b506101ec60048036036101e79190810190612155565b6106ea565b6040516101f9919061279b565b60405180910390f35b34801561020e57600080fd5b506102296004803603610224919081019061206f565b610756565b005b34801561023757600080fd5b506102406109cc565b60405161024d919061279b565b60405180910390f35b34801561026257600080fd5b5061027d6004803603610278919081019061222b565b610a2d565b60405161028a91906126fd565b60405180910390f35b34801561029f57600080fd5b506102ba60048036036102b591908101906120ee565b610a6e565b005b3480156102c857600080fd5b506102d1610df7565b005b3480156102df57600080fd5b506102e8610e57565b6040516102fb9796959493929190612975565b60405180910390f35b34801561031057600080fd5b50610319610eae565b604051610326919061279b565b60405180910390f35b610349600480360361034491908101906120ee565b610f0f565b005b34801561035757600080fd5b5061036061112c565b005b34801561036e57600080fd5b50610377611232565b604051610384919061295a565b60405180910390f35b34801561039957600080fd5b506103a261123f565b6040516103af91906126fd565b60405180910390f35b3480156103c457600080fd5b506103cd611268565b6040516103da919061279b565b60405180910390f35b3480156103ef57600080fd5b506103f86112c6565b604051610405919061279b565b60405180910390f35b34801561041a57600080fd5b5061043560048036036104309190810190612155565b611327565b604051610442919061279b565b60405180910390f35b34801561045757600080fd5b50610460611393565b60405161046d919061295a565b60405180910390f35b34801561048257600080fd5b5061048b611399565b604051610498919061279b565b60405180910390f35b3480156104ad57600080fd5b506104c860048036036104c39190810190612046565b6113ef565b6040516104d59190612938565b60405180910390f35b3480156104ea57600080fd5b5061050560048036036105009190810190612046565b611639565b604051610512919061279b565b60405180910390f35b34801561052757600080fd5b50610542600480360361053d919081019061217e565b6116ea565b60405161054f919061279b565b60405180910390f35b34801561056457600080fd5b5061057f600480360361057a919081019061217e565b6117e5565b60405161058c919061295a565b60405180910390f35b3480156105a157600080fd5b506105bc60048036036105b791908101906121bf565b611813565b005b3480156105ca57600080fd5b506105e560048036036105e09190810190612046565b611bcf565b005b3480156105f357600080fd5b5061060e60048036036106099190810190612155565b611c22565b60405161061b919061279b565b60405180910390f35b600061062e611268565b61066d576040517f08c379a000000000000000000000000000000000000000000000000000000000815260040161066490612878565b60405180910390fd5b816001151561067b826116ea565b1515146106bd576040517f08c379a00000000000000000000000000000000000000000000000000000000081526004016106b490612858565b60405180910390fd5b60608390506007816040516106d291906126e6565b90815260200160405180910390205492505050919050565b60006106f4611268565b610733576040517f08c379a000000000000000000000000000000000000000000000000000000000815260040161072a90612878565b60405180910390fd5b81600160040160006101000a81548160ff02191690831515021790559050919050565b60011515600160040160009054906101000a900460ff161515146107af576040517f08c379a00000000000000000000000000000000000000000000000000000000081526004016107a6906128f8565b60405180910390fd5b60011515600160040160029054906101000a900460ff16151514610808576040517f08c379a00000000000000000000000000000000000000000000000000000000081526004016107ff90612918565b60405180910390fd5b610810611268565b61084f576040517f08c379a000000000000000000000000000000000000000000000000000000000815260040161084690612878565b60405180910390fd5b610857611dc4565b60405180608001604052808481526020018381526020016001600c8790806001815401808255809150509060018203906000526020600020016000909192909190916101000a81548173ffffffffffffffffffffffffffffffffffffffff021916908373ffffffffffffffffffffffffffffffffffffffff1602179055500381526020016001151581525090507fa9c9f83892c88fb8ac9d0ce80c5232d111ae45178c4621184090399b36cc7f0b84848460405161091793929190612718565b60405180910390a180600b60008673ffffffffffffffffffffffffffffffffffffffff1673ffffffffffffffffffffffffffffffffffffffff168152602001908152602001600020600082015181600001908051906020019061097b929190611dee565b506020820151816001019080519060200190610998929190611dee565b506040820151816002015560608201518160030160006101000a81548160ff02191690831515021790555090505050505050565b60006109d6611268565b610a15576040517f08c379a0000000000000000000000000000000000000000000000000000000008152600401610a0c90612878565b60405180910390fd5b600160040160019054906101000a900460ff16905090565b6000600c8281548110610a3c57fe5b9060005260206000200160009054906101000a900473ffffffffffffffffffffffffffffffffffffffff169050919050565b60011515600160040160019054906101000a900460ff16151514610ac7576040517f08c379a0000000000000000000000000000000000000000000000000000000008152600401610abe906127f8565b60405180910390fd5b60011515600160040160029054906101000a900460ff16151514610b20576040517f08c379a0000000000000000000000000000000000000000000000000000000008152600401610b1790612918565b60405180910390fd5b33600073ffffffffffffffffffffffffffffffffffffffff16600860008373ffffffffffffffffffffffffffffffffffffffff1673ffffffffffffffffffffffffffffffffffffffff16815260200190815260200160002060000160009054906101000a900473ffffffffffffffffffffffffffffffffffffffff1673ffffffffffffffffffffffffffffffffffffffff1614610bf2576040517f08c379a0000000000000000000000000000000000000000000000000000000008152600401610be9906128b8565b60405180910390fd5b6012821015610c36576040517f08c379a0000000000000000000000000000000000000000000000000000000008152600401610c2d906127d8565b60405180910390fd5b610c3e611e6e565b60405180608001604052803373ffffffffffffffffffffffffffffffffffffffff1681526020018581526020018481526020016000151581525090507ff3599dbce5b2a80bc431cea101482ab4af907bb19ec70de934175954dbe473ca858585604051610cad9392919061275d565b60405180910390a180600860003373ffffffffffffffffffffffffffffffffffffffff1673ffffffffffffffffffffffffffffffffffffffff16815260200190815260200160002060008201518160000160006101000a81548173ffffffffffffffffffffffffffffffffffffffff021916908373ffffffffffffffffffffffffffffffffffffffff1602179055506020820151816001019080519060200190610d58929190611dee565b506040820151816002015560608201518160030160006101000a81548160ff0219169083151502179055509050506001600660003373ffffffffffffffffffffffffffffffffffffffff1673ffffffffffffffffffffffffffffffffffffffff16815260200190815260200160002060006101000a81548160ff021916908315150217905550600a600081548092919060010191905055505050505050565b610dff611268565b610e3e576040517f08c379a0000000000000000000000000000000000000000000000000000000008152600401610e3590612878565b60405180910390fd5b3373ffffffffffffffffffffffffffffffffffffffff16ff5b60018060000154908060010154908060020154908060030154908060040160009054906101000a900460ff16908060040160019054906101000a900460ff16908060040160029054906101000a900460ff16905087565b6000610eb8611268565b610ef7576040517f08c379a0000000000000000000000000000000000000000000000000000000008152600401610eee90612878565b60405180910390fd5b600160040160009054906101000a900460ff16905090565b60011515600160040160009054906101000a900460ff16151514610f68576040517f08c379a0000000000000000000000000000000000000000000000000000000008152600401610f5f906128f8565b60405180910390fd5b60011515600160040160029054906101000a900460ff16151514610fc1576040517f08c379a0000000000000000000000000000000000000000000000000000000008152600401610fb890612918565b60405180910390fd5b8260011515600b60008373ffffffffffffffffffffffffffffffffffffffff1673ffffffffffffffffffffffffffffffffffffffff16815260200190815260200160002060030160009054906101000a900460ff16151514611058576040517f08c379a000000000000000000000000000000000000000000000000000000000815260040161104f90612838565b60405180910390fd5b8260011515611066826116ea565b1515146110a8576040517f08c379a000000000000000000000000000000000000000000000000000000000815260040161109f90612858565b60405180910390fd5b8260018110156110b757600080fd5b7fdfeb50c70bdb501dac52cee74161b94818cd55296d9e6aea825bf983851e96b88686866040516110ea9392919061275d565b60405180910390a160608590508460098260405161110891906126e6565b90815260200160405180910390206000828254019250508190555050505050505050565b611134611268565b611173576040517f08c379a000000000000000000000000000000000000000000000000000000000815260040161116a90612878565b60405180910390fd5b600073ffffffffffffffffffffffffffffffffffffffff166000809054906101000a900473ffffffffffffffffffffffffffffffffffffffff1673ffffffffffffffffffffffffffffffffffffffff167f8be0079c531659141344cd1fd0a4f28419497f9722a3daafe3b4186f6b6457e060405160405180910390a360008060006101000a81548173ffffffffffffffffffffffffffffffffffffffff021916908373ffffffffffffffffffffffffffffffffffffffff160217905550565b6000600c80549050905090565b60008060009054906101000a900473ffffffffffffffffffffffffffffffffffffffff16905090565b60008060009054906101000a900473ffffffffffffffffffffffffffffffffffffffff1673ffffffffffffffffffffffffffffffffffffffff166112aa611c8e565b73ffffffffffffffffffffffffffffffffffffffff1614905090565b60006112d0611268565b61130f576040517f08c379a000000000000000000000000000000000000000000000000000000000815260040161130690612878565b60405180910390fd5b600160040160029054906101000a900460ff16905090565b6000611331611268565b611370576040517f08c379a000000000000000000000000000000000000000000000000000000000815260040161136790612878565b60405180910390fd5b81600160040160026101000a81548160ff02191690831515021790559050919050565b600a5481565b60006113a3611268565b6113e2576040517f08c379a00000000000000000000000000000000000000000000000000000000081526004016113d990612878565b60405180910390fd5b6113ea611268565b905090565b6113f7611e6e565b81600073ffffffffffffffffffffffffffffffffffffffff16600860008373ffffffffffffffffffffffffffffffffffffffff1673ffffffffffffffffffffffffffffffffffffffff16815260200190815260200160002060000160009054906101000a900473ffffffffffffffffffffffffffffffffffffffff1673ffffffffffffffffffffffffffffffffffffffff1614156114ca576040517f08c379a00000000000000000000000000000000000000000000000000000000081526004016114c1906128d8565b60405180910390fd5b600860008473ffffffffffffffffffffffffffffffffffffffff1673ffffffffffffffffffffffffffffffffffffffff1681526020019081526020016000206040518060800160405290816000820160009054906101000a900473ffffffffffffffffffffffffffffffffffffffff1673ffffffffffffffffffffffffffffffffffffffff1673ffffffffffffffffffffffffffffffffffffffff168152602001600182018054600181600116156101000203166002900480601f0160208091040260200160405190810160405280929190818152602001828054600181600116156101000203166002900480156116035780601f106115d857610100808354040283529160200191611603565b820191906000526020600020905b8154815290600101906020018083116115e657829003601f168201915b50505050508152602001600282015481526020016003820160009054906101000a900460ff161515151581525050915050919050565b60008173ffffffffffffffffffffffffffffffffffffffff16600c600b60008573ffffffffffffffffffffffffffffffffffffffff1673ffffffffffffffffffffffffffffffffffffffff16815260200190815260200160002060020154815481106116a157fe5b9060005260206000200160009054906101000a900473ffffffffffffffffffffffffffffffffffffffff1673ffffffffffffffffffffffffffffffffffffffff16149050919050565b600060606040518060400160405280600381526020017f436f6e0000000000000000000000000000000000000000000000000000000000815250905060606040518060400160405280600381526020017f4c61620000000000000000000000000000000000000000000000000000000000815250905060606040518060400160405280600381526020017f4c6962000000000000000000000000000000000000000000000000000000000081525090508280519060200120858051906020012014806117c3575081805190602001208580519060200120145b806117db575080805190602001208580519060200120145b9350505050919050565b600060608290506009816040516117fc91906126e6565b908152602001604051809103902054915050919050565b60011515600160040160019054906101000a900460ff1615151461186c576040517f08c379a0000000000000000000000000000000000000000000000000000000008152600401611863906127f8565b60405180910390fd5b816001151561187a826116ea565b1515146118bc576040517f08c379a00000000000000000000000000000000000000000000000000000000081526004016118b390612858565b60405180910390fd5b33600073ffffffffffffffffffffffffffffffffffffffff16600860008373ffffffffffffffffffffffffffffffffffffffff1673ffffffffffffffffffffffffffffffffffffffff16815260200190815260200160002060000160009054906101000a900473ffffffffffffffffffffffffffffffffffffffff1673ffffffffffffffffffffffffffffffffffffffff16141561198f576040517f08c379a0000000000000000000000000000000000000000000000000000000008152600401611986906128d8565b60405180910390fd5b3360011515600660008373ffffffffffffffffffffffffffffffffffffffff1673ffffffffffffffffffffffffffffffffffffffff16815260200190815260200160002060009054906101000a900460ff16151514611a23576040517f08c379a0000000000000000000000000000000000000000000000000000000008152600401611a1a90612898565b60405180910390fd5b600184606001901515908115158152505083600860003373ffffffffffffffffffffffffffffffffffffffff1673ffffffffffffffffffffffffffffffffffffffff16815260200190815260200160002060008201518160000160006101000a81548173ffffffffffffffffffffffffffffffffffffffff021916908373ffffffffffffffffffffffffffffffffffffffff1602179055506020820151816001019080519060200190611ad7929190611dee565b506040820151816002015560608201518160030160006101000a81548160ff0219169083151502179055509050507f7c80dabf6f7887f48942410be29cbb079b2efdc2b033e4c8c15554cbf9bfa8a985604051611b3491906127b6565b60405180910390a16000600660003373ffffffffffffffffffffffffffffffffffffffff1673ffffffffffffffffffffffffffffffffffffffff16815260200190815260200160002060006101000a81548160ff0219169083151502179055506060859050600781604051611ba991906126e6565b908152602001604051809103902060008154809291906001019190505550505050505050565b611bd7611268565b611c16576040517f08c379a0000000000000000000000000000000000000000000000000000000008152600401611c0d90612878565b60405180910390fd5b611c1f81611c96565b50565b6000611c2c611268565b611c6b576040517f08c379a0000000000000000000000000000000000000000000000000000000008152600401611c6290612878565b60405180910390fd5b81600160040160016101000a81548160ff02191690831515021790559050919050565b600033905090565b600073ffffffffffffffffffffffffffffffffffffffff168173ffffffffffffffffffffffffffffffffffffffff161415611d06576040517f08c379a0000000000000000000000000000000000000000000000000000000008152600401611cfd90612818565b60405180910390fd5b8073ffffffffffffffffffffffffffffffffffffffff166000809054906101000a900473ffffffffffffffffffffffffffffffffffffffff1673ffffffffffffffffffffffffffffffffffffffff167f8be0079c531659141344cd1fd0a4f28419497f9722a3daafe3b4186f6b6457e060405160405180910390a3806000806101000a81548173ffffffffffffffffffffffffffffffffffffffff021916908373ffffffffffffffffffffffffffffffffffffffff16021790555050565b60405180608001604052806060815260200160608152602001600081526020016000151581525090565b828054600181600116156101000203166002900490600052602060002090601f016020900481019282601f10611e2f57805160ff1916838001178555611e5d565b82800160010185558215611e5d579182015b82811115611e5c578251825591602001919060010190611e41565b5b509050611e6a9190611eae565b5090565b6040518060800160405280600073ffffffffffffffffffffffffffffffffffffffff16815260200160608152602001600081526020016000151581525090565b611ed091905b80821115611ecc576000816000905550600101611eb4565b5090565b90565b600081359050611ee281612b52565b92915050565b600081359050611ef781612b69565b92915050565b600082601f830112611f0e57600080fd5b8135611f21611f1c82612a11565b6129e4565b91508082526020830160208301858383011115611f3d57600080fd5b611f48838284612aff565b50505092915050565b600082601f830112611f6257600080fd5b8135611f75611f7082612a3d565b6129e4565b91508082526020830160208301858383011115611f9157600080fd5b611f9c838284612aff565b50505092915050565b600060808284031215611fb757600080fd5b611fc160806129e4565b90506000611fd184828501611ed3565b600083015250602082013567ffffffffffffffff811115611ff157600080fd5b611ffd84828501611efd565b602083015250604061201184828501612031565b604083015250606061202584828501611ee8565b60608301525092915050565b60008135905061204081612b80565b92915050565b60006020828403121561205857600080fd5b600061206684828501611ed3565b91505092915050565b60008060006060848603121561208457600080fd5b600061209286828701611ed3565b935050602084013567ffffffffffffffff8111156120af57600080fd5b6120bb86828701611f51565b925050604084013567ffffffffffffffff8111156120d857600080fd5b6120e486828701611f51565b9150509250925092565b60008060006060848603121561210357600080fd5b600061211186828701611ed3565b935050602084013567ffffffffffffffff81111561212e57600080fd5b61213a86828701611f51565b925050604061214b86828701612031565b9150509250925092565b60006020828403121561216757600080fd5b600061217584828501611ee8565b91505092915050565b60006020828403121561219057600080fd5b600082013567ffffffffffffffff8111156121aa57600080fd5b6121b684828501611f51565b91505092915050565b600080604083850312156121d257600080fd5b600083013567ffffffffffffffff8111156121ec57600080fd5b6121f885828601611f51565b925050602083013567ffffffffffffffff81111561221557600080fd5b61222185828601611fa5565b9150509250929050565b60006020828403121561223d57600080fd5b600061224b84828501612031565b91505092915050565b61225d81612ab7565b82525050565b61226c81612ab7565b82525050565b61227b81612ac9565b82525050565b61228a81612ac9565b82525050565b600061229b82612a69565b6122a58185612a8a565b93506122b5818560208601612b0e565b80840191505092915050565b60006122cc82612a7f565b6122d68185612aa6565b93506122e6818560208601612b0e565b6122ef81612b41565b840191505092915050565b600061230582612a74565b61230f8185612a95565b935061231f818560208601612b0e565b61232881612b41565b840191505092915050565b6000612340602283612aa6565b91507f566f74657273206d757374206265206f76657220313820746f2072656769737460008301527f65720000000000000000000000000000000000000000000000000000000000006020830152604082019050919050565b60006123a6601783612aa6565b91507f566f74696e6720706572696f6420697320636c6f7365640000000000000000006000830152602082019050919050565b60006123e6602683612aa6565b91507f4f776e61626c653a206e6577206f776e657220697320746865207a65726f206160008301527f64647265737300000000000000000000000000000000000000000000000000006020830152604082019050919050565b600061244c601b83612aa6565b91507f43616e646964617465206973206e6f74207265676973746572656400000000006000830152602082019050919050565b600061248c601283612aa6565b91507f496e76616c6964205061727479206e616d6500000000000000000000000000006000830152602082019050919050565b60006124cc602083612aa6565b91507f4f776e61626c653a2063616c6c6572206973206e6f7420746865206f776e65726000830152602082019050919050565b600061250c603283612aa6565b91507f566f7465722069732065697468657220756e726567697374657265642c206f7260008301527f2068617320616c726561647920766f74656400000000000000000000000000006020830152604082019050919050565b6000612572601b83612aa6565b91507f566f74657220697320616c7265616479207265676973746572656400000000006000830152602082019050919050565b60006125b2601783612aa6565b91507f566f746572206973206e6f7420726567697374657265640000000000000000006000830152602082019050919050565b60006125f2601d83612aa6565b91507f526567697374726174696f6e20706572696f6420697320636c6f7365640000006000830152602082019050919050565b6000612632601983612aa6565b91507f456c656374696f6e20706572696f6420697320636c6f736564000000000000006000830152602082019050919050565b600060808301600083015161267d6000860182612254565b506020830151848203602086015261269582826122fa565b91505060408301516126aa60408601826126c8565b5060608301516126bd6060860182612272565b508091505092915050565b6126d181612af5565b82525050565b6126e081612af5565b82525050565b60006126f28284612290565b915081905092915050565b60006020820190506127126000830184612263565b92915050565b600060608201905061272d6000830186612263565b818103602083015261273f81856122c1565b9050818103604083015261275381846122c1565b9050949350505050565b60006060820190506127726000830186612263565b818103602083015261278481856122c1565b905061279360408301846126d7565b949350505050565b60006020820190506127b06000830184612281565b92915050565b600060208201905081810360008301526127d081846122c1565b905092915050565b600060208201905081810360008301526127f181612333565b9050919050565b6000602082019050818103600083015261281181612399565b9050919050565b60006020820190508181036000830152612831816123d9565b9050919050565b600060208201905081810360008301526128518161243f565b9050919050565b600060208201905081810360008301526128718161247f565b9050919050565b60006020820190508181036000830152612891816124bf565b9050919050565b600060208201905081810360008301526128b1816124ff565b9050919050565b600060208201905081810360008301526128d181612565565b9050919050565b600060208201905081810360008301526128f1816125a5565b9050919050565b60006020820190508181036000830152612911816125e5565b9050919050565b6000602082019050818103600083015261293181612625565b9050919050565b600060208201905081810360008301526129528184612665565b905092915050565b600060208201905061296f60008301846126d7565b92915050565b600060e08201905061298a600083018a6126d7565b61299760208301896126d7565b6129a460408301886126d7565b6129b160608301876126d7565b6129be6080830186612281565b6129cb60a0830185612281565b6129d860c0830184612281565b98975050505050505050565b6000604051905081810181811067ffffffffffffffff82111715612a0757600080fd5b8060405250919050565b600067ffffffffffffffff821115612a2857600080fd5b601f19601f8301169050602081019050919050565b600067ffffffffffffffff821115612a5457600080fd5b601f19601f8301169050602081019050919050565b600081519050919050565b600081519050919050565b600081519050919050565b600081905092915050565b600082825260208201905092915050565b600082825260208201905092915050565b6000612ac282612ad5565b9050919050565b60008115159050919050565b600073ffffffffffffffffffffffffffffffffffffffff82169050919050565b6000819050919050565b82818337600083830152505050565b60005b83811015612b2c578082015181840152602081019050612b11565b83811115612b3b576000848401525b50505050565b6000601f19601f8301169050919050565b612b5b81612ab7565b8114612b6657600080fd5b50565b612b7281612ac9565b8114612b7d57600080fd5b50565b612b8981612af5565b8114612b9457600080fd5b5056fea365627a7a72315820e1a1c642e0e1cdabbfd93f1256f73ddd83a37cb67a21b30fb9553cdcc6f757786c6578706572696d656e74616cf564736f6c63430005100040",
  "source": "pragma solidity ^0.5.8;\npragma experimental ABIEncoderV2;\n\nimport \"../node_modules/openzeppelin-solidity/contracts/math/SafeMath.sol\";\nimport \"../node_modules/openzeppelin-solidity/contracts/ownership/Ownable.sol\";\n//import \"https://github.com/OpenZeppelin/openzeppelin-solidity/contracts/ownership/Ownable.sol\";\n\ncontract ElectionContract is Ownable {\n\n    using SafeMath for uint256;\n\n\n    struct candidateStruct {\n        //address candidateAddress;\n        string name;\n        string party;\n        uint index;\n        bool isCandidate;\n    }\n\n    struct Voter {\n        address voterAddress;\n        string name;\n        uint age;\n        bool hasVoted;\n\n    }\n\n  struct Election {\n        uint256 electionTimeStamp;\n        uint256 registrationPeriod;\n        uint256 votingPeriod;\n        uint256 endTime;\n        bool openRegistrationPeriod;\n        bool openVotingPeriod;\n        bool openElectionPeriod;\n    }\n\n    Election public election;\n\n\n    mapping(address => bool) isVoterValid;\n    mapping(bytes => uint) votesReceived;\n    mapping(address => Voter) voters;\n    mapping(bytes => uint256) fundedParties;\n\n    uint public numberOfVoters;\n\n    mapping(address => candidateStruct) private candidates;\n    address[] private candidateIndex;\n\n    constructor() public {\n      election = Election(now, 1 days, 2 days, 2 days, true, false, false);\n    }\n\n    // events\n    event LogNewCandidate(address _address, string _name, string _party);\n    event LogNewVoter(address _address, string _name, uint _age);\n    event LogVote(string _name);\n    event LogFundParty(address _address, string _party, uint256 _amount);\n\n\n    // modifiers\n    modifier registrationPeriodIsOpen()  {\n        require(election.openRegistrationPeriod == true, \"Registration period is closed\");\n    _;\n    }\n\n    modifier votingPeriodIsOpen() {\n      require(election.openVotingPeriod == true, \"Voting period is closed\");\n      _;\n    }\n\n    modifier electionPeriodIsOpen() {\n      require(election.openElectionPeriod == true, \"Election period is closed\");\n      _;\n    }\n\n    modifier registeredCandidate(address _address) {\n        //require(candidateIndex[candidates[_address].isCandidate] == true, \"Candidate is not registered\");\n        require(candidates[_address].isCandidate == true, \"Candidate is not registered\");\n        _;\n    }\n\n    modifier unregisteredCandidate(address _address) {\n        require(candidates[_address].isCandidate == false,  \"Candidate is already registered\");\n\n        _;\n  }\n\n    modifier unregisteredVoter(address _address) {\n        require(voters[_address].voterAddress == address(0), \"Voter is already registered\");\n        _;\n    }\n\n    modifier registeredVoter(address _address) {\n        require(voters[_address].voterAddress != address(0), \"Voter is not registered\");\n        _;\n    }\n\n    modifier validParty(string memory _name){\n        require(validPartyStrings(_name) == true, \"Invalid Party name\");\n        _;\n    }\n\n    modifier validVoter(address _address) {\n      require(isVoterValid[_address] == true, \"Voter is either unregistered, or has already voted\");\n      _;\n    }\n\n    modifier minimumFund(uint256 _amount) {\n        require (_amount >= 1);\n        _;\n    }\n\n    //  Registration Functions\n    function _registerCandidate(address _address, string memory _name, string memory _party) public\n      registrationPeriodIsOpen\n      electionPeriodIsOpen\n      //unregisteredCandidate(_address)\n      onlyOwner\n      {\n      //if(isCandidate(_address)) revert();\n        candidateStruct memory candidate = candidateStruct({\n           //candidateAddress:_address,\n           name: _name,\n           party:_party,\n           index: candidateIndex.push(_address) - 1,\n           isCandidate: true\n        });\n        emit LogNewCandidate(_address, _name, _party);\n        candidates[_address] = candidate;\n    }\n\n    function _registerVoter(address _address, string memory _name, uint _age) public\n      votingPeriodIsOpen\n      electionPeriodIsOpen\n      unregisteredVoter(msg.sender) {\n        require(_age >= 18, \"Voters must be over 18 to register\");\n        Voter memory newVoter = Voter({\n            voterAddress: msg.sender,\n            name: _name,\n            age:_age,\n            hasVoted:false\n        });\n        emit LogNewVoter(_address, _name, _age);\n        voters[msg.sender] = newVoter;\n        isVoterValid[msg.sender] = true;\n        numberOfVoters++;\n    }\n\n    // Vote Functions\n\n    function vote(string memory _name, Voter memory _voter) public\n    votingPeriodIsOpen\n    validParty(_name)\n    registeredVoter(msg.sender)\n    validVoter(msg.sender)\n    {\n      _voter.hasVoted = true;\n      voters[msg.sender] = _voter;\n      emit LogVote(_name);\n      isVoterValid[msg.sender] = false;\n      bytes memory name = bytes(_name);\n      votesReceived[name]++;\n    }\n\n    // Party Functions\n    function fundPartyCampaign(address _address, string memory _party, uint _amount) public payable\n          registrationPeriodIsOpen\n          electionPeriodIsOpen\n          registeredCandidate(_address)\n          validParty(_party)\n          minimumFund(_amount)\n        {\n            emit LogFundParty(_address, _party, _amount);\n            bytes memory party = bytes(_party);\n            fundedParties[party] += _amount;\n        }\n\n    // Return functions\n    function isCandidate(address _candidateAddress) public view returns (bool _isIndeed) {\n      //if(candidateIndex.length == 0) return false;\n      return (candidateIndex[candidates[_candidateAddress].index] == _candidateAddress);\n    }\n\n    function getNumberOfCandidates() public view returns (uint _amount) {\n      return candidateIndex.length;\n    }\n\n    function getCandidate(uint _index) public view returns(address _address) {\n        return(candidateIndex[_index]);\n    }\n\n    function getVoter(address _address) public view registeredVoter(_address) returns(Voter memory){\n        return(voters[_address]);\n    }\n\n    function getPartyCount(string memory _name) public view\n      onlyOwner\n      validParty( _name)\n      returns (uint) {\n        bytes memory name = bytes(_name);\n        return votesReceived[name];\n    }\n\n    function getPartyFund(string memory _party) public view returns (uint256 _amount) {\n        bytes memory party = bytes(_party);\n        return fundedParties[party];\n    }\n\n    // Set Election Period Functions\n    function setElectionAccess(bool _access) public onlyOwner returns (bool) {\n              return election.openElectionPeriod = _access;\n    }\n\n    function setRegistrationAccess(bool _access) public onlyOwner returns (bool) {\n            return election.openRegistrationPeriod = _access;\n    }\n\n    function setVotingAccess(bool _access) public onlyOwner returns (bool) {\n            return election.openVotingPeriod = _access;\n    }\n\n\n    // Get Election Period Functions\n\n    function getRegistrationAccess() public view onlyOwner returns (bool) {\n            return election.openRegistrationPeriod;\n    }\n\n    function getVotingAccess() public view onlyOwner returns (bool) {\n            return election.openVotingPeriod;\n    }\n\n    function getElectionAccess() public view onlyOwner returns (bool) {\n            return election.openElectionPeriod;\n    }\n\n    // Helper Functions\n    function validPartyStrings(string memory _party) public pure returns (bool) {\n\n        bytes memory con = \"Con\";\n        bytes memory lab = \"Lab\";\n        bytes memory lib = \"Lib\";\n\n        return keccak256(bytes(_party)) == keccak256(bytes(con))  ||\n               keccak256(bytes(_party)) == keccak256(bytes(lab))  ||\n               keccak256(bytes(_party)) == keccak256(bytes(lib));\n    }\n\n    function kill() onlyOwner external {\n      selfdestruct(msg.sender);\n    }\n\n    // Assertion Test Functions\n    function contractOwner() public view onlyOwner returns(bool){\n        return isOwner();\n    }\n}\n",
  "sourcePath": "/Users/kevinkeaveney/github/VotingSystem/contracts/ElectionContract.sol",
  "compiler": {
    "name": "solc",
    "version": "0.5.16+commit.9c3226ce.Emscripten.clang"
  },
  "schemaVersion": "3.0.2",
  "updatedAt": "2020-01-03T17:23:37.501Z",
  "devdoc": {
    "methods": {
      "isOwner()": {
        "details": "Returns true if the caller is the current owner."
      },
      "owner()": {
        "details": "Returns the address of the current owner."
      },
      "renounceOwnership()": {
        "details": "Leaves the contract without owner. It will not be possible to call `onlyOwner` functions anymore. Can only be called by the current owner.     * NOTE: Renouncing ownership will leave the contract without an owner, thereby removing any functionality that is only available to the owner."
      },
      "transferOwnership(address)": {
        "details": "Transfers ownership of the contract to a new account (`newOwner`). Can only be called by the current owner."
      }
    }
  },
  "userdoc": {
    "methods": {}
  }
}