{
  "contractName": "ElectionContract",
  "abi": [
    {
      "inputs": [],
      "payable": false,
      "stateMutability": "nonpayable",
      "type": "constructor"
    },
    {
      "anonymous": false,
      "inputs": [
        {
          "indexed": false,
          "internalType": "address",
          "name": "_address",
          "type": "address"
        },
        {
          "indexed": false,
          "internalType": "string",
          "name": "_party",
          "type": "string"
        },
        {
          "indexed": false,
          "internalType": "uint256",
          "name": "_amount",
          "type": "uint256"
        }
      ],
      "name": "LogFundParty",
      "type": "event"
    },
    {
      "anonymous": false,
      "inputs": [
        {
          "indexed": false,
          "internalType": "address",
          "name": "_address",
          "type": "address"
        },
        {
          "indexed": false,
          "internalType": "string",
          "name": "_name",
          "type": "string"
        },
        {
          "indexed": false,
          "internalType": "string",
          "name": "_party",
          "type": "string"
        }
      ],
      "name": "LogNewCandidate",
      "type": "event"
    },
    {
      "anonymous": false,
      "inputs": [
        {
          "indexed": false,
          "internalType": "address",
          "name": "_address",
          "type": "address"
        },
        {
          "indexed": false,
          "internalType": "string",
          "name": "_name",
          "type": "string"
        },
        {
          "indexed": false,
          "internalType": "uint256",
          "name": "_age",
          "type": "uint256"
        }
      ],
      "name": "LogNewVoter",
      "type": "event"
    },
    {
      "anonymous": false,
      "inputs": [
        {
          "indexed": false,
          "internalType": "string",
          "name": "_name",
          "type": "string"
        }
      ],
      "name": "LogVote",
      "type": "event"
    },
    {
      "anonymous": false,
      "inputs": [
        {
          "indexed": true,
          "internalType": "address",
          "name": "previousOwner",
          "type": "address"
        },
        {
          "indexed": true,
          "internalType": "address",
          "name": "newOwner",
          "type": "address"
        }
      ],
      "name": "OwnershipTransferred",
      "type": "event"
    },
    {
      "constant": true,
      "inputs": [],
      "name": "election",
      "outputs": [
        {
          "internalType": "uint256",
          "name": "electionTimeStamp",
          "type": "uint256"
        },
        {
          "internalType": "uint256",
          "name": "registrationPeriod",
          "type": "uint256"
        },
        {
          "internalType": "uint256",
          "name": "votingPeriod",
          "type": "uint256"
        },
        {
          "internalType": "uint256",
          "name": "endTime",
          "type": "uint256"
        },
        {
          "internalType": "bool",
          "name": "openRegistrationPeriod",
          "type": "bool"
        },
        {
          "internalType": "bool",
          "name": "openVotingPeriod",
          "type": "bool"
        },
        {
          "internalType": "bool",
          "name": "openElectionPeriod",
          "type": "bool"
        }
      ],
      "payable": false,
      "stateMutability": "view",
      "type": "function"
    },
    {
      "constant": true,
      "inputs": [],
      "name": "isOwner",
      "outputs": [
        {
          "internalType": "bool",
          "name": "",
          "type": "bool"
        }
      ],
      "payable": false,
      "stateMutability": "view",
      "type": "function"
    },
    {
      "constant": true,
      "inputs": [],
      "name": "numberOfCandidates",
      "outputs": [
        {
          "internalType": "uint256",
          "name": "",
          "type": "uint256"
        }
      ],
      "payable": false,
      "stateMutability": "view",
      "type": "function"
    },
    {
      "constant": true,
      "inputs": [],
      "name": "numberOfVoters",
      "outputs": [
        {
          "internalType": "uint256",
          "name": "",
          "type": "uint256"
        }
      ],
      "payable": false,
      "stateMutability": "view",
      "type": "function"
    },
    {
      "constant": true,
      "inputs": [],
      "name": "owner",
      "outputs": [
        {
          "internalType": "address",
          "name": "",
          "type": "address"
        }
      ],
      "payable": false,
      "stateMutability": "view",
      "type": "function"
    },
    {
      "constant": false,
      "inputs": [],
      "name": "renounceOwnership",
      "outputs": [],
      "payable": false,
      "stateMutability": "nonpayable",
      "type": "function"
    },
    {
      "constant": false,
      "inputs": [
        {
          "internalType": "address",
          "name": "newOwner",
          "type": "address"
        }
      ],
      "name": "transferOwnership",
      "outputs": [],
      "payable": false,
      "stateMutability": "nonpayable",
      "type": "function"
    },
    {
      "constant": false,
      "inputs": [
        {
          "internalType": "address",
          "name": "_address",
          "type": "address"
        },
        {
          "internalType": "string",
          "name": "_name",
          "type": "string"
        },
        {
          "internalType": "string",
          "name": "_party",
          "type": "string"
        }
      ],
      "name": "_registerCandidate",
      "outputs": [],
      "payable": false,
      "stateMutability": "nonpayable",
      "type": "function"
    },
    {
      "constant": false,
      "inputs": [
        {
          "internalType": "address",
          "name": "_address",
          "type": "address"
        },
        {
          "internalType": "string",
          "name": "_name",
          "type": "string"
        },
        {
          "internalType": "uint256",
          "name": "_age",
          "type": "uint256"
        }
      ],
      "name": "_registerVoter",
      "outputs": [],
      "payable": false,
      "stateMutability": "nonpayable",
      "type": "function"
    },
    {
      "constant": false,
      "inputs": [
        {
          "internalType": "string",
          "name": "_name",
          "type": "string"
        },
        {
          "components": [
            {
              "internalType": "address",
              "name": "_address",
              "type": "address"
            },
            {
              "internalType": "string",
              "name": "name",
              "type": "string"
            },
            {
              "internalType": "uint256",
              "name": "age",
              "type": "uint256"
            },
            {
              "internalType": "bool",
              "name": "hasVoted",
              "type": "bool"
            }
          ],
          "internalType": "struct ElectionContract.Voter",
          "name": "_voter",
          "type": "tuple"
        }
      ],
      "name": "vote",
      "outputs": [],
      "payable": false,
      "stateMutability": "nonpayable",
      "type": "function"
    },
    {
      "constant": false,
      "inputs": [
        {
          "internalType": "address",
          "name": "_address",
          "type": "address"
        },
        {
          "internalType": "string",
          "name": "_party",
          "type": "string"
        },
        {
          "internalType": "uint256",
          "name": "_amount",
          "type": "uint256"
        }
      ],
      "name": "fundPartyCampaign",
      "outputs": [],
      "payable": true,
      "stateMutability": "payable",
      "type": "function"
    },
    {
      "constant": true,
      "inputs": [
        {
          "internalType": "address",
          "name": "_address",
          "type": "address"
        }
      ],
      "name": "getCandidate",
      "outputs": [
        {
          "components": [
            {
              "internalType": "address",
              "name": "_address",
              "type": "address"
            },
            {
              "internalType": "string",
              "name": "name",
              "type": "string"
            },
            {
              "internalType": "string",
              "name": "party",
              "type": "string"
            }
          ],
          "internalType": "struct ElectionContract.Candidate",
          "name": "",
          "type": "tuple"
        }
      ],
      "payable": false,
      "stateMutability": "view",
      "type": "function"
    },
    {
      "constant": true,
      "inputs": [
        {
          "internalType": "address",
          "name": "_address",
          "type": "address"
        }
      ],
      "name": "getVoter",
      "outputs": [
        {
          "components": [
            {
              "internalType": "address",
              "name": "_address",
              "type": "address"
            },
            {
              "internalType": "string",
              "name": "name",
              "type": "string"
            },
            {
              "internalType": "uint256",
              "name": "age",
              "type": "uint256"
            },
            {
              "internalType": "bool",
              "name": "hasVoted",
              "type": "bool"
            }
          ],
          "internalType": "struct ElectionContract.Voter",
          "name": "",
          "type": "tuple"
        }
      ],
      "payable": false,
      "stateMutability": "view",
      "type": "function"
    },
    {
      "constant": true,
      "inputs": [
        {
          "internalType": "string",
          "name": "_name",
          "type": "string"
        }
      ],
      "name": "getPartyCount",
      "outputs": [
        {
          "internalType": "uint256",
          "name": "",
          "type": "uint256"
        }
      ],
      "payable": false,
      "stateMutability": "view",
      "type": "function"
    },
    {
      "constant": true,
      "inputs": [
        {
          "internalType": "string",
          "name": "_party",
          "type": "string"
        }
      ],
      "name": "getPartyFund",
      "outputs": [
        {
          "internalType": "uint256",
          "name": "_amount",
          "type": "uint256"
        }
      ],
      "payable": false,
      "stateMutability": "view",
      "type": "function"
    },
    {
      "constant": false,
      "inputs": [
        {
          "internalType": "bool",
          "name": "_access",
          "type": "bool"
        }
      ],
      "name": "setElectionAccess",
      "outputs": [
        {
          "internalType": "bool",
          "name": "",
          "type": "bool"
        }
      ],
      "payable": false,
      "stateMutability": "nonpayable",
      "type": "function"
    },
    {
      "constant": false,
      "inputs": [
        {
          "internalType": "bool",
          "name": "_access",
          "type": "bool"
        }
      ],
      "name": "setRegistrationAccess",
      "outputs": [
        {
          "internalType": "bool",
          "name": "",
          "type": "bool"
        }
      ],
      "payable": false,
      "stateMutability": "nonpayable",
      "type": "function"
    },
    {
      "constant": false,
      "inputs": [
        {
          "internalType": "bool",
          "name": "_access",
          "type": "bool"
        }
      ],
      "name": "setVotingAccess",
      "outputs": [
        {
          "internalType": "bool",
          "name": "",
          "type": "bool"
        }
      ],
      "payable": false,
      "stateMutability": "nonpayable",
      "type": "function"
    },
    {
      "constant": true,
      "inputs": [],
      "name": "getRegistrationAccess",
      "outputs": [
        {
          "internalType": "bool",
          "name": "",
          "type": "bool"
        }
      ],
      "payable": false,
      "stateMutability": "view",
      "type": "function"
    },
    {
      "constant": true,
      "inputs": [],
      "name": "getVotingAccess",
      "outputs": [
        {
          "internalType": "bool",
          "name": "",
          "type": "bool"
        }
      ],
      "payable": false,
      "stateMutability": "view",
      "type": "function"
    },
    {
      "constant": true,
      "inputs": [],
      "name": "getElectionAccess",
      "outputs": [
        {
          "internalType": "bool",
          "name": "",
          "type": "bool"
        }
      ],
      "payable": false,
      "stateMutability": "view",
      "type": "function"
    },
    {
      "constant": true,
      "inputs": [
        {
          "internalType": "string",
          "name": "_party",
          "type": "string"
        }
      ],
      "name": "validPartyStrings",
      "outputs": [
        {
          "internalType": "bool",
          "name": "",
          "type": "bool"
        }
      ],
      "payable": false,
      "stateMutability": "pure",
      "type": "function"
    },
    {
      "constant": false,
      "inputs": [],
      "name": "kill",
      "outputs": [],
      "payable": false,
      "stateMutability": "nonpayable",
      "type": "function"
    },
    {
      "constant": true,
      "inputs": [],
      "name": "contractOwner",
      "outputs": [
        {
          "internalType": "bool",
          "name": "",
          "type": "bool"
        }
      ],
      "payable": false,
      "stateMutability": "view",
      "type": "function"
    }
  ],
  "bytecode": "0x608060405234801561001057600080fd5b5061001f6101b160201b60201c565b6000806101000a81548173ffffffffffffffffffffffffffffffffffffffff021916908373ffffffffffffffffffffffffffffffffffffffff1602179055506000809054906101000a900473ffffffffffffffffffffffffffffffffffffffff1673ffffffffffffffffffffffffffffffffffffffff16600073ffffffffffffffffffffffffffffffffffffffff167f8be0079c531659141344cd1fd0a4f28419497f9722a3daafe3b4186f6b6457e060405160405180910390a36040518060e001604052804281526020016201518081526020016202a30081526020016202a30081526020016001151581526020016000151581526020016000151581525060016000820151816000015560208201518160010155604082015181600201556060820151816003015560808201518160040160006101000a81548160ff02191690831515021790555060a08201518160040160016101000a81548160ff02191690831515021790555060c08201518160040160026101000a81548160ff0219169083151502179055509050506101b9565b600033905090565b612e7180620001c96000396000f3fe60806040526004361061014b5760003560e01c806394a020a4116100b6578063d4f50f981161006f578063d4f50f9814610469578063d8609462146104a6578063dfdea59c146104e3578063e1408cfa14610520578063f2fde38b14610549578063fe1b76eb146105725761014b565b806394a020a4146103435780639bc771b41461036e5780639bcc3361146103ab5780639c84bb27146103d6578063b7adcf1d14610401578063ce606ee01461043e5761014b565b80634b1d3ede116101085780634b1d3ede1461025e5780634de3d10b1461028f5780635c8bc70e146102ba578063715018a6146102d65780638da5cb5b146102ed5780638f32d59b146103185761014b565b8063041a4d9414610150578063133b819c1461018d5780631c18b1d7146101ca57806323cd35a3146101f35780633aa764801461021e57806341c0e1b514610247575b600080fd5b34801561015c57600080fd5b5061017760048036036101729190810190612365565b6105af565b6040516101849190612bf1565b60405180910390f35b34801561019957600080fd5b506101b460048036036101af919081019061233c565b610675565b6040516101c191906129f0565b60405180910390f35b3480156101d657600080fd5b506101f160048036036101ec9190810190612256565b6106e1565b005b3480156101ff57600080fd5b50610208610a1a565b60405161021591906129f0565b60405180910390f35b34801561022a57600080fd5b50610245600480360361024091908101906122d5565b610a7b565b005b34801561025357600080fd5b5061025c610e04565b005b34801561026a57600080fd5b50610273610e64565b6040516102869796959493929190612c0c565b60405180910390f35b34801561029b57600080fd5b506102a4610ebb565b6040516102b191906129f0565b60405180910390f35b6102d460048036036102cf91908101906122d5565b610f1c565b005b3480156102e257600080fd5b506102eb611136565b005b3480156102f957600080fd5b5061030261123c565b60405161030f9190612952565b60405180910390f35b34801561032457600080fd5b5061032d611265565b60405161033a91906129f0565b60405180910390f35b34801561034f57600080fd5b506103586112c3565b60405161036591906129f0565b60405180910390f35b34801561037a57600080fd5b506103956004803603610390919081019061233c565b611324565b6040516103a291906129f0565b60405180910390f35b3480156103b757600080fd5b506103c0611390565b6040516103cd9190612bf1565b60405180910390f35b3480156103e257600080fd5b506103eb611396565b6040516103f89190612bf1565b60405180910390f35b34801561040d57600080fd5b506104286004803603610423919081019061222d565b61139c565b6040516104359190612bad565b60405180910390f35b34801561044a57600080fd5b50610453611624565b60405161046091906129f0565b60405180910390f35b34801561047557600080fd5b50610490600480360361048b919081019061222d565b61167a565b60405161049d9190612bcf565b60405180910390f35b3480156104b257600080fd5b506104cd60048036036104c89190810190612365565b6118c4565b6040516104da91906129f0565b60405180910390f35b3480156104ef57600080fd5b5061050a60048036036105059190810190612365565b6119bf565b6040516105179190612bf1565b60405180910390f35b34801561052c57600080fd5b50610547600480360361054291908101906123a6565b6119ed565b005b34801561055557600080fd5b50610570600480360361056b919081019061222d565b611da9565b005b34801561057e57600080fd5b506105996004803603610594919081019061233c565b611dfc565b6040516105a691906129f0565b60405180910390f35b60006105b9611265565b6105f8576040517f08c379a00000000000000000000000000000000000000000000000000000000081526004016105ef90612acd565b60405180910390fd5b8160011515610606826118c4565b151514610648576040517f08c379a000000000000000000000000000000000000000000000000000000000815260040161063f90612aad565b60405180910390fd5b606083905060088160405161065d919061293b565b90815260200160405180910390205492505050919050565b600061067f611265565b6106be576040517f08c379a00000000000000000000000000000000000000000000000000000000081526004016106b590612acd565b60405180910390fd5b81600160040160006101000a81548160ff02191690831515021790559050919050565b60011515600160040160009054906101000a900460ff1615151461073a576040517f08c379a000000000000000000000000000000000000000000000000000000000815260040161073190612b4d565b60405180910390fd5b60011515600160040160029054906101000a900460ff16151514610793576040517f08c379a000000000000000000000000000000000000000000000000000000000815260040161078a90612b8d565b60405180910390fd5b8260011515600660008373ffffffffffffffffffffffffffffffffffffffff1673ffffffffffffffffffffffffffffffffffffffff16815260200190815260200160002060009054906101000a900460ff1615151415610828576040517f08c379a000000000000000000000000000000000000000000000000000000000815260040161081f90612b6d565b60405180910390fd5b610830611265565b61086f576040517f08c379a000000000000000000000000000000000000000000000000000000000815260040161086690612acd565b60405180910390fd5b610877611f9e565b60405180606001604052808673ffffffffffffffffffffffffffffffffffffffff1681526020018581526020018481525090507fa9c9f83892c88fb8ac9d0ce80c5232d111ae45178c4621184090399b36cc7f0b8585856040516108dd9392919061296d565b60405180910390a180600a60008773ffffffffffffffffffffffffffffffffffffffff1673ffffffffffffffffffffffffffffffffffffffff16815260200190815260200160002060008201518160000160006101000a81548173ffffffffffffffffffffffffffffffffffffffff021916908373ffffffffffffffffffffffffffffffffffffffff1602179055506020820151816001019080519060200190610988929190611fd5565b5060408201518160020190805190602001906109a5929190611fd5565b509050506001600660008773ffffffffffffffffffffffffffffffffffffffff1673ffffffffffffffffffffffffffffffffffffffff16815260200190815260200160002060006101000a81548160ff021916908315150217905550600c600081548092919060010191905055505050505050565b6000610a24611265565b610a63576040517f08c379a0000000000000000000000000000000000000000000000000000000008152600401610a5a90612acd565b60405180910390fd5b600160040160019054906101000a900460ff16905090565b60011515600160040160019054906101000a900460ff16151514610ad4576040517f08c379a0000000000000000000000000000000000000000000000000000000008152600401610acb90612a4d565b60405180910390fd5b60011515600160040160029054906101000a900460ff16151514610b2d576040517f08c379a0000000000000000000000000000000000000000000000000000000008152600401610b2490612b8d565b60405180910390fd5b33600073ffffffffffffffffffffffffffffffffffffffff16600960008373ffffffffffffffffffffffffffffffffffffffff1673ffffffffffffffffffffffffffffffffffffffff16815260200190815260200160002060000160009054906101000a900473ffffffffffffffffffffffffffffffffffffffff1673ffffffffffffffffffffffffffffffffffffffff1614610bff576040517f08c379a0000000000000000000000000000000000000000000000000000000008152600401610bf690612b0d565b60405180910390fd5b6012821015610c43576040517f08c379a0000000000000000000000000000000000000000000000000000000008152600401610c3a90612a2d565b60405180910390fd5b610c4b612055565b60405180608001604052803373ffffffffffffffffffffffffffffffffffffffff1681526020018581526020018481526020016000151581525090507ff3599dbce5b2a80bc431cea101482ab4af907bb19ec70de934175954dbe473ca858585604051610cba939291906129b2565b60405180910390a180600960003373ffffffffffffffffffffffffffffffffffffffff1673ffffffffffffffffffffffffffffffffffffffff16815260200190815260200160002060008201518160000160006101000a81548173ffffffffffffffffffffffffffffffffffffffff021916908373ffffffffffffffffffffffffffffffffffffffff1602179055506020820151816001019080519060200190610d65929190611fd5565b506040820151816002015560608201518160030160006101000a81548160ff0219169083151502179055509050506001600760003373ffffffffffffffffffffffffffffffffffffffff1673ffffffffffffffffffffffffffffffffffffffff16815260200190815260200160002060006101000a81548160ff021916908315150217905550600d600081548092919060010191905055505050505050565b610e0c611265565b610e4b576040517f08c379a0000000000000000000000000000000000000000000000000000000008152600401610e4290612acd565b60405180910390fd5b3373ffffffffffffffffffffffffffffffffffffffff16ff5b60018060000154908060010154908060020154908060030154908060040160009054906101000a900460ff16908060040160019054906101000a900460ff16908060040160029054906101000a900460ff16905087565b6000610ec5611265565b610f04576040517f08c379a0000000000000000000000000000000000000000000000000000000008152600401610efb90612acd565b60405180910390fd5b600160040160009054906101000a900460ff16905090565b60011515600160040160009054906101000a900460ff16151514610f75576040517f08c379a0000000000000000000000000000000000000000000000000000000008152600401610f6c90612b4d565b60405180910390fd5b60011515600160040160029054906101000a900460ff16151514610fce576040517f08c379a0000000000000000000000000000000000000000000000000000000008152600401610fc590612b8d565b60405180910390fd5b8260011515600660008373ffffffffffffffffffffffffffffffffffffffff1673ffffffffffffffffffffffffffffffffffffffff16815260200190815260200160002060009054906101000a900460ff16151514611062576040517f08c379a000000000000000000000000000000000000000000000000000000000815260040161105990612a8d565b60405180910390fd5b8260011515611070826118c4565b1515146110b2576040517f08c379a00000000000000000000000000000000000000000000000000000000081526004016110a990612aad565b60405180910390fd5b8260018110156110c157600080fd5b7fdfeb50c70bdb501dac52cee74161b94818cd55296d9e6aea825bf983851e96b88686866040516110f4939291906129b2565b60405180910390a1606085905084600b82604051611112919061293b565b90815260200160405180910390206000828254019250508190555050505050505050565b61113e611265565b61117d576040517f08c379a000000000000000000000000000000000000000000000000000000000815260040161117490612acd565b60405180910390fd5b600073ffffffffffffffffffffffffffffffffffffffff166000809054906101000a900473ffffffffffffffffffffffffffffffffffffffff1673ffffffffffffffffffffffffffffffffffffffff167f8be0079c531659141344cd1fd0a4f28419497f9722a3daafe3b4186f6b6457e060405160405180910390a360008060006101000a81548173ffffffffffffffffffffffffffffffffffffffff021916908373ffffffffffffffffffffffffffffffffffffffff160217905550565b60008060009054906101000a900473ffffffffffffffffffffffffffffffffffffffff16905090565b60008060009054906101000a900473ffffffffffffffffffffffffffffffffffffffff1673ffffffffffffffffffffffffffffffffffffffff166112a7611e68565b73ffffffffffffffffffffffffffffffffffffffff1614905090565b60006112cd611265565b61130c576040517f08c379a000000000000000000000000000000000000000000000000000000000815260040161130390612acd565b60405180910390fd5b600160040160029054906101000a900460ff16905090565b600061132e611265565b61136d576040517f08c379a000000000000000000000000000000000000000000000000000000000815260040161136490612acd565b60405180910390fd5b81600160040160026101000a81548160ff02191690831515021790559050919050565b600d5481565b600c5481565b6113a4611f9e565b8160011515600660008373ffffffffffffffffffffffffffffffffffffffff1673ffffffffffffffffffffffffffffffffffffffff16815260200190815260200160002060009054906101000a900460ff16151514611438576040517f08c379a000000000000000000000000000000000000000000000000000000000815260040161142f90612a8d565b60405180910390fd5b600a60008473ffffffffffffffffffffffffffffffffffffffff1673ffffffffffffffffffffffffffffffffffffffff1681526020019081526020016000206040518060600160405290816000820160009054906101000a900473ffffffffffffffffffffffffffffffffffffffff1673ffffffffffffffffffffffffffffffffffffffff1673ffffffffffffffffffffffffffffffffffffffff168152602001600182018054600181600116156101000203166002900480601f0160208091040260200160405190810160405280929190818152602001828054600181600116156101000203166002900480156115715780601f1061154657610100808354040283529160200191611571565b820191906000526020600020905b81548152906001019060200180831161155457829003601f168201915b50505050508152602001600282018054600181600116156101000203166002900480601f0160208091040260200160405190810160405280929190818152602001828054600181600116156101000203166002900480156116135780601f106115e857610100808354040283529160200191611613565b820191906000526020600020905b8154815290600101906020018083116115f657829003601f168201915b505050505081525050915050919050565b600061162e611265565b61166d576040517f08c379a000000000000000000000000000000000000000000000000000000000815260040161166490612acd565b60405180910390fd5b611675611265565b905090565b611682612055565b81600073ffffffffffffffffffffffffffffffffffffffff16600960008373ffffffffffffffffffffffffffffffffffffffff1673ffffffffffffffffffffffffffffffffffffffff16815260200190815260200160002060000160009054906101000a900473ffffffffffffffffffffffffffffffffffffffff1673ffffffffffffffffffffffffffffffffffffffff161415611755576040517f08c379a000000000000000000000000000000000000000000000000000000000815260040161174c90612b2d565b60405180910390fd5b600960008473ffffffffffffffffffffffffffffffffffffffff1673ffffffffffffffffffffffffffffffffffffffff1681526020019081526020016000206040518060800160405290816000820160009054906101000a900473ffffffffffffffffffffffffffffffffffffffff1673ffffffffffffffffffffffffffffffffffffffff1673ffffffffffffffffffffffffffffffffffffffff168152602001600182018054600181600116156101000203166002900480601f01602080910402602001604051908101604052809291908181526020018280546001816001161561010002031660029004801561188e5780601f106118635761010080835404028352916020019161188e565b820191906000526020600020905b81548152906001019060200180831161187157829003601f168201915b50505050508152602001600282015481526020016003820160009054906101000a900460ff161515151581525050915050919050565b600060606040518060400160405280600381526020017f436f6e0000000000000000000000000000000000000000000000000000000000815250905060606040518060400160405280600381526020017f4c61620000000000000000000000000000000000000000000000000000000000815250905060606040518060400160405280600381526020017f4c69620000000000000000000000000000000000000000000000000000000000815250905082805190602001208580519060200120148061199d575081805190602001208580519060200120145b806119b5575080805190602001208580519060200120145b9350505050919050565b60006060829050600b816040516119d6919061293b565b908152602001604051809103902054915050919050565b60011515600160040160019054906101000a900460ff16151514611a46576040517f08c379a0000000000000000000000000000000000000000000000000000000008152600401611a3d90612a4d565b60405180910390fd5b8160011515611a54826118c4565b151514611a96576040517f08c379a0000000000000000000000000000000000000000000000000000000008152600401611a8d90612aad565b60405180910390fd5b33600073ffffffffffffffffffffffffffffffffffffffff16600960008373ffffffffffffffffffffffffffffffffffffffff1673ffffffffffffffffffffffffffffffffffffffff16815260200190815260200160002060000160009054906101000a900473ffffffffffffffffffffffffffffffffffffffff1673ffffffffffffffffffffffffffffffffffffffff161415611b69576040517f08c379a0000000000000000000000000000000000000000000000000000000008152600401611b6090612b2d565b60405180910390fd5b3360011515600760008373ffffffffffffffffffffffffffffffffffffffff1673ffffffffffffffffffffffffffffffffffffffff16815260200190815260200160002060009054906101000a900460ff16151514611bfd576040517f08c379a0000000000000000000000000000000000000000000000000000000008152600401611bf490612aed565b60405180910390fd5b600184606001901515908115158152505083600960003373ffffffffffffffffffffffffffffffffffffffff1673ffffffffffffffffffffffffffffffffffffffff16815260200190815260200160002060008201518160000160006101000a81548173ffffffffffffffffffffffffffffffffffffffff021916908373ffffffffffffffffffffffffffffffffffffffff1602179055506020820151816001019080519060200190611cb1929190611fd5565b506040820151816002015560608201518160030160006101000a81548160ff0219169083151502179055509050507f7c80dabf6f7887f48942410be29cbb079b2efdc2b033e4c8c15554cbf9bfa8a985604051611d0e9190612a0b565b60405180910390a16000600760003373ffffffffffffffffffffffffffffffffffffffff1673ffffffffffffffffffffffffffffffffffffffff16815260200190815260200160002060006101000a81548160ff0219169083151502179055506060859050600881604051611d83919061293b565b908152602001604051809103902060008154809291906001019190505550505050505050565b611db1611265565b611df0576040517f08c379a0000000000000000000000000000000000000000000000000000000008152600401611de790612acd565b60405180910390fd5b611df981611e70565b50565b6000611e06611265565b611e45576040517f08c379a0000000000000000000000000000000000000000000000000000000008152600401611e3c90612acd565b60405180910390fd5b81600160040160016101000a81548160ff02191690831515021790559050919050565b600033905090565b600073ffffffffffffffffffffffffffffffffffffffff168173ffffffffffffffffffffffffffffffffffffffff161415611ee0576040517f08c379a0000000000000000000000000000000000000000000000000000000008152600401611ed790612a6d565b60405180910390fd5b8073ffffffffffffffffffffffffffffffffffffffff166000809054906101000a900473ffffffffffffffffffffffffffffffffffffffff1673ffffffffffffffffffffffffffffffffffffffff167f8be0079c531659141344cd1fd0a4f28419497f9722a3daafe3b4186f6b6457e060405160405180910390a3806000806101000a81548173ffffffffffffffffffffffffffffffffffffffff021916908373ffffffffffffffffffffffffffffffffffffffff16021790555050565b6040518060600160405280600073ffffffffffffffffffffffffffffffffffffffff16815260200160608152602001606081525090565b828054600181600116156101000203166002900490600052602060002090601f016020900481019282601f1061201657805160ff1916838001178555612044565b82800160010185558215612044579182015b82811115612043578251825591602001919060010190612028565b5b5090506120519190612095565b5090565b6040518060800160405280600073ffffffffffffffffffffffffffffffffffffffff16815260200160608152602001600081526020016000151581525090565b6120b791905b808211156120b357600081600090555060010161209b565b5090565b90565b6000813590506120c981612de9565b92915050565b6000813590506120de81612e00565b92915050565b600082601f8301126120f557600080fd5b813561210861210382612ca8565b612c7b565b9150808252602083016020830185838301111561212457600080fd5b61212f838284612d96565b50505092915050565b600082601f83011261214957600080fd5b813561215c61215782612cd4565b612c7b565b9150808252602083016020830185838301111561217857600080fd5b612183838284612d96565b50505092915050565b60006080828403121561219e57600080fd5b6121a86080612c7b565b905060006121b8848285016120ba565b600083015250602082013567ffffffffffffffff8111156121d857600080fd5b6121e4848285016120e4565b60208301525060406121f884828501612218565b604083015250606061220c848285016120cf565b60608301525092915050565b60008135905061222781612e17565b92915050565b60006020828403121561223f57600080fd5b600061224d848285016120ba565b91505092915050565b60008060006060848603121561226b57600080fd5b6000612279868287016120ba565b935050602084013567ffffffffffffffff81111561229657600080fd5b6122a286828701612138565b925050604084013567ffffffffffffffff8111156122bf57600080fd5b6122cb86828701612138565b9150509250925092565b6000806000606084860312156122ea57600080fd5b60006122f8868287016120ba565b935050602084013567ffffffffffffffff81111561231557600080fd5b61232186828701612138565b925050604061233286828701612218565b9150509250925092565b60006020828403121561234e57600080fd5b600061235c848285016120cf565b91505092915050565b60006020828403121561237757600080fd5b600082013567ffffffffffffffff81111561239157600080fd5b61239d84828501612138565b91505092915050565b600080604083850312156123b957600080fd5b600083013567ffffffffffffffff8111156123d357600080fd5b6123df85828601612138565b925050602083013567ffffffffffffffff8111156123fc57600080fd5b6124088582860161218c565b9150509250929050565b61241b81612d4e565b82525050565b61242a81612d4e565b82525050565b61243981612d60565b82525050565b61244881612d60565b82525050565b600061245982612d00565b6124638185612d21565b9350612473818560208601612da5565b80840191505092915050565b600061248a82612d16565b6124948185612d3d565b93506124a4818560208601612da5565b6124ad81612dd8565b840191505092915050565b60006124c382612d0b565b6124cd8185612d2c565b93506124dd818560208601612da5565b6124e681612dd8565b840191505092915050565b60006124fe602283612d3d565b91507f566f74657273206d757374206265206f76657220313820746f2072656769737460008301527f65720000000000000000000000000000000000000000000000000000000000006020830152604082019050919050565b6000612564601783612d3d565b91507f566f74696e6720706572696f6420697320636c6f7365640000000000000000006000830152602082019050919050565b60006125a4602683612d3d565b91507f4f776e61626c653a206e6577206f776e657220697320746865207a65726f206160008301527f64647265737300000000000000000000000000000000000000000000000000006020830152604082019050919050565b600061260a601b83612d3d565b91507f43616e646964617465206973206e6f74207265676973746572656400000000006000830152602082019050919050565b600061264a601283612d3d565b91507f496e76616c6964205061727479206e616d6500000000000000000000000000006000830152602082019050919050565b600061268a602083612d3d565b91507f4f776e61626c653a2063616c6c6572206973206e6f7420746865206f776e65726000830152602082019050919050565b60006126ca603283612d3d565b91507f566f7465722069732065697468657220756e726567697374657265642c206f7260008301527f2068617320616c726561647920766f74656400000000000000000000000000006020830152604082019050919050565b6000612730601b83612d3d565b91507f566f74657220697320616c7265616479207265676973746572656400000000006000830152602082019050919050565b6000612770601783612d3d565b91507f566f746572206973206e6f7420726567697374657265640000000000000000006000830152602082019050919050565b60006127b0601d83612d3d565b91507f526567697374726174696f6e20706572696f6420697320636c6f7365640000006000830152602082019050919050565b60006127f0601283612d3d565b91507f43616e6469646174652069732076616c696400000000000000000000000000006000830152602082019050919050565b6000612830601983612d3d565b91507f456c656374696f6e20706572696f6420697320636c6f736564000000000000006000830152602082019050919050565b600060608301600083015161287b6000860182612412565b506020830151848203602086015261289382826124b8565b915050604083015184820360408601526128ad82826124b8565b9150508091505092915050565b60006080830160008301516128d26000860182612412565b50602083015184820360208601526128ea82826124b8565b91505060408301516128ff604086018261291d565b5060608301516129126060860182612430565b508091505092915050565b61292681612d8c565b82525050565b61293581612d8c565b82525050565b6000612947828461244e565b915081905092915050565b60006020820190506129676000830184612421565b92915050565b60006060820190506129826000830186612421565b8181036020830152612994818561247f565b905081810360408301526129a8818461247f565b9050949350505050565b60006060820190506129c76000830186612421565b81810360208301526129d9818561247f565b90506129e8604083018461292c565b949350505050565b6000602082019050612a05600083018461243f565b92915050565b60006020820190508181036000830152612a25818461247f565b905092915050565b60006020820190508181036000830152612a46816124f1565b9050919050565b60006020820190508181036000830152612a6681612557565b9050919050565b60006020820190508181036000830152612a8681612597565b9050919050565b60006020820190508181036000830152612aa6816125fd565b9050919050565b60006020820190508181036000830152612ac68161263d565b9050919050565b60006020820190508181036000830152612ae68161267d565b9050919050565b60006020820190508181036000830152612b06816126bd565b9050919050565b60006020820190508181036000830152612b2681612723565b9050919050565b60006020820190508181036000830152612b4681612763565b9050919050565b60006020820190508181036000830152612b66816127a3565b9050919050565b60006020820190508181036000830152612b86816127e3565b9050919050565b60006020820190508181036000830152612ba681612823565b9050919050565b60006020820190508181036000830152612bc78184612863565b905092915050565b60006020820190508181036000830152612be981846128ba565b905092915050565b6000602082019050612c06600083018461292c565b92915050565b600060e082019050612c21600083018a61292c565b612c2e602083018961292c565b612c3b604083018861292c565b612c48606083018761292c565b612c55608083018661243f565b612c6260a083018561243f565b612c6f60c083018461243f565b98975050505050505050565b6000604051905081810181811067ffffffffffffffff82111715612c9e57600080fd5b8060405250919050565b600067ffffffffffffffff821115612cbf57600080fd5b601f19601f8301169050602081019050919050565b600067ffffffffffffffff821115612ceb57600080fd5b601f19601f8301169050602081019050919050565b600081519050919050565b600081519050919050565b600081519050919050565b600081905092915050565b600082825260208201905092915050565b600082825260208201905092915050565b6000612d5982612d6c565b9050919050565b60008115159050919050565b600073ffffffffffffffffffffffffffffffffffffffff82169050919050565b6000819050919050565b82818337600083830152505050565b60005b83811015612dc3578082015181840152602081019050612da8565b83811115612dd2576000848401525b50505050565b6000601f19601f8301169050919050565b612df281612d4e565b8114612dfd57600080fd5b50565b612e0981612d60565b8114612e1457600080fd5b50565b612e2081612d8c565b8114612e2b57600080fd5b5056fea365627a7a7231582054247d19f6a83d939f769ce87e5cd8e4ffcafef97ab146ae5f6a6c57ad6cc6896c6578706572696d656e74616cf564736f6c634300050d0040",
  "source": "pragma solidity ^0.5.8;\npragma experimental ABIEncoderV2;\n\nimport \"../node_modules/openzeppelin-solidity/contracts/math/SafeMath.sol\";\nimport \"../node_modules/openzeppelin-solidity/contracts/ownership/Ownable.sol\";\n//import \"https://github.com/OpenZeppelin/openzeppelin-solidity/contracts/ownership/Ownable.sol\";\n\ncontract ElectionContract is Ownable {\n\n    using SafeMath for uint256;\n\n\n    struct Candidate {\n        address _address;\n        string name;\n        string party;\n    }\n\n    struct Voter {\n        address _address;\n        string name;\n        uint age;\n        bool hasVoted;\n\n    }\n\n  struct Election {\n        uint256 electionTimeStamp;\n        uint256 registrationPeriod;\n        uint256 votingPeriod;\n        uint256 endTime;\n        bool openRegistrationPeriod;\n        bool openVotingPeriod;\n        bool openElectionPeriod;\n    }\n\n    Election public election;\n\n    mapping(address => bool) isCandidateValid;\n    mapping(address => bool) isVoterValid;\n\n    mapping(bytes => uint) votesReceived;\n\n    mapping(address => Voter) voters;\n    mapping(address => Candidate) candidates;\n    mapping(bytes => uint256) fundedParties;\n\n\n    uint public numberOfCandidates;\n    uint public numberOfVoters;\n\n    //bytes32[] public parties;\n\n    constructor() public {\n\n\n      election = Election(now, 1 days, 2 days, 2 days, true, false, false);\n    }\n\n    // events\n\n    event LogNewCandidate(address _address, string _name, string _party);\n    event LogNewVoter(address _address, string _name, uint _age);\n    event LogVote(string _name);\n    event LogFundParty(address _address, string _party, uint256 _amount);\n\n\n    // modifiers\n\n    modifier registrationPeriodIsOpen()  {\n        require(election.openRegistrationPeriod == true, \"Registration period is closed\");\n    _;\n    }\n\n    modifier votingPeriodIsOpen() {\n      require(election.openVotingPeriod == true, \"Voting period is closed\");\n      _;\n    }\n\n    modifier electionPeriodIsOpen() {\n      require(election.openElectionPeriod == true, \"Election period is closed\");\n      _;\n    }\n\n    modifier registeredCandidate(address _address) {\n      require(isCandidateValid[_address] == true, \"Candidate is not registered\");\n      _;\n    }\n\n    modifier unregisteredCandidate(address _address) {\n        require(isCandidateValid[_address] != true, \"Candidate is valid\");\n        _;\n    }\n\n    modifier unregisteredVoter(address _address) {\n        require(voters[_address]._address == address(0), \"Voter is already registered\");\n        _;\n    }\n\n    modifier registeredVoter(address _address) {\n        require(voters[_address]._address != address(0), \"Voter is not registered\");\n        _;\n    }\n\n    modifier validParty(string memory _name){\n        require(validPartyStrings(_name) == true, \"Invalid Party name\");\n        _;\n    }\n\n    modifier validVoter(address _address) {\n      require(isVoterValid[_address] == true, \"Voter is either unregistered, or has already voted\");\n      _;\n    }\n\n    modifier minimumFund(uint256 _amount) {\n        require (_amount >= 1);\n        _;\n    }\n\n\n\n\n\n\n    //  Registration Functions\n\n    function _registerCandidate(address _address, string memory _name, string memory _party) public\n      registrationPeriodIsOpen\n      electionPeriodIsOpen\n      unregisteredCandidate(_address)\n      onlyOwner {\n\n        Candidate memory candidate = Candidate({\n           _address:_address,\n           name: _name,\n           party:_party\n        });\n        emit LogNewCandidate(_address, _name, _party);\n        candidates[_address] = candidate;\n        isCandidateValid[_address] = true;\n        numberOfCandidates++;\n    }\n\n    function _registerVoter(address _address, string memory _name, uint _age) public\n      votingPeriodIsOpen\n      electionPeriodIsOpen\n      unregisteredVoter(msg.sender) {\n\n        require(_age >= 18, \"Voters must be over 18 to register\");\n        Voter memory newVoter = Voter({\n            _address: msg.sender,\n            name: _name,\n            age:_age,\n            hasVoted:false\n        });\n        emit LogNewVoter(_address, _name, _age);\n        voters[msg.sender] = newVoter;\n        isVoterValid[msg.sender] = true;\n        numberOfVoters++;\n    }\n\n    // Vote Functions\n\n    function vote(string memory _name, Voter memory _voter) public\n    votingPeriodIsOpen\n    validParty(_name)\n    registeredVoter(msg.sender)\n    validVoter(msg.sender)\n    {\n\n      _voter.hasVoted = true;\n      voters[msg.sender] = _voter;\n      emit LogVote(_name);\n      isVoterValid[msg.sender] = false;\n      bytes memory name = bytes(_name);\n      votesReceived[name]++;\n    }\n\n\n    // Party Functions\n\n    function fundPartyCampaign(address _address, string memory _party, uint256 _amount) public payable\n        registrationPeriodIsOpen\n        electionPeriodIsOpen\n        registeredCandidate(_address)\n        validParty(_party)\n        minimumFund(_amount)\n        {\n            emit LogFundParty(_address, _party, _amount);\n            bytes memory party = bytes(_party);\n            fundedParties[party] += _amount;\n        }\n\n\n    // Return functions\n\n\n    function getCandidate(address _address) public view registeredCandidate(_address) returns(Candidate memory) {\n        return(candidates[_address]);\n    }\n\n    function getVoter(address _address) public view registeredVoter(_address) returns(Voter memory){\n        return(voters[_address]);\n    }\n\n    function getPartyCount(string memory _name) public view\n      onlyOwner\n      validParty( _name)\n      returns (uint) {\n        bytes memory name = bytes(_name);\n        return votesReceived[name];\n    }\n\n    function getPartyFund(string memory _party) public view returns (uint256 _amount) {\n        bytes memory party = bytes(_party);\n        return fundedParties[party];\n    }\n\n\n\n\n\n    // Set Election Period Functions\n\n\n    function setElectionAccess(bool _access) public onlyOwner returns (bool) {\n              return election.openElectionPeriod = _access;\n    }\n\n    function setRegistrationAccess(bool _access) public onlyOwner returns (bool) {\n            return election.openRegistrationPeriod = _access;\n    }\n\n    function setVotingAccess(bool _access) public onlyOwner returns (bool) {\n            return election.openVotingPeriod = _access;\n    }\n\n\n    // Get Election Period Functions\n\n    function getRegistrationAccess() public view onlyOwner returns (bool) {\n            return election.openRegistrationPeriod;\n    }\n\n    function getVotingAccess() public view onlyOwner returns (bool) {\n            return election.openVotingPeriod;\n    }\n\n    function getElectionAccess() public view onlyOwner returns (bool) {\n            return election.openElectionPeriod;\n    }\n\n\n\n    // Helper Functions\n\n    function validPartyStrings(string memory _party) public pure returns (bool) {\n\n        bytes memory con = \"Con\";\n        bytes memory lab = \"Lab\";\n        bytes memory lib = \"Lib\";\n\n\n        return keccak256(bytes(_party)) == keccak256(bytes(con))  ||\n               keccak256(bytes(_party)) == keccak256(bytes(lab))  ||\n               keccak256(bytes(_party)) == keccak256(bytes(lib));\n\n    }\n\n    function kill() onlyOwner external {\n      selfdestruct(msg.sender);\n    }\n\n    // Assertion Test Functions\n\n    function contractOwner() public view onlyOwner returns(bool){\n        return isOwner();\n    }\n\n\n\n\n}\n",
  "sourcePath": "/Users/kevinkeaveney/github/VotingSystem/contracts/ElectionContract.sol",
  "compiler": {
    "name": "solc",
    "version": "0.5.13+commit.5b0b510c.Emscripten.clang"
  },
  "schemaVersion": "3.0.16",
  "updatedAt": "2019-12-03T20:54:24.715Z",
  "devdoc": {
    "methods": {
      "isOwner()": {
        "details": "Returns true if the caller is the current owner."
      },
      "owner()": {
        "details": "Returns the address of the current owner."
      },
      "renounceOwnership()": {
        "details": "Leaves the contract without owner. It will not be possible to call `onlyOwner` functions anymore. Can only be called by the current owner.     * NOTE: Renouncing ownership will leave the contract without an owner, thereby removing any functionality that is only available to the owner."
      },
      "transferOwnership(address)": {
        "details": "Transfers ownership of the contract to a new account (`newOwner`). Can only be called by the current owner."
      }
    }
  },
  "userdoc": {
    "methods": {}
  }
}