{
  "contractName": "ElectionContract",
  "abi": [
    {
      "inputs": [],
      "payable": false,
      "stateMutability": "nonpayable",
      "type": "constructor"
    },
    {
      "anonymous": false,
      "inputs": [
        {
          "indexed": false,
          "internalType": "address",
          "name": "_address",
          "type": "address"
        },
        {
          "indexed": false,
          "internalType": "string",
          "name": "_name",
          "type": "string"
        },
        {
          "indexed": false,
          "internalType": "string",
          "name": "_party",
          "type": "string"
        }
      ],
      "name": "LogNewCandidate",
      "type": "event"
    },
    {
      "anonymous": false,
      "inputs": [
        {
          "indexed": false,
          "internalType": "address",
          "name": "_address",
          "type": "address"
        },
        {
          "indexed": false,
          "internalType": "string",
          "name": "_name",
          "type": "string"
        },
        {
          "indexed": false,
          "internalType": "uint256",
          "name": "_age",
          "type": "uint256"
        }
      ],
      "name": "LogNewVoter",
      "type": "event"
    },
    {
      "anonymous": false,
      "inputs": [
        {
          "indexed": false,
          "internalType": "string",
          "name": "_name",
          "type": "string"
        }
      ],
      "name": "LogVote",
      "type": "event"
    },
    {
      "anonymous": false,
      "inputs": [
        {
          "indexed": true,
          "internalType": "address",
          "name": "previousOwner",
          "type": "address"
        },
        {
          "indexed": true,
          "internalType": "address",
          "name": "newOwner",
          "type": "address"
        }
      ],
      "name": "OwnershipTransferred",
      "type": "event"
    },
    {
      "constant": true,
      "inputs": [],
      "name": "election",
      "outputs": [
        {
          "internalType": "uint256",
          "name": "electionTimeStamp",
          "type": "uint256"
        },
        {
          "internalType": "uint256",
          "name": "registrationPeriod",
          "type": "uint256"
        },
        {
          "internalType": "uint256",
          "name": "votingPeriod",
          "type": "uint256"
        },
        {
          "internalType": "uint256",
          "name": "endTime",
          "type": "uint256"
        },
        {
          "internalType": "bool",
          "name": "openRegistrationPeriod",
          "type": "bool"
        },
        {
          "internalType": "bool",
          "name": "openVotingPeriod",
          "type": "bool"
        },
        {
          "internalType": "bool",
          "name": "openElectionPeriod",
          "type": "bool"
        }
      ],
      "payable": false,
      "stateMutability": "view",
      "type": "function"
    },
    {
      "constant": true,
      "inputs": [],
      "name": "isOwner",
      "outputs": [
        {
          "internalType": "bool",
          "name": "",
          "type": "bool"
        }
      ],
      "payable": false,
      "stateMutability": "view",
      "type": "function"
    },
    {
      "constant": true,
      "inputs": [],
      "name": "numberOfCandidates",
      "outputs": [
        {
          "internalType": "uint256",
          "name": "",
          "type": "uint256"
        }
      ],
      "payable": false,
      "stateMutability": "view",
      "type": "function"
    },
    {
      "constant": true,
      "inputs": [],
      "name": "numberOfVoters",
      "outputs": [
        {
          "internalType": "uint256",
          "name": "",
          "type": "uint256"
        }
      ],
      "payable": false,
      "stateMutability": "view",
      "type": "function"
    },
    {
      "constant": true,
      "inputs": [],
      "name": "owner",
      "outputs": [
        {
          "internalType": "address",
          "name": "",
          "type": "address"
        }
      ],
      "payable": false,
      "stateMutability": "view",
      "type": "function"
    },
    {
      "constant": false,
      "inputs": [],
      "name": "renounceOwnership",
      "outputs": [],
      "payable": false,
      "stateMutability": "nonpayable",
      "type": "function"
    },
    {
      "constant": false,
      "inputs": [
        {
          "internalType": "address",
          "name": "newOwner",
          "type": "address"
        }
      ],
      "name": "transferOwnership",
      "outputs": [],
      "payable": false,
      "stateMutability": "nonpayable",
      "type": "function"
    },
    {
      "constant": false,
      "inputs": [
        {
          "internalType": "address",
          "name": "_address",
          "type": "address"
        },
        {
          "internalType": "string",
          "name": "_name",
          "type": "string"
        },
        {
          "internalType": "string",
          "name": "_party",
          "type": "string"
        }
      ],
      "name": "_registerCandidate",
      "outputs": [],
      "payable": false,
      "stateMutability": "nonpayable",
      "type": "function"
    },
    {
      "constant": false,
      "inputs": [
        {
          "internalType": "address",
          "name": "_address",
          "type": "address"
        },
        {
          "internalType": "string",
          "name": "_name",
          "type": "string"
        },
        {
          "internalType": "uint256",
          "name": "_age",
          "type": "uint256"
        }
      ],
      "name": "_registerVoter",
      "outputs": [],
      "payable": false,
      "stateMutability": "nonpayable",
      "type": "function"
    },
    {
      "constant": false,
      "inputs": [
        {
          "internalType": "string",
          "name": "_name",
          "type": "string"
        }
      ],
      "name": "vote",
      "outputs": [],
      "payable": false,
      "stateMutability": "nonpayable",
      "type": "function"
    },
    {
      "constant": true,
      "inputs": [
        {
          "internalType": "address",
          "name": "_address",
          "type": "address"
        }
      ],
      "name": "getVoter",
      "outputs": [
        {
          "components": [
            {
              "internalType": "address",
              "name": "_address",
              "type": "address"
            },
            {
              "internalType": "string",
              "name": "name",
              "type": "string"
            },
            {
              "internalType": "uint256",
              "name": "age",
              "type": "uint256"
            }
          ],
          "internalType": "struct ElectionContract.Voter",
          "name": "",
          "type": "tuple"
        }
      ],
      "payable": false,
      "stateMutability": "view",
      "type": "function"
    },
    {
      "constant": true,
      "inputs": [
        {
          "internalType": "address",
          "name": "_address",
          "type": "address"
        }
      ],
      "name": "getCandidate",
      "outputs": [
        {
          "internalType": "bool",
          "name": "",
          "type": "bool"
        }
      ],
      "payable": false,
      "stateMutability": "view",
      "type": "function"
    },
    {
      "constant": true,
      "inputs": [
        {
          "internalType": "string",
          "name": "_name",
          "type": "string"
        }
      ],
      "name": "getPartyCount",
      "outputs": [
        {
          "internalType": "uint256",
          "name": "",
          "type": "uint256"
        }
      ],
      "payable": false,
      "stateMutability": "view",
      "type": "function"
    },
    {
      "constant": false,
      "inputs": [
        {
          "internalType": "bool",
          "name": "_access",
          "type": "bool"
        }
      ],
      "name": "setElectionAccess",
      "outputs": [
        {
          "internalType": "bool",
          "name": "",
          "type": "bool"
        }
      ],
      "payable": false,
      "stateMutability": "nonpayable",
      "type": "function"
    },
    {
      "constant": false,
      "inputs": [
        {
          "internalType": "bool",
          "name": "_access",
          "type": "bool"
        }
      ],
      "name": "setRegistrationAccess",
      "outputs": [
        {
          "internalType": "bool",
          "name": "",
          "type": "bool"
        }
      ],
      "payable": false,
      "stateMutability": "nonpayable",
      "type": "function"
    },
    {
      "constant": false,
      "inputs": [
        {
          "internalType": "bool",
          "name": "_access",
          "type": "bool"
        }
      ],
      "name": "setVotingAccess",
      "outputs": [
        {
          "internalType": "bool",
          "name": "",
          "type": "bool"
        }
      ],
      "payable": false,
      "stateMutability": "nonpayable",
      "type": "function"
    },
    {
      "constant": true,
      "inputs": [],
      "name": "getRegistrationAccess",
      "outputs": [
        {
          "internalType": "bool",
          "name": "",
          "type": "bool"
        }
      ],
      "payable": false,
      "stateMutability": "view",
      "type": "function"
    },
    {
      "constant": true,
      "inputs": [],
      "name": "getVotingAccess",
      "outputs": [
        {
          "internalType": "bool",
          "name": "",
          "type": "bool"
        }
      ],
      "payable": false,
      "stateMutability": "view",
      "type": "function"
    },
    {
      "constant": true,
      "inputs": [],
      "name": "getElectionAccess",
      "outputs": [
        {
          "internalType": "bool",
          "name": "",
          "type": "bool"
        }
      ],
      "payable": false,
      "stateMutability": "view",
      "type": "function"
    },
    {
      "constant": true,
      "inputs": [
        {
          "internalType": "string",
          "name": "_party",
          "type": "string"
        }
      ],
      "name": "validPartyStrings",
      "outputs": [
        {
          "internalType": "bool",
          "name": "",
          "type": "bool"
        }
      ],
      "payable": false,
      "stateMutability": "pure",
      "type": "function"
    },
    {
      "constant": false,
      "inputs": [],
      "name": "kill",
      "outputs": [],
      "payable": false,
      "stateMutability": "nonpayable",
      "type": "function"
    },
    {
      "constant": true,
      "inputs": [],
      "name": "contractOwner",
      "outputs": [
        {
          "internalType": "bool",
          "name": "",
          "type": "bool"
        }
      ],
      "payable": false,
      "stateMutability": "view",
      "type": "function"
    }
  ],
  "bytecode": "0x608060405234801561001057600080fd5b506100286101ba640100000000026401000000009004565b6000806101000a81548173ffffffffffffffffffffffffffffffffffffffff021916908373ffffffffffffffffffffffffffffffffffffffff1602179055506000809054906101000a900473ffffffffffffffffffffffffffffffffffffffff1673ffffffffffffffffffffffffffffffffffffffff16600073ffffffffffffffffffffffffffffffffffffffff167f8be0079c531659141344cd1fd0a4f28419497f9722a3daafe3b4186f6b6457e060405160405180910390a36040518060e001604052804281526020016201518081526020016202a30081526020016202a30081526020016001151581526020016000151581526020016000151581525060016000820151816000015560208201518160010155604082015181600201556060820151816003015560808201518160040160006101000a81548160ff02191690831515021790555060a08201518160040160016101000a81548160ff02191690831515021790555060c08201518160040160026101000a81548160ff0219169083151502179055509050506101c2565b600033905090565b612487806101d16000396000f3fe608060405234801561001057600080fd5b506004361061015f576000357c01000000000000000000000000000000000000000000000000000000009004806394a020a4116100d5578063ce606ee011610099578063ce606ee014610366578063d4f50f9814610384578063d8609462146103b4578063f2fde38b146103e4578063fc36e15b14610400578063fe1b76eb1461041c5761015f565b806394a020a4146102ac5780639bc771b4146102ca5780639bcc3361146102fa5780639c84bb2714610318578063b7adcf1d146103365761015f565b806341c0e1b51161012757806341c0e1b51461021a5780634b1d3ede146102245780634de3d10b14610248578063715018a6146102665780638da5cb5b146102705780638f32d59b1461028e5761015f565b8063041a4d9414610164578063133b819c146101945780631c18b1d7146101c457806323cd35a3146101e05780633aa76480146101fe575b600080fd5b61017e60048036036101799190810190611b30565b61044c565b60405161018b9190612233565b60405180910390f35b6101ae60048036036101a99190810190611b07565b610512565b6040516101bb9190612096565b60405180910390f35b6101de60048036036101d99190810190611a21565b61057e565b005b6101e86108b7565b6040516101f59190612096565b60405180910390f35b61021860048036036102139190810190611aa0565b610918565b005b610222610cbf565b005b61022c610d1f565b60405161023f979695949392919061224e565b60405180910390f35b610250610d76565b60405161025d9190612096565b60405180910390f35b61026e610dd7565b005b610278610edd565b6040516102859190611ff8565b60405180910390f35b610296610f06565b6040516102a39190612096565b60405180910390f35b6102b4610f64565b6040516102c19190612096565b60405180910390f35b6102e460048036036102df9190810190611b07565b610fc5565b6040516102f19190612096565b60405180910390f35b610302611031565b60405161030f9190612233565b60405180910390f35b610320611037565b60405161032d9190612233565b60405180910390f35b610350600480360361034b91908101906119f8565b61103d565b60405161035d9190612096565b60405180910390f35b61036e611128565b60405161037b9190612096565b60405180910390f35b61039e600480360361039991908101906119f8565b61117e565b6040516103ab9190612211565b60405180910390f35b6103ce60048036036103c99190810190611b30565b6113ad565b6040516103db9190612096565b60405180910390f35b6103fe60048036036103f991908101906119f8565b6114a8565b005b61041a60048036036104159190810190611b30565b6114fb565b005b61043660048036036104319190810190611b07565b6116b0565b6040516104439190612096565b60405180910390f35b6000610456610f06565b610495576040517f08c379a000000000000000000000000000000000000000000000000000000000815260040161048c90612171565b60405180910390fd5b81600115156104a3826113ad565b1515146104e5576040517f08c379a00000000000000000000000000000000000000000000000000000000081526004016104dc90612111565b60405180910390fd5b60608390506008816040516104fa9190611fe1565b90815260200160405180910390205492505050919050565b600061051c610f06565b61055b576040517f08c379a000000000000000000000000000000000000000000000000000000000815260040161055290612171565b60405180910390fd5b81600160040160006101000a81548160ff02191690831515021790559050919050565b60011515600160040160009054906101000a900460ff161515146105d7576040517f08c379a00000000000000000000000000000000000000000000000000000000081526004016105ce906121b1565b60405180910390fd5b60011515600160040160029054906101000a900460ff16151514610630576040517f08c379a0000000000000000000000000000000000000000000000000000000008152600401610627906121f1565b60405180910390fd5b8260011515600660008373ffffffffffffffffffffffffffffffffffffffff1673ffffffffffffffffffffffffffffffffffffffff16815260200190815260200160002060009054906101000a900460ff16151514156106c5576040517f08c379a00000000000000000000000000000000000000000000000000000000081526004016106bc906121d1565b60405180910390fd5b6106cd610f06565b61070c576040517f08c379a000000000000000000000000000000000000000000000000000000000815260040161070390612171565b60405180910390fd5b610714611852565b60405180606001604052808673ffffffffffffffffffffffffffffffffffffffff1681526020018581526020018481525090507fa9c9f83892c88fb8ac9d0ce80c5232d111ae45178c4621184090399b36cc7f0b85858560405161077a93929190612013565b60405180910390a180600a60008773ffffffffffffffffffffffffffffffffffffffff1673ffffffffffffffffffffffffffffffffffffffff16815260200190815260200160002060008201518160000160006101000a81548173ffffffffffffffffffffffffffffffffffffffff021916908373ffffffffffffffffffffffffffffffffffffffff1602179055506020820151816001019080519060200190610825929190611889565b506040820151816002019080519060200190610842929190611889565b509050506001600660008773ffffffffffffffffffffffffffffffffffffffff1673ffffffffffffffffffffffffffffffffffffffff16815260200190815260200160002060006101000a81548160ff021916908315150217905550600b600081548092919060010191905055505050505050565b60006108c1610f06565b610900576040517f08c379a00000000000000000000000000000000000000000000000000000000081526004016108f790612171565b60405180910390fd5b600160040160019054906101000a900460ff16905090565b60011515600160040160019054906101000a900460ff16151514610971576040517f08c379a0000000000000000000000000000000000000000000000000000000008152600401610968906120d1565b60405180910390fd5b60011515600160040160029054906101000a900460ff161515146109ca576040517f08c379a00000000000000000000000000000000000000000000000000000000081526004016109c1906121f1565b60405180910390fd5b6109d2610f06565b610a11576040517f08c379a0000000000000000000000000000000000000000000000000000000008152600401610a0890612171565b60405180910390fd5b33600073ffffffffffffffffffffffffffffffffffffffff16600960008373ffffffffffffffffffffffffffffffffffffffff1673ffffffffffffffffffffffffffffffffffffffff16815260200190815260200160002060000160009054906101000a900473ffffffffffffffffffffffffffffffffffffffff1673ffffffffffffffffffffffffffffffffffffffff1614610ae3576040517f08c379a0000000000000000000000000000000000000000000000000000000008152600401610ada90612131565b60405180910390fd5b6012821015610b27576040517f08c379a0000000000000000000000000000000000000000000000000000000008152600401610b1e906120b1565b60405180910390fd5b610b2f611909565b60405180606001604052803373ffffffffffffffffffffffffffffffffffffffff1681526020018581526020018481525090507ff3599dbce5b2a80bc431cea101482ab4af907bb19ec70de934175954dbe473ca858585604051610b9593929190612058565b60405180910390a180600960003373ffffffffffffffffffffffffffffffffffffffff1673ffffffffffffffffffffffffffffffffffffffff16815260200190815260200160002060008201518160000160006101000a81548173ffffffffffffffffffffffffffffffffffffffff021916908373ffffffffffffffffffffffffffffffffffffffff1602179055506020820151816001019080519060200190610c40929190611889565b50604082015181600201559050506001600760003373ffffffffffffffffffffffffffffffffffffffff1673ffffffffffffffffffffffffffffffffffffffff16815260200190815260200160002060006101000a81548160ff021916908315150217905550600c600081548092919060010191905055505050505050565b610cc7610f06565b610d06576040517f08c379a0000000000000000000000000000000000000000000000000000000008152600401610cfd90612171565b60405180910390fd5b3373ffffffffffffffffffffffffffffffffffffffff16ff5b60018060000154908060010154908060020154908060030154908060040160009054906101000a900460ff16908060040160019054906101000a900460ff16908060040160029054906101000a900460ff16905087565b6000610d80610f06565b610dbf576040517f08c379a0000000000000000000000000000000000000000000000000000000008152600401610db690612171565b60405180910390fd5b600160040160009054906101000a900460ff16905090565b610ddf610f06565b610e1e576040517f08c379a0000000000000000000000000000000000000000000000000000000008152600401610e1590612171565b60405180910390fd5b600073ffffffffffffffffffffffffffffffffffffffff166000809054906101000a900473ffffffffffffffffffffffffffffffffffffffff1673ffffffffffffffffffffffffffffffffffffffff167f8be0079c531659141344cd1fd0a4f28419497f9722a3daafe3b4186f6b6457e060405160405180910390a360008060006101000a81548173ffffffffffffffffffffffffffffffffffffffff021916908373ffffffffffffffffffffffffffffffffffffffff160217905550565b60008060009054906101000a900473ffffffffffffffffffffffffffffffffffffffff16905090565b60008060009054906101000a900473ffffffffffffffffffffffffffffffffffffffff1673ffffffffffffffffffffffffffffffffffffffff16610f4861171c565b73ffffffffffffffffffffffffffffffffffffffff1614905090565b6000610f6e610f06565b610fad576040517f08c379a0000000000000000000000000000000000000000000000000000000008152600401610fa490612171565b60405180910390fd5b600160040160029054906101000a900460ff16905090565b6000610fcf610f06565b61100e576040517f08c379a000000000000000000000000000000000000000000000000000000000815260040161100590612171565b60405180910390fd5b81600160040160026101000a81548160ff02191690831515021790559050919050565b600c5481565b600b5481565b60008160011515600660008373ffffffffffffffffffffffffffffffffffffffff1673ffffffffffffffffffffffffffffffffffffffff16815260200190815260200160002060009054906101000a900460ff161515146110d3576040517f08c379a00000000000000000000000000000000000000000000000000000000081526004016110ca90612151565b60405180910390fd5b600660008473ffffffffffffffffffffffffffffffffffffffff1673ffffffffffffffffffffffffffffffffffffffff16815260200190815260200160002060009054906101000a900460ff16915050919050565b6000611132610f06565b611171576040517f08c379a000000000000000000000000000000000000000000000000000000000815260040161116890612171565b60405180910390fd5b611179610f06565b905090565b611186611909565b81600073ffffffffffffffffffffffffffffffffffffffff16600960008373ffffffffffffffffffffffffffffffffffffffff1673ffffffffffffffffffffffffffffffffffffffff16815260200190815260200160002060000160009054906101000a900473ffffffffffffffffffffffffffffffffffffffff1673ffffffffffffffffffffffffffffffffffffffff161415611259576040517f08c379a000000000000000000000000000000000000000000000000000000000815260040161125090612191565b60405180910390fd5b600960008473ffffffffffffffffffffffffffffffffffffffff1673ffffffffffffffffffffffffffffffffffffffff1681526020019081526020016000206040518060600160405290816000820160009054906101000a900473ffffffffffffffffffffffffffffffffffffffff1673ffffffffffffffffffffffffffffffffffffffff1673ffffffffffffffffffffffffffffffffffffffff168152602001600182018054600181600116156101000203166002900480601f0160208091040260200160405190810160405280929190818152602001828054600181600116156101000203166002900480156113925780601f1061136757610100808354040283529160200191611392565b820191906000526020600020905b81548152906001019060200180831161137557829003601f168201915b50505050508152602001600282015481525050915050919050565b600060606040518060400160405280600381526020017f436f6e0000000000000000000000000000000000000000000000000000000000815250905060606040518060400160405280600381526020017f4c61620000000000000000000000000000000000000000000000000000000000815250905060606040518060400160405280600381526020017f4c696200000000000000000000000000000000000000000000000000000000008152509050828051906020012085805190602001201480611486575081805190602001208580519060200120145b8061149e575080805190602001208580519060200120145b9350505050919050565b6114b0610f06565b6114ef576040517f08c379a00000000000000000000000000000000000000000000000000000000081526004016114e690612171565b60405180910390fd5b6114f881611724565b50565b60011515600160040160019054906101000a900460ff16151514611554576040517f08c379a000000000000000000000000000000000000000000000000000000000815260040161154b906120d1565b60405180910390fd5b8060011515611562826113ad565b1515146115a4576040517f08c379a000000000000000000000000000000000000000000000000000000000815260040161159b90612111565b60405180910390fd5b33600073ffffffffffffffffffffffffffffffffffffffff16600960008373ffffffffffffffffffffffffffffffffffffffff1673ffffffffffffffffffffffffffffffffffffffff16815260200190815260200160002060000160009054906101000a900473ffffffffffffffffffffffffffffffffffffffff1673ffffffffffffffffffffffffffffffffffffffff161415611677576040517f08c379a000000000000000000000000000000000000000000000000000000000815260040161166e90612191565b60405180910390fd5b606083905060088160405161168c9190611fe1565b90815260200160405180910390206000815480929190600101919050555050505050565b60006116ba610f06565b6116f9576040517f08c379a00000000000000000000000000000000000000000000000000000000081526004016116f090612171565b60405180910390fd5b81600160040160016101000a81548160ff02191690831515021790559050919050565b600033905090565b600073ffffffffffffffffffffffffffffffffffffffff168173ffffffffffffffffffffffffffffffffffffffff161415611794576040517f08c379a000000000000000000000000000000000000000000000000000000000815260040161178b906120f1565b60405180910390fd5b8073ffffffffffffffffffffffffffffffffffffffff166000809054906101000a900473ffffffffffffffffffffffffffffffffffffffff1673ffffffffffffffffffffffffffffffffffffffff167f8be0079c531659141344cd1fd0a4f28419497f9722a3daafe3b4186f6b6457e060405160405180910390a3806000806101000a81548173ffffffffffffffffffffffffffffffffffffffff021916908373ffffffffffffffffffffffffffffffffffffffff16021790555050565b6040518060600160405280600073ffffffffffffffffffffffffffffffffffffffff16815260200160608152602001606081525090565b828054600181600116156101000203166002900490600052602060002090601f016020900481019282601f106118ca57805160ff19168380011785556118f8565b828001600101855582156118f8579182015b828111156118f75782518255916020019190600101906118dc565b5b5090506119059190611940565b5090565b6040518060600160405280600073ffffffffffffffffffffffffffffffffffffffff16815260200160608152602001600081525090565b61196291905b8082111561195e576000816000905550600101611946565b5090565b90565b600081359050611974816123ff565b92915050565b60008135905061198981612416565b92915050565b600082601f8301126119a057600080fd5b81356119b36119ae826122ea565b6122bd565b915080825260208301602083018583830111156119cf57600080fd5b6119da8382846123ac565b50505092915050565b6000813590506119f28161242d565b92915050565b600060208284031215611a0a57600080fd5b6000611a1884828501611965565b91505092915050565b600080600060608486031215611a3657600080fd5b6000611a4486828701611965565b935050602084013567ffffffffffffffff811115611a6157600080fd5b611a6d8682870161198f565b925050604084013567ffffffffffffffff811115611a8a57600080fd5b611a968682870161198f565b9150509250925092565b600080600060608486031215611ab557600080fd5b6000611ac386828701611965565b935050602084013567ffffffffffffffff811115611ae057600080fd5b611aec8682870161198f565b9250506040611afd868287016119e3565b9150509250925092565b600060208284031215611b1957600080fd5b6000611b278482850161197a565b91505092915050565b600060208284031215611b4257600080fd5b600082013567ffffffffffffffff811115611b5c57600080fd5b611b688482850161198f565b91505092915050565b611b7a81612364565b82525050565b611b8981612364565b82525050565b611b9881612376565b82525050565b6000611ba982612316565b611bb38185612337565b9350611bc38185602086016123bb565b80840191505092915050565b6000611bda8261232c565b611be48185612353565b9350611bf48185602086016123bb565b611bfd816123ee565b840191505092915050565b6000611c1382612321565b611c1d8185612342565b9350611c2d8185602086016123bb565b611c36816123ee565b840191505092915050565b6000611c4e602283612353565b91507f566f74657273206d757374206265206f76657220313820746f2072656769737460008301527f65720000000000000000000000000000000000000000000000000000000000006020830152604082019050919050565b6000611cb4601783612353565b91507f566f74696e6720706572696f6420697320636c6f7365640000000000000000006000830152602082019050919050565b6000611cf4602683612353565b91507f4f776e61626c653a206e6577206f776e657220697320746865207a65726f206160008301527f64647265737300000000000000000000000000000000000000000000000000006020830152604082019050919050565b6000611d5a601283612353565b91507f496e76616c6964205061727479206e616d6500000000000000000000000000006000830152602082019050919050565b6000611d9a602683612353565b91507f566f7465722063616e20616c72656164792072656769737465726564206f6e6c60008301527f79206f6e636500000000000000000000000000000000000000000000000000006020830152604082019050919050565b6000611e00601483612353565b91507f43616e64696461746520697320696e76616c69640000000000000000000000006000830152602082019050919050565b6000611e40602083612353565b91507f4f776e61626c653a2063616c6c6572206973206e6f7420746865206f776e65726000830152602082019050919050565b6000611e80601d83612353565b91507f566f7465722069732072656769737465726564206f6e6c79206f6e63650000006000830152602082019050919050565b6000611ec0601d83612353565b91507f526567697374726174696f6e20706572696f6420697320636c6f7365640000006000830152602082019050919050565b6000611f00601283612353565b91507f43616e6469646174652069732076616c696400000000000000000000000000006000830152602082019050919050565b6000611f40601983612353565b91507f456c656374696f6e20706572696f6420697320636c6f736564000000000000006000830152602082019050919050565b6000606083016000830151611f8b6000860182611b71565b5060208301518482036020860152611fa38282611c08565b9150506040830151611fb86040860182611fc3565b508091505092915050565b611fcc816123a2565b82525050565b611fdb816123a2565b82525050565b6000611fed8284611b9e565b915081905092915050565b600060208201905061200d6000830184611b80565b92915050565b60006060820190506120286000830186611b80565b818103602083015261203a8185611bcf565b9050818103604083015261204e8184611bcf565b9050949350505050565b600060608201905061206d6000830186611b80565b818103602083015261207f8185611bcf565b905061208e6040830184611fd2565b949350505050565b60006020820190506120ab6000830184611b8f565b92915050565b600060208201905081810360008301526120ca81611c41565b9050919050565b600060208201905081810360008301526120ea81611ca7565b9050919050565b6000602082019050818103600083015261210a81611ce7565b9050919050565b6000602082019050818103600083015261212a81611d4d565b9050919050565b6000602082019050818103600083015261214a81611d8d565b9050919050565b6000602082019050818103600083015261216a81611df3565b9050919050565b6000602082019050818103600083015261218a81611e33565b9050919050565b600060208201905081810360008301526121aa81611e73565b9050919050565b600060208201905081810360008301526121ca81611eb3565b9050919050565b600060208201905081810360008301526121ea81611ef3565b9050919050565b6000602082019050818103600083015261220a81611f33565b9050919050565b6000602082019050818103600083015261222b8184611f73565b905092915050565b60006020820190506122486000830184611fd2565b92915050565b600060e082019050612263600083018a611fd2565b6122706020830189611fd2565b61227d6040830188611fd2565b61228a6060830187611fd2565b6122976080830186611b8f565b6122a460a0830185611b8f565b6122b160c0830184611b8f565b98975050505050505050565b6000604051905081810181811067ffffffffffffffff821117156122e057600080fd5b8060405250919050565b600067ffffffffffffffff82111561230157600080fd5b601f19601f8301169050602081019050919050565b600081519050919050565b600081519050919050565b600081519050919050565b600081905092915050565b600082825260208201905092915050565b600082825260208201905092915050565b600061236f82612382565b9050919050565b60008115159050919050565b600073ffffffffffffffffffffffffffffffffffffffff82169050919050565b6000819050919050565b82818337600083830152505050565b60005b838110156123d95780820151818401526020810190506123be565b838111156123e8576000848401525b50505050565b6000601f19601f8301169050919050565b61240881612364565b811461241357600080fd5b50565b61241f81612376565b811461242a57600080fd5b50565b612436816123a2565b811461244157600080fd5b5056fea365627a7a72315820f745b5ee2c1fca96b1214525eccd08ad3431a3a811f44abb89ca004b3a5431236c6578706572696d656e74616cf564736f6c634300050d0040",
  "source": "pragma solidity ^0.5.8;\npragma experimental ABIEncoderV2;\n\nimport \"../node_modules/openzeppelin-solidity/contracts/math/SafeMath.sol\";\nimport \"../node_modules/openzeppelin-solidity/contracts/ownership/Ownable.sol\";\n//import \"https://github.com/OpenZeppelin/openzeppelin-solidity/contracts/ownership/Ownable.sol\";\n\ncontract ElectionContract is Ownable {\n\n    using SafeMath for uint256;\n\n\n    struct Candidate {\n        address _address;\n        string name;\n        string party;\n    }\n\n    struct Voter {\n        address _address;\n        string name;\n        uint age;\n\n    }\n\n  struct Election {\n        uint256 electionTimeStamp;\n        uint256 registrationPeriod;\n        uint256 votingPeriod;\n        uint256 endTime;\n        bool openRegistrationPeriod;\n        bool openVotingPeriod;\n        bool openElectionPeriod;\n    }\n\n    Election public election;\n\n    mapping(address => bool) isCandidateValid;\n    mapping(address => bool) isVoterValid;\n\n    mapping(bytes => uint) votesReceived;\n\n    mapping(address => Voter) voters;\n    mapping(address => Candidate) candidates;\n\n\n    uint public numberOfCandidates;\n    uint public numberOfVoters;\n\n    //bytes32[] public parties;\n\n    constructor() public {\n\n\n      election = Election(now, 1 days, 2 days, 2 days, true, false, false);\n    }\n\n    // events\n\n    event LogNewCandidate(address _address, string _name, string _party);\n    event LogNewVoter(address _address, string _name, uint _age);\n    event LogVote(string _name);\n\n\n    // modifiers\n\n    modifier registrationPeriodIsOpen()  {\n        require(election.openRegistrationPeriod == true, \"Registration period is closed\");\n    _;\n    }\n\n    modifier votingPeriodIsOpen() {\n      require(election.openVotingPeriod == true, \"Voting period is closed\");\n      _;\n    }\n\n    modifier electionPeriodIsOpen() {\n      require(election.openElectionPeriod == true, \"Election period is closed\");\n      _;\n    }\n\n    modifier registeredCandidate(address _address) {\n      require(isCandidateValid[_address] == true, \"Candidate is invalid\");\n      _;\n    }\n\n    modifier unregisteredCandidate(address _address) {\n        require(isCandidateValid[_address] != true, \"Candidate is valid\");\n        _;\n    }\n\n    modifier unregisteredVoter(address _address) {\n        require(voters[_address]._address == address(0), \"Voter can already registered only once\");\n        _;\n    }\n\n    modifier registeredVoter(address _address) {\n        require(voters[_address]._address != address(0), \"Voter is registered only once\");\n        _;\n    }\n\n    modifier validParty(string memory _name){\n        require(validPartyStrings(_name) == true, \"Invalid Party name\");\n        _;\n    }\n\n\n\n\n    //  Registration Functions\n\n    function _registerCandidate(address _address, string memory _name, string memory _party) public\n      registrationPeriodIsOpen\n      electionPeriodIsOpen\n      unregisteredCandidate(_address)\n      onlyOwner {\n\n        Candidate memory candidate = Candidate({\n           _address:_address,\n           name: _name,\n           party:_party\n        });\n        emit LogNewCandidate(_address, _name, _party);\n        candidates[_address] = candidate;\n        isCandidateValid[_address] = true;\n        numberOfCandidates++;\n    }\n\n    function _registerVoter(address _address, string memory _name, uint _age) public\n      votingPeriodIsOpen\n      electionPeriodIsOpen\n      onlyOwner\n      unregisteredVoter(msg.sender) {\n\n        require(_age >= 18, \"Voters must be over 18 to register\");\n        Voter memory newVoter = Voter({\n            _address: msg.sender,\n            name: _name,\n            age:_age\n        });\n        emit LogNewVoter(_address, _name, _age);\n        voters[msg.sender] = newVoter;\n        isVoterValid[msg.sender] = true;\n        numberOfVoters++;\n    }\n\n    // Vote Functions\n\n    function vote(string memory _name) public\n    votingPeriodIsOpen\n    validParty(_name)\n    registeredVoter(msg.sender)\n    {\n\n      bytes memory name = bytes(_name);\n      votesReceived[name]++;\n      //emit LogVote(_name);\n\n    }\n\n\n    function getVoter(address _address) public view registeredVoter(_address) returns(Voter memory){\n        return(voters[_address]);\n    }\n\n\n    // Candidate Functions\n\n    function getCandidate(address _address) public view registeredCandidate(_address) returns(bool) {\n        return(isCandidateValid[_address]);\n    }\n\n    // Party Functions\n\n    function getPartyCount(string memory _name) public view\n      onlyOwner\n      validParty( _name)\n      returns (uint) {\n        bytes memory name = bytes(_name);\n        return votesReceived[name];\n    }\n\n\n\n    // Set Election Period Functions\n\n\n    function setElectionAccess(bool _access) public onlyOwner returns (bool) {\n              return election.openElectionPeriod = _access;\n    }\n\n    function setRegistrationAccess(bool _access) public onlyOwner returns (bool) {\n            return election.openRegistrationPeriod = _access;\n    }\n\n    function setVotingAccess(bool _access) public onlyOwner returns (bool) {\n            return election.openVotingPeriod = _access;\n    }\n\n\n    // Get Election Period Functions\n\n    function getRegistrationAccess() public view onlyOwner returns (bool) {\n            return election.openRegistrationPeriod;\n    }\n\n    function getVotingAccess() public view onlyOwner returns (bool) {\n            return election.openVotingPeriod;\n    }\n\n    function getElectionAccess() public view onlyOwner returns (bool) {\n            return election.openElectionPeriod;\n    }\n\n\n\n    // Helper Functions\n\n    function validPartyStrings(string memory _party) public pure returns (bool) {\n\n        bytes memory con = \"Con\";\n        bytes memory lab = \"Lab\";\n        bytes memory lib = \"Lib\";\n\n\n        return keccak256(bytes(_party)) == keccak256(bytes(con))  ||\n               keccak256(bytes(_party)) == keccak256(bytes(lab))  ||\n               keccak256(bytes(_party)) == keccak256(bytes(lib));\n\n    }\n\n    function kill() onlyOwner external {\n      selfdestruct(msg.sender);\n    }\n\n    // Assertion Test Functions\n\n    function contractOwner() public view onlyOwner returns(bool){\n        return isOwner();\n    }\n\n\n\n\n}\n",
  "sourcePath": "/Users/admin/github/votingSystem/contracts/ElectionContract.sol",
  "compiler": {
    "name": "solc",
    "version": "0.5.13+commit.5b0b510c.Emscripten.clang"
  },
  "schemaVersion": "3.0.2",
  "updatedAt": "2019-11-28T16:29:01.875Z",
  "devdoc": {
    "methods": {
      "isOwner()": {
        "details": "Returns true if the caller is the current owner."
      },
      "owner()": {
        "details": "Returns the address of the current owner."
      },
      "renounceOwnership()": {
        "details": "Leaves the contract without owner. It will not be possible to call `onlyOwner` functions anymore. Can only be called by the current owner.     * NOTE: Renouncing ownership will leave the contract without an owner, thereby removing any functionality that is only available to the owner."
      },
      "transferOwnership(address)": {
        "details": "Transfers ownership of the contract to a new account (`newOwner`). Can only be called by the current owner."
      }
    }
  },
  "userdoc": {
    "methods": {}
  }
}